{
	"data": {
		"bytecode": {
			"linkReferences": {},
			"object": "6080604052348015600e575f80fd5b506101218061001c5f395ff3fe6080604052348015600e575f80fd5b5060043610603a575f3560e01c8063262330b414603e5780639ff76d70146058578063c36631b4146072575b5f80fd5b6044607a565b604051604f919060d4565b60405180910390f35b605e6086565b6040516069919060d4565b60405180910390f35b60786092565b005b5f803390508091505090565b5f803090508091505090565b5f30905050565b5f73ffffffffffffffffffffffffffffffffffffffff82169050919050565b5f60c0826099565b9050919050565b60ce8160b8565b82525050565b5f60208201905060e55f83018460c7565b9291505056fea2646970667358221220eb2db39aa707261cbdcde771aef43d99c3b3847bd79689efe7264c37510b706964736f6c634300081a0033",
			"opcodes": "PUSH1 0x80 PUSH1 0x40 MSTORE CALLVALUE DUP1 ISZERO PUSH1 0xE JUMPI PUSH0 DUP1 REVERT JUMPDEST POP PUSH2 0x121 DUP1 PUSH2 0x1C PUSH0 CODECOPY PUSH0 RETURN INVALID PUSH1 0x80 PUSH1 0x40 MSTORE CALLVALUE DUP1 ISZERO PUSH1 0xE JUMPI PUSH0 DUP1 REVERT JUMPDEST POP PUSH1 0x4 CALLDATASIZE LT PUSH1 0x3A JUMPI PUSH0 CALLDATALOAD PUSH1 0xE0 SHR DUP1 PUSH4 0x262330B4 EQ PUSH1 0x3E JUMPI DUP1 PUSH4 0x9FF76D70 EQ PUSH1 0x58 JUMPI DUP1 PUSH4 0xC36631B4 EQ PUSH1 0x72 JUMPI JUMPDEST PUSH0 DUP1 REVERT JUMPDEST PUSH1 0x44 PUSH1 0x7A JUMP JUMPDEST PUSH1 0x40 MLOAD PUSH1 0x4F SWAP2 SWAP1 PUSH1 0xD4 JUMP JUMPDEST PUSH1 0x40 MLOAD DUP1 SWAP2 SUB SWAP1 RETURN JUMPDEST PUSH1 0x5E PUSH1 0x86 JUMP JUMPDEST PUSH1 0x40 MLOAD PUSH1 0x69 SWAP2 SWAP1 PUSH1 0xD4 JUMP JUMPDEST PUSH1 0x40 MLOAD DUP1 SWAP2 SUB SWAP1 RETURN JUMPDEST PUSH1 0x78 PUSH1 0x92 JUMP JUMPDEST STOP JUMPDEST PUSH0 DUP1 CALLER SWAP1 POP DUP1 SWAP2 POP POP SWAP1 JUMP JUMPDEST PUSH0 DUP1 ADDRESS SWAP1 POP DUP1 SWAP2 POP POP SWAP1 JUMP JUMPDEST PUSH0 ADDRESS SWAP1 POP POP JUMP JUMPDEST PUSH0 PUSH20 0xFFFFFFFFFFFFFFFFFFFFFFFFFFFFFFFFFFFFFFFF DUP3 AND SWAP1 POP SWAP2 SWAP1 POP JUMP JUMPDEST PUSH0 PUSH1 0xC0 DUP3 PUSH1 0x99 JUMP JUMPDEST SWAP1 POP SWAP2 SWAP1 POP JUMP JUMPDEST PUSH1 0xCE DUP2 PUSH1 0xB8 JUMP JUMPDEST DUP3 MSTORE POP POP JUMP JUMPDEST PUSH0 PUSH1 0x20 DUP3 ADD SWAP1 POP PUSH1 0xE5 PUSH0 DUP4 ADD DUP5 PUSH1 0xC7 JUMP JUMPDEST SWAP3 SWAP2 POP POP JUMP INVALID LOG2 PUSH5 0x6970667358 0x22 SLT KECCAK256 0xEB 0x2D 0xB3 SWAP11 0xA7 SMOD 0x26 SHR 0xBD 0xCD 0xE7 PUSH18 0xAEF43D99C3B3847BD79689EFE7264C37510B PUSH17 0x6964736F6C634300081A00330000000000 "
		},
		"gasEstimates": {
			"creation": {
				"codeDepositCost": "57800",
				"executionCost": "109",
				"totalCost": "57909"
			},
			"external": {
				"testAddress()": "370",
				"testContract()": "176",
				"testMyAddress()": "392"
			}
		},
		"methodIdentifiers": {
			"testAddress()": "262330b4",
			"testContract()": "c36631b4",
			"testMyAddress()": "9ff76d70"
		}
	},
	"abi": [
		{
			"inputs": [],
			"name": "testAddress",
			"outputs": [
				{
					"internalType": "address",
					"name": "",
					"type": "address"
				}
			],
			"stateMutability": "view",
			"type": "function"
		},
		{
			"inputs": [],
			"name": "testContract",
			"outputs": [],
			"stateMutability": "view",
			"type": "function"
		},
		{
			"inputs": [],
			"name": "testMyAddress",
			"outputs": [
				{
					"internalType": "address",
					"name": "",
					"type": "address"
				}
			],
			"stateMutability": "view",
			"type": "function"
		}
	]
}