{
	"chapter-01/ComplexValueType.sol": {
		"ComplexValueType": {
			"abi": [
				{
					"inputs": [],
					"name": "testAddress",
					"outputs": [
						{
							"internalType": "address",
							"name": "",
							"type": "address"
						}
					],
					"stateMutability": "view",
					"type": "function"
				},
				{
					"inputs": [],
					"name": "testContract",
					"outputs": [],
					"stateMutability": "view",
					"type": "function"
				},
				{
					"inputs": [],
					"name": "testMyAddress",
					"outputs": [
						{
							"internalType": "address",
							"name": "",
							"type": "address"
						}
					],
					"stateMutability": "view",
					"type": "function"
				}
			],
			"devdoc": {
				"kind": "dev",
				"methods": {},
				"version": 1
			},
			"evm": {
				"assembly": "    /* \"chapter-01/ComplexValueType.sol\":69:482  contract ComplexValueType {... */\n  mstore(0x40, 0x80)\n  callvalue\n  dup1\n  iszero\n  tag_1\n  jumpi\n  0x00\n  dup1\n  revert\ntag_1:\n  pop\n  dataSize(sub_0)\n  dup1\n  dataOffset(sub_0)\n  0x00\n  codecopy\n  0x00\n  return\nstop\n\nsub_0: assembly {\n        /* \"chapter-01/ComplexValueType.sol\":69:482  contract ComplexValueType {... */\n      mstore(0x40, 0x80)\n      callvalue\n      dup1\n      iszero\n      tag_1\n      jumpi\n      0x00\n      dup1\n      revert\n    tag_1:\n      pop\n      jumpi(tag_2, lt(calldatasize, 0x04))\n      shr(0xe0, calldataload(0x00))\n      dup1\n      0x262330b4\n      eq\n      tag_3\n      jumpi\n      dup1\n      0x9ff76d70\n      eq\n      tag_4\n      jumpi\n      dup1\n      0xc36631b4\n      eq\n      tag_5\n      jumpi\n    tag_2:\n      0x00\n      dup1\n      revert\n        /* \"chapter-01/ComplexValueType.sol\":106:221  function testAddress() public view returns(address) {... */\n    tag_3:\n      tag_6\n      tag_7\n      jump\t// in\n    tag_6:\n      mload(0x40)\n      tag_8\n      swap2\n      swap1\n      tag_9\n      jump\t// in\n    tag_8:\n      mload(0x40)\n      dup1\n      swap2\n      sub\n      swap1\n      return\n        /* \"chapter-01/ComplexValueType.sol\":227:357  function testMyAddress() public view returns(address) {... */\n    tag_4:\n      tag_10\n      tag_11\n      jump\t// in\n    tag_10:\n      mload(0x40)\n      tag_12\n      swap2\n      swap1\n      tag_9\n      jump\t// in\n    tag_12:\n      mload(0x40)\n      dup1\n      swap2\n      sub\n      swap1\n      return\n        /* \"chapter-01/ComplexValueType.sol\":384:473  function testContract() public view {... */\n    tag_5:\n      tag_13\n      tag_14\n      jump\t// in\n    tag_13:\n      stop\n        /* \"chapter-01/ComplexValueType.sol\":106:221  function testAddress() public view returns(address) {... */\n    tag_7:\n        /* \"chapter-01/ComplexValueType.sol\":149:156  address */\n      0x00\n        /* \"chapter-01/ComplexValueType.sol\":168:180  address addr */\n      dup1\n        /* \"chapter-01/ComplexValueType.sol\":183:193  msg.sender */\n      caller\n        /* \"chapter-01/ComplexValueType.sol\":168:193  address addr = msg.sender */\n      swap1\n      pop\n        /* \"chapter-01/ComplexValueType.sol\":210:214  addr */\n      dup1\n        /* \"chapter-01/ComplexValueType.sol\":203:214  return addr */\n      swap2\n      pop\n      pop\n        /* \"chapter-01/ComplexValueType.sol\":106:221  function testAddress() public view returns(address) {... */\n      swap1\n      jump\t// out\n        /* \"chapter-01/ComplexValueType.sol\":227:357  function testMyAddress() public view returns(address) {... */\n    tag_11:\n        /* \"chapter-01/ComplexValueType.sol\":272:279  address */\n      0x00\n        /* \"chapter-01/ComplexValueType.sol\":291:308  address this_addr */\n      dup1\n        /* \"chapter-01/ComplexValueType.sol\":319:323  this */\n      address\n        /* \"chapter-01/ComplexValueType.sol\":291:324  address this_addr = address(this) */\n      swap1\n      pop\n        /* \"chapter-01/ComplexValueType.sol\":341:350  this_addr */\n      dup1\n        /* \"chapter-01/ComplexValueType.sol\":334:350  return this_addr */\n      swap2\n      pop\n      pop\n        /* \"chapter-01/ComplexValueType.sol\":227:357  function testMyAddress() public view returns(address) {... */\n      swap1\n      jump\t// out\n        /* \"chapter-01/ComplexValueType.sol\":384:473  function testContract() public view {... */\n    tag_14:\n        /* \"chapter-01/ComplexValueType.sol\":430:450  ComplexValueType cvt */\n      0x00\n        /* \"chapter-01/ComplexValueType.sol\":453:457  this */\n      address\n        /* \"chapter-01/ComplexValueType.sol\":430:457  ComplexValueType cvt = this */\n      swap1\n      pop\n        /* \"chapter-01/ComplexValueType.sol\":420:473  {... */\n      pop\n        /* \"chapter-01/ComplexValueType.sol\":384:473  function testContract() public view {... */\n      jump\t// out\n        /* \"#utility.yul\":7:133   */\n    tag_18:\n        /* \"#utility.yul\":44:51   */\n      0x00\n        /* \"#utility.yul\":84:126   */\n      0xffffffffffffffffffffffffffffffffffffffff\n        /* \"#utility.yul\":77:82   */\n      dup3\n        /* \"#utility.yul\":73:127   */\n      and\n        /* \"#utility.yul\":62:127   */\n      swap1\n      pop\n        /* \"#utility.yul\":7:133   */\n      swap2\n      swap1\n      pop\n      jump\t// out\n        /* \"#utility.yul\":139:235   */\n    tag_19:\n        /* \"#utility.yul\":176:183   */\n      0x00\n        /* \"#utility.yul\":205:229   */\n      tag_24\n        /* \"#utility.yul\":223:228   */\n      dup3\n        /* \"#utility.yul\":205:229   */\n      tag_18\n      jump\t// in\n    tag_24:\n        /* \"#utility.yul\":194:229   */\n      swap1\n      pop\n        /* \"#utility.yul\":139:235   */\n      swap2\n      swap1\n      pop\n      jump\t// out\n        /* \"#utility.yul\":241:359   */\n    tag_20:\n        /* \"#utility.yul\":328:352   */\n      tag_26\n        /* \"#utility.yul\":346:351   */\n      dup2\n        /* \"#utility.yul\":328:352   */\n      tag_19\n      jump\t// in\n    tag_26:\n        /* \"#utility.yul\":323:326   */\n      dup3\n        /* \"#utility.yul\":316:353   */\n      mstore\n        /* \"#utility.yul\":241:359   */\n      pop\n      pop\n      jump\t// out\n        /* \"#utility.yul\":365:587   */\n    tag_9:\n        /* \"#utility.yul\":458:462   */\n      0x00\n        /* \"#utility.yul\":496:498   */\n      0x20\n        /* \"#utility.yul\":485:494   */\n      dup3\n        /* \"#utility.yul\":481:499   */\n      add\n        /* \"#utility.yul\":473:499   */\n      swap1\n      pop\n        /* \"#utility.yul\":509:580   */\n      tag_28\n        /* \"#utility.yul\":577:578   */\n      0x00\n        /* \"#utility.yul\":566:575   */\n      dup4\n        /* \"#utility.yul\":562:579   */\n      add\n        /* \"#utility.yul\":553:559   */\n      dup5\n        /* \"#utility.yul\":509:580   */\n      tag_20\n      jump\t// in\n    tag_28:\n        /* \"#utility.yul\":365:587   */\n      swap3\n      swap2\n      pop\n      pop\n      jump\t// out\n\n    auxdata: 0xa2646970667358221220eb2db39aa707261cbdcde771aef43d99c3b3847bd79689efe7264c37510b706964736f6c634300081a0033\n}\n",
				"bytecode": {
					"linkReferences": {},
					"object": "6080604052348015600e575f80fd5b506101218061001c5f395ff3fe6080604052348015600e575f80fd5b5060043610603a575f3560e01c8063262330b414603e5780639ff76d70146058578063c36631b4146072575b5f80fd5b6044607a565b604051604f919060d4565b60405180910390f35b605e6086565b6040516069919060d4565b60405180910390f35b60786092565b005b5f803390508091505090565b5f803090508091505090565b5f30905050565b5f73ffffffffffffffffffffffffffffffffffffffff82169050919050565b5f60c0826099565b9050919050565b60ce8160b8565b82525050565b5f60208201905060e55f83018460c7565b9291505056fea2646970667358221220eb2db39aa707261cbdcde771aef43d99c3b3847bd79689efe7264c37510b706964736f6c634300081a0033",
					"opcodes": "PUSH1 0x80 PUSH1 0x40 MSTORE CALLVALUE DUP1 ISZERO PUSH1 0xE JUMPI PUSH0 DUP1 REVERT JUMPDEST POP PUSH2 0x121 DUP1 PUSH2 0x1C PUSH0 CODECOPY PUSH0 RETURN INVALID PUSH1 0x80 PUSH1 0x40 MSTORE CALLVALUE DUP1 ISZERO PUSH1 0xE JUMPI PUSH0 DUP1 REVERT JUMPDEST POP PUSH1 0x4 CALLDATASIZE LT PUSH1 0x3A JUMPI PUSH0 CALLDATALOAD PUSH1 0xE0 SHR DUP1 PUSH4 0x262330B4 EQ PUSH1 0x3E JUMPI DUP1 PUSH4 0x9FF76D70 EQ PUSH1 0x58 JUMPI DUP1 PUSH4 0xC36631B4 EQ PUSH1 0x72 JUMPI JUMPDEST PUSH0 DUP1 REVERT JUMPDEST PUSH1 0x44 PUSH1 0x7A JUMP JUMPDEST PUSH1 0x40 MLOAD PUSH1 0x4F SWAP2 SWAP1 PUSH1 0xD4 JUMP JUMPDEST PUSH1 0x40 MLOAD DUP1 SWAP2 SUB SWAP1 RETURN JUMPDEST PUSH1 0x5E PUSH1 0x86 JUMP JUMPDEST PUSH1 0x40 MLOAD PUSH1 0x69 SWAP2 SWAP1 PUSH1 0xD4 JUMP JUMPDEST PUSH1 0x40 MLOAD DUP1 SWAP2 SUB SWAP1 RETURN JUMPDEST PUSH1 0x78 PUSH1 0x92 JUMP JUMPDEST STOP JUMPDEST PUSH0 DUP1 CALLER SWAP1 POP DUP1 SWAP2 POP POP SWAP1 JUMP JUMPDEST PUSH0 DUP1 ADDRESS SWAP1 POP DUP1 SWAP2 POP POP SWAP1 JUMP JUMPDEST PUSH0 ADDRESS SWAP1 POP POP JUMP JUMPDEST PUSH0 PUSH20 0xFFFFFFFFFFFFFFFFFFFFFFFFFFFFFFFFFFFFFFFF DUP3 AND SWAP1 POP SWAP2 SWAP1 POP JUMP JUMPDEST PUSH0 PUSH1 0xC0 DUP3 PUSH1 0x99 JUMP JUMPDEST SWAP1 POP SWAP2 SWAP1 POP JUMP JUMPDEST PUSH1 0xCE DUP2 PUSH1 0xB8 JUMP JUMPDEST DUP3 MSTORE POP POP JUMP JUMPDEST PUSH0 PUSH1 0x20 DUP3 ADD SWAP1 POP PUSH1 0xE5 PUSH0 DUP4 ADD DUP5 PUSH1 0xC7 JUMP JUMPDEST SWAP3 SWAP2 POP POP JUMP INVALID LOG2 PUSH5 0x6970667358 0x22 SLT KECCAK256 0xEB 0x2D 0xB3 SWAP11 0xA7 SMOD 0x26 SHR 0xBD 0xCD 0xE7 PUSH18 0xAEF43D99C3B3847BD79689EFE7264C37510B PUSH17 0x6964736F6C634300081A00330000000000 "
				},
				"gasEstimates": {
					"creation": {
						"codeDepositCost": "57800",
						"executionCost": "109",
						"totalCost": "57909"
					},
					"external": {
						"testAddress()": "370",
						"testContract()": "176",
						"testMyAddress()": "392"
					}
				},
				"methodIdentifiers": {
					"testAddress()": "262330b4",
					"testContract()": "c36631b4",
					"testMyAddress()": "9ff76d70"
				}
			},
			"storageLayout": {
				"storage": [],
				"types": null
			},
			"userdoc": {
				"kind": "user",
				"methods": {},
				"version": 1
			}
		}
	}
}