{
	"chapter-01/ArrayType.sol": {
		"ArrayType": {
			"abi": [
				{
					"inputs": [],
					"name": "p_pure",
					"outputs": [],
					"stateMutability": "pure",
					"type": "function"
				},
				{
					"inputs": [
						{
							"internalType": "uint8",
							"name": "size",
							"type": "uint8"
						}
					],
					"name": "testDynamicMemoryArray",
					"outputs": [
						{
							"internalType": "uint8[]",
							"name": "",
							"type": "uint8[]"
						}
					],
					"stateMutability": "pure",
					"type": "function"
				},
				{
					"inputs": [],
					"name": "testDynamicStorageArray",
					"outputs": [
						{
							"internalType": "uint8[]",
							"name": "",
							"type": "uint8[]"
						}
					],
					"stateMutability": "view",
					"type": "function"
				},
				{
					"inputs": [],
					"name": "testStatistcsArray",
					"outputs": [
						{
							"internalType": "uint8[3]",
							"name": "",
							"type": "uint8[3]"
						}
					],
					"stateMutability": "nonpayable",
					"type": "function"
				},
				{
					"inputs": [],
					"name": "testWriteDynamicStorageArray",
					"outputs": [],
					"stateMutability": "nonpayable",
					"type": "function"
				}
			],
			"devdoc": {
				"kind": "dev",
				"methods": {},
				"version": 1
			},
			"evm": {
				"assembly": "    /* \"chapter-01/ArrayType.sol\":70:725  contract ArrayType {... */\n  mstore(0x40, 0x80)\n  callvalue\n  dup1\n  iszero\n  tag_1\n  jumpi\n  0x00\n  dup1\n  revert\ntag_1:\n  pop\n  dataSize(sub_0)\n  dup1\n  dataOffset(sub_0)\n  0x00\n  codecopy\n  0x00\n  return\nstop\n\nsub_0: assembly {\n        /* \"chapter-01/ArrayType.sol\":70:725  contract ArrayType {... */\n      mstore(0x40, 0x80)\n      callvalue\n      dup1\n      iszero\n      tag_1\n      jumpi\n      0x00\n      dup1\n      revert\n    tag_1:\n      pop\n      jumpi(tag_2, lt(calldatasize, 0x04))\n      shr(0xe0, calldataload(0x00))\n      dup1\n      0x197a47a9\n      eq\n      tag_3\n      jumpi\n      dup1\n      0xbf986150\n      eq\n      tag_4\n      jumpi\n      dup1\n      0xbfd58dad\n      eq\n      tag_5\n      jumpi\n      dup1\n      0xcb72a0a9\n      eq\n      tag_6\n      jumpi\n      dup1\n      0xd12e9c9c\n      eq\n      tag_7\n      jumpi\n    tag_2:\n      0x00\n      dup1\n      revert\n        /* \"chapter-01/ArrayType.sol\":522:568  function p_pure() public pure {... */\n    tag_3:\n      tag_8\n      tag_9\n      jump\t// in\n    tag_8:\n      stop\n        /* \"chapter-01/ArrayType.sol\":286:386  function testDynamicStorageArray() public view returns(uint8[] memory) {... */\n    tag_4:\n      tag_10\n      tag_11\n      jump\t// in\n    tag_10:\n      mload(0x40)\n      tag_12\n      swap2\n      swap1\n      tag_13\n      jump\t// in\n    tag_12:\n      mload(0x40)\n      dup1\n      swap2\n      sub\n      swap1\n      return\n        /* \"chapter-01/ArrayType.sol\":574:721  function testDynamicMemoryArray(uint8 size) public pure returns (uint8[] memory) {... */\n    tag_5:\n      tag_14\n      0x04\n      dup1\n      calldatasize\n      sub\n      dup2\n      add\n      swap1\n      tag_15\n      swap2\n      swap1\n      tag_16\n      jump\t// in\n    tag_15:\n      tag_17\n      jump\t// in\n    tag_14:\n      mload(0x40)\n      tag_18\n      swap2\n      swap1\n      tag_13\n      jump\t// in\n    tag_18:\n      mload(0x40)\n      dup1\n      swap2\n      sub\n      swap1\n      return\n        /* \"chapter-01/ArrayType.sol\":136:280  function testStatistcsArray() public returns(uint8[3] memory) {... */\n    tag_6:\n      tag_19\n      tag_20\n      jump\t// in\n    tag_19:\n      mload(0x40)\n      tag_21\n      swap2\n      swap1\n      tag_22\n      jump\t// in\n    tag_21:\n      mload(0x40)\n      dup1\n      swap2\n      sub\n      swap1\n      return\n        /* \"chapter-01/ArrayType.sol\":392:516  function testWriteDynamicStorageArray() public  {... */\n    tag_7:\n      tag_23\n      tag_24\n      jump\t// in\n    tag_23:\n      stop\n        /* \"chapter-01/ArrayType.sol\":522:568  function p_pure() public pure {... */\n    tag_9:\n      jump\t// out\n        /* \"chapter-01/ArrayType.sol\":286:386  function testDynamicStorageArray() public view returns(uint8[] memory) {... */\n    tag_11:\n        /* \"chapter-01/ArrayType.sol\":341:355  uint8[] memory */\n      0x60\n        /* \"chapter-01/ArrayType.sol\":374:379  ddata */\n      0x01\n        /* \"chapter-01/ArrayType.sol\":367:379  return ddata */\n      dup1\n      sload\n      dup1\n      0x20\n      mul\n      0x20\n      add\n      mload(0x40)\n      swap1\n      dup2\n      add\n      0x40\n      mstore\n      dup1\n      swap3\n      swap2\n      swap1\n      dup2\n      dup2\n      mstore\n      0x20\n      add\n      dup3\n      dup1\n      sload\n      dup1\n      iszero\n      tag_27\n      jumpi\n      0x20\n      mul\n      dup3\n      add\n      swap2\n      swap1\n      0x00\n      mstore\n      keccak256(0x00, 0x20)\n      swap1\n      0x00\n      swap1\n    tag_28:\n      dup3\n      dup3\n      swap1\n      sload\n      swap1\n      0x0100\n      exp\n      swap1\n      div\n      0xff\n      and\n      0xff\n      and\n      dup2\n      mstore\n      0x20\n      add\n      swap1\n      0x01\n      add\n      swap1\n      0x20\n      dup3\n      0x00\n      add\n      div\n      swap3\n      dup4\n      add\n      swap3\n      0x01\n      sub\n      dup3\n      mul\n      swap2\n      pop\n      dup1\n      dup5\n      gt\n      tag_28\n      jumpi\n      swap1\n      pop\n    tag_27:\n      pop\n      pop\n      pop\n      pop\n      pop\n      swap1\n      pop\n        /* \"chapter-01/ArrayType.sol\":286:386  function testDynamicStorageArray() public view returns(uint8[] memory) {... */\n      swap1\n      jump\t// out\n        /* \"chapter-01/ArrayType.sol\":574:721  function testDynamicMemoryArray(uint8 size) public pure returns (uint8[] memory) {... */\n    tag_17:\n        /* \"chapter-01/ArrayType.sol\":639:653  uint8[] memory */\n      0x60\n        /* \"chapter-01/ArrayType.sol\":665:685  uint8[] memory mdata */\n      0x00\n        /* \"chapter-01/ArrayType.sol\":700:704  size */\n      dup3\n        /* \"chapter-01/ArrayType.sol\":688:705  new uint8[](size) */\n      0xff\n      and\n      0xffffffffffffffff\n      dup2\n      gt\n      iszero\n      tag_30\n      jumpi\n      tag_31\n      tag_32\n      jump\t// in\n    tag_31:\n    tag_30:\n      mload(0x40)\n      swap1\n      dup1\n      dup3\n      mstore\n      dup1\n      0x20\n      mul\n      0x20\n      add\n      dup3\n      add\n      0x40\n      mstore\n      dup1\n      iszero\n      tag_33\n      jumpi\n      dup2\n      0x20\n      add\n      0x20\n      dup3\n      mul\n      dup1\n      calldatasize\n      dup4\n      calldatacopy\n      dup1\n      dup3\n      add\n      swap2\n      pop\n      pop\n      swap1\n      pop\n    tag_33:\n      pop\n        /* \"chapter-01/ArrayType.sol\":665:705  uint8[] memory mdata = new uint8[](size) */\n      swap1\n      pop\n        /* \"chapter-01/ArrayType.sol\":655:721  {... */\n      pop\n        /* \"chapter-01/ArrayType.sol\":574:721  function testDynamicMemoryArray(uint8 size) public pure returns (uint8[] memory) {... */\n      swap2\n      swap1\n      pop\n      jump\t// out\n        /* \"chapter-01/ArrayType.sol\":136:280  function testStatistcsArray() public returns(uint8[3] memory) {... */\n    tag_20:\n        /* \"chapter-01/ArrayType.sol\":181:196  uint8[3] memory */\n      tag_34\n      tag_35\n      jump\t// in\n    tag_34:\n        /* \"chapter-01/ArrayType.sol\":250:252  25 */\n      0x19\n        /* \"chapter-01/ArrayType.sol\":240:244  data */\n      0x00\n        /* \"chapter-01/ArrayType.sol\":245:246  0 */\n      dup1\n        /* \"chapter-01/ArrayType.sol\":240:247  data[0] */\n      0x03\n      dup2\n      lt\n      tag_37\n      jumpi\n      tag_38\n      tag_39\n      jump\t// in\n    tag_38:\n    tag_37:\n      0x20\n      swap2\n      dup3\n      dup3\n      div\n      add\n      swap2\n      swap1\n      mod\n        /* \"chapter-01/ArrayType.sol\":240:252  data[0] = 25 */\n      0x0100\n      exp\n      dup2\n      sload\n      dup2\n      0xff\n      mul\n      not\n      and\n      swap1\n      dup4\n      0xff\n      and\n      mul\n      or\n      swap1\n      sstore\n      pop\n        /* \"chapter-01/ArrayType.sol\":269:273  data */\n      0x00\n        /* \"chapter-01/ArrayType.sol\":262:273  return data */\n      0x03\n      dup1\n      0x20\n      mul\n      mload(0x40)\n      swap1\n      dup2\n      add\n      0x40\n      mstore\n      dup1\n      swap3\n      swap2\n      swap1\n      dup3\n      0x03\n      dup1\n      iszero\n      tag_41\n      jumpi\n      0x20\n      mul\n      dup3\n      add\n      swap2\n      0x00\n      swap1\n    tag_42:\n      dup3\n      dup3\n      swap1\n      sload\n      swap1\n      0x0100\n      exp\n      swap1\n      div\n      0xff\n      and\n      0xff\n      and\n      dup2\n      mstore\n      0x20\n      add\n      swap1\n      0x01\n      add\n      swap1\n      0x20\n      dup3\n      0x00\n      add\n      div\n      swap3\n      dup4\n      add\n      swap3\n      0x01\n      sub\n      dup3\n      mul\n      swap2\n      pop\n      dup1\n      dup5\n      gt\n      tag_42\n      jumpi\n      swap1\n      pop\n    tag_41:\n      pop\n      pop\n      pop\n      pop\n      pop\n      swap1\n      pop\n        /* \"chapter-01/ArrayType.sol\":136:280  function testStatistcsArray() public returns(uint8[3] memory) {... */\n      swap1\n      jump\t// out\n        /* \"chapter-01/ArrayType.sol\":392:516  function testWriteDynamicStorageArray() public  {... */\n    tag_24:\n        /* \"chapter-01/ArrayType.sol\":450:455  ddata */\n      0x01\n        /* \"chapter-01/ArrayType.sol\":461:463  12 */\n      0x0c\n        /* \"chapter-01/ArrayType.sol\":450:464  ddata.push(12) */\n      swap1\n      dup1\n      0x01\n      dup2\n      sload\n      add\n      dup1\n      dup3\n      sstore\n      dup1\n      swap2\n      pop\n      pop\n      0x01\n      swap1\n      sub\n      swap1\n      0x00\n      mstore\n      keccak256(0x00, 0x20)\n      swap1\n      0x20\n      swap2\n      dup3\n      dup3\n      div\n      add\n      swap2\n      swap1\n      mod\n      swap1\n      swap2\n      swap1\n      swap2\n      swap1\n      swap2\n      0x0100\n      exp\n      dup2\n      sload\n      dup2\n      0xff\n      mul\n      not\n      and\n      swap1\n      dup4\n      0xff\n      and\n      mul\n      or\n      swap1\n      sstore\n      pop\n        /* \"chapter-01/ArrayType.sol\":474:479  ddata */\n      0x01\n        /* \"chapter-01/ArrayType.sol\":474:485  ddata.pop() */\n      dup1\n      sload\n      dup1\n      tag_45\n      jumpi\n      tag_46\n      tag_47\n      jump\t// in\n    tag_46:\n    tag_45:\n      0x01\n      swap1\n      sub\n      dup2\n      dup2\n      swap1\n      0x00\n      mstore\n      keccak256(0x00, 0x20)\n      swap1\n      0x20\n      swap2\n      dup3\n      dup3\n      div\n      add\n      swap2\n      swap1\n      mod\n      0x0100\n      exp\n      dup2\n      sload\n      swap1\n      0xff\n      mul\n      not\n      and\n      swap1\n      sstore\n      swap1\n      sstore\n        /* \"chapter-01/ArrayType.sol\":495:500  ddata */\n      0x01\n        /* \"chapter-01/ArrayType.sol\":506:508  90 */\n      0x5a\n        /* \"chapter-01/ArrayType.sol\":495:509  ddata.push(90) */\n      swap1\n      dup1\n      0x01\n      dup2\n      sload\n      add\n      dup1\n      dup3\n      sstore\n      dup1\n      swap2\n      pop\n      pop\n      0x01\n      swap1\n      sub\n      swap1\n      0x00\n      mstore\n      keccak256(0x00, 0x20)\n      swap1\n      0x20\n      swap2\n      dup3\n      dup3\n      div\n      add\n      swap2\n      swap1\n      mod\n      swap1\n      swap2\n      swap1\n      swap2\n      swap1\n      swap2\n      0x0100\n      exp\n      dup2\n      sload\n      dup2\n      0xff\n      mul\n      not\n      and\n      swap1\n      dup4\n      0xff\n      and\n      mul\n      or\n      swap1\n      sstore\n      pop\n        /* \"chapter-01/ArrayType.sol\":392:516  function testWriteDynamicStorageArray() public  {... */\n      jump\t// out\n    tag_35:\n      mload(0x40)\n      dup1\n      0x60\n      add\n      0x40\n      mstore\n      dup1\n      0x03\n      swap1\n      0x20\n      dup3\n      mul\n      dup1\n      calldatasize\n      dup4\n      calldatacopy\n      dup1\n      dup3\n      add\n      swap2\n      pop\n      pop\n      swap1\n      pop\n      pop\n      swap1\n      jump\t// out\n        /* \"#utility.yul\":7:119   */\n    tag_50:\n        /* \"#utility.yul\":72:78   */\n      0x00\n        /* \"#utility.yul\":106:111   */\n      dup2\n        /* \"#utility.yul\":100:112   */\n      mload\n        /* \"#utility.yul\":90:112   */\n      swap1\n      pop\n        /* \"#utility.yul\":7:119   */\n      swap2\n      swap1\n      pop\n      jump\t// out\n        /* \"#utility.yul\":125:307   */\n    tag_51:\n        /* \"#utility.yul\":222:233   */\n      0x00\n        /* \"#utility.yul\":256:262   */\n      dup3\n        /* \"#utility.yul\":251:254   */\n      dup3\n        /* \"#utility.yul\":244:263   */\n      mstore\n        /* \"#utility.yul\":296:300   */\n      0x20\n        /* \"#utility.yul\":291:294   */\n      dup3\n        /* \"#utility.yul\":287:301   */\n      add\n        /* \"#utility.yul\":272:301   */\n      swap1\n      pop\n        /* \"#utility.yul\":125:307   */\n      swap3\n      swap2\n      pop\n      pop\n      jump\t// out\n        /* \"#utility.yul\":313:443   */\n    tag_52:\n        /* \"#utility.yul\":378:382   */\n      0x00\n        /* \"#utility.yul\":401:404   */\n      dup2\n        /* \"#utility.yul\":393:404   */\n      swap1\n      pop\n        /* \"#utility.yul\":431:435   */\n      0x20\n        /* \"#utility.yul\":426:429   */\n      dup3\n        /* \"#utility.yul\":422:436   */\n      add\n        /* \"#utility.yul\":414:436   */\n      swap1\n      pop\n        /* \"#utility.yul\":313:443   */\n      swap2\n      swap1\n      pop\n      jump\t// out\n        /* \"#utility.yul\":449:535   */\n    tag_53:\n        /* \"#utility.yul\":484:491   */\n      0x00\n        /* \"#utility.yul\":524:528   */\n      0xff\n        /* \"#utility.yul\":517:522   */\n      dup3\n        /* \"#utility.yul\":513:529   */\n      and\n        /* \"#utility.yul\":502:529   */\n      swap1\n      pop\n        /* \"#utility.yul\":449:535   */\n      swap2\n      swap1\n      pop\n      jump\t// out\n        /* \"#utility.yul\":541:643   */\n    tag_54:\n        /* \"#utility.yul\":614:636   */\n      tag_74\n        /* \"#utility.yul\":630:635   */\n      dup2\n        /* \"#utility.yul\":614:636   */\n      tag_53\n      jump\t// in\n    tag_74:\n        /* \"#utility.yul\":609:612   */\n      dup3\n        /* \"#utility.yul\":602:637   */\n      mstore\n        /* \"#utility.yul\":541:643   */\n      pop\n      pop\n      jump\t// out\n        /* \"#utility.yul\":649:820   */\n    tag_55:\n        /* \"#utility.yul\":714:724   */\n      0x00\n        /* \"#utility.yul\":735:777   */\n      tag_76\n        /* \"#utility.yul\":773:776   */\n      dup4\n        /* \"#utility.yul\":765:771   */\n      dup4\n        /* \"#utility.yul\":735:777   */\n      tag_54\n      jump\t// in\n    tag_76:\n        /* \"#utility.yul\":809:813   */\n      0x20\n        /* \"#utility.yul\":804:807   */\n      dup4\n        /* \"#utility.yul\":800:814   */\n      add\n        /* \"#utility.yul\":786:814   */\n      swap1\n      pop\n        /* \"#utility.yul\":649:820   */\n      swap3\n      swap2\n      pop\n      pop\n      jump\t// out\n        /* \"#utility.yul\":826:937   */\n    tag_56:\n        /* \"#utility.yul\":894:898   */\n      0x00\n        /* \"#utility.yul\":926:930   */\n      0x20\n        /* \"#utility.yul\":921:924   */\n      dup3\n        /* \"#utility.yul\":917:931   */\n      add\n        /* \"#utility.yul\":909:931   */\n      swap1\n      pop\n        /* \"#utility.yul\":826:937   */\n      swap2\n      swap1\n      pop\n      jump\t// out\n        /* \"#utility.yul\":969:1685   */\n    tag_57:\n        /* \"#utility.yul\":1084:1087   */\n      0x00\n        /* \"#utility.yul\":1113:1165   */\n      tag_79\n        /* \"#utility.yul\":1159:1164   */\n      dup3\n        /* \"#utility.yul\":1113:1165   */\n      tag_50\n      jump\t// in\n    tag_79:\n        /* \"#utility.yul\":1181:1265   */\n      tag_80\n        /* \"#utility.yul\":1258:1264   */\n      dup2\n        /* \"#utility.yul\":1253:1256   */\n      dup6\n        /* \"#utility.yul\":1181:1265   */\n      tag_51\n      jump\t// in\n    tag_80:\n        /* \"#utility.yul\":1174:1265   */\n      swap4\n      pop\n        /* \"#utility.yul\":1289:1343   */\n      tag_81\n        /* \"#utility.yul\":1337:1342   */\n      dup4\n        /* \"#utility.yul\":1289:1343   */\n      tag_52\n      jump\t// in\n    tag_81:\n        /* \"#utility.yul\":1366:1373   */\n      dup1\n        /* \"#utility.yul\":1397:1398   */\n      0x00\n        /* \"#utility.yul\":1382:1660   */\n    tag_82:\n        /* \"#utility.yul\":1407:1413   */\n      dup4\n        /* \"#utility.yul\":1404:1405   */\n      dup2\n        /* \"#utility.yul\":1401:1414   */\n      lt\n        /* \"#utility.yul\":1382:1660   */\n      iszero\n      tag_84\n      jumpi\n        /* \"#utility.yul\":1483:1489   */\n      dup2\n        /* \"#utility.yul\":1477:1490   */\n      mload\n        /* \"#utility.yul\":1510:1569   */\n      tag_85\n        /* \"#utility.yul\":1565:1568   */\n      dup9\n        /* \"#utility.yul\":1550:1563   */\n      dup3\n        /* \"#utility.yul\":1510:1569   */\n      tag_55\n      jump\t// in\n    tag_85:\n        /* \"#utility.yul\":1503:1569   */\n      swap8\n      pop\n        /* \"#utility.yul\":1592:1650   */\n      tag_86\n        /* \"#utility.yul\":1643:1649   */\n      dup4\n        /* \"#utility.yul\":1592:1650   */\n      tag_56\n      jump\t// in\n    tag_86:\n        /* \"#utility.yul\":1582:1650   */\n      swap3\n      pop\n        /* \"#utility.yul\":1442:1660   */\n      pop\n        /* \"#utility.yul\":1429:1430   */\n      0x01\n        /* \"#utility.yul\":1426:1427   */\n      dup2\n        /* \"#utility.yul\":1422:1431   */\n      add\n        /* \"#utility.yul\":1417:1431   */\n      swap1\n      pop\n        /* \"#utility.yul\":1382:1660   */\n      jump(tag_82)\n    tag_84:\n        /* \"#utility.yul\":1386:1400   */\n      pop\n        /* \"#utility.yul\":1676:1679   */\n      dup6\n        /* \"#utility.yul\":1669:1679   */\n      swap4\n      pop\n        /* \"#utility.yul\":1089:1685   */\n      pop\n      pop\n      pop\n        /* \"#utility.yul\":969:1685   */\n      swap3\n      swap2\n      pop\n      pop\n      jump\t// out\n        /* \"#utility.yul\":1691:2056   */\n    tag_13:\n        /* \"#utility.yul\":1830:1834   */\n      0x00\n        /* \"#utility.yul\":1868:1870   */\n      0x20\n        /* \"#utility.yul\":1857:1866   */\n      dup3\n        /* \"#utility.yul\":1853:1871   */\n      add\n        /* \"#utility.yul\":1845:1871   */\n      swap1\n      pop\n        /* \"#utility.yul\":1917:1926   */\n      dup2\n        /* \"#utility.yul\":1911:1915   */\n      dup2\n        /* \"#utility.yul\":1907:1927   */\n      sub\n        /* \"#utility.yul\":1903:1904   */\n      0x00\n        /* \"#utility.yul\":1892:1901   */\n      dup4\n        /* \"#utility.yul\":1888:1905   */\n      add\n        /* \"#utility.yul\":1881:1928   */\n      mstore\n        /* \"#utility.yul\":1945:2049   */\n      tag_88\n        /* \"#utility.yul\":2044:2048   */\n      dup2\n        /* \"#utility.yul\":2035:2041   */\n      dup5\n        /* \"#utility.yul\":1945:2049   */\n      tag_57\n      jump\t// in\n    tag_88:\n        /* \"#utility.yul\":1937:2049   */\n      swap1\n      pop\n        /* \"#utility.yul\":1691:2056   */\n      swap3\n      swap2\n      pop\n      pop\n      jump\t// out\n        /* \"#utility.yul\":2143:2260   */\n    tag_59:\n        /* \"#utility.yul\":2252:2253   */\n      0x00\n        /* \"#utility.yul\":2249:2250   */\n      dup1\n        /* \"#utility.yul\":2242:2254   */\n      revert\n        /* \"#utility.yul\":2389:2507   */\n    tag_61:\n        /* \"#utility.yul\":2460:2482   */\n      tag_93\n        /* \"#utility.yul\":2476:2481   */\n      dup2\n        /* \"#utility.yul\":2460:2482   */\n      tag_53\n      jump\t// in\n    tag_93:\n        /* \"#utility.yul\":2453:2458   */\n      dup2\n        /* \"#utility.yul\":2450:2483   */\n      eq\n        /* \"#utility.yul\":2440:2501   */\n      tag_94\n      jumpi\n        /* \"#utility.yul\":2497:2498   */\n      0x00\n        /* \"#utility.yul\":2494:2495   */\n      dup1\n        /* \"#utility.yul\":2487:2499   */\n      revert\n        /* \"#utility.yul\":2440:2501   */\n    tag_94:\n        /* \"#utility.yul\":2389:2507   */\n      pop\n      jump\t// out\n        /* \"#utility.yul\":2513:2648   */\n    tag_62:\n        /* \"#utility.yul\":2557:2562   */\n      0x00\n        /* \"#utility.yul\":2595:2601   */\n      dup2\n        /* \"#utility.yul\":2582:2602   */\n      calldataload\n        /* \"#utility.yul\":2573:2602   */\n      swap1\n      pop\n        /* \"#utility.yul\":2611:2642   */\n      tag_96\n        /* \"#utility.yul\":2636:2641   */\n      dup2\n        /* \"#utility.yul\":2611:2642   */\n      tag_61\n      jump\t// in\n    tag_96:\n        /* \"#utility.yul\":2513:2648   */\n      swap3\n      swap2\n      pop\n      pop\n      jump\t// out\n        /* \"#utility.yul\":2654:2979   */\n    tag_16:\n        /* \"#utility.yul\":2711:2717   */\n      0x00\n        /* \"#utility.yul\":2760:2762   */\n      0x20\n        /* \"#utility.yul\":2748:2757   */\n      dup3\n        /* \"#utility.yul\":2739:2746   */\n      dup5\n        /* \"#utility.yul\":2735:2758   */\n      sub\n        /* \"#utility.yul\":2731:2763   */\n      slt\n        /* \"#utility.yul\":2728:2847   */\n      iszero\n      tag_98\n      jumpi\n        /* \"#utility.yul\":2766:2845   */\n      tag_99\n      tag_59\n      jump\t// in\n    tag_99:\n        /* \"#utility.yul\":2728:2847   */\n    tag_98:\n        /* \"#utility.yul\":2886:2887   */\n      0x00\n        /* \"#utility.yul\":2911:2962   */\n      tag_100\n        /* \"#utility.yul\":2954:2961   */\n      dup5\n        /* \"#utility.yul\":2945:2951   */\n      dup3\n        /* \"#utility.yul\":2934:2943   */\n      dup6\n        /* \"#utility.yul\":2930:2952   */\n      add\n        /* \"#utility.yul\":2911:2962   */\n      tag_62\n      jump\t// in\n    tag_100:\n        /* \"#utility.yul\":2901:2962   */\n      swap2\n      pop\n        /* \"#utility.yul\":2857:2972   */\n      pop\n        /* \"#utility.yul\":2654:2979   */\n      swap3\n      swap2\n      pop\n      pop\n      jump\t// out\n        /* \"#utility.yul\":2985:3087   */\n    tag_63:\n        /* \"#utility.yul\":3048:3054   */\n      0x00\n        /* \"#utility.yul\":3076:3080   */\n      0x03\n        /* \"#utility.yul\":3066:3080   */\n      swap1\n      pop\n        /* \"#utility.yul\":2985:3087   */\n      swap2\n      swap1\n      pop\n      jump\t// out\n        /* \"#utility.yul\":3093:3234   */\n    tag_64:\n        /* \"#utility.yul\":3188:3199   */\n      0x00\n        /* \"#utility.yul\":3225:3228   */\n      dup2\n        /* \"#utility.yul\":3210:3228   */\n      swap1\n      pop\n        /* \"#utility.yul\":3093:3234   */\n      swap3\n      swap2\n      pop\n      pop\n      jump\t// out\n        /* \"#utility.yul\":3240:3336   */\n    tag_65:\n        /* \"#utility.yul\":3303:3307   */\n      0x00\n        /* \"#utility.yul\":3326:3329   */\n      dup2\n        /* \"#utility.yul\":3318:3329   */\n      swap1\n      pop\n        /* \"#utility.yul\":3240:3336   */\n      swap2\n      swap1\n      pop\n      jump\t// out\n        /* \"#utility.yul\":3342:3451   */\n    tag_66:\n        /* \"#utility.yul\":3408:3412   */\n      0x00\n        /* \"#utility.yul\":3440:3444   */\n      0x20\n        /* \"#utility.yul\":3435:3438   */\n      dup3\n        /* \"#utility.yul\":3431:3445   */\n      add\n        /* \"#utility.yul\":3423:3445   */\n      swap1\n      pop\n        /* \"#utility.yul\":3342:3451   */\n      swap2\n      swap1\n      pop\n      jump\t// out\n        /* \"#utility.yul\":3485:4163   */\n    tag_67:\n        /* \"#utility.yul\":3617:3667   */\n      tag_106\n        /* \"#utility.yul\":3661:3666   */\n      dup2\n        /* \"#utility.yul\":3617:3667   */\n      tag_63\n      jump\t// in\n    tag_106:\n        /* \"#utility.yul\":3683:3765   */\n      tag_107\n        /* \"#utility.yul\":3758:3764   */\n      dup2\n        /* \"#utility.yul\":3753:3756   */\n      dup5\n        /* \"#utility.yul\":3683:3765   */\n      tag_64\n      jump\t// in\n    tag_107:\n        /* \"#utility.yul\":3676:3765   */\n      swap3\n      pop\n        /* \"#utility.yul\":3789:3841   */\n      tag_108\n        /* \"#utility.yul\":3835:3840   */\n      dup3\n        /* \"#utility.yul\":3789:3841   */\n      tag_65\n      jump\t// in\n    tag_108:\n        /* \"#utility.yul\":3864:3871   */\n      dup1\n        /* \"#utility.yul\":3895:3896   */\n      0x00\n        /* \"#utility.yul\":3880:4156   */\n    tag_109:\n        /* \"#utility.yul\":3905:3911   */\n      dup4\n        /* \"#utility.yul\":3902:3903   */\n      dup2\n        /* \"#utility.yul\":3899:3912   */\n      lt\n        /* \"#utility.yul\":3880:4156   */\n      iszero\n      tag_111\n      jumpi\n        /* \"#utility.yul\":3981:3987   */\n      dup2\n        /* \"#utility.yul\":3975:3988   */\n      mload\n        /* \"#utility.yul\":4008:4067   */\n      tag_112\n        /* \"#utility.yul\":4063:4066   */\n      dup8\n        /* \"#utility.yul\":4048:4061   */\n      dup3\n        /* \"#utility.yul\":4008:4067   */\n      tag_55\n      jump\t// in\n    tag_112:\n        /* \"#utility.yul\":4001:4067   */\n      swap7\n      pop\n        /* \"#utility.yul\":4090:4146   */\n      tag_113\n        /* \"#utility.yul\":4139:4145   */\n      dup4\n        /* \"#utility.yul\":4090:4146   */\n      tag_66\n      jump\t// in\n    tag_113:\n        /* \"#utility.yul\":4080:4146   */\n      swap3\n      pop\n        /* \"#utility.yul\":3940:4156   */\n      pop\n        /* \"#utility.yul\":3927:3928   */\n      0x01\n        /* \"#utility.yul\":3924:3925   */\n      dup2\n        /* \"#utility.yul\":3920:3929   */\n      add\n        /* \"#utility.yul\":3915:3929   */\n      swap1\n      pop\n        /* \"#utility.yul\":3880:4156   */\n      jump(tag_109)\n    tag_111:\n        /* \"#utility.yul\":3884:3898   */\n      pop\n        /* \"#utility.yul\":3593:4163   */\n      pop\n      pop\n      pop\n        /* \"#utility.yul\":3485:4163   */\n      pop\n      pop\n      jump\t// out\n        /* \"#utility.yul\":4169:4475   */\n    tag_22:\n        /* \"#utility.yul\":4304:4308   */\n      0x00\n        /* \"#utility.yul\":4342:4344   */\n      0x60\n        /* \"#utility.yul\":4331:4340   */\n      dup3\n        /* \"#utility.yul\":4327:4345   */\n      add\n        /* \"#utility.yul\":4319:4345   */\n      swap1\n      pop\n        /* \"#utility.yul\":4355:4468   */\n      tag_115\n        /* \"#utility.yul\":4465:4466   */\n      0x00\n        /* \"#utility.yul\":4454:4463   */\n      dup4\n        /* \"#utility.yul\":4450:4467   */\n      add\n        /* \"#utility.yul\":4441:4447   */\n      dup5\n        /* \"#utility.yul\":4355:4468   */\n      tag_67\n      jump\t// in\n    tag_115:\n        /* \"#utility.yul\":4169:4475   */\n      swap3\n      swap2\n      pop\n      pop\n      jump\t// out\n        /* \"#utility.yul\":4481:4661   */\n    tag_32:\n        /* \"#utility.yul\":4529:4606   */\n      0x4e487b7100000000000000000000000000000000000000000000000000000000\n        /* \"#utility.yul\":4526:4527   */\n      0x00\n        /* \"#utility.yul\":4519:4607   */\n      mstore\n        /* \"#utility.yul\":4626:4630   */\n      0x41\n        /* \"#utility.yul\":4623:4624   */\n      0x04\n        /* \"#utility.yul\":4616:4631   */\n      mstore\n        /* \"#utility.yul\":4650:4654   */\n      0x24\n        /* \"#utility.yul\":4647:4648   */\n      0x00\n        /* \"#utility.yul\":4640:4655   */\n      revert\n        /* \"#utility.yul\":4667:4847   */\n    tag_39:\n        /* \"#utility.yul\":4715:4792   */\n      0x4e487b7100000000000000000000000000000000000000000000000000000000\n        /* \"#utility.yul\":4712:4713   */\n      0x00\n        /* \"#utility.yul\":4705:4793   */\n      mstore\n        /* \"#utility.yul\":4812:4816   */\n      0x32\n        /* \"#utility.yul\":4809:4810   */\n      0x04\n        /* \"#utility.yul\":4802:4817   */\n      mstore\n        /* \"#utility.yul\":4836:4840   */\n      0x24\n        /* \"#utility.yul\":4833:4834   */\n      0x00\n        /* \"#utility.yul\":4826:4841   */\n      revert\n        /* \"#utility.yul\":4853:5033   */\n    tag_47:\n        /* \"#utility.yul\":4901:4978   */\n      0x4e487b7100000000000000000000000000000000000000000000000000000000\n        /* \"#utility.yul\":4898:4899   */\n      0x00\n        /* \"#utility.yul\":4891:4979   */\n      mstore\n        /* \"#utility.yul\":4998:5002   */\n      0x31\n        /* \"#utility.yul\":4995:4996   */\n      0x04\n        /* \"#utility.yul\":4988:5003   */\n      mstore\n        /* \"#utility.yul\":5022:5026   */\n      0x24\n        /* \"#utility.yul\":5019:5020   */\n      0x00\n        /* \"#utility.yul\":5012:5027   */\n      revert\n\n    auxdata: 0xa2646970667358221220366b8bdd5f027acb9328bcd1080de4cdfffc36343c575390d1fdb155308e36dd64736f6c634300081a0033\n}\n",
				"bytecode": {
					"linkReferences": {},
					"object": "6080604052348015600e575f80fd5b506105c68061001c5f395ff3fe608060405234801561000f575f80fd5b5060043610610055575f3560e01c8063197a47a914610059578063bf98615014610063578063bfd58dad14610081578063cb72a0a9146100b1578063d12e9c9c146100cf575b5f80fd5b6100616100d9565b005b61006b6100db565b60405161007891906103f8565b60405180910390f35b61009b60048036038101906100969190610446565b610155565b6040516100a891906103f8565b60405180910390f35b6100b96101ac565b6040516100c691906104f0565b60405180910390f35b6100d761024f565b005b565b6060600180548060200260200160405190810160405280929190818152602001828054801561014b57602002820191905f5260205f20905f905b82829054906101000a900460ff1660ff16815260200190600101906020825f010492830192600103820291508084116101155790505b5050505050905090565b60605f8260ff1667ffffffffffffffff81111561017557610174610509565b5b6040519080825280602002602001820160405280156101a35781602001602082028036833780820191505090505b50905050919050565b6101b4610313565b60195f80600381106101c9576101c8610536565b5b602091828204019190066101000a81548160ff021916908360ff1602179055505f600380602002604051908101604052809291908260038015610245576020028201915f905b82829054906101000a900460ff1660ff16815260200190600101906020825f0104928301926001038202915080841161020f5790505b5050505050905090565b6001600c908060018154018082558091505060019003905f5260205f2090602091828204019190069091909190916101000a81548160ff021916908360ff16021790555060018054806102a5576102a4610563565b5b600190038181905f5260205f2090602091828204019190066101000a81549060ff021916905590556001605a908060018154018082558091505060019003905f5260205f2090602091828204019190069091909190916101000a81548160ff021916908360ff160217905550565b6040518060600160405280600390602082028036833780820191505090505090565b5f81519050919050565b5f82825260208201905092915050565b5f819050602082019050919050565b5f60ff82169050919050565b6103738161035e565b82525050565b5f610384838361036a565b60208301905092915050565b5f602082019050919050565b5f6103a682610335565b6103b0818561033f565b93506103bb8361034f565b805f5b838110156103eb5781516103d28882610379565b97506103dd83610390565b9250506001810190506103be565b5085935050505092915050565b5f6020820190508181035f830152610410818461039c565b905092915050565b5f80fd5b6104258161035e565b811461042f575f80fd5b50565b5f813590506104408161041c565b92915050565b5f6020828403121561045b5761045a610418565b5b5f61046884828501610432565b91505092915050565b5f60039050919050565b5f81905092915050565b5f819050919050565b5f602082019050919050565b6104a381610471565b6104ad818461047b565b92506104b882610485565b805f5b838110156104e85781516104cf8782610379565b96506104da8361048e565b9250506001810190506104bb565b505050505050565b5f6060820190506105035f83018461049a565b92915050565b7f4e487b71000000000000000000000000000000000000000000000000000000005f52604160045260245ffd5b7f4e487b71000000000000000000000000000000000000000000000000000000005f52603260045260245ffd5b7f4e487b71000000000000000000000000000000000000000000000000000000005f52603160045260245ffdfea2646970667358221220366b8bdd5f027acb9328bcd1080de4cdfffc36343c575390d1fdb155308e36dd64736f6c634300081a0033",
					"opcodes": "PUSH1 0x80 PUSH1 0x40 MSTORE CALLVALUE DUP1 ISZERO PUSH1 0xE JUMPI PUSH0 DUP1 REVERT JUMPDEST POP PUSH2 0x5C6 DUP1 PUSH2 0x1C PUSH0 CODECOPY PUSH0 RETURN INVALID PUSH1 0x80 PUSH1 0x40 MSTORE CALLVALUE DUP1 ISZERO PUSH2 0xF JUMPI PUSH0 DUP1 REVERT JUMPDEST POP PUSH1 0x4 CALLDATASIZE LT PUSH2 0x55 JUMPI PUSH0 CALLDATALOAD PUSH1 0xE0 SHR DUP1 PUSH4 0x197A47A9 EQ PUSH2 0x59 JUMPI DUP1 PUSH4 0xBF986150 EQ PUSH2 0x63 JUMPI DUP1 PUSH4 0xBFD58DAD EQ PUSH2 0x81 JUMPI DUP1 PUSH4 0xCB72A0A9 EQ PUSH2 0xB1 JUMPI DUP1 PUSH4 0xD12E9C9C EQ PUSH2 0xCF JUMPI JUMPDEST PUSH0 DUP1 REVERT JUMPDEST PUSH2 0x61 PUSH2 0xD9 JUMP JUMPDEST STOP JUMPDEST PUSH2 0x6B PUSH2 0xDB JUMP JUMPDEST PUSH1 0x40 MLOAD PUSH2 0x78 SWAP2 SWAP1 PUSH2 0x3F8 JUMP JUMPDEST PUSH1 0x40 MLOAD DUP1 SWAP2 SUB SWAP1 RETURN JUMPDEST PUSH2 0x9B PUSH1 0x4 DUP1 CALLDATASIZE SUB DUP2 ADD SWAP1 PUSH2 0x96 SWAP2 SWAP1 PUSH2 0x446 JUMP JUMPDEST PUSH2 0x155 JUMP JUMPDEST PUSH1 0x40 MLOAD PUSH2 0xA8 SWAP2 SWAP1 PUSH2 0x3F8 JUMP JUMPDEST PUSH1 0x40 MLOAD DUP1 SWAP2 SUB SWAP1 RETURN JUMPDEST PUSH2 0xB9 PUSH2 0x1AC JUMP JUMPDEST PUSH1 0x40 MLOAD PUSH2 0xC6 SWAP2 SWAP1 PUSH2 0x4F0 JUMP JUMPDEST PUSH1 0x40 MLOAD DUP1 SWAP2 SUB SWAP1 RETURN JUMPDEST PUSH2 0xD7 PUSH2 0x24F JUMP JUMPDEST STOP JUMPDEST JUMP JUMPDEST PUSH1 0x60 PUSH1 0x1 DUP1 SLOAD DUP1 PUSH1 0x20 MUL PUSH1 0x20 ADD PUSH1 0x40 MLOAD SWAP1 DUP2 ADD PUSH1 0x40 MSTORE DUP1 SWAP3 SWAP2 SWAP1 DUP2 DUP2 MSTORE PUSH1 0x20 ADD DUP3 DUP1 SLOAD DUP1 ISZERO PUSH2 0x14B JUMPI PUSH1 0x20 MUL DUP3 ADD SWAP2 SWAP1 PUSH0 MSTORE PUSH1 0x20 PUSH0 KECCAK256 SWAP1 PUSH0 SWAP1 JUMPDEST DUP3 DUP3 SWAP1 SLOAD SWAP1 PUSH2 0x100 EXP SWAP1 DIV PUSH1 0xFF AND PUSH1 0xFF AND DUP2 MSTORE PUSH1 0x20 ADD SWAP1 PUSH1 0x1 ADD SWAP1 PUSH1 0x20 DUP3 PUSH0 ADD DIV SWAP3 DUP4 ADD SWAP3 PUSH1 0x1 SUB DUP3 MUL SWAP2 POP DUP1 DUP5 GT PUSH2 0x115 JUMPI SWAP1 POP JUMPDEST POP POP POP POP POP SWAP1 POP SWAP1 JUMP JUMPDEST PUSH1 0x60 PUSH0 DUP3 PUSH1 0xFF AND PUSH8 0xFFFFFFFFFFFFFFFF DUP2 GT ISZERO PUSH2 0x175 JUMPI PUSH2 0x174 PUSH2 0x509 JUMP JUMPDEST JUMPDEST PUSH1 0x40 MLOAD SWAP1 DUP1 DUP3 MSTORE DUP1 PUSH1 0x20 MUL PUSH1 0x20 ADD DUP3 ADD PUSH1 0x40 MSTORE DUP1 ISZERO PUSH2 0x1A3 JUMPI DUP2 PUSH1 0x20 ADD PUSH1 0x20 DUP3 MUL DUP1 CALLDATASIZE DUP4 CALLDATACOPY DUP1 DUP3 ADD SWAP2 POP POP SWAP1 POP JUMPDEST POP SWAP1 POP POP SWAP2 SWAP1 POP JUMP JUMPDEST PUSH2 0x1B4 PUSH2 0x313 JUMP JUMPDEST PUSH1 0x19 PUSH0 DUP1 PUSH1 0x3 DUP2 LT PUSH2 0x1C9 JUMPI PUSH2 0x1C8 PUSH2 0x536 JUMP JUMPDEST JUMPDEST PUSH1 0x20 SWAP2 DUP3 DUP3 DIV ADD SWAP2 SWAP1 MOD PUSH2 0x100 EXP DUP2 SLOAD DUP2 PUSH1 0xFF MUL NOT AND SWAP1 DUP4 PUSH1 0xFF AND MUL OR SWAP1 SSTORE POP PUSH0 PUSH1 0x3 DUP1 PUSH1 0x20 MUL PUSH1 0x40 MLOAD SWAP1 DUP2 ADD PUSH1 0x40 MSTORE DUP1 SWAP3 SWAP2 SWAP1 DUP3 PUSH1 0x3 DUP1 ISZERO PUSH2 0x245 JUMPI PUSH1 0x20 MUL DUP3 ADD SWAP2 PUSH0 SWAP1 JUMPDEST DUP3 DUP3 SWAP1 SLOAD SWAP1 PUSH2 0x100 EXP SWAP1 DIV PUSH1 0xFF AND PUSH1 0xFF AND DUP2 MSTORE PUSH1 0x20 ADD SWAP1 PUSH1 0x1 ADD SWAP1 PUSH1 0x20 DUP3 PUSH0 ADD DIV SWAP3 DUP4 ADD SWAP3 PUSH1 0x1 SUB DUP3 MUL SWAP2 POP DUP1 DUP5 GT PUSH2 0x20F JUMPI SWAP1 POP JUMPDEST POP POP POP POP POP SWAP1 POP SWAP1 JUMP JUMPDEST PUSH1 0x1 PUSH1 0xC SWAP1 DUP1 PUSH1 0x1 DUP2 SLOAD ADD DUP1 DUP3 SSTORE DUP1 SWAP2 POP POP PUSH1 0x1 SWAP1 SUB SWAP1 PUSH0 MSTORE PUSH1 0x20 PUSH0 KECCAK256 SWAP1 PUSH1 0x20 SWAP2 DUP3 DUP3 DIV ADD SWAP2 SWAP1 MOD SWAP1 SWAP2 SWAP1 SWAP2 SWAP1 SWAP2 PUSH2 0x100 EXP DUP2 SLOAD DUP2 PUSH1 0xFF MUL NOT AND SWAP1 DUP4 PUSH1 0xFF AND MUL OR SWAP1 SSTORE POP PUSH1 0x1 DUP1 SLOAD DUP1 PUSH2 0x2A5 JUMPI PUSH2 0x2A4 PUSH2 0x563 JUMP JUMPDEST JUMPDEST PUSH1 0x1 SWAP1 SUB DUP2 DUP2 SWAP1 PUSH0 MSTORE PUSH1 0x20 PUSH0 KECCAK256 SWAP1 PUSH1 0x20 SWAP2 DUP3 DUP3 DIV ADD SWAP2 SWAP1 MOD PUSH2 0x100 EXP DUP2 SLOAD SWAP1 PUSH1 0xFF MUL NOT AND SWAP1 SSTORE SWAP1 SSTORE PUSH1 0x1 PUSH1 0x5A SWAP1 DUP1 PUSH1 0x1 DUP2 SLOAD ADD DUP1 DUP3 SSTORE DUP1 SWAP2 POP POP PUSH1 0x1 SWAP1 SUB SWAP1 PUSH0 MSTORE PUSH1 0x20 PUSH0 KECCAK256 SWAP1 PUSH1 0x20 SWAP2 DUP3 DUP3 DIV ADD SWAP2 SWAP1 MOD SWAP1 SWAP2 SWAP1 SWAP2 SWAP1 SWAP2 PUSH2 0x100 EXP DUP2 SLOAD DUP2 PUSH1 0xFF MUL NOT AND SWAP1 DUP4 PUSH1 0xFF AND MUL OR SWAP1 SSTORE POP JUMP JUMPDEST PUSH1 0x40 MLOAD DUP1 PUSH1 0x60 ADD PUSH1 0x40 MSTORE DUP1 PUSH1 0x3 SWAP1 PUSH1 0x20 DUP3 MUL DUP1 CALLDATASIZE DUP4 CALLDATACOPY DUP1 DUP3 ADD SWAP2 POP POP SWAP1 POP POP SWAP1 JUMP JUMPDEST PUSH0 DUP2 MLOAD SWAP1 POP SWAP2 SWAP1 POP JUMP JUMPDEST PUSH0 DUP3 DUP3 MSTORE PUSH1 0x20 DUP3 ADD SWAP1 POP SWAP3 SWAP2 POP POP JUMP JUMPDEST PUSH0 DUP2 SWAP1 POP PUSH1 0x20 DUP3 ADD SWAP1 POP SWAP2 SWAP1 POP JUMP JUMPDEST PUSH0 PUSH1 0xFF DUP3 AND SWAP1 POP SWAP2 SWAP1 POP JUMP JUMPDEST PUSH2 0x373 DUP2 PUSH2 0x35E JUMP JUMPDEST DUP3 MSTORE POP POP JUMP JUMPDEST PUSH0 PUSH2 0x384 DUP4 DUP4 PUSH2 0x36A JUMP JUMPDEST PUSH1 0x20 DUP4 ADD SWAP1 POP SWAP3 SWAP2 POP POP JUMP JUMPDEST PUSH0 PUSH1 0x20 DUP3 ADD SWAP1 POP SWAP2 SWAP1 POP JUMP JUMPDEST PUSH0 PUSH2 0x3A6 DUP3 PUSH2 0x335 JUMP JUMPDEST PUSH2 0x3B0 DUP2 DUP6 PUSH2 0x33F JUMP JUMPDEST SWAP4 POP PUSH2 0x3BB DUP4 PUSH2 0x34F JUMP JUMPDEST DUP1 PUSH0 JUMPDEST DUP4 DUP2 LT ISZERO PUSH2 0x3EB JUMPI DUP2 MLOAD PUSH2 0x3D2 DUP9 DUP3 PUSH2 0x379 JUMP JUMPDEST SWAP8 POP PUSH2 0x3DD DUP4 PUSH2 0x390 JUMP JUMPDEST SWAP3 POP POP PUSH1 0x1 DUP2 ADD SWAP1 POP PUSH2 0x3BE JUMP JUMPDEST POP DUP6 SWAP4 POP POP POP POP SWAP3 SWAP2 POP POP JUMP JUMPDEST PUSH0 PUSH1 0x20 DUP3 ADD SWAP1 POP DUP2 DUP2 SUB PUSH0 DUP4 ADD MSTORE PUSH2 0x410 DUP2 DUP5 PUSH2 0x39C JUMP JUMPDEST SWAP1 POP SWAP3 SWAP2 POP POP JUMP JUMPDEST PUSH0 DUP1 REVERT JUMPDEST PUSH2 0x425 DUP2 PUSH2 0x35E JUMP JUMPDEST DUP2 EQ PUSH2 0x42F JUMPI PUSH0 DUP1 REVERT JUMPDEST POP JUMP JUMPDEST PUSH0 DUP2 CALLDATALOAD SWAP1 POP PUSH2 0x440 DUP2 PUSH2 0x41C JUMP JUMPDEST SWAP3 SWAP2 POP POP JUMP JUMPDEST PUSH0 PUSH1 0x20 DUP3 DUP5 SUB SLT ISZERO PUSH2 0x45B JUMPI PUSH2 0x45A PUSH2 0x418 JUMP JUMPDEST JUMPDEST PUSH0 PUSH2 0x468 DUP5 DUP3 DUP6 ADD PUSH2 0x432 JUMP JUMPDEST SWAP2 POP POP SWAP3 SWAP2 POP POP JUMP JUMPDEST PUSH0 PUSH1 0x3 SWAP1 POP SWAP2 SWAP1 POP JUMP JUMPDEST PUSH0 DUP2 SWAP1 POP SWAP3 SWAP2 POP POP JUMP JUMPDEST PUSH0 DUP2 SWAP1 POP SWAP2 SWAP1 POP JUMP JUMPDEST PUSH0 PUSH1 0x20 DUP3 ADD SWAP1 POP SWAP2 SWAP1 POP JUMP JUMPDEST PUSH2 0x4A3 DUP2 PUSH2 0x471 JUMP JUMPDEST PUSH2 0x4AD DUP2 DUP5 PUSH2 0x47B JUMP JUMPDEST SWAP3 POP PUSH2 0x4B8 DUP3 PUSH2 0x485 JUMP JUMPDEST DUP1 PUSH0 JUMPDEST DUP4 DUP2 LT ISZERO PUSH2 0x4E8 JUMPI DUP2 MLOAD PUSH2 0x4CF DUP8 DUP3 PUSH2 0x379 JUMP JUMPDEST SWAP7 POP PUSH2 0x4DA DUP4 PUSH2 0x48E JUMP JUMPDEST SWAP3 POP POP PUSH1 0x1 DUP2 ADD SWAP1 POP PUSH2 0x4BB JUMP JUMPDEST POP POP POP POP POP POP JUMP JUMPDEST PUSH0 PUSH1 0x60 DUP3 ADD SWAP1 POP PUSH2 0x503 PUSH0 DUP4 ADD DUP5 PUSH2 0x49A JUMP JUMPDEST SWAP3 SWAP2 POP POP JUMP JUMPDEST PUSH32 0x4E487B7100000000000000000000000000000000000000000000000000000000 PUSH0 MSTORE PUSH1 0x41 PUSH1 0x4 MSTORE PUSH1 0x24 PUSH0 REVERT JUMPDEST PUSH32 0x4E487B7100000000000000000000000000000000000000000000000000000000 PUSH0 MSTORE PUSH1 0x32 PUSH1 0x4 MSTORE PUSH1 0x24 PUSH0 REVERT JUMPDEST PUSH32 0x4E487B7100000000000000000000000000000000000000000000000000000000 PUSH0 MSTORE PUSH1 0x31 PUSH1 0x4 MSTORE PUSH1 0x24 PUSH0 REVERT INVALID LOG2 PUSH5 0x6970667358 0x22 SLT KECCAK256 CALLDATASIZE PUSH12 0x8BDD5F027ACB9328BCD1080D 0xE4 0xCD SELFDESTRUCT 0xFC CALLDATASIZE CALLVALUE EXTCODECOPY JUMPI MSTORE8 SWAP1 0xD1 REVERT 0xB1 SSTORE ADDRESS DUP15 CALLDATASIZE 0xDD PUSH5 0x736F6C6343 STOP ADDMOD BYTE STOP CALLER "
				},
				"gasEstimates": {
					"creation": {
						"codeDepositCost": "295600",
						"executionCost": "335",
						"totalCost": "295935"
					},
					"external": {
						"p_pure()": "121",
						"testDynamicMemoryArray(uint8)": "infinite",
						"testDynamicStorageArray()": "infinite",
						"testStatistcsArray()": "infinite",
						"testWriteDynamicStorageArray()": "150779"
					}
				},
				"methodIdentifiers": {
					"p_pure()": "197a47a9",
					"testDynamicMemoryArray(uint8)": "bfd58dad",
					"testDynamicStorageArray()": "bf986150",
					"testStatistcsArray()": "cb72a0a9",
					"testWriteDynamicStorageArray()": "d12e9c9c"
				}
			},
			"storageLayout": {
				"storage": [
					{
						"astId": 5,
						"contract": "chapter-01/ArrayType.sol:ArrayType",
						"label": "data",
						"offset": 0,
						"slot": "0",
						"type": "t_array(t_uint8)3_storage"
					},
					{
						"astId": 8,
						"contract": "chapter-01/ArrayType.sol:ArrayType",
						"label": "ddata",
						"offset": 0,
						"slot": "1",
						"type": "t_array(t_uint8)dyn_storage"
					}
				],
				"types": {
					"t_array(t_uint8)3_storage": {
						"base": "t_uint8",
						"encoding": "inplace",
						"label": "uint8[3]",
						"numberOfBytes": "32"
					},
					"t_array(t_uint8)dyn_storage": {
						"base": "t_uint8",
						"encoding": "dynamic_array",
						"label": "uint8[]",
						"numberOfBytes": "32"
					},
					"t_uint8": {
						"encoding": "inplace",
						"label": "uint8",
						"numberOfBytes": "1"
					}
				}
			},
			"userdoc": {
				"kind": "user",
				"methods": {},
				"version": 1
			}
		}
	}
}