{
	"chapter-01/ConstructStructure.sol": {
		"ConstructStructure": {
			"abi": [
				{
					"inputs": [
						{
							"internalType": "uint256",
							"name": "_bal",
							"type": "uint256"
						}
					],
					"stateMutability": "nonpayable",
					"type": "constructor"
				},
				{
					"anonymous": false,
					"inputs": [
						{
							"indexed": false,
							"internalType": "uint256",
							"name": "oldValue",
							"type": "uint256"
						},
						{
							"indexed": false,
							"internalType": "uint256",
							"name": "incre",
							"type": "uint256"
						}
					],
					"name": "BalanceAdded",
					"type": "event"
				},
				{
					"inputs": [
						{
							"internalType": "uint256",
							"name": "_incre",
							"type": "uint256"
						}
					],
					"name": "addBalance",
					"outputs": [],
					"stateMutability": "nonpayable",
					"type": "function"
				},
				{
					"inputs": [],
					"name": "balance",
					"outputs": [
						{
							"internalType": "uint256",
							"name": "",
							"type": "uint256"
						}
					],
					"stateMutability": "view",
					"type": "function"
				},
				{
					"inputs": [
						{
							"internalType": "uint32",
							"name": "x",
							"type": "uint32"
						},
						{
							"internalType": "uint32",
							"name": "y",
							"type": "uint32"
						}
					],
					"name": "pure_add",
					"outputs": [
						{
							"internalType": "uint32",
							"name": "",
							"type": "uint32"
						}
					],
					"stateMutability": "pure",
					"type": "function"
				}
			],
			"devdoc": {
				"kind": "dev",
				"methods": {},
				"version": 1
			},
			"evm": {
				"assembly": "    /* \"chapter-01/ConstructStructure.sol\":67:837  contract ConstructStructure {... */\n  mstore(0x40, 0x80)\n    /* \"chapter-01/ConstructStructure.sol\":195:252  constructor(uint256 _bal) {... */\n  callvalue\n  dup1\n  iszero\n  tag_1\n  jumpi\n  0x00\n  dup1\n  revert\ntag_1:\n  pop\n  mload(0x40)\n  sub(codesize, bytecodeSize)\n  dup1\n  bytecodeSize\n  dup4\n  codecopy\n  dup2\n  dup2\n  add\n  0x40\n  mstore\n  dup2\n  add\n  swap1\n  tag_2\n  swap2\n  swap1\n  tag_3\n  jump\t// in\ntag_2:\n    /* \"chapter-01/ConstructStructure.sol\":241:245  _bal */\n  dup1\n    /* \"chapter-01/ConstructStructure.sol\":231:238  balance */\n  0x00\n    /* \"chapter-01/ConstructStructure.sol\":231:245  balance = _bal */\n  dup2\n  swap1\n  sstore\n  pop\n    /* \"chapter-01/ConstructStructure.sol\":195:252  constructor(uint256 _bal) {... */\n  pop\n    /* \"chapter-01/ConstructStructure.sol\":67:837  contract ConstructStructure {... */\n  jump(tag_6)\n    /* \"#utility.yul\":88:205   */\ntag_8:\n    /* \"#utility.yul\":197:198   */\n  0x00\n    /* \"#utility.yul\":194:195   */\n  dup1\n    /* \"#utility.yul\":187:199   */\n  revert\n    /* \"#utility.yul\":334:411   */\ntag_10:\n    /* \"#utility.yul\":371:378   */\n  0x00\n    /* \"#utility.yul\":400:405   */\n  dup2\n    /* \"#utility.yul\":389:405   */\n  swap1\n  pop\n    /* \"#utility.yul\":334:411   */\n  swap2\n  swap1\n  pop\n  jump\t// out\n    /* \"#utility.yul\":417:539   */\ntag_11:\n    /* \"#utility.yul\":490:514   */\n  tag_19\n    /* \"#utility.yul\":508:513   */\n  dup2\n    /* \"#utility.yul\":490:514   */\n  tag_10\n  jump\t// in\ntag_19:\n    /* \"#utility.yul\":483:488   */\n  dup2\n    /* \"#utility.yul\":480:515   */\n  eq\n    /* \"#utility.yul\":470:533   */\n  tag_20\n  jumpi\n    /* \"#utility.yul\":529:530   */\n  0x00\n    /* \"#utility.yul\":526:527   */\n  dup1\n    /* \"#utility.yul\":519:531   */\n  revert\n    /* \"#utility.yul\":470:533   */\ntag_20:\n    /* \"#utility.yul\":417:539   */\n  pop\n  jump\t// out\n    /* \"#utility.yul\":545:688   */\ntag_12:\n    /* \"#utility.yul\":602:607   */\n  0x00\n    /* \"#utility.yul\":633:639   */\n  dup2\n    /* \"#utility.yul\":627:640   */\n  mload\n    /* \"#utility.yul\":618:640   */\n  swap1\n  pop\n    /* \"#utility.yul\":649:682   */\n  tag_22\n    /* \"#utility.yul\":676:681   */\n  dup2\n    /* \"#utility.yul\":649:682   */\n  tag_11\n  jump\t// in\ntag_22:\n    /* \"#utility.yul\":545:688   */\n  swap3\n  swap2\n  pop\n  pop\n  jump\t// out\n    /* \"#utility.yul\":694:1045   */\ntag_3:\n    /* \"#utility.yul\":764:770   */\n  0x00\n    /* \"#utility.yul\":813:815   */\n  0x20\n    /* \"#utility.yul\":801:810   */\n  dup3\n    /* \"#utility.yul\":792:799   */\n  dup5\n    /* \"#utility.yul\":788:811   */\n  sub\n    /* \"#utility.yul\":784:816   */\n  slt\n    /* \"#utility.yul\":781:900   */\n  iszero\n  tag_24\n  jumpi\n    /* \"#utility.yul\":819:898   */\n  tag_25\n  tag_8\n  jump\t// in\ntag_25:\n    /* \"#utility.yul\":781:900   */\ntag_24:\n    /* \"#utility.yul\":939:940   */\n  0x00\n    /* \"#utility.yul\":964:1028   */\n  tag_26\n    /* \"#utility.yul\":1020:1027   */\n  dup5\n    /* \"#utility.yul\":1011:1017   */\n  dup3\n    /* \"#utility.yul\":1000:1009   */\n  dup6\n    /* \"#utility.yul\":996:1018   */\n  add\n    /* \"#utility.yul\":964:1028   */\n  tag_12\n  jump\t// in\ntag_26:\n    /* \"#utility.yul\":954:1028   */\n  swap2\n  pop\n    /* \"#utility.yul\":910:1038   */\n  pop\n    /* \"#utility.yul\":694:1045   */\n  swap3\n  swap2\n  pop\n  pop\n  jump\t// out\n    /* \"chapter-01/ConstructStructure.sol\":67:837  contract ConstructStructure {... */\ntag_6:\n  dataSize(sub_0)\n  dup1\n  dataOffset(sub_0)\n  0x00\n  codecopy\n  0x00\n  return\nstop\n\nsub_0: assembly {\n        /* \"chapter-01/ConstructStructure.sol\":67:837  contract ConstructStructure {... */\n      mstore(0x40, 0x80)\n      callvalue\n      dup1\n      iszero\n      tag_1\n      jumpi\n      0x00\n      dup1\n      revert\n    tag_1:\n      pop\n      jumpi(tag_2, lt(calldatasize, 0x04))\n      shr(0xe0, calldataload(0x00))\n      dup1\n      0x6ccabcff\n      eq\n      tag_3\n      jumpi\n      dup1\n      0xb69ef8a8\n      eq\n      tag_4\n      jumpi\n      dup1\n      0xd91921ed\n      eq\n      tag_5\n      jumpi\n    tag_2:\n      0x00\n      dup1\n      revert\n        /* \"chapter-01/ConstructStructure.sol\":738:834  function pure_add(uint32 x, uint32 y) public pure returns (uint32) {... */\n    tag_3:\n      tag_6\n      0x04\n      dup1\n      calldatasize\n      sub\n      dup2\n      add\n      swap1\n      tag_7\n      swap2\n      swap1\n      tag_8\n      jump\t// in\n    tag_7:\n      tag_9\n      jump\t// in\n    tag_6:\n      mload(0x40)\n      tag_10\n      swap2\n      swap1\n      tag_11\n      jump\t// in\n    tag_10:\n      mload(0x40)\n      dup1\n      swap2\n      sub\n      swap1\n      return\n        /* \"chapter-01/ConstructStructure.sol\":106:128  uint256 public balance */\n    tag_4:\n      tag_12\n      tag_13\n      jump\t// in\n    tag_12:\n      mload(0x40)\n      tag_14\n      swap2\n      swap1\n      tag_15\n      jump\t// in\n    tag_14:\n      mload(0x40)\n      dup1\n      swap2\n      sub\n      swap1\n      return\n        /* \"chapter-01/ConstructStructure.sol\":557:732  function addBalance(uint256 _incre) external IncrementRange(_incre) {... */\n    tag_5:\n      tag_16\n      0x04\n      dup1\n      calldatasize\n      sub\n      dup2\n      add\n      swap1\n      tag_17\n      swap2\n      swap1\n      tag_18\n      jump\t// in\n    tag_17:\n      tag_19\n      jump\t// in\n    tag_16:\n      stop\n        /* \"chapter-01/ConstructStructure.sol\":738:834  function pure_add(uint32 x, uint32 y) public pure returns (uint32) {... */\n    tag_9:\n        /* \"chapter-01/ConstructStructure.sol\":797:803  uint32 */\n      0x00\n        /* \"chapter-01/ConstructStructure.sol\":826:827  y */\n      dup2\n        /* \"chapter-01/ConstructStructure.sol\":822:823  x */\n      dup4\n        /* \"chapter-01/ConstructStructure.sol\":822:827  x + y */\n      tag_21\n      swap2\n      swap1\n      tag_22\n      jump\t// in\n    tag_21:\n        /* \"chapter-01/ConstructStructure.sol\":815:827  return x + y */\n      swap1\n      pop\n        /* \"chapter-01/ConstructStructure.sol\":738:834  function pure_add(uint32 x, uint32 y) public pure returns (uint32) {... */\n      swap3\n      swap2\n      pop\n      pop\n      jump\t// out\n        /* \"chapter-01/ConstructStructure.sol\":106:128  uint256 public balance */\n    tag_13:\n      sload(0x00)\n      dup2\n      jump\t// out\n        /* \"chapter-01/ConstructStructure.sol\":557:732  function addBalance(uint256 _incre) external IncrementRange(_incre) {... */\n    tag_19:\n        /* \"chapter-01/ConstructStructure.sol\":617:623  _incre */\n      dup1\n        /* \"chapter-01/ConstructStructure.sol\":394:397  100 */\n      0x64\n        /* \"chapter-01/ConstructStructure.sol\":385:391  _incre */\n      dup2\n        /* \"chapter-01/ConstructStructure.sol\":385:397  _incre > 100 */\n      gt\n        /* \"chapter-01/ConstructStructure.sol\":377:411  require(_incre > 100, \"too small\") */\n      tag_24\n      jumpi\n      mload(0x40)\n      0x08c379a000000000000000000000000000000000000000000000000000000000\n      dup2\n      mstore\n      0x04\n      add\n      tag_25\n      swap1\n      tag_26\n      jump\t// in\n    tag_25:\n      mload(0x40)\n      dup1\n      swap2\n      sub\n      swap1\n      revert\n    tag_24:\n        /* \"chapter-01/ConstructStructure.sol\":635:647  uint256 oldV */\n      0x00\n        /* \"chapter-01/ConstructStructure.sol\":650:657  balance */\n      dup1\n      sload\n        /* \"chapter-01/ConstructStructure.sol\":635:657  uint256 oldV = balance */\n      swap1\n      pop\n        /* \"chapter-01/ConstructStructure.sol\":678:684  _incre */\n      dup3\n        /* \"chapter-01/ConstructStructure.sol\":667:674  balance */\n      0x00\n      dup1\n        /* \"chapter-01/ConstructStructure.sol\":667:684  balance += _incre */\n      dup3\n      dup3\n      sload\n      tag_28\n      swap2\n      swap1\n      tag_29\n      jump\t// in\n    tag_28:\n      swap3\n      pop\n      pop\n      dup2\n      swap1\n      sstore\n      pop\n        /* \"chapter-01/ConstructStructure.sol\":699:725  BalanceAdded(oldV, _incre) */\n      0x2f59d1a3b7b985da630a67df5848afd649a7ac56a4f65c399458a7b1219d2556\n        /* \"chapter-01/ConstructStructure.sol\":712:716  oldV */\n      dup2\n        /* \"chapter-01/ConstructStructure.sol\":718:724  _incre */\n      dup5\n        /* \"chapter-01/ConstructStructure.sol\":699:725  BalanceAdded(oldV, _incre) */\n      mload(0x40)\n      tag_30\n      swap3\n      swap2\n      swap1\n      tag_31\n      jump\t// in\n    tag_30:\n      mload(0x40)\n      dup1\n      swap2\n      sub\n      swap1\n      log1\n        /* \"chapter-01/ConstructStructure.sol\":625:732  {... */\n      pop\n        /* \"chapter-01/ConstructStructure.sol\":557:732  function addBalance(uint256 _incre) external IncrementRange(_incre) {... */\n      pop\n      pop\n      jump\t// out\n        /* \"#utility.yul\":88:205   */\n    tag_33:\n        /* \"#utility.yul\":197:198   */\n      0x00\n        /* \"#utility.yul\":194:195   */\n      dup1\n        /* \"#utility.yul\":187:199   */\n      revert\n        /* \"#utility.yul\":334:427   */\n    tag_35:\n        /* \"#utility.yul\":370:377   */\n      0x00\n        /* \"#utility.yul\":410:420   */\n      0xffffffff\n        /* \"#utility.yul\":403:408   */\n      dup3\n        /* \"#utility.yul\":399:421   */\n      and\n        /* \"#utility.yul\":388:421   */\n      swap1\n      pop\n        /* \"#utility.yul\":334:427   */\n      swap2\n      swap1\n      pop\n      jump\t// out\n        /* \"#utility.yul\":433:553   */\n    tag_36:\n        /* \"#utility.yul\":505:528   */\n      tag_53\n        /* \"#utility.yul\":522:527   */\n      dup2\n        /* \"#utility.yul\":505:528   */\n      tag_35\n      jump\t// in\n    tag_53:\n        /* \"#utility.yul\":498:503   */\n      dup2\n        /* \"#utility.yul\":495:529   */\n      eq\n        /* \"#utility.yul\":485:547   */\n      tag_54\n      jumpi\n        /* \"#utility.yul\":543:544   */\n      0x00\n        /* \"#utility.yul\":540:541   */\n      dup1\n        /* \"#utility.yul\":533:545   */\n      revert\n        /* \"#utility.yul\":485:547   */\n    tag_54:\n        /* \"#utility.yul\":433:553   */\n      pop\n      jump\t// out\n        /* \"#utility.yul\":559:696   */\n    tag_37:\n        /* \"#utility.yul\":604:609   */\n      0x00\n        /* \"#utility.yul\":642:648   */\n      dup2\n        /* \"#utility.yul\":629:649   */\n      calldataload\n        /* \"#utility.yul\":620:649   */\n      swap1\n      pop\n        /* \"#utility.yul\":658:690   */\n      tag_56\n        /* \"#utility.yul\":684:689   */\n      dup2\n        /* \"#utility.yul\":658:690   */\n      tag_36\n      jump\t// in\n    tag_56:\n        /* \"#utility.yul\":559:696   */\n      swap3\n      swap2\n      pop\n      pop\n      jump\t// out\n        /* \"#utility.yul\":702:1172   */\n    tag_8:\n        /* \"#utility.yul\":768:774   */\n      0x00\n        /* \"#utility.yul\":776:782   */\n      dup1\n        /* \"#utility.yul\":825:827   */\n      0x40\n        /* \"#utility.yul\":813:822   */\n      dup4\n        /* \"#utility.yul\":804:811   */\n      dup6\n        /* \"#utility.yul\":800:823   */\n      sub\n        /* \"#utility.yul\":796:828   */\n      slt\n        /* \"#utility.yul\":793:912   */\n      iszero\n      tag_58\n      jumpi\n        /* \"#utility.yul\":831:910   */\n      tag_59\n      tag_33\n      jump\t// in\n    tag_59:\n        /* \"#utility.yul\":793:912   */\n    tag_58:\n        /* \"#utility.yul\":951:952   */\n      0x00\n        /* \"#utility.yul\":976:1028   */\n      tag_60\n        /* \"#utility.yul\":1020:1027   */\n      dup6\n        /* \"#utility.yul\":1011:1017   */\n      dup3\n        /* \"#utility.yul\":1000:1009   */\n      dup7\n        /* \"#utility.yul\":996:1018   */\n      add\n        /* \"#utility.yul\":976:1028   */\n      tag_37\n      jump\t// in\n    tag_60:\n        /* \"#utility.yul\":966:1028   */\n      swap3\n      pop\n        /* \"#utility.yul\":922:1038   */\n      pop\n        /* \"#utility.yul\":1077:1079   */\n      0x20\n        /* \"#utility.yul\":1103:1155   */\n      tag_61\n        /* \"#utility.yul\":1147:1154   */\n      dup6\n        /* \"#utility.yul\":1138:1144   */\n      dup3\n        /* \"#utility.yul\":1127:1136   */\n      dup7\n        /* \"#utility.yul\":1123:1145   */\n      add\n        /* \"#utility.yul\":1103:1155   */\n      tag_37\n      jump\t// in\n    tag_61:\n        /* \"#utility.yul\":1093:1155   */\n      swap2\n      pop\n        /* \"#utility.yul\":1048:1165   */\n      pop\n        /* \"#utility.yul\":702:1172   */\n      swap3\n      pop\n      swap3\n      swap1\n      pop\n      jump\t// out\n        /* \"#utility.yul\":1178:1293   */\n    tag_38:\n        /* \"#utility.yul\":1263:1286   */\n      tag_63\n        /* \"#utility.yul\":1280:1285   */\n      dup2\n        /* \"#utility.yul\":1263:1286   */\n      tag_35\n      jump\t// in\n    tag_63:\n        /* \"#utility.yul\":1258:1261   */\n      dup3\n        /* \"#utility.yul\":1251:1287   */\n      mstore\n        /* \"#utility.yul\":1178:1293   */\n      pop\n      pop\n      jump\t// out\n        /* \"#utility.yul\":1299:1517   */\n    tag_11:\n        /* \"#utility.yul\":1390:1394   */\n      0x00\n        /* \"#utility.yul\":1428:1430   */\n      0x20\n        /* \"#utility.yul\":1417:1426   */\n      dup3\n        /* \"#utility.yul\":1413:1431   */\n      add\n        /* \"#utility.yul\":1405:1431   */\n      swap1\n      pop\n        /* \"#utility.yul\":1441:1510   */\n      tag_65\n        /* \"#utility.yul\":1507:1508   */\n      0x00\n        /* \"#utility.yul\":1496:1505   */\n      dup4\n        /* \"#utility.yul\":1492:1509   */\n      add\n        /* \"#utility.yul\":1483:1489   */\n      dup5\n        /* \"#utility.yul\":1441:1510   */\n      tag_38\n      jump\t// in\n    tag_65:\n        /* \"#utility.yul\":1299:1517   */\n      swap3\n      swap2\n      pop\n      pop\n      jump\t// out\n        /* \"#utility.yul\":1523:1600   */\n    tag_39:\n        /* \"#utility.yul\":1560:1567   */\n      0x00\n        /* \"#utility.yul\":1589:1594   */\n      dup2\n        /* \"#utility.yul\":1578:1594   */\n      swap1\n      pop\n        /* \"#utility.yul\":1523:1600   */\n      swap2\n      swap1\n      pop\n      jump\t// out\n        /* \"#utility.yul\":1606:1724   */\n    tag_40:\n        /* \"#utility.yul\":1693:1717   */\n      tag_68\n        /* \"#utility.yul\":1711:1716   */\n      dup2\n        /* \"#utility.yul\":1693:1717   */\n      tag_39\n      jump\t// in\n    tag_68:\n        /* \"#utility.yul\":1688:1691   */\n      dup3\n        /* \"#utility.yul\":1681:1718   */\n      mstore\n        /* \"#utility.yul\":1606:1724   */\n      pop\n      pop\n      jump\t// out\n        /* \"#utility.yul\":1730:1952   */\n    tag_15:\n        /* \"#utility.yul\":1823:1827   */\n      0x00\n        /* \"#utility.yul\":1861:1863   */\n      0x20\n        /* \"#utility.yul\":1850:1859   */\n      dup3\n        /* \"#utility.yul\":1846:1864   */\n      add\n        /* \"#utility.yul\":1838:1864   */\n      swap1\n      pop\n        /* \"#utility.yul\":1874:1945   */\n      tag_70\n        /* \"#utility.yul\":1942:1943   */\n      0x00\n        /* \"#utility.yul\":1931:1940   */\n      dup4\n        /* \"#utility.yul\":1927:1944   */\n      add\n        /* \"#utility.yul\":1918:1924   */\n      dup5\n        /* \"#utility.yul\":1874:1945   */\n      tag_40\n      jump\t// in\n    tag_70:\n        /* \"#utility.yul\":1730:1952   */\n      swap3\n      swap2\n      pop\n      pop\n      jump\t// out\n        /* \"#utility.yul\":1958:2080   */\n    tag_41:\n        /* \"#utility.yul\":2031:2055   */\n      tag_72\n        /* \"#utility.yul\":2049:2054   */\n      dup2\n        /* \"#utility.yul\":2031:2055   */\n      tag_39\n      jump\t// in\n    tag_72:\n        /* \"#utility.yul\":2024:2029   */\n      dup2\n        /* \"#utility.yul\":2021:2056   */\n      eq\n        /* \"#utility.yul\":2011:2074   */\n      tag_73\n      jumpi\n        /* \"#utility.yul\":2070:2071   */\n      0x00\n        /* \"#utility.yul\":2067:2068   */\n      dup1\n        /* \"#utility.yul\":2060:2072   */\n      revert\n        /* \"#utility.yul\":2011:2074   */\n    tag_73:\n        /* \"#utility.yul\":1958:2080   */\n      pop\n      jump\t// out\n        /* \"#utility.yul\":2086:2225   */\n    tag_42:\n        /* \"#utility.yul\":2132:2137   */\n      0x00\n        /* \"#utility.yul\":2170:2176   */\n      dup2\n        /* \"#utility.yul\":2157:2177   */\n      calldataload\n        /* \"#utility.yul\":2148:2177   */\n      swap1\n      pop\n        /* \"#utility.yul\":2186:2219   */\n      tag_75\n        /* \"#utility.yul\":2213:2218   */\n      dup2\n        /* \"#utility.yul\":2186:2219   */\n      tag_41\n      jump\t// in\n    tag_75:\n        /* \"#utility.yul\":2086:2225   */\n      swap3\n      swap2\n      pop\n      pop\n      jump\t// out\n        /* \"#utility.yul\":2231:2560   */\n    tag_18:\n        /* \"#utility.yul\":2290:2296   */\n      0x00\n        /* \"#utility.yul\":2339:2341   */\n      0x20\n        /* \"#utility.yul\":2327:2336   */\n      dup3\n        /* \"#utility.yul\":2318:2325   */\n      dup5\n        /* \"#utility.yul\":2314:2337   */\n      sub\n        /* \"#utility.yul\":2310:2342   */\n      slt\n        /* \"#utility.yul\":2307:2426   */\n      iszero\n      tag_77\n      jumpi\n        /* \"#utility.yul\":2345:2424   */\n      tag_78\n      tag_33\n      jump\t// in\n    tag_78:\n        /* \"#utility.yul\":2307:2426   */\n    tag_77:\n        /* \"#utility.yul\":2465:2466   */\n      0x00\n        /* \"#utility.yul\":2490:2543   */\n      tag_79\n        /* \"#utility.yul\":2535:2542   */\n      dup5\n        /* \"#utility.yul\":2526:2532   */\n      dup3\n        /* \"#utility.yul\":2515:2524   */\n      dup6\n        /* \"#utility.yul\":2511:2533   */\n      add\n        /* \"#utility.yul\":2490:2543   */\n      tag_42\n      jump\t// in\n    tag_79:\n        /* \"#utility.yul\":2480:2543   */\n      swap2\n      pop\n        /* \"#utility.yul\":2436:2553   */\n      pop\n        /* \"#utility.yul\":2231:2560   */\n      swap3\n      swap2\n      pop\n      pop\n      jump\t// out\n        /* \"#utility.yul\":2566:2746   */\n    tag_43:\n        /* \"#utility.yul\":2614:2691   */\n      0x4e487b7100000000000000000000000000000000000000000000000000000000\n        /* \"#utility.yul\":2611:2612   */\n      0x00\n        /* \"#utility.yul\":2604:2692   */\n      mstore\n        /* \"#utility.yul\":2711:2715   */\n      0x11\n        /* \"#utility.yul\":2708:2709   */\n      0x04\n        /* \"#utility.yul\":2701:2716   */\n      mstore\n        /* \"#utility.yul\":2735:2739   */\n      0x24\n        /* \"#utility.yul\":2732:2733   */\n      0x00\n        /* \"#utility.yul\":2725:2740   */\n      revert\n        /* \"#utility.yul\":2752:2949   */\n    tag_22:\n        /* \"#utility.yul\":2791:2794   */\n      0x00\n        /* \"#utility.yul\":2810:2829   */\n      tag_82\n        /* \"#utility.yul\":2827:2828   */\n      dup3\n        /* \"#utility.yul\":2810:2829   */\n      tag_35\n      jump\t// in\n    tag_82:\n        /* \"#utility.yul\":2805:2829   */\n      swap2\n      pop\n        /* \"#utility.yul\":2843:2862   */\n      tag_83\n        /* \"#utility.yul\":2860:2861   */\n      dup4\n        /* \"#utility.yul\":2843:2862   */\n      tag_35\n      jump\t// in\n    tag_83:\n        /* \"#utility.yul\":2838:2862   */\n      swap3\n      pop\n        /* \"#utility.yul\":2885:2886   */\n      dup3\n        /* \"#utility.yul\":2882:2883   */\n      dup3\n        /* \"#utility.yul\":2878:2887   */\n      add\n        /* \"#utility.yul\":2871:2887   */\n      swap1\n      pop\n        /* \"#utility.yul\":2908:2918   */\n      0xffffffff\n        /* \"#utility.yul\":2903:2906   */\n      dup2\n        /* \"#utility.yul\":2900:2919   */\n      gt\n        /* \"#utility.yul\":2897:2942   */\n      iszero\n      tag_84\n      jumpi\n        /* \"#utility.yul\":2922:2940   */\n      tag_85\n      tag_43\n      jump\t// in\n    tag_85:\n        /* \"#utility.yul\":2897:2942   */\n    tag_84:\n        /* \"#utility.yul\":2752:2949   */\n      swap3\n      swap2\n      pop\n      pop\n      jump\t// out\n        /* \"#utility.yul\":2955:3124   */\n    tag_44:\n        /* \"#utility.yul\":3039:3050   */\n      0x00\n        /* \"#utility.yul\":3073:3079   */\n      dup3\n        /* \"#utility.yul\":3068:3071   */\n      dup3\n        /* \"#utility.yul\":3061:3080   */\n      mstore\n        /* \"#utility.yul\":3113:3117   */\n      0x20\n        /* \"#utility.yul\":3108:3111   */\n      dup3\n        /* \"#utility.yul\":3104:3118   */\n      add\n        /* \"#utility.yul\":3089:3118   */\n      swap1\n      pop\n        /* \"#utility.yul\":2955:3124   */\n      swap3\n      swap2\n      pop\n      pop\n      jump\t// out\n        /* \"#utility.yul\":3130:3289   */\n    tag_45:\n        /* \"#utility.yul\":3270:3281   */\n      0x746f6f20736d616c6c0000000000000000000000000000000000000000000000\n        /* \"#utility.yul\":3266:3267   */\n      0x00\n        /* \"#utility.yul\":3258:3264   */\n      dup3\n        /* \"#utility.yul\":3254:3268   */\n      add\n        /* \"#utility.yul\":3247:3282   */\n      mstore\n        /* \"#utility.yul\":3130:3289   */\n      pop\n      jump\t// out\n        /* \"#utility.yul\":3295:3660   */\n    tag_46:\n        /* \"#utility.yul\":3437:3440   */\n      0x00\n        /* \"#utility.yul\":3458:3524   */\n      tag_89\n        /* \"#utility.yul\":3522:3523   */\n      0x09\n        /* \"#utility.yul\":3517:3520   */\n      dup4\n        /* \"#utility.yul\":3458:3524   */\n      tag_44\n      jump\t// in\n    tag_89:\n        /* \"#utility.yul\":3451:3524   */\n      swap2\n      pop\n        /* \"#utility.yul\":3533:3626   */\n      tag_90\n        /* \"#utility.yul\":3622:3625   */\n      dup3\n        /* \"#utility.yul\":3533:3626   */\n      tag_45\n      jump\t// in\n    tag_90:\n        /* \"#utility.yul\":3651:3653   */\n      0x20\n        /* \"#utility.yul\":3646:3649   */\n      dup3\n        /* \"#utility.yul\":3642:3654   */\n      add\n        /* \"#utility.yul\":3635:3654   */\n      swap1\n      pop\n        /* \"#utility.yul\":3295:3660   */\n      swap2\n      swap1\n      pop\n      jump\t// out\n        /* \"#utility.yul\":3666:4085   */\n    tag_26:\n        /* \"#utility.yul\":3832:3836   */\n      0x00\n        /* \"#utility.yul\":3870:3872   */\n      0x20\n        /* \"#utility.yul\":3859:3868   */\n      dup3\n        /* \"#utility.yul\":3855:3873   */\n      add\n        /* \"#utility.yul\":3847:3873   */\n      swap1\n      pop\n        /* \"#utility.yul\":3919:3928   */\n      dup2\n        /* \"#utility.yul\":3913:3917   */\n      dup2\n        /* \"#utility.yul\":3909:3929   */\n      sub\n        /* \"#utility.yul\":3905:3906   */\n      0x00\n        /* \"#utility.yul\":3894:3903   */\n      dup4\n        /* \"#utility.yul\":3890:3907   */\n      add\n        /* \"#utility.yul\":3883:3930   */\n      mstore\n        /* \"#utility.yul\":3947:4078   */\n      tag_92\n        /* \"#utility.yul\":4073:4077   */\n      dup2\n        /* \"#utility.yul\":3947:4078   */\n      tag_46\n      jump\t// in\n    tag_92:\n        /* \"#utility.yul\":3939:4078   */\n      swap1\n      pop\n        /* \"#utility.yul\":3666:4085   */\n      swap2\n      swap1\n      pop\n      jump\t// out\n        /* \"#utility.yul\":4091:4282   */\n    tag_29:\n        /* \"#utility.yul\":4131:4134   */\n      0x00\n        /* \"#utility.yul\":4150:4170   */\n      tag_94\n        /* \"#utility.yul\":4168:4169   */\n      dup3\n        /* \"#utility.yul\":4150:4170   */\n      tag_39\n      jump\t// in\n    tag_94:\n        /* \"#utility.yul\":4145:4170   */\n      swap2\n      pop\n        /* \"#utility.yul\":4184:4204   */\n      tag_95\n        /* \"#utility.yul\":4202:4203   */\n      dup4\n        /* \"#utility.yul\":4184:4204   */\n      tag_39\n      jump\t// in\n    tag_95:\n        /* \"#utility.yul\":4179:4204   */\n      swap3\n      pop\n        /* \"#utility.yul\":4227:4228   */\n      dup3\n        /* \"#utility.yul\":4224:4225   */\n      dup3\n        /* \"#utility.yul\":4220:4229   */\n      add\n        /* \"#utility.yul\":4213:4229   */\n      swap1\n      pop\n        /* \"#utility.yul\":4248:4251   */\n      dup1\n        /* \"#utility.yul\":4245:4246   */\n      dup3\n        /* \"#utility.yul\":4242:4252   */\n      gt\n        /* \"#utility.yul\":4239:4275   */\n      iszero\n      tag_96\n      jumpi\n        /* \"#utility.yul\":4255:4273   */\n      tag_97\n      tag_43\n      jump\t// in\n    tag_97:\n        /* \"#utility.yul\":4239:4275   */\n    tag_96:\n        /* \"#utility.yul\":4091:4282   */\n      swap3\n      swap2\n      pop\n      pop\n      jump\t// out\n        /* \"#utility.yul\":4288:4620   */\n    tag_31:\n        /* \"#utility.yul\":4409:4413   */\n      0x00\n        /* \"#utility.yul\":4447:4449   */\n      0x40\n        /* \"#utility.yul\":4436:4445   */\n      dup3\n        /* \"#utility.yul\":4432:4450   */\n      add\n        /* \"#utility.yul\":4424:4450   */\n      swap1\n      pop\n        /* \"#utility.yul\":4460:4531   */\n      tag_99\n        /* \"#utility.yul\":4528:4529   */\n      0x00\n        /* \"#utility.yul\":4517:4526   */\n      dup4\n        /* \"#utility.yul\":4513:4530   */\n      add\n        /* \"#utility.yul\":4504:4510   */\n      dup6\n        /* \"#utility.yul\":4460:4531   */\n      tag_40\n      jump\t// in\n    tag_99:\n        /* \"#utility.yul\":4541:4613   */\n      tag_100\n        /* \"#utility.yul\":4609:4611   */\n      0x20\n        /* \"#utility.yul\":4598:4607   */\n      dup4\n        /* \"#utility.yul\":4594:4612   */\n      add\n        /* \"#utility.yul\":4585:4591   */\n      dup5\n        /* \"#utility.yul\":4541:4613   */\n      tag_40\n      jump\t// in\n    tag_100:\n        /* \"#utility.yul\":4288:4620   */\n      swap4\n      swap3\n      pop\n      pop\n      pop\n      jump\t// out\n\n    auxdata: 0xa264697066735822122064a352a76320c6c8731d9478d334e6ae8393df5d5aa1dd868b06f28f3ce7213f64736f6c634300081a0033\n}\n",
				"bytecode": {
					"linkReferences": {},
					"object": "6080604052348015600e575f80fd5b506040516104983803806104988339818101604052810190602e9190606b565b805f81905550506091565b5f80fd5b5f819050919050565b604d81603d565b81146056575f80fd5b50565b5f815190506065816046565b92915050565b5f60208284031215607d57607c6039565b5b5f6088848285016059565b91505092915050565b6103fa8061009e5f395ff3fe608060405234801561000f575f80fd5b506004361061003f575f3560e01c80636ccabcff14610043578063b69ef8a814610073578063d91921ed14610091575b5f80fd5b61005d600480360381019061005891906101a2565b6100ad565b60405161006a91906101ef565b60405180910390f35b61007b6100c2565b6040516100889190610220565b60405180910390f35b6100ab60048036038101906100a69190610263565b6100c7565b005b5f81836100ba91906102bb565b905092915050565b5f5481565b806064811161010b576040517f08c379a00000000000000000000000000000000000000000000000000000000081526004016101029061034c565b60405180910390fd5b5f80549050825f80828254610120919061036a565b925050819055507f2f59d1a3b7b985da630a67df5848afd649a7ac56a4f65c399458a7b1219d2556818460405161015892919061039d565b60405180910390a1505050565b5f80fd5b5f63ffffffff82169050919050565b61018181610169565b811461018b575f80fd5b50565b5f8135905061019c81610178565b92915050565b5f80604083850312156101b8576101b7610165565b5b5f6101c58582860161018e565b92505060206101d68582860161018e565b9150509250929050565b6101e981610169565b82525050565b5f6020820190506102025f8301846101e0565b92915050565b5f819050919050565b61021a81610208565b82525050565b5f6020820190506102335f830184610211565b92915050565b61024281610208565b811461024c575f80fd5b50565b5f8135905061025d81610239565b92915050565b5f6020828403121561027857610277610165565b5b5f6102858482850161024f565b91505092915050565b7f4e487b71000000000000000000000000000000000000000000000000000000005f52601160045260245ffd5b5f6102c582610169565b91506102d083610169565b9250828201905063ffffffff8111156102ec576102eb61028e565b5b92915050565b5f82825260208201905092915050565b7f746f6f20736d616c6c00000000000000000000000000000000000000000000005f82015250565b5f6103366009836102f2565b915061034182610302565b602082019050919050565b5f6020820190508181035f8301526103638161032a565b9050919050565b5f61037482610208565b915061037f83610208565b92508282019050808211156103975761039661028e565b5b92915050565b5f6040820190506103b05f830185610211565b6103bd6020830184610211565b939250505056fea264697066735822122064a352a76320c6c8731d9478d334e6ae8393df5d5aa1dd868b06f28f3ce7213f64736f6c634300081a0033",
					"opcodes": "PUSH1 0x80 PUSH1 0x40 MSTORE CALLVALUE DUP1 ISZERO PUSH1 0xE JUMPI PUSH0 DUP1 REVERT JUMPDEST POP PUSH1 0x40 MLOAD PUSH2 0x498 CODESIZE SUB DUP1 PUSH2 0x498 DUP4 CODECOPY DUP2 DUP2 ADD PUSH1 0x40 MSTORE DUP2 ADD SWAP1 PUSH1 0x2E SWAP2 SWAP1 PUSH1 0x6B JUMP JUMPDEST DUP1 PUSH0 DUP2 SWAP1 SSTORE POP POP PUSH1 0x91 JUMP JUMPDEST PUSH0 DUP1 REVERT JUMPDEST PUSH0 DUP2 SWAP1 POP SWAP2 SWAP1 POP JUMP JUMPDEST PUSH1 0x4D DUP2 PUSH1 0x3D JUMP JUMPDEST DUP2 EQ PUSH1 0x56 JUMPI PUSH0 DUP1 REVERT JUMPDEST POP JUMP JUMPDEST PUSH0 DUP2 MLOAD SWAP1 POP PUSH1 0x65 DUP2 PUSH1 0x46 JUMP JUMPDEST SWAP3 SWAP2 POP POP JUMP JUMPDEST PUSH0 PUSH1 0x20 DUP3 DUP5 SUB SLT ISZERO PUSH1 0x7D JUMPI PUSH1 0x7C PUSH1 0x39 JUMP JUMPDEST JUMPDEST PUSH0 PUSH1 0x88 DUP5 DUP3 DUP6 ADD PUSH1 0x59 JUMP JUMPDEST SWAP2 POP POP SWAP3 SWAP2 POP POP JUMP JUMPDEST PUSH2 0x3FA DUP1 PUSH2 0x9E PUSH0 CODECOPY PUSH0 RETURN INVALID PUSH1 0x80 PUSH1 0x40 MSTORE CALLVALUE DUP1 ISZERO PUSH2 0xF JUMPI PUSH0 DUP1 REVERT JUMPDEST POP PUSH1 0x4 CALLDATASIZE LT PUSH2 0x3F JUMPI PUSH0 CALLDATALOAD PUSH1 0xE0 SHR DUP1 PUSH4 0x6CCABCFF EQ PUSH2 0x43 JUMPI DUP1 PUSH4 0xB69EF8A8 EQ PUSH2 0x73 JUMPI DUP1 PUSH4 0xD91921ED EQ PUSH2 0x91 JUMPI JUMPDEST PUSH0 DUP1 REVERT JUMPDEST PUSH2 0x5D PUSH1 0x4 DUP1 CALLDATASIZE SUB DUP2 ADD SWAP1 PUSH2 0x58 SWAP2 SWAP1 PUSH2 0x1A2 JUMP JUMPDEST PUSH2 0xAD JUMP JUMPDEST PUSH1 0x40 MLOAD PUSH2 0x6A SWAP2 SWAP1 PUSH2 0x1EF JUMP JUMPDEST PUSH1 0x40 MLOAD DUP1 SWAP2 SUB SWAP1 RETURN JUMPDEST PUSH2 0x7B PUSH2 0xC2 JUMP JUMPDEST PUSH1 0x40 MLOAD PUSH2 0x88 SWAP2 SWAP1 PUSH2 0x220 JUMP JUMPDEST PUSH1 0x40 MLOAD DUP1 SWAP2 SUB SWAP1 RETURN JUMPDEST PUSH2 0xAB PUSH1 0x4 DUP1 CALLDATASIZE SUB DUP2 ADD SWAP1 PUSH2 0xA6 SWAP2 SWAP1 PUSH2 0x263 JUMP JUMPDEST PUSH2 0xC7 JUMP JUMPDEST STOP JUMPDEST PUSH0 DUP2 DUP4 PUSH2 0xBA SWAP2 SWAP1 PUSH2 0x2BB JUMP JUMPDEST SWAP1 POP SWAP3 SWAP2 POP POP JUMP JUMPDEST PUSH0 SLOAD DUP2 JUMP JUMPDEST DUP1 PUSH1 0x64 DUP2 GT PUSH2 0x10B JUMPI PUSH1 0x40 MLOAD PUSH32 0x8C379A000000000000000000000000000000000000000000000000000000000 DUP2 MSTORE PUSH1 0x4 ADD PUSH2 0x102 SWAP1 PUSH2 0x34C JUMP JUMPDEST PUSH1 0x40 MLOAD DUP1 SWAP2 SUB SWAP1 REVERT JUMPDEST PUSH0 DUP1 SLOAD SWAP1 POP DUP3 PUSH0 DUP1 DUP3 DUP3 SLOAD PUSH2 0x120 SWAP2 SWAP1 PUSH2 0x36A JUMP JUMPDEST SWAP3 POP POP DUP2 SWAP1 SSTORE POP PUSH32 0x2F59D1A3B7B985DA630A67DF5848AFD649A7AC56A4F65C399458A7B1219D2556 DUP2 DUP5 PUSH1 0x40 MLOAD PUSH2 0x158 SWAP3 SWAP2 SWAP1 PUSH2 0x39D JUMP JUMPDEST PUSH1 0x40 MLOAD DUP1 SWAP2 SUB SWAP1 LOG1 POP POP POP JUMP JUMPDEST PUSH0 DUP1 REVERT JUMPDEST PUSH0 PUSH4 0xFFFFFFFF DUP3 AND SWAP1 POP SWAP2 SWAP1 POP JUMP JUMPDEST PUSH2 0x181 DUP2 PUSH2 0x169 JUMP JUMPDEST DUP2 EQ PUSH2 0x18B JUMPI PUSH0 DUP1 REVERT JUMPDEST POP JUMP JUMPDEST PUSH0 DUP2 CALLDATALOAD SWAP1 POP PUSH2 0x19C DUP2 PUSH2 0x178 JUMP JUMPDEST SWAP3 SWAP2 POP POP JUMP JUMPDEST PUSH0 DUP1 PUSH1 0x40 DUP4 DUP6 SUB SLT ISZERO PUSH2 0x1B8 JUMPI PUSH2 0x1B7 PUSH2 0x165 JUMP JUMPDEST JUMPDEST PUSH0 PUSH2 0x1C5 DUP6 DUP3 DUP7 ADD PUSH2 0x18E JUMP JUMPDEST SWAP3 POP POP PUSH1 0x20 PUSH2 0x1D6 DUP6 DUP3 DUP7 ADD PUSH2 0x18E JUMP JUMPDEST SWAP2 POP POP SWAP3 POP SWAP3 SWAP1 POP JUMP JUMPDEST PUSH2 0x1E9 DUP2 PUSH2 0x169 JUMP JUMPDEST DUP3 MSTORE POP POP JUMP JUMPDEST PUSH0 PUSH1 0x20 DUP3 ADD SWAP1 POP PUSH2 0x202 PUSH0 DUP4 ADD DUP5 PUSH2 0x1E0 JUMP JUMPDEST SWAP3 SWAP2 POP POP JUMP JUMPDEST PUSH0 DUP2 SWAP1 POP SWAP2 SWAP1 POP JUMP JUMPDEST PUSH2 0x21A DUP2 PUSH2 0x208 JUMP JUMPDEST DUP3 MSTORE POP POP JUMP JUMPDEST PUSH0 PUSH1 0x20 DUP3 ADD SWAP1 POP PUSH2 0x233 PUSH0 DUP4 ADD DUP5 PUSH2 0x211 JUMP JUMPDEST SWAP3 SWAP2 POP POP JUMP JUMPDEST PUSH2 0x242 DUP2 PUSH2 0x208 JUMP JUMPDEST DUP2 EQ PUSH2 0x24C JUMPI PUSH0 DUP1 REVERT JUMPDEST POP JUMP JUMPDEST PUSH0 DUP2 CALLDATALOAD SWAP1 POP PUSH2 0x25D DUP2 PUSH2 0x239 JUMP JUMPDEST SWAP3 SWAP2 POP POP JUMP JUMPDEST PUSH0 PUSH1 0x20 DUP3 DUP5 SUB SLT ISZERO PUSH2 0x278 JUMPI PUSH2 0x277 PUSH2 0x165 JUMP JUMPDEST JUMPDEST PUSH0 PUSH2 0x285 DUP5 DUP3 DUP6 ADD PUSH2 0x24F JUMP JUMPDEST SWAP2 POP POP SWAP3 SWAP2 POP POP JUMP JUMPDEST PUSH32 0x4E487B7100000000000000000000000000000000000000000000000000000000 PUSH0 MSTORE PUSH1 0x11 PUSH1 0x4 MSTORE PUSH1 0x24 PUSH0 REVERT JUMPDEST PUSH0 PUSH2 0x2C5 DUP3 PUSH2 0x169 JUMP JUMPDEST SWAP2 POP PUSH2 0x2D0 DUP4 PUSH2 0x169 JUMP JUMPDEST SWAP3 POP DUP3 DUP3 ADD SWAP1 POP PUSH4 0xFFFFFFFF DUP2 GT ISZERO PUSH2 0x2EC JUMPI PUSH2 0x2EB PUSH2 0x28E JUMP JUMPDEST JUMPDEST SWAP3 SWAP2 POP POP JUMP JUMPDEST PUSH0 DUP3 DUP3 MSTORE PUSH1 0x20 DUP3 ADD SWAP1 POP SWAP3 SWAP2 POP POP JUMP JUMPDEST PUSH32 0x746F6F20736D616C6C0000000000000000000000000000000000000000000000 PUSH0 DUP3 ADD MSTORE POP JUMP JUMPDEST PUSH0 PUSH2 0x336 PUSH1 0x9 DUP4 PUSH2 0x2F2 JUMP JUMPDEST SWAP2 POP PUSH2 0x341 DUP3 PUSH2 0x302 JUMP JUMPDEST PUSH1 0x20 DUP3 ADD SWAP1 POP SWAP2 SWAP1 POP JUMP JUMPDEST PUSH0 PUSH1 0x20 DUP3 ADD SWAP1 POP DUP2 DUP2 SUB PUSH0 DUP4 ADD MSTORE PUSH2 0x363 DUP2 PUSH2 0x32A JUMP JUMPDEST SWAP1 POP SWAP2 SWAP1 POP JUMP JUMPDEST PUSH0 PUSH2 0x374 DUP3 PUSH2 0x208 JUMP JUMPDEST SWAP2 POP PUSH2 0x37F DUP4 PUSH2 0x208 JUMP JUMPDEST SWAP3 POP DUP3 DUP3 ADD SWAP1 POP DUP1 DUP3 GT ISZERO PUSH2 0x397 JUMPI PUSH2 0x396 PUSH2 0x28E JUMP JUMPDEST JUMPDEST SWAP3 SWAP2 POP POP JUMP JUMPDEST PUSH0 PUSH1 0x40 DUP3 ADD SWAP1 POP PUSH2 0x3B0 PUSH0 DUP4 ADD DUP6 PUSH2 0x211 JUMP JUMPDEST PUSH2 0x3BD PUSH1 0x20 DUP4 ADD DUP5 PUSH2 0x211 JUMP JUMPDEST SWAP4 SWAP3 POP POP POP JUMP INVALID LOG2 PUSH5 0x6970667358 0x22 SLT KECCAK256 PUSH5 0xA352A76320 0xC6 0xC8 PUSH20 0x1D9478D334E6AE8393DF5D5AA1DD868B06F28F3C 0xE7 0x21 EXTCODEHASH PUSH5 0x736F6C6343 STOP ADDMOD BYTE STOP CALLER "
				},
				"gasEstimates": {
					"creation": {
						"codeDepositCost": "203600",
						"executionCost": "infinite",
						"totalCost": "infinite"
					},
					"external": {
						"addBalance(uint256)": "infinite",
						"balance()": "2424",
						"pure_add(uint32,uint32)": "infinite"
					},
					"internal": {
						"balance1()": "infinite"
					}
				},
				"methodIdentifiers": {
					"addBalance(uint256)": "d91921ed",
					"balance()": "b69ef8a8",
					"pure_add(uint32,uint32)": "6ccabcff"
				}
			},
			"storageLayout": {
				"storage": [
					{
						"astId": 3,
						"contract": "chapter-01/ConstructStructure.sol:ConstructStructure",
						"label": "balance",
						"offset": 0,
						"slot": "0",
						"type": "t_uint256"
					}
				],
				"types": {
					"t_uint256": {
						"encoding": "inplace",
						"label": "uint256",
						"numberOfBytes": "32"
					}
				}
			},
			"userdoc": {
				"kind": "user",
				"methods": {},
				"version": 1
			}
		}
	}
}