{
	"homework/Admin.sol": {
		"Admin": {
			"abi": [
				{
					"inputs": [],
					"stateMutability": "nonpayable",
					"type": "constructor"
				},
				{
					"inputs": [
						{
							"internalType": "contract IBank",
							"name": "bank",
							"type": "address"
						}
					],
					"name": "adminWithdraw",
					"outputs": [],
					"stateMutability": "nonpayable",
					"type": "function"
				},
				{
					"inputs": [],
					"name": "getOwner",
					"outputs": [
						{
							"internalType": "address",
							"name": "",
							"type": "address"
						}
					],
					"stateMutability": "view",
					"type": "function"
				},
				{
					"inputs": [],
					"name": "withdraw_cur_contract",
					"outputs": [],
					"stateMutability": "payable",
					"type": "function"
				},
				{
					"stateMutability": "payable",
					"type": "receive"
				}
			],
			"devdoc": {
				"kind": "dev",
				"methods": {},
				"version": 1
			},
			"evm": {
				"assembly": "    /* \"homework/Admin.sol\":88:939  contract Admin {... */\n  mstore(0x40, 0x80)\n    /* \"homework/Admin.sol\":142:191  constructor() {... */\n  callvalue\n  dup1\n  iszero\n  tag_1\n  jumpi\n  0x00\n  dup1\n  revert\ntag_1:\n  pop\n    /* \"homework/Admin.sol\":174:184  msg.sender */\n  caller\n    /* \"homework/Admin.sol\":166:171  owner */\n  0x00\n  dup1\n    /* \"homework/Admin.sol\":166:184  owner = msg.sender */\n  0x0100\n  exp\n  dup2\n  sload\n  dup2\n  0xffffffffffffffffffffffffffffffffffffffff\n  mul\n  not\n  and\n  swap1\n  dup4\n  0xffffffffffffffffffffffffffffffffffffffff\n  and\n  mul\n  or\n  swap1\n  sstore\n  pop\n    /* \"homework/Admin.sol\":88:939  contract Admin {... */\n  dataSize(sub_0)\n  dup1\n  dataOffset(sub_0)\n  0x00\n  codecopy\n  0x00\n  return\nstop\n\nsub_0: assembly {\n        /* \"homework/Admin.sol\":88:939  contract Admin {... */\n      mstore(0x40, 0x80)\n      jumpi(tag_1, lt(calldatasize, 0x04))\n      shr(0xe0, calldataload(0x00))\n      dup1\n      0x67d9e374\n      eq\n      tag_3\n      jumpi\n      dup1\n      0x893d20e8\n      eq\n      tag_4\n      jumpi\n      dup1\n      0xa28835b6\n      eq\n      tag_5\n      jumpi\n      jump(tag_2)\n    tag_1:\n      jumpi(tag_2, calldatasize)\n      stop\n    tag_2:\n      0x00\n      dup1\n      revert\n        /* \"homework/Admin.sol\":661:853  function withdraw_cur_contract() payable external be_owner_and_has_balance {... */\n    tag_3:\n      tag_8\n      tag_9\n      jump\t// in\n    tag_8:\n      stop\n        /* \"homework/Admin.sol\":859:936  function getOwner() public view returns(address){... */\n    tag_4:\n      callvalue\n      dup1\n      iszero\n      tag_10\n      jumpi\n      0x00\n      dup1\n      revert\n    tag_10:\n      pop\n      tag_11\n      tag_12\n      jump\t// in\n    tag_11:\n      mload(0x40)\n      tag_13\n      swap2\n      swap1\n      tag_14\n      jump\t// in\n    tag_13:\n      mload(0x40)\n      dup1\n      swap2\n      sub\n      swap1\n      return\n        /* \"homework/Admin.sol\":250:326  function adminWithdraw(IBank bank) external {... */\n    tag_5:\n      callvalue\n      dup1\n      iszero\n      tag_15\n      jumpi\n      0x00\n      dup1\n      revert\n    tag_15:\n      pop\n      tag_16\n      0x04\n      dup1\n      calldatasize\n      sub\n      dup2\n      add\n      swap1\n      tag_17\n      swap2\n      swap1\n      tag_18\n      jump\t// in\n    tag_17:\n      tag_19\n      jump\t// in\n    tag_16:\n      stop\n        /* \"homework/Admin.sol\":661:853  function withdraw_cur_contract() payable external be_owner_and_has_balance {... */\n    tag_9:\n        /* \"homework/Admin.sol\":550:555  owner */\n      0x00\n      dup1\n      sload\n      swap1\n      0x0100\n      exp\n      swap1\n      div\n      0xffffffffffffffffffffffffffffffffffffffff\n      and\n        /* \"homework/Admin.sol\":536:555  msg.sender == owner */\n      0xffffffffffffffffffffffffffffffffffffffff\n      and\n        /* \"homework/Admin.sol\":536:546  msg.sender */\n      caller\n        /* \"homework/Admin.sol\":536:555  msg.sender == owner */\n      0xffffffffffffffffffffffffffffffffffffffff\n      and\n      eq\n        /* \"homework/Admin.sol\":528:573  require(msg.sender == owner, \"must_be_owner\") */\n      tag_21\n      jumpi\n      mload(0x40)\n      0x08c379a000000000000000000000000000000000000000000000000000000000\n      dup2\n      mstore\n      0x04\n      add\n      tag_22\n      swap1\n      tag_23\n      jump\t// in\n    tag_22:\n      mload(0x40)\n      dup1\n      swap2\n      sub\n      swap1\n      revert\n    tag_21:\n        /* \"homework/Admin.sol\":615:616  0 */\n      0x00\n        /* \"homework/Admin.sol\":591:612  address(this).balance */\n      selfbalance\n        /* \"homework/Admin.sol\":591:616  address(this).balance > 0 */\n      gt\n        /* \"homework/Admin.sol\":583:637  require(address(this).balance > 0, \"must has balance\") */\n      tag_24\n      jumpi\n      mload(0x40)\n      0x08c379a000000000000000000000000000000000000000000000000000000000\n      dup2\n      mstore\n      0x04\n      add\n      tag_25\n      swap1\n      tag_26\n      jump\t// in\n    tag_25:\n      mload(0x40)\n      dup1\n      swap2\n      sub\n      swap1\n      revert\n    tag_24:\n        /* \"homework/Admin.sol\":746:772  address payable owner_addr */\n      0x00\n        /* \"homework/Admin.sol\":783:793  msg.sender */\n      caller\n        /* \"homework/Admin.sol\":746:794  address payable owner_addr = payable(msg.sender) */\n      swap1\n      pop\n        /* \"homework/Admin.sol\":804:814  owner_addr */\n      dup1\n        /* \"homework/Admin.sol\":804:823  owner_addr.transfer */\n      0xffffffffffffffffffffffffffffffffffffffff\n      and\n        /* \"homework/Admin.sol\":804:846  owner_addr.transfer(address(this).balance) */\n      0x08fc\n        /* \"homework/Admin.sol\":824:845  address(this).balance */\n      selfbalance\n        /* \"homework/Admin.sol\":804:846  owner_addr.transfer(address(this).balance) */\n      swap1\n      dup2\n      iszero\n      mul\n      swap1\n      mload(0x40)\n      0x00\n      mload(0x40)\n      dup1\n      dup4\n      sub\n      dup2\n      dup6\n      dup9\n      dup9\n      call\n      swap4\n      pop\n      pop\n      pop\n      pop\n      iszero\n      dup1\n      iszero\n      tag_29\n      jumpi\n      returndatasize\n      0x00\n      dup1\n      returndatacopy\n      revert(0x00, returndatasize)\n    tag_29:\n      pop\n        /* \"homework/Admin.sol\":647:648  _ */\n      pop\n        /* \"homework/Admin.sol\":661:853  function withdraw_cur_contract() payable external be_owner_and_has_balance {... */\n      jump\t// out\n        /* \"homework/Admin.sol\":859:936  function getOwner() public view returns(address){... */\n    tag_12:\n        /* \"homework/Admin.sol\":899:906  address */\n      0x00\n        /* \"homework/Admin.sol\":924:929  owner */\n      dup1\n      0x00\n      swap1\n      sload\n      swap1\n      0x0100\n      exp\n      swap1\n      div\n      0xffffffffffffffffffffffffffffffffffffffff\n      and\n        /* \"homework/Admin.sol\":917:929  return owner */\n      swap1\n      pop\n        /* \"homework/Admin.sol\":859:936  function getOwner() public view returns(address){... */\n      swap1\n      jump\t// out\n        /* \"homework/Admin.sol\":250:326  function adminWithdraw(IBank bank) external {... */\n    tag_19:\n        /* \"homework/Admin.sol\":304:308  bank */\n      dup1\n        /* \"homework/Admin.sol\":304:317  bank.withdraw */\n      0xffffffffffffffffffffffffffffffffffffffff\n      and\n      0x3ccfd60b\n        /* \"homework/Admin.sol\":304:319  bank.withdraw() */\n      mload(0x40)\n      dup2\n      0xffffffff\n      and\n      0xe0\n      shl\n      dup2\n      mstore\n      0x04\n      add\n      0x20\n      mload(0x40)\n      dup1\n      dup4\n      sub\n      dup2\n      0x00\n      dup8\n      dup1\n      extcodesize\n      iszero\n      dup1\n      iszero\n      tag_32\n      jumpi\n      0x00\n      dup1\n      revert\n    tag_32:\n      pop\n      gas\n      call\n      iszero\n      dup1\n      iszero\n      tag_34\n      jumpi\n      returndatasize\n      0x00\n      dup1\n      returndatacopy\n      revert(0x00, returndatasize)\n    tag_34:\n      pop\n      pop\n      pop\n      pop\n      mload(0x40)\n      returndatasize\n      not(0x1f)\n      0x1f\n      dup3\n      add\n      and\n      dup3\n      add\n      dup1\n      0x40\n      mstore\n      pop\n      dup2\n      add\n      swap1\n      tag_35\n      swap2\n      swap1\n      tag_36\n      jump\t// in\n    tag_35:\n      pop\n        /* \"homework/Admin.sol\":250:326  function adminWithdraw(IBank bank) external {... */\n      pop\n      jump\t// out\n        /* \"#utility.yul\":7:170   */\n    tag_38:\n      0x00\n        /* \"#utility.yul\":103:109   */\n      dup2\n        /* \"#utility.yul\":90:110   */\n      calldataload\n        /* \"#utility.yul\":81:110   */\n      swap1\n      pop\n        /* \"#utility.yul\":119:164   */\n      tag_40\n        /* \"#utility.yul\":158:163   */\n      dup2\n        /* \"#utility.yul\":119:164   */\n      tag_41\n      jump\t// in\n    tag_40:\n        /* \"#utility.yul\":71:170   */\n      swap3\n      swap2\n      pop\n      pop\n      jump\t// out\n        /* \"#utility.yul\":176:313   */\n    tag_42:\n      0x00\n        /* \"#utility.yul\":261:267   */\n      dup2\n        /* \"#utility.yul\":255:268   */\n      mload\n        /* \"#utility.yul\":246:268   */\n      swap1\n      pop\n        /* \"#utility.yul\":277:307   */\n      tag_44\n        /* \"#utility.yul\":301:306   */\n      dup2\n        /* \"#utility.yul\":277:307   */\n      tag_45\n      jump\t// in\n    tag_44:\n        /* \"#utility.yul\":236:313   */\n      swap3\n      swap2\n      pop\n      pop\n      jump\t// out\n        /* \"#utility.yul\":319:605   */\n    tag_18:\n      0x00\n        /* \"#utility.yul\":439:441   */\n      0x20\n        /* \"#utility.yul\":427:436   */\n      dup3\n        /* \"#utility.yul\":418:425   */\n      dup5\n        /* \"#utility.yul\":414:437   */\n      sub\n        /* \"#utility.yul\":410:442   */\n      slt\n        /* \"#utility.yul\":407:409   */\n      iszero\n      tag_47\n      jumpi\n        /* \"#utility.yul\":455:456   */\n      0x00\n        /* \"#utility.yul\":452:453   */\n      dup1\n        /* \"#utility.yul\":445:457   */\n      revert\n        /* \"#utility.yul\":407:409   */\n    tag_47:\n        /* \"#utility.yul\":498:499   */\n      0x00\n        /* \"#utility.yul\":523:588   */\n      tag_48\n        /* \"#utility.yul\":580:587   */\n      dup5\n        /* \"#utility.yul\":571:577   */\n      dup3\n        /* \"#utility.yul\":560:569   */\n      dup6\n        /* \"#utility.yul\":556:578   */\n      add\n        /* \"#utility.yul\":523:588   */\n      tag_38\n      jump\t// in\n    tag_48:\n        /* \"#utility.yul\":513:588   */\n      swap2\n      pop\n        /* \"#utility.yul\":469:598   */\n      pop\n        /* \"#utility.yul\":397:605   */\n      swap3\n      swap2\n      pop\n      pop\n      jump\t// out\n        /* \"#utility.yul\":611:889   */\n    tag_36:\n      0x00\n        /* \"#utility.yul\":727:729   */\n      0x20\n        /* \"#utility.yul\":715:724   */\n      dup3\n        /* \"#utility.yul\":706:713   */\n      dup5\n        /* \"#utility.yul\":702:725   */\n      sub\n        /* \"#utility.yul\":698:730   */\n      slt\n        /* \"#utility.yul\":695:697   */\n      iszero\n      tag_50\n      jumpi\n        /* \"#utility.yul\":743:744   */\n      0x00\n        /* \"#utility.yul\":740:741   */\n      dup1\n        /* \"#utility.yul\":733:745   */\n      revert\n        /* \"#utility.yul\":695:697   */\n    tag_50:\n        /* \"#utility.yul\":786:787   */\n      0x00\n        /* \"#utility.yul\":811:872   */\n      tag_51\n        /* \"#utility.yul\":864:871   */\n      dup5\n        /* \"#utility.yul\":855:861   */\n      dup3\n        /* \"#utility.yul\":844:853   */\n      dup6\n        /* \"#utility.yul\":840:862   */\n      add\n        /* \"#utility.yul\":811:872   */\n      tag_42\n      jump\t// in\n    tag_51:\n        /* \"#utility.yul\":801:872   */\n      swap2\n      pop\n        /* \"#utility.yul\":757:882   */\n      pop\n        /* \"#utility.yul\":685:889   */\n      swap3\n      swap2\n      pop\n      pop\n      jump\t// out\n        /* \"#utility.yul\":895:1013   */\n    tag_52:\n        /* \"#utility.yul\":982:1006   */\n      tag_54\n        /* \"#utility.yul\":1000:1005   */\n      dup2\n        /* \"#utility.yul\":982:1006   */\n      tag_55\n      jump\t// in\n    tag_54:\n        /* \"#utility.yul\":977:980   */\n      dup3\n        /* \"#utility.yul\":970:1007   */\n      mstore\n        /* \"#utility.yul\":960:1013   */\n      pop\n      pop\n      jump\t// out\n        /* \"#utility.yul\":1019:1385   */\n    tag_56:\n      0x00\n        /* \"#utility.yul\":1182:1249   */\n      tag_58\n        /* \"#utility.yul\":1246:1248   */\n      0x0d\n        /* \"#utility.yul\":1241:1244   */\n      dup4\n        /* \"#utility.yul\":1182:1249   */\n      tag_59\n      jump\t// in\n    tag_58:\n        /* \"#utility.yul\":1175:1249   */\n      swap2\n      pop\n        /* \"#utility.yul\":1258:1351   */\n      tag_60\n        /* \"#utility.yul\":1347:1350   */\n      dup3\n        /* \"#utility.yul\":1258:1351   */\n      tag_61\n      jump\t// in\n    tag_60:\n        /* \"#utility.yul\":1376:1378   */\n      0x20\n        /* \"#utility.yul\":1371:1374   */\n      dup3\n        /* \"#utility.yul\":1367:1379   */\n      add\n        /* \"#utility.yul\":1360:1379   */\n      swap1\n      pop\n        /* \"#utility.yul\":1165:1385   */\n      swap2\n      swap1\n      pop\n      jump\t// out\n        /* \"#utility.yul\":1391:1757   */\n    tag_62:\n      0x00\n        /* \"#utility.yul\":1554:1621   */\n      tag_64\n        /* \"#utility.yul\":1618:1620   */\n      0x10\n        /* \"#utility.yul\":1613:1616   */\n      dup4\n        /* \"#utility.yul\":1554:1621   */\n      tag_59\n      jump\t// in\n    tag_64:\n        /* \"#utility.yul\":1547:1621   */\n      swap2\n      pop\n        /* \"#utility.yul\":1630:1723   */\n      tag_65\n        /* \"#utility.yul\":1719:1722   */\n      dup3\n        /* \"#utility.yul\":1630:1723   */\n      tag_66\n      jump\t// in\n    tag_65:\n        /* \"#utility.yul\":1748:1750   */\n      0x20\n        /* \"#utility.yul\":1743:1746   */\n      dup3\n        /* \"#utility.yul\":1739:1751   */\n      add\n        /* \"#utility.yul\":1732:1751   */\n      swap1\n      pop\n        /* \"#utility.yul\":1537:1757   */\n      swap2\n      swap1\n      pop\n      jump\t// out\n        /* \"#utility.yul\":1763:1985   */\n    tag_14:\n      0x00\n        /* \"#utility.yul\":1894:1896   */\n      0x20\n        /* \"#utility.yul\":1883:1892   */\n      dup3\n        /* \"#utility.yul\":1879:1897   */\n      add\n        /* \"#utility.yul\":1871:1897   */\n      swap1\n      pop\n        /* \"#utility.yul\":1907:1978   */\n      tag_68\n        /* \"#utility.yul\":1975:1976   */\n      0x00\n        /* \"#utility.yul\":1964:1973   */\n      dup4\n        /* \"#utility.yul\":1960:1977   */\n      add\n        /* \"#utility.yul\":1951:1957   */\n      dup5\n        /* \"#utility.yul\":1907:1978   */\n      tag_52\n      jump\t// in\n    tag_68:\n        /* \"#utility.yul\":1861:1985   */\n      swap3\n      swap2\n      pop\n      pop\n      jump\t// out\n        /* \"#utility.yul\":1991:2410   */\n    tag_23:\n      0x00\n        /* \"#utility.yul\":2195:2197   */\n      0x20\n        /* \"#utility.yul\":2184:2193   */\n      dup3\n        /* \"#utility.yul\":2180:2198   */\n      add\n        /* \"#utility.yul\":2172:2198   */\n      swap1\n      pop\n        /* \"#utility.yul\":2244:2253   */\n      dup2\n        /* \"#utility.yul\":2238:2242   */\n      dup2\n        /* \"#utility.yul\":2234:2254   */\n      sub\n        /* \"#utility.yul\":2230:2231   */\n      0x00\n        /* \"#utility.yul\":2219:2228   */\n      dup4\n        /* \"#utility.yul\":2215:2232   */\n      add\n        /* \"#utility.yul\":2208:2255   */\n      mstore\n        /* \"#utility.yul\":2272:2403   */\n      tag_70\n        /* \"#utility.yul\":2398:2402   */\n      dup2\n        /* \"#utility.yul\":2272:2403   */\n      tag_56\n      jump\t// in\n    tag_70:\n        /* \"#utility.yul\":2264:2403   */\n      swap1\n      pop\n        /* \"#utility.yul\":2162:2410   */\n      swap2\n      swap1\n      pop\n      jump\t// out\n        /* \"#utility.yul\":2416:2835   */\n    tag_26:\n      0x00\n        /* \"#utility.yul\":2620:2622   */\n      0x20\n        /* \"#utility.yul\":2609:2618   */\n      dup3\n        /* \"#utility.yul\":2605:2623   */\n      add\n        /* \"#utility.yul\":2597:2623   */\n      swap1\n      pop\n        /* \"#utility.yul\":2669:2678   */\n      dup2\n        /* \"#utility.yul\":2663:2667   */\n      dup2\n        /* \"#utility.yul\":2659:2679   */\n      sub\n        /* \"#utility.yul\":2655:2656   */\n      0x00\n        /* \"#utility.yul\":2644:2653   */\n      dup4\n        /* \"#utility.yul\":2640:2657   */\n      add\n        /* \"#utility.yul\":2633:2680   */\n      mstore\n        /* \"#utility.yul\":2697:2828   */\n      tag_72\n        /* \"#utility.yul\":2823:2827   */\n      dup2\n        /* \"#utility.yul\":2697:2828   */\n      tag_62\n      jump\t// in\n    tag_72:\n        /* \"#utility.yul\":2689:2828   */\n      swap1\n      pop\n        /* \"#utility.yul\":2587:2835   */\n      swap2\n      swap1\n      pop\n      jump\t// out\n        /* \"#utility.yul\":2841:3010   */\n    tag_59:\n      0x00\n        /* \"#utility.yul\":2959:2965   */\n      dup3\n        /* \"#utility.yul\":2954:2957   */\n      dup3\n        /* \"#utility.yul\":2947:2966   */\n      mstore\n        /* \"#utility.yul\":2999:3003   */\n      0x20\n        /* \"#utility.yul\":2994:2997   */\n      dup3\n        /* \"#utility.yul\":2990:3004   */\n      add\n        /* \"#utility.yul\":2975:3004   */\n      swap1\n      pop\n        /* \"#utility.yul\":2937:3010   */\n      swap3\n      swap2\n      pop\n      pop\n      jump\t// out\n        /* \"#utility.yul\":3016:3112   */\n    tag_55:\n      0x00\n        /* \"#utility.yul\":3082:3106   */\n      tag_75\n        /* \"#utility.yul\":3100:3105   */\n      dup3\n        /* \"#utility.yul\":3082:3106   */\n      tag_76\n      jump\t// in\n    tag_75:\n        /* \"#utility.yul\":3071:3106   */\n      swap1\n      pop\n        /* \"#utility.yul\":3061:3112   */\n      swap2\n      swap1\n      pop\n      jump\t// out\n        /* \"#utility.yul\":3118:3226   */\n    tag_77:\n      0x00\n        /* \"#utility.yul\":3196:3220   */\n      tag_79\n        /* \"#utility.yul\":3214:3219   */\n      dup3\n        /* \"#utility.yul\":3196:3220   */\n      tag_55\n      jump\t// in\n    tag_79:\n        /* \"#utility.yul\":3185:3220   */\n      swap1\n      pop\n        /* \"#utility.yul\":3175:3226   */\n      swap2\n      swap1\n      pop\n      jump\t// out\n        /* \"#utility.yul\":3232:3321   */\n    tag_80:\n      0x00\n        /* \"#utility.yul\":3309:3314   */\n      dup2\n        /* \"#utility.yul\":3306:3307   */\n      0x00\n        /* \"#utility.yul\":3295:3315   */\n      signextend\n        /* \"#utility.yul\":3284:3315   */\n      swap1\n      pop\n        /* \"#utility.yul\":3274:3321   */\n      swap2\n      swap1\n      pop\n      jump\t// out\n        /* \"#utility.yul\":3327:3453   */\n    tag_76:\n      0x00\n        /* \"#utility.yul\":3404:3446   */\n      0xffffffffffffffffffffffffffffffffffffffff\n        /* \"#utility.yul\":3397:3402   */\n      dup3\n        /* \"#utility.yul\":3393:3447   */\n      and\n        /* \"#utility.yul\":3382:3447   */\n      swap1\n      pop\n        /* \"#utility.yul\":3372:3453   */\n      swap2\n      swap1\n      pop\n      jump\t// out\n        /* \"#utility.yul\":3459:3622   */\n    tag_61:\n        /* \"#utility.yul\":3599:3614   */\n      0x6d7573745f62655f6f776e657200000000000000000000000000000000000000\n        /* \"#utility.yul\":3595:3596   */\n      0x00\n        /* \"#utility.yul\":3587:3593   */\n      dup3\n        /* \"#utility.yul\":3583:3597   */\n      add\n        /* \"#utility.yul\":3576:3615   */\n      mstore\n        /* \"#utility.yul\":3565:3622   */\n      pop\n      jump\t// out\n        /* \"#utility.yul\":3628:3794   */\n    tag_66:\n        /* \"#utility.yul\":3768:3786   */\n      0x6d757374206861732062616c616e636500000000000000000000000000000000\n        /* \"#utility.yul\":3764:3765   */\n      0x00\n        /* \"#utility.yul\":3756:3762   */\n      dup3\n        /* \"#utility.yul\":3752:3766   */\n      add\n        /* \"#utility.yul\":3745:3787   */\n      mstore\n        /* \"#utility.yul\":3734:3794   */\n      pop\n      jump\t// out\n        /* \"#utility.yul\":3800:3946   */\n    tag_41:\n        /* \"#utility.yul\":3885:3921   */\n      tag_86\n        /* \"#utility.yul\":3915:3920   */\n      dup2\n        /* \"#utility.yul\":3885:3921   */\n      tag_77\n      jump\t// in\n    tag_86:\n        /* \"#utility.yul\":3878:3883   */\n      dup2\n        /* \"#utility.yul\":3875:3922   */\n      eq\n        /* \"#utility.yul\":3865:3867   */\n      tag_87\n      jumpi\n        /* \"#utility.yul\":3936:3937   */\n      0x00\n        /* \"#utility.yul\":3933:3934   */\n      dup1\n        /* \"#utility.yul\":3926:3938   */\n      revert\n        /* \"#utility.yul\":3865:3867   */\n    tag_87:\n        /* \"#utility.yul\":3855:3946   */\n      pop\n      jump\t// out\n        /* \"#utility.yul\":3952:4068   */\n    tag_45:\n        /* \"#utility.yul\":4022:4043   */\n      tag_89\n        /* \"#utility.yul\":4037:4042   */\n      dup2\n        /* \"#utility.yul\":4022:4043   */\n      tag_80\n      jump\t// in\n    tag_89:\n        /* \"#utility.yul\":4015:4020   */\n      dup2\n        /* \"#utility.yul\":4012:4044   */\n      eq\n        /* \"#utility.yul\":4002:4004   */\n      tag_90\n      jumpi\n        /* \"#utility.yul\":4058:4059   */\n      0x00\n        /* \"#utility.yul\":4055:4056   */\n      dup1\n        /* \"#utility.yul\":4048:4060   */\n      revert\n        /* \"#utility.yul\":4002:4004   */\n    tag_90:\n        /* \"#utility.yul\":3992:4068   */\n      pop\n      jump\t// out\n\n    auxdata: 0xa2646970667358221220e94b00cbc4b4ea2c14c6c629d5365f7a9cc000ea5e4adf1cd3c77331a13e999764736f6c63430008020033\n}\n",
				"bytecode": {
					"linkReferences": {},
					"object": "608060405234801561001057600080fd5b50336000806101000a81548173ffffffffffffffffffffffffffffffffffffffff021916908373ffffffffffffffffffffffffffffffffffffffff1602179055506104b3806100606000396000f3fe6080604052600436106100385760003560e01c806367d9e37414610044578063893d20e81461004e578063a28835b6146100795761003f565b3661003f57005b600080fd5b61004c6100a2565b005b34801561005a57600080fd5b506100636101c2565b6040516100709190610340565b60405180910390f35b34801561008557600080fd5b506100a0600480360381019061009b9190610299565b6101eb565b005b60008054906101000a900473ffffffffffffffffffffffffffffffffffffffff1673ffffffffffffffffffffffffffffffffffffffff163373ffffffffffffffffffffffffffffffffffffffff1614610130576040517f08c379a00000000000000000000000000000000000000000000000000000000081526004016101279061035b565b60405180910390fd5b60004711610173576040517f08c379a000000000000000000000000000000000000000000000000000000000815260040161016a9061037b565b60405180910390fd5b60003390508073ffffffffffffffffffffffffffffffffffffffff166108fc479081150290604051600060405180830381858888f193505050501580156101be573d6000803e3d6000fd5b5050565b60008060009054906101000a900473ffffffffffffffffffffffffffffffffffffffff16905090565b8073ffffffffffffffffffffffffffffffffffffffff16633ccfd60b6040518163ffffffff1660e01b8152600401602060405180830381600087803b15801561023357600080fd5b505af1158015610247573d6000803e3d6000fd5b505050506040513d601f19601f8201168201806040525081019061026b91906102c2565b5050565b60008135905061027e8161044f565b92915050565b60008151905061029381610466565b92915050565b6000602082840312156102ab57600080fd5b60006102b98482850161026f565b91505092915050565b6000602082840312156102d457600080fd5b60006102e284828501610284565b91505092915050565b6102f4816103ac565b82525050565b6000610307600d8361039b565b9150610312826103fd565b602082019050919050565b600061032a60108361039b565b915061033582610426565b602082019050919050565b600060208201905061035560008301846102eb565b92915050565b60006020820190508181036000830152610374816102fa565b9050919050565b600060208201905081810360008301526103948161031d565b9050919050565b600082825260208201905092915050565b60006103b7826103dd565b9050919050565b60006103c9826103ac565b9050919050565b60008160000b9050919050565b600073ffffffffffffffffffffffffffffffffffffffff82169050919050565b7f6d7573745f62655f6f776e657200000000000000000000000000000000000000600082015250565b7f6d757374206861732062616c616e636500000000000000000000000000000000600082015250565b610458816103be565b811461046357600080fd5b50565b61046f816103d0565b811461047a57600080fd5b5056fea2646970667358221220e94b00cbc4b4ea2c14c6c629d5365f7a9cc000ea5e4adf1cd3c77331a13e999764736f6c63430008020033",
					"opcodes": "PUSH1 0x80 PUSH1 0x40 MSTORE CALLVALUE DUP1 ISZERO PUSH2 0x10 JUMPI PUSH1 0x0 DUP1 REVERT JUMPDEST POP CALLER PUSH1 0x0 DUP1 PUSH2 0x100 EXP DUP2 SLOAD DUP2 PUSH20 0xFFFFFFFFFFFFFFFFFFFFFFFFFFFFFFFFFFFFFFFF MUL NOT AND SWAP1 DUP4 PUSH20 0xFFFFFFFFFFFFFFFFFFFFFFFFFFFFFFFFFFFFFFFF AND MUL OR SWAP1 SSTORE POP PUSH2 0x4B3 DUP1 PUSH2 0x60 PUSH1 0x0 CODECOPY PUSH1 0x0 RETURN INVALID PUSH1 0x80 PUSH1 0x40 MSTORE PUSH1 0x4 CALLDATASIZE LT PUSH2 0x38 JUMPI PUSH1 0x0 CALLDATALOAD PUSH1 0xE0 SHR DUP1 PUSH4 0x67D9E374 EQ PUSH2 0x44 JUMPI DUP1 PUSH4 0x893D20E8 EQ PUSH2 0x4E JUMPI DUP1 PUSH4 0xA28835B6 EQ PUSH2 0x79 JUMPI PUSH2 0x3F JUMP JUMPDEST CALLDATASIZE PUSH2 0x3F JUMPI STOP JUMPDEST PUSH1 0x0 DUP1 REVERT JUMPDEST PUSH2 0x4C PUSH2 0xA2 JUMP JUMPDEST STOP JUMPDEST CALLVALUE DUP1 ISZERO PUSH2 0x5A JUMPI PUSH1 0x0 DUP1 REVERT JUMPDEST POP PUSH2 0x63 PUSH2 0x1C2 JUMP JUMPDEST PUSH1 0x40 MLOAD PUSH2 0x70 SWAP2 SWAP1 PUSH2 0x340 JUMP JUMPDEST PUSH1 0x40 MLOAD DUP1 SWAP2 SUB SWAP1 RETURN JUMPDEST CALLVALUE DUP1 ISZERO PUSH2 0x85 JUMPI PUSH1 0x0 DUP1 REVERT JUMPDEST POP PUSH2 0xA0 PUSH1 0x4 DUP1 CALLDATASIZE SUB DUP2 ADD SWAP1 PUSH2 0x9B SWAP2 SWAP1 PUSH2 0x299 JUMP JUMPDEST PUSH2 0x1EB JUMP JUMPDEST STOP JUMPDEST PUSH1 0x0 DUP1 SLOAD SWAP1 PUSH2 0x100 EXP SWAP1 DIV PUSH20 0xFFFFFFFFFFFFFFFFFFFFFFFFFFFFFFFFFFFFFFFF AND PUSH20 0xFFFFFFFFFFFFFFFFFFFFFFFFFFFFFFFFFFFFFFFF AND CALLER PUSH20 0xFFFFFFFFFFFFFFFFFFFFFFFFFFFFFFFFFFFFFFFF AND EQ PUSH2 0x130 JUMPI PUSH1 0x40 MLOAD PUSH32 0x8C379A000000000000000000000000000000000000000000000000000000000 DUP2 MSTORE PUSH1 0x4 ADD PUSH2 0x127 SWAP1 PUSH2 0x35B JUMP JUMPDEST PUSH1 0x40 MLOAD DUP1 SWAP2 SUB SWAP1 REVERT JUMPDEST PUSH1 0x0 SELFBALANCE GT PUSH2 0x173 JUMPI PUSH1 0x40 MLOAD PUSH32 0x8C379A000000000000000000000000000000000000000000000000000000000 DUP2 MSTORE PUSH1 0x4 ADD PUSH2 0x16A SWAP1 PUSH2 0x37B JUMP JUMPDEST PUSH1 0x40 MLOAD DUP1 SWAP2 SUB SWAP1 REVERT JUMPDEST PUSH1 0x0 CALLER SWAP1 POP DUP1 PUSH20 0xFFFFFFFFFFFFFFFFFFFFFFFFFFFFFFFFFFFFFFFF AND PUSH2 0x8FC SELFBALANCE SWAP1 DUP2 ISZERO MUL SWAP1 PUSH1 0x40 MLOAD PUSH1 0x0 PUSH1 0x40 MLOAD DUP1 DUP4 SUB DUP2 DUP6 DUP9 DUP9 CALL SWAP4 POP POP POP POP ISZERO DUP1 ISZERO PUSH2 0x1BE JUMPI RETURNDATASIZE PUSH1 0x0 DUP1 RETURNDATACOPY RETURNDATASIZE PUSH1 0x0 REVERT JUMPDEST POP POP JUMP JUMPDEST PUSH1 0x0 DUP1 PUSH1 0x0 SWAP1 SLOAD SWAP1 PUSH2 0x100 EXP SWAP1 DIV PUSH20 0xFFFFFFFFFFFFFFFFFFFFFFFFFFFFFFFFFFFFFFFF AND SWAP1 POP SWAP1 JUMP JUMPDEST DUP1 PUSH20 0xFFFFFFFFFFFFFFFFFFFFFFFFFFFFFFFFFFFFFFFF AND PUSH4 0x3CCFD60B PUSH1 0x40 MLOAD DUP2 PUSH4 0xFFFFFFFF AND PUSH1 0xE0 SHL DUP2 MSTORE PUSH1 0x4 ADD PUSH1 0x20 PUSH1 0x40 MLOAD DUP1 DUP4 SUB DUP2 PUSH1 0x0 DUP8 DUP1 EXTCODESIZE ISZERO DUP1 ISZERO PUSH2 0x233 JUMPI PUSH1 0x0 DUP1 REVERT JUMPDEST POP GAS CALL ISZERO DUP1 ISZERO PUSH2 0x247 JUMPI RETURNDATASIZE PUSH1 0x0 DUP1 RETURNDATACOPY RETURNDATASIZE PUSH1 0x0 REVERT JUMPDEST POP POP POP POP PUSH1 0x40 MLOAD RETURNDATASIZE PUSH1 0x1F NOT PUSH1 0x1F DUP3 ADD AND DUP3 ADD DUP1 PUSH1 0x40 MSTORE POP DUP2 ADD SWAP1 PUSH2 0x26B SWAP2 SWAP1 PUSH2 0x2C2 JUMP JUMPDEST POP POP JUMP JUMPDEST PUSH1 0x0 DUP2 CALLDATALOAD SWAP1 POP PUSH2 0x27E DUP2 PUSH2 0x44F JUMP JUMPDEST SWAP3 SWAP2 POP POP JUMP JUMPDEST PUSH1 0x0 DUP2 MLOAD SWAP1 POP PUSH2 0x293 DUP2 PUSH2 0x466 JUMP JUMPDEST SWAP3 SWAP2 POP POP JUMP JUMPDEST PUSH1 0x0 PUSH1 0x20 DUP3 DUP5 SUB SLT ISZERO PUSH2 0x2AB JUMPI PUSH1 0x0 DUP1 REVERT JUMPDEST PUSH1 0x0 PUSH2 0x2B9 DUP5 DUP3 DUP6 ADD PUSH2 0x26F JUMP JUMPDEST SWAP2 POP POP SWAP3 SWAP2 POP POP JUMP JUMPDEST PUSH1 0x0 PUSH1 0x20 DUP3 DUP5 SUB SLT ISZERO PUSH2 0x2D4 JUMPI PUSH1 0x0 DUP1 REVERT JUMPDEST PUSH1 0x0 PUSH2 0x2E2 DUP5 DUP3 DUP6 ADD PUSH2 0x284 JUMP JUMPDEST SWAP2 POP POP SWAP3 SWAP2 POP POP JUMP JUMPDEST PUSH2 0x2F4 DUP2 PUSH2 0x3AC JUMP JUMPDEST DUP3 MSTORE POP POP JUMP JUMPDEST PUSH1 0x0 PUSH2 0x307 PUSH1 0xD DUP4 PUSH2 0x39B JUMP JUMPDEST SWAP2 POP PUSH2 0x312 DUP3 PUSH2 0x3FD JUMP JUMPDEST PUSH1 0x20 DUP3 ADD SWAP1 POP SWAP2 SWAP1 POP JUMP JUMPDEST PUSH1 0x0 PUSH2 0x32A PUSH1 0x10 DUP4 PUSH2 0x39B JUMP JUMPDEST SWAP2 POP PUSH2 0x335 DUP3 PUSH2 0x426 JUMP JUMPDEST PUSH1 0x20 DUP3 ADD SWAP1 POP SWAP2 SWAP1 POP JUMP JUMPDEST PUSH1 0x0 PUSH1 0x20 DUP3 ADD SWAP1 POP PUSH2 0x355 PUSH1 0x0 DUP4 ADD DUP5 PUSH2 0x2EB JUMP JUMPDEST SWAP3 SWAP2 POP POP JUMP JUMPDEST PUSH1 0x0 PUSH1 0x20 DUP3 ADD SWAP1 POP DUP2 DUP2 SUB PUSH1 0x0 DUP4 ADD MSTORE PUSH2 0x374 DUP2 PUSH2 0x2FA JUMP JUMPDEST SWAP1 POP SWAP2 SWAP1 POP JUMP JUMPDEST PUSH1 0x0 PUSH1 0x20 DUP3 ADD SWAP1 POP DUP2 DUP2 SUB PUSH1 0x0 DUP4 ADD MSTORE PUSH2 0x394 DUP2 PUSH2 0x31D JUMP JUMPDEST SWAP1 POP SWAP2 SWAP1 POP JUMP JUMPDEST PUSH1 0x0 DUP3 DUP3 MSTORE PUSH1 0x20 DUP3 ADD SWAP1 POP SWAP3 SWAP2 POP POP JUMP JUMPDEST PUSH1 0x0 PUSH2 0x3B7 DUP3 PUSH2 0x3DD JUMP JUMPDEST SWAP1 POP SWAP2 SWAP1 POP JUMP JUMPDEST PUSH1 0x0 PUSH2 0x3C9 DUP3 PUSH2 0x3AC JUMP JUMPDEST SWAP1 POP SWAP2 SWAP1 POP JUMP JUMPDEST PUSH1 0x0 DUP2 PUSH1 0x0 SIGNEXTEND SWAP1 POP SWAP2 SWAP1 POP JUMP JUMPDEST PUSH1 0x0 PUSH20 0xFFFFFFFFFFFFFFFFFFFFFFFFFFFFFFFFFFFFFFFF DUP3 AND SWAP1 POP SWAP2 SWAP1 POP JUMP JUMPDEST PUSH32 0x6D7573745F62655F6F776E657200000000000000000000000000000000000000 PUSH1 0x0 DUP3 ADD MSTORE POP JUMP JUMPDEST PUSH32 0x6D757374206861732062616C616E636500000000000000000000000000000000 PUSH1 0x0 DUP3 ADD MSTORE POP JUMP JUMPDEST PUSH2 0x458 DUP2 PUSH2 0x3BE JUMP JUMPDEST DUP2 EQ PUSH2 0x463 JUMPI PUSH1 0x0 DUP1 REVERT JUMPDEST POP JUMP JUMPDEST PUSH2 0x46F DUP2 PUSH2 0x3D0 JUMP JUMPDEST DUP2 EQ PUSH2 0x47A JUMPI PUSH1 0x0 DUP1 REVERT JUMPDEST POP JUMP INVALID LOG2 PUSH5 0x6970667358 0x22 SLT KECCAK256 0xE9 0x4B STOP 0xCB 0xC4 0xB4 0xEA 0x2C EQ 0xC6 0xC6 0x29 0xD5 CALLDATASIZE 0x5F PUSH27 0x9CC000EA5E4ADF1CD3C77331A13E999764736F6C63430008020033 "
				},
				"gasEstimates": {
					"creation": {
						"codeDepositCost": "240600",
						"executionCost": "21147",
						"totalCost": "261747"
					},
					"external": {
						"adminWithdraw(address)": "infinite",
						"getOwner()": "1222",
						"withdraw_cur_contract()": "infinite"
					}
				},
				"methodIdentifiers": {
					"adminWithdraw(address)": "a28835b6",
					"getOwner()": "893d20e8",
					"withdraw_cur_contract()": "67d9e374"
				}
			},
			"storageLayout": {
				"storage": [
					{
						"astId": 4,
						"contract": "homework/Admin.sol:Admin",
						"label": "owner",
						"offset": 0,
						"slot": "0",
						"type": "t_address"
					}
				],
				"types": {
					"t_address": {
						"encoding": "inplace",
						"label": "address",
						"numberOfBytes": "20"
					}
				}
			},
			"userdoc": {
				"kind": "user",
				"methods": {},
				"version": 1
			}
		}
	}
}