{
	"homework/BigBank.sol": {
		"BigBank": {
			"abi": [
				{
					"inputs": [
						{
							"internalType": "address",
							"name": "",
							"type": "address"
						}
					],
					"name": "addr_balance",
					"outputs": [
						{
							"internalType": "uint256",
							"name": "",
							"type": "uint256"
						}
					],
					"stateMutability": "view",
					"type": "function"
				},
				{
					"inputs": [],
					"name": "getAdminAddr",
					"outputs": [
						{
							"internalType": "address",
							"name": "",
							"type": "address"
						}
					],
					"stateMutability": "view",
					"type": "function"
				},
				{
					"inputs": [],
					"name": "getTop3",
					"outputs": [
						{
							"internalType": "address[3]",
							"name": "",
							"type": "address[3]"
						}
					],
					"stateMutability": "view",
					"type": "function"
				},
				{
					"inputs": [
						{
							"internalType": "address",
							"name": "new_addr",
							"type": "address"
						}
					],
					"name": "transferAdmin",
					"outputs": [],
					"stateMutability": "nonpayable",
					"type": "function"
				},
				{
					"inputs": [],
					"name": "withdraw",
					"outputs": [
						{
							"internalType": "int8",
							"name": "",
							"type": "int8"
						}
					],
					"stateMutability": "payable",
					"type": "function"
				},
				{
					"stateMutability": "payable",
					"type": "receive"
				}
			],
			"devdoc": {
				"kind": "dev",
				"methods": {},
				"version": 1
			},
			"evm": {
				"assembly": "    /* \"homework/BigBank.sol\":87:555  contract BigBank is Bank {... */\n  mstore(0x40, 0x80)\n  callvalue\n  dup1\n  iszero\n  tag_1\n  jumpi\n  0x00\n  dup1\n  revert\ntag_1:\n  pop\n    /* \"homework/Bank.sol\":505:515  msg.sender */\n  caller\n    /* \"homework/Bank.sol\":492:502  admin_addr */\n  0x04\n  0x00\n    /* \"homework/Bank.sol\":492:515  admin_addr = msg.sender */\n  0x0100\n  exp\n  dup2\n  sload\n  dup2\n  0xffffffffffffffffffffffffffffffffffffffff\n  mul\n  not\n  and\n  swap1\n  dup4\n  0xffffffffffffffffffffffffffffffffffffffff\n  and\n  mul\n  or\n  swap1\n  sstore\n  pop\n    /* \"homework/BigBank.sol\":87:555  contract BigBank is Bank {... */\n  dataSize(sub_0)\n  dup1\n  dataOffset(sub_0)\n  0x00\n  codecopy\n  0x00\n  return\nstop\n\nsub_0: assembly {\n        /* \"homework/BigBank.sol\":87:555  contract BigBank is Bank {... */\n      mstore(0x40, 0x80)\n      jumpi(tag_1, lt(calldatasize, 0x04))\n      shr(0xe0, calldataload(0x00))\n      dup1\n      0x3ccfd60b\n      eq\n      tag_3\n      jumpi\n      dup1\n      0x4061a5bf\n      eq\n      tag_4\n      jumpi\n      dup1\n      0x6d645b44\n      eq\n      tag_5\n      jumpi\n      dup1\n      0x75829def\n      eq\n      tag_6\n      jumpi\n      dup1\n      0xe262838f\n      eq\n      tag_7\n      jumpi\n      jump(tag_2)\n    tag_1:\n      jumpi(tag_2, calldatasize)\n        /* \"homework/BigBank.sol\":188:200  0.001 * 1e18 */\n      0x038d7ea4c68000\n        /* \"homework/BigBank.sol\":247:256  msg.value */\n      callvalue\n        /* \"homework/BigBank.sol\":247:275  msg.value >= LOWEST_SAVE_WEI */\n      lt\n      iszero\n        /* \"homework/BigBank.sol\":239:304  require(msg.value >= LOWEST_SAVE_WEI, \"can't less than 0.001ETH\") */\n      tag_10\n      jumpi\n      mload(0x40)\n      0x08c379a000000000000000000000000000000000000000000000000000000000\n      dup2\n      mstore\n      0x04\n      add\n      tag_11\n      swap1\n      tag_12\n      jump\t// in\n    tag_11:\n      mload(0x40)\n      dup1\n      swap2\n      sub\n      swap1\n      revert\n    tag_10:\n        /* \"homework/BigBank.sol\":518:545  super.recordBalanceOfAddr() */\n      tag_14\n        /* \"homework/BigBank.sol\":518:543  super.recordBalanceOfAddr */\n      tag_15\n        /* \"homework/BigBank.sol\":518:545  super.recordBalanceOfAddr() */\n      jump\t// in\n    tag_14:\n        /* \"homework/BigBank.sol\":87:555  contract BigBank is Bank {... */\n      stop\n    tag_2:\n      0x00\n      dup1\n      revert\n        /* \"homework/Bank.sol\":1092:1587  function withdraw() external payable override returns(int8) {... */\n    tag_3:\n      tag_16\n      tag_17\n      jump\t// in\n    tag_16:\n      mload(0x40)\n      tag_18\n      swap2\n      swap1\n      tag_19\n      jump\t// in\n    tag_18:\n      mload(0x40)\n      dup1\n      swap2\n      sub\n      swap1\n      return\n        /* \"homework/Bank.sol\":2274:2374  function getTop3() public view returns(address[3] memory) {... */\n    tag_4:\n      callvalue\n      dup1\n      iszero\n      tag_20\n      jumpi\n      0x00\n      dup1\n      revert\n    tag_20:\n      pop\n      tag_21\n      tag_22\n      jump\t// in\n    tag_21:\n      mload(0x40)\n      tag_23\n      swap2\n      swap1\n      tag_24\n      jump\t// in\n    tag_23:\n      mload(0x40)\n      dup1\n      swap2\n      sub\n      swap1\n      return\n        /* \"homework/Bank.sol\":740:827  function getAdminAddr() public view returns(address) {... */\n    tag_5:\n      callvalue\n      dup1\n      iszero\n      tag_25\n      jumpi\n      0x00\n      dup1\n      revert\n    tag_25:\n      pop\n      tag_26\n      tag_27\n      jump\t// in\n    tag_26:\n      mload(0x40)\n      tag_28\n      swap2\n      swap1\n      tag_29\n      jump\t// in\n    tag_28:\n      mload(0x40)\n      dup1\n      swap2\n      sub\n      swap1\n      return\n        /* \"homework/BigBank.sol\":354:455  function transferAdmin(address new_addr) public isOwner {... */\n    tag_6:\n      callvalue\n      dup1\n      iszero\n      tag_30\n      jumpi\n      0x00\n      dup1\n      revert\n    tag_30:\n      pop\n      tag_31\n      0x04\n      dup1\n      calldatasize\n      sub\n      dup2\n      add\n      swap1\n      tag_32\n      swap2\n      swap1\n      tag_33\n      jump\t// in\n    tag_32:\n      tag_34\n      jump\t// in\n    tag_31:\n      stop\n        /* \"homework/Bank.sol\":164:211  mapping(address => uint256) public addr_balance */\n    tag_7:\n      callvalue\n      dup1\n      iszero\n      tag_35\n      jumpi\n      0x00\n      dup1\n      revert\n    tag_35:\n      pop\n      tag_36\n      0x04\n      dup1\n      calldatasize\n      sub\n      dup2\n      add\n      swap1\n      tag_37\n      swap2\n      swap1\n      tag_33\n      jump\t// in\n    tag_37:\n      tag_38\n      jump\t// in\n    tag_36:\n      mload(0x40)\n      tag_39\n      swap2\n      swap1\n      tag_40\n      jump\t// in\n    tag_39:\n      mload(0x40)\n      dup1\n      swap2\n      sub\n      swap1\n      return\n        /* \"homework/Bank.sol\":1593:2268  function recordBalanceOfAddr() internal {... */\n    tag_15:\n        /* \"homework/Bank.sol\":1643:1658  bool has_record */\n      0x00\n        /* \"homework/Bank.sol\":1688:1689  0 */\n      dup1\n        /* \"homework/Bank.sol\":1661:1673  addr_balance */\n      0x00\n        /* \"homework/Bank.sol\":1661:1685  addr_balance[msg.sender] */\n      dup1\n        /* \"homework/Bank.sol\":1674:1684  msg.sender */\n      caller\n        /* \"homework/Bank.sol\":1661:1685  addr_balance[msg.sender] */\n      0xffffffffffffffffffffffffffffffffffffffff\n      and\n      0xffffffffffffffffffffffffffffffffffffffff\n      and\n      dup2\n      mstore\n      0x20\n      add\n      swap1\n      dup2\n      mstore\n      0x20\n      add\n      0x00\n      keccak256\n      sload\n        /* \"homework/Bank.sol\":1661:1689  addr_balance[msg.sender] > 0 */\n      gt\n        /* \"homework/Bank.sol\":1643:1689  bool has_record = addr_balance[msg.sender] > 0 */\n      swap1\n      pop\n        /* \"homework/Bank.sol\":1745:1754  msg.value */\n      callvalue\n        /* \"homework/Bank.sol\":1717:1729  addr_balance */\n      0x00\n        /* \"homework/Bank.sol\":1717:1741  addr_balance[msg.sender] */\n      dup1\n        /* \"homework/Bank.sol\":1730:1740  msg.sender */\n      caller\n        /* \"homework/Bank.sol\":1717:1741  addr_balance[msg.sender] */\n      0xffffffffffffffffffffffffffffffffffffffff\n      and\n      0xffffffffffffffffffffffffffffffffffffffff\n      and\n      dup2\n      mstore\n      0x20\n      add\n      swap1\n      dup2\n      mstore\n      0x20\n      add\n      0x00\n      keccak256\n      0x00\n        /* \"homework/Bank.sol\":1717:1754  addr_balance[msg.sender] += msg.value */\n      dup3\n      dup3\n      sload\n      tag_42\n      swap2\n      swap1\n      tag_43\n      jump\t// in\n    tag_42:\n      swap3\n      pop\n      pop\n      dup2\n      swap1\n      sstore\n      pop\n        /* \"homework/Bank.sol\":1804:1818  uint256 lowest */\n      0x00\n        /* \"homework/Bank.sol\":1820:1839  address lowest_addr */\n      dup1\n        /* \"homework/Bank.sol\":1843:1867  lowest_balance_in_top3() */\n      tag_44\n        /* \"homework/Bank.sol\":1843:1865  lowest_balance_in_top3 */\n      tag_45\n        /* \"homework/Bank.sol\":1843:1867  lowest_balance_in_top3() */\n      jump\t// in\n    tag_44:\n        /* \"homework/Bank.sol\":1803:1867  (uint256 lowest, address lowest_addr) = lowest_balance_in_top3() */\n      swap2\n      pop\n      swap2\n      pop\n        /* \"homework/Bank.sol\":1891:1892  0 */\n      0x00\n        /* \"homework/Bank.sol\":1881:1887  lowest */\n      dup3\n        /* \"homework/Bank.sol\":1881:1892  lowest == 0 */\n      eq\n        /* \"homework/Bank.sol\":1881:1907  lowest == 0 && !has_record */\n      dup1\n      iszero\n      tag_46\n      jumpi\n      pop\n        /* \"homework/Bank.sol\":1897:1907  has_record */\n      dup3\n        /* \"homework/Bank.sol\":1896:1907  !has_record */\n      iszero\n        /* \"homework/Bank.sol\":1881:1907  lowest == 0 && !has_record */\n    tag_46:\n        /* \"homework/Bank.sol\":1877:2262  if (lowest == 0 && !has_record) {... */\n      iszero\n      tag_47\n      jumpi\n        /* \"homework/Bank.sol\":1923:1934  init_top3() */\n      tag_48\n        /* \"homework/Bank.sol\":1923:1932  init_top3 */\n      tag_49\n        /* \"homework/Bank.sol\":1923:1934  init_top3() */\n      jump\t// in\n    tag_48:\n        /* \"homework/Bank.sol\":1877:2262  if (lowest == 0 && !has_record) {... */\n      jump(tag_50)\n    tag_47:\n        /* \"homework/Bank.sol\":1982:1988  lowest */\n      dup2\n        /* \"homework/Bank.sol\":1955:1967  addr_balance */\n      0x00\n        /* \"homework/Bank.sol\":1955:1979  addr_balance[msg.sender] */\n      dup1\n        /* \"homework/Bank.sol\":1968:1978  msg.sender */\n      caller\n        /* \"homework/Bank.sol\":1955:1979  addr_balance[msg.sender] */\n      0xffffffffffffffffffffffffffffffffffffffff\n      and\n      0xffffffffffffffffffffffffffffffffffffffff\n      and\n      dup2\n      mstore\n      0x20\n      add\n      swap1\n      dup2\n      mstore\n      0x20\n      add\n      0x00\n      keccak256\n      sload\n        /* \"homework/Bank.sol\":1955:1988  addr_balance[msg.sender] > lowest */\n      gt\n        /* \"homework/Bank.sol\":1951:2262  if (addr_balance[msg.sender] > lowest) {... */\n      iszero\n      tag_51\n      jumpi\n        /* \"homework/Bank.sol\":2055:2061  uint i */\n      0x00\n        /* \"homework/Bank.sol\":2050:2252  for (uint i = 0; i < top_3_balance_addr.length; i++) {... */\n    tag_52:\n        /* \"homework/Bank.sol\":2071:2096  top_3_balance_addr.length */\n      0x03\n        /* \"homework/Bank.sol\":2067:2068  i */\n      dup2\n        /* \"homework/Bank.sol\":2067:2096  i < top_3_balance_addr.length */\n      lt\n        /* \"homework/Bank.sol\":2050:2252  for (uint i = 0; i < top_3_balance_addr.length; i++) {... */\n      iszero\n      tag_53\n      jumpi\n        /* \"homework/Bank.sol\":2150:2161  lowest_addr */\n      dup2\n        /* \"homework/Bank.sol\":2125:2161  top_3_balance_addr[i] == lowest_addr */\n      0xffffffffffffffffffffffffffffffffffffffff\n      and\n        /* \"homework/Bank.sol\":2125:2143  top_3_balance_addr */\n      0x01\n        /* \"homework/Bank.sol\":2144:2145  i */\n      dup3\n        /* \"homework/Bank.sol\":2125:2146  top_3_balance_addr[i] */\n      0x03\n      dup2\n      lt\n      tag_55\n      jumpi\n      mstore(0x00, 0x4e487b7100000000000000000000000000000000000000000000000000000000)\n      mstore(0x04, 0x32)\n      revert(0x00, 0x24)\n    tag_55:\n      add\n      0x00\n      swap1\n      sload\n      swap1\n      0x0100\n      exp\n      swap1\n      div\n      0xffffffffffffffffffffffffffffffffffffffff\n      and\n        /* \"homework/Bank.sol\":2125:2161  top_3_balance_addr[i] == lowest_addr */\n      0xffffffffffffffffffffffffffffffffffffffff\n      and\n      eq\n        /* \"homework/Bank.sol\":2121:2238  if (top_3_balance_addr[i] == lowest_addr) {... */\n      iszero\n      tag_57\n      jumpi\n        /* \"homework/Bank.sol\":2209:2219  msg.sender */\n      caller\n        /* \"homework/Bank.sol\":2185:2203  top_3_balance_addr */\n      0x01\n        /* \"homework/Bank.sol\":2204:2205  i */\n      dup3\n        /* \"homework/Bank.sol\":2185:2206  top_3_balance_addr[i] */\n      0x03\n      dup2\n      lt\n      tag_58\n      jumpi\n      mstore(0x00, 0x4e487b7100000000000000000000000000000000000000000000000000000000)\n      mstore(0x04, 0x32)\n      revert(0x00, 0x24)\n    tag_58:\n      add\n      0x00\n        /* \"homework/Bank.sol\":2185:2219  top_3_balance_addr[i] = msg.sender */\n      0x0100\n      exp\n      dup2\n      sload\n      dup2\n      0xffffffffffffffffffffffffffffffffffffffff\n      mul\n      not\n      and\n      swap1\n      dup4\n      0xffffffffffffffffffffffffffffffffffffffff\n      and\n      mul\n      or\n      swap1\n      sstore\n      pop\n        /* \"homework/Bank.sol\":2121:2238  if (top_3_balance_addr[i] == lowest_addr) {... */\n    tag_57:\n        /* \"homework/Bank.sol\":2098:2101  i++ */\n      dup1\n      dup1\n      tag_60\n      swap1\n      tag_61\n      jump\t// in\n    tag_60:\n      swap2\n      pop\n      pop\n        /* \"homework/Bank.sol\":2050:2252  for (uint i = 0; i < top_3_balance_addr.length; i++) {... */\n      jump(tag_52)\n    tag_53:\n      pop\n        /* \"homework/Bank.sol\":1951:2262  if (addr_balance[msg.sender] > lowest) {... */\n    tag_51:\n        /* \"homework/Bank.sol\":1877:2262  if (lowest == 0 && !has_record) {... */\n    tag_50:\n        /* \"homework/Bank.sol\":1593:2268  function recordBalanceOfAddr() internal {... */\n      pop\n      pop\n      pop\n      jump\t// out\n        /* \"homework/Bank.sol\":1092:1587  function withdraw() external payable override returns(int8) {... */\n    tag_17:\n        /* \"homework/Bank.sol\":1146:1150  int8 */\n      0x00\n        /* \"homework/Bank.sol\":1162:1182  address payable addr */\n      dup1\n        /* \"homework/Bank.sol\":1201:1211  msg.sender */\n      caller\n        /* \"homework/Bank.sol\":1162:1213  address payable addr = payable(address(msg.sender)) */\n      swap1\n      pop\n        /* \"homework/Bank.sol\":1271:1281  admin_addr */\n      0x04\n      0x00\n      swap1\n      sload\n      swap1\n      0x0100\n      exp\n      swap1\n      div\n      0xffffffffffffffffffffffffffffffffffffffff\n      and\n        /* \"homework/Bank.sol\":1263:1281  addr != admin_addr */\n      0xffffffffffffffffffffffffffffffffffffffff\n      and\n        /* \"homework/Bank.sol\":1263:1267  addr */\n      dup2\n        /* \"homework/Bank.sol\":1263:1281  addr != admin_addr */\n      0xffffffffffffffffffffffffffffffffffffffff\n      and\n      eq\n        /* \"homework/Bank.sol\":1259:1317  if (addr != admin_addr) {... */\n      tag_63\n      jumpi\n        /* \"homework/Bank.sol\":1304:1306  -1 */\n      0xffffffffffffffffffffffffffffffffffffffffffffffffffffffffffffffff\n        /* \"homework/Bank.sol\":1297:1306  return -1 */\n      swap2\n      pop\n      pop\n      jump(tag_62)\n        /* \"homework/Bank.sol\":1259:1317  if (addr != admin_addr) {... */\n    tag_63:\n        /* \"homework/Bank.sol\":1326:1351  address payable this_addr */\n      0x00\n        /* \"homework/Bank.sol\":1370:1374  this */\n      address\n        /* \"homework/Bank.sol\":1326:1376  address payable this_addr = payable(address(this)) */\n      swap1\n      pop\n        /* \"homework/Bank.sol\":1386:1401  uint256 balance */\n      0x00\n        /* \"homework/Bank.sol\":1404:1413  this_addr */\n      dup2\n        /* \"homework/Bank.sol\":1404:1421  this_addr.balance */\n      0xffffffffffffffffffffffffffffffffffffffff\n      and\n      balance\n        /* \"homework/Bank.sol\":1386:1421  uint256 balance = this_addr.balance */\n      swap1\n      pop\n        /* \"homework/Bank.sol\":1445:1446  0 */\n      0x00\n        /* \"homework/Bank.sol\":1435:1442  balance */\n      dup2\n        /* \"homework/Bank.sol\":1435:1446  balance > 0 */\n      gt\n        /* \"homework/Bank.sol\":1431:1563  if (balance > 0) {... */\n      iszero\n      tag_64\n      jumpi\n        /* \"homework/Bank.sol\":1462:1466  addr */\n      dup3\n        /* \"homework/Bank.sol\":1462:1475  addr.transfer */\n      0xffffffffffffffffffffffffffffffffffffffff\n      and\n        /* \"homework/Bank.sol\":1462:1484  addr.transfer(balance) */\n      0x08fc\n        /* \"homework/Bank.sol\":1476:1483  balance */\n      dup3\n        /* \"homework/Bank.sol\":1462:1484  addr.transfer(balance) */\n      swap1\n      dup2\n      iszero\n      mul\n      swap1\n      mload(0x40)\n      0x00\n      mload(0x40)\n      dup1\n      dup4\n      sub\n      dup2\n      dup6\n      dup9\n      dup9\n      call\n      swap4\n      pop\n      pop\n      pop\n      pop\n      iszero\n      dup1\n      iszero\n      tag_66\n      jumpi\n      returndatasize\n      0x00\n      dup1\n      returndatacopy\n      revert(0x00, returndatasize)\n    tag_66:\n      pop\n        /* \"homework/Bank.sol\":1431:1563  if (balance > 0) {... */\n      jump(tag_67)\n    tag_64:\n        /* \"homework/Bank.sol\":1550:1552  -2 */\n      0xfffffffffffffffffffffffffffffffffffffffffffffffffffffffffffffffe\n        /* \"homework/Bank.sol\":1543:1552  return -2 */\n      swap4\n      pop\n      pop\n      pop\n      pop\n      jump(tag_62)\n        /* \"homework/Bank.sol\":1431:1563  if (balance > 0) {... */\n    tag_67:\n        /* \"homework/Bank.sol\":1579:1580  0 */\n      0x00\n        /* \"homework/Bank.sol\":1572:1580  return 0 */\n      swap4\n      pop\n      pop\n      pop\n      pop\n        /* \"homework/Bank.sol\":1092:1587  function withdraw() external payable override returns(int8) {... */\n    tag_62:\n      swap1\n      jump\t// out\n        /* \"homework/Bank.sol\":2274:2374  function getTop3() public view returns(address[3] memory) {... */\n    tag_22:\n        /* \"homework/Bank.sol\":2313:2330  address[3] memory */\n      tag_68\n      tag_69\n      jump\t// in\n    tag_68:\n        /* \"homework/Bank.sol\":2349:2367  top_3_balance_addr */\n      0x01\n        /* \"homework/Bank.sol\":2342:2367  return top_3_balance_addr */\n      0x03\n      dup1\n      0x20\n      mul\n      mload(0x40)\n      swap1\n      dup2\n      add\n      0x40\n      mstore\n      dup1\n      swap3\n      swap2\n      swap1\n      dup3\n      0x03\n      dup1\n      iszero\n      tag_71\n      jumpi\n      0x20\n      mul\n      dup3\n      add\n      swap2\n    tag_72:\n      dup2\n      0x00\n      swap1\n      sload\n      swap1\n      0x0100\n      exp\n      swap1\n      div\n      0xffffffffffffffffffffffffffffffffffffffff\n      and\n      0xffffffffffffffffffffffffffffffffffffffff\n      and\n      dup2\n      mstore\n      0x20\n      add\n      swap1\n      0x01\n      add\n      swap1\n      dup1\n      dup4\n      gt\n      tag_72\n      jumpi\n    tag_71:\n      pop\n      pop\n      pop\n      pop\n      pop\n      swap1\n      pop\n        /* \"homework/Bank.sol\":2274:2374  function getTop3() public view returns(address[3] memory) {... */\n      swap1\n      jump\t// out\n        /* \"homework/Bank.sol\":740:827  function getAdminAddr() public view returns(address) {... */\n    tag_27:\n        /* \"homework/Bank.sol\":784:791  address */\n      0x00\n        /* \"homework/Bank.sol\":810:820  admin_addr */\n      0x04\n      0x00\n      swap1\n      sload\n      swap1\n      0x0100\n      exp\n      swap1\n      div\n      0xffffffffffffffffffffffffffffffffffffffff\n      and\n        /* \"homework/Bank.sol\":803:820  return admin_addr */\n      swap1\n      pop\n        /* \"homework/Bank.sol\":740:827  function getAdminAddr() public view returns(address) {... */\n      swap1\n      jump\t// out\n        /* \"homework/BigBank.sol\":354:455  function transferAdmin(address new_addr) public isOwner {... */\n    tag_34:\n        /* \"homework/Bank.sol\":579:589  admin_addr */\n      0x04\n      0x00\n      swap1\n      sload\n      swap1\n      0x0100\n      exp\n      swap1\n      div\n      0xffffffffffffffffffffffffffffffffffffffff\n      and\n        /* \"homework/Bank.sol\":565:589  msg.sender == admin_addr */\n      0xffffffffffffffffffffffffffffffffffffffff\n      and\n        /* \"homework/Bank.sol\":565:575  msg.sender */\n      caller\n        /* \"homework/Bank.sol\":565:589  msg.sender == admin_addr */\n      0xffffffffffffffffffffffffffffffffffffffff\n      and\n      eq\n        /* \"homework/Bank.sol\":557:607  require(msg.sender == admin_addr, \"must be owner\") */\n      tag_75\n      jumpi\n      mload(0x40)\n      0x08c379a000000000000000000000000000000000000000000000000000000000\n      dup2\n      mstore\n      0x04\n      add\n      tag_76\n      swap1\n      tag_77\n      jump\t// in\n    tag_76:\n      mload(0x40)\n      dup1\n      swap2\n      sub\n      swap1\n      revert\n    tag_75:\n        /* \"homework/BigBank.sol\":420:448  super.setAdminAddr(new_addr) */\n      tag_79\n        /* \"homework/BigBank.sol\":439:447  new_addr */\n      dup2\n        /* \"homework/BigBank.sol\":420:438  super.setAdminAddr */\n      tag_80\n        /* \"homework/BigBank.sol\":420:448  super.setAdminAddr(new_addr) */\n      jump\t// in\n    tag_79:\n        /* \"homework/BigBank.sol\":354:455  function transferAdmin(address new_addr) public isOwner {... */\n      pop\n      jump\t// out\n        /* \"homework/Bank.sol\":164:211  mapping(address => uint256) public addr_balance */\n    tag_38:\n      mstore(0x20, 0x00)\n      dup1\n      0x00\n      mstore\n      keccak256(0x00, 0x40)\n      0x00\n      swap2\n      pop\n      swap1\n      pop\n      sload\n      dup2\n      jump\t// out\n        /* \"homework/Bank.sol\":2380:2841  function lowest_balance_in_top3() private need_more_than_zero returns(uint256, address) {... */\n    tag_45:\n        /* \"homework/Bank.sol\":2450:2457  uint256 */\n      0x00\n        /* \"homework/Bank.sol\":2459:2466  address */\n      dup1\n        /* \"homework/Bank.sol\":692:693  0 */\n      0x00\n        /* \"homework/Bank.sol\":680:689  msg.value */\n      callvalue\n        /* \"homework/Bank.sol\":680:693  msg.value > 0 */\n      gt\n        /* \"homework/Bank.sol\":672:716  require(msg.value > 0, \"need msg.value > 0\") */\n      tag_82\n      jumpi\n      mload(0x40)\n      0x08c379a000000000000000000000000000000000000000000000000000000000\n      dup2\n      mstore\n      0x04\n      add\n      tag_83\n      swap1\n      tag_84\n      jump\t// in\n    tag_83:\n      mload(0x40)\n      dup1\n      swap2\n      sub\n      swap1\n      revert\n    tag_82:\n        /* \"homework/Bank.sol\":2478:2492  uint256 lowest */\n      0x00\n        /* \"homework/Bank.sol\":2495:2507  addr_balance */\n      dup1\n        /* \"homework/Bank.sol\":2495:2530  addr_balance[top_3_balance_addr[0]] */\n      0x00\n        /* \"homework/Bank.sol\":2508:2526  top_3_balance_addr */\n      0x01\n        /* \"homework/Bank.sol\":2527:2528  0 */\n      0x00\n        /* \"homework/Bank.sol\":2508:2529  top_3_balance_addr[0] */\n      0x03\n      dup2\n      lt\n      tag_86\n      jumpi\n      mstore(0x00, 0x4e487b7100000000000000000000000000000000000000000000000000000000)\n      mstore(0x04, 0x32)\n      revert(0x00, 0x24)\n    tag_86:\n      add\n      0x00\n      swap1\n      sload\n      swap1\n      0x0100\n      exp\n      swap1\n      div\n      0xffffffffffffffffffffffffffffffffffffffff\n      and\n        /* \"homework/Bank.sol\":2495:2530  addr_balance[top_3_balance_addr[0]] */\n      0xffffffffffffffffffffffffffffffffffffffff\n      and\n      0xffffffffffffffffffffffffffffffffffffffff\n      and\n      dup2\n      mstore\n      0x20\n      add\n      swap1\n      dup2\n      mstore\n      0x20\n      add\n      0x00\n      keccak256\n      sload\n        /* \"homework/Bank.sol\":2478:2530  uint256 lowest = addr_balance[top_3_balance_addr[0]] */\n      swap1\n      pop\n        /* \"homework/Bank.sol\":2540:2559  address lowest_addr */\n      0x00\n        /* \"homework/Bank.sol\":2562:2580  top_3_balance_addr */\n      0x01\n        /* \"homework/Bank.sol\":2581:2582  0 */\n      0x00\n        /* \"homework/Bank.sol\":2562:2583  top_3_balance_addr[0] */\n      0x03\n      dup2\n      lt\n      tag_88\n      jumpi\n      mstore(0x00, 0x4e487b7100000000000000000000000000000000000000000000000000000000)\n      mstore(0x04, 0x32)\n      revert(0x00, 0x24)\n    tag_88:\n      add\n      0x00\n      swap1\n      sload\n      swap1\n      0x0100\n      exp\n      swap1\n      div\n      0xffffffffffffffffffffffffffffffffffffffff\n      and\n        /* \"homework/Bank.sol\":2540:2583  address lowest_addr = top_3_balance_addr[0] */\n      swap1\n      pop\n        /* \"homework/Bank.sol\":2598:2604  uint i */\n      0x00\n        /* \"homework/Bank.sol\":2593:2797  for (uint i = 0; i < top_3_balance_addr.length; i++) {... */\n    tag_90:\n        /* \"homework/Bank.sol\":2614:2639  top_3_balance_addr.length */\n      0x03\n        /* \"homework/Bank.sol\":2610:2611  i */\n      dup2\n        /* \"homework/Bank.sol\":2610:2639  i < top_3_balance_addr.length */\n      lt\n        /* \"homework/Bank.sol\":2593:2797  for (uint i = 0; i < top_3_balance_addr.length; i++) {... */\n      iszero\n      tag_91\n      jumpi\n        /* \"homework/Bank.sol\":2673:2685  addr_balance */\n      0x00\n        /* \"homework/Bank.sol\":2673:2708  addr_balance[top_3_balance_addr[i]] */\n      dup1\n        /* \"homework/Bank.sol\":2686:2704  top_3_balance_addr */\n      0x01\n        /* \"homework/Bank.sol\":2705:2706  i */\n      dup4\n        /* \"homework/Bank.sol\":2686:2707  top_3_balance_addr[i] */\n      0x03\n      dup2\n      lt\n      tag_93\n      jumpi\n      mstore(0x00, 0x4e487b7100000000000000000000000000000000000000000000000000000000)\n      mstore(0x04, 0x32)\n      revert(0x00, 0x24)\n    tag_93:\n      add\n      0x00\n      swap1\n      sload\n      swap1\n      0x0100\n      exp\n      swap1\n      div\n      0xffffffffffffffffffffffffffffffffffffffff\n      and\n        /* \"homework/Bank.sol\":2673:2708  addr_balance[top_3_balance_addr[i]] */\n      0xffffffffffffffffffffffffffffffffffffffff\n      and\n      0xffffffffffffffffffffffffffffffffffffffff\n      and\n      dup2\n      mstore\n      0x20\n      add\n      swap1\n      dup2\n      mstore\n      0x20\n      add\n      0x00\n      keccak256\n      sload\n        /* \"homework/Bank.sol\":2664:2670  lowest */\n      dup4\n        /* \"homework/Bank.sol\":2664:2708  lowest > addr_balance[top_3_balance_addr[i]] */\n      gt\n        /* \"homework/Bank.sol\":2660:2787  if (lowest > addr_balance[top_3_balance_addr[i]]) {... */\n      iszero\n      tag_95\n      jumpi\n        /* \"homework/Bank.sol\":2737:2749  addr_balance */\n      0x00\n        /* \"homework/Bank.sol\":2737:2772  addr_balance[top_3_balance_addr[i]] */\n      dup1\n        /* \"homework/Bank.sol\":2750:2768  top_3_balance_addr */\n      0x01\n        /* \"homework/Bank.sol\":2769:2770  i */\n      dup4\n        /* \"homework/Bank.sol\":2750:2771  top_3_balance_addr[i] */\n      0x03\n      dup2\n      lt\n      tag_96\n      jumpi\n      mstore(0x00, 0x4e487b7100000000000000000000000000000000000000000000000000000000)\n      mstore(0x04, 0x32)\n      revert(0x00, 0x24)\n    tag_96:\n      add\n      0x00\n      swap1\n      sload\n      swap1\n      0x0100\n      exp\n      swap1\n      div\n      0xffffffffffffffffffffffffffffffffffffffff\n      and\n        /* \"homework/Bank.sol\":2737:2772  addr_balance[top_3_balance_addr[i]] */\n      0xffffffffffffffffffffffffffffffffffffffff\n      and\n      0xffffffffffffffffffffffffffffffffffffffff\n      and\n      dup2\n      mstore\n      0x20\n      add\n      swap1\n      dup2\n      mstore\n      0x20\n      add\n      0x00\n      keccak256\n      sload\n        /* \"homework/Bank.sol\":2728:2772  lowest = addr_balance[top_3_balance_addr[i]] */\n      swap3\n      pop\n        /* \"homework/Bank.sol\":2660:2787  if (lowest > addr_balance[top_3_balance_addr[i]]) {... */\n    tag_95:\n        /* \"homework/Bank.sol\":2641:2644  i++ */\n      dup1\n      dup1\n      tag_98\n      swap1\n      tag_61\n      jump\t// in\n    tag_98:\n      swap2\n      pop\n      pop\n        /* \"homework/Bank.sol\":2593:2797  for (uint i = 0; i < top_3_balance_addr.length; i++) {... */\n      jump(tag_90)\n    tag_91:\n      pop\n        /* \"homework/Bank.sol\":2814:2820  lowest */\n      dup2\n        /* \"homework/Bank.sol\":2822:2833  lowest_addr */\n      dup2\n        /* \"homework/Bank.sol\":2806:2834  return (lowest, lowest_addr) */\n      swap4\n      pop\n      swap4\n      pop\n      pop\n      pop\n        /* \"homework/Bank.sol\":2380:2841  function lowest_balance_in_top3() private need_more_than_zero returns(uint256, address) {... */\n      swap1\n      swap2\n      jump\t// out\n        /* \"homework/Bank.sol\":2847:3101  function init_top3() private {... */\n    tag_49:\n        /* \"homework/Bank.sol\":2891:2897  uint i */\n      0x00\n        /* \"homework/Bank.sol\":2886:3095  for (uint i = 0; i< top_3_balance_addr.length;i++) {... */\n    tag_100:\n        /* \"homework/Bank.sol\":2906:2931  top_3_balance_addr.length */\n      0x03\n        /* \"homework/Bank.sol\":2903:2904  i */\n      dup2\n        /* \"homework/Bank.sol\":2903:2931  i< top_3_balance_addr.length */\n      lt\n        /* \"homework/Bank.sol\":2886:3095  for (uint i = 0; i< top_3_balance_addr.length;i++) {... */\n      iszero\n      tag_101\n      jumpi\n        /* \"homework/Bank.sol\":419:461  0x0000000000000000000000000000000000000000 */\n      0x00\n        /* \"homework/Bank.sol\":2955:2992  top_3_balance_addr[i] == UN_INIT_ADDR */\n      0xffffffffffffffffffffffffffffffffffffffff\n      and\n        /* \"homework/Bank.sol\":2955:2973  top_3_balance_addr */\n      0x01\n        /* \"homework/Bank.sol\":2974:2975  i */\n      dup3\n        /* \"homework/Bank.sol\":2955:2976  top_3_balance_addr[i] */\n      0x03\n      dup2\n      lt\n      tag_103\n      jumpi\n      mstore(0x00, 0x4e487b7100000000000000000000000000000000000000000000000000000000)\n      mstore(0x04, 0x32)\n      revert(0x00, 0x24)\n    tag_103:\n      add\n      0x00\n      swap1\n      sload\n      swap1\n      0x0100\n      exp\n      swap1\n      div\n      0xffffffffffffffffffffffffffffffffffffffff\n      and\n        /* \"homework/Bank.sol\":2955:2992  top_3_balance_addr[i] == UN_INIT_ADDR */\n      0xffffffffffffffffffffffffffffffffffffffff\n      and\n      eq\n        /* \"homework/Bank.sol\":2951:3085  if (top_3_balance_addr[i] == UN_INIT_ADDR) {... */\n      iszero\n      tag_105\n      jumpi\n        /* \"homework/Bank.sol\":3036:3046  msg.sender */\n      caller\n        /* \"homework/Bank.sol\":3012:3030  top_3_balance_addr */\n      0x01\n        /* \"homework/Bank.sol\":3031:3032  i */\n      dup3\n        /* \"homework/Bank.sol\":3012:3033  top_3_balance_addr[i] */\n      0x03\n      dup2\n      lt\n      tag_106\n      jumpi\n      mstore(0x00, 0x4e487b7100000000000000000000000000000000000000000000000000000000)\n      mstore(0x04, 0x32)\n      revert(0x00, 0x24)\n    tag_106:\n      add\n      0x00\n        /* \"homework/Bank.sol\":3012:3046  top_3_balance_addr[i] = msg.sender */\n      0x0100\n      exp\n      dup2\n      sload\n      dup2\n      0xffffffffffffffffffffffffffffffffffffffff\n      mul\n      not\n      and\n      swap1\n      dup4\n      0xffffffffffffffffffffffffffffffffffffffff\n      and\n      mul\n      or\n      swap1\n      sstore\n      pop\n        /* \"homework/Bank.sol\":3064:3069  break */\n      jump(tag_101)\n        /* \"homework/Bank.sol\":2951:3085  if (top_3_balance_addr[i] == UN_INIT_ADDR) {... */\n    tag_105:\n        /* \"homework/Bank.sol\":2932:2935  i++ */\n      dup1\n      dup1\n      tag_108\n      swap1\n      tag_61\n      jump\t// in\n    tag_108:\n      swap2\n      pop\n      pop\n        /* \"homework/Bank.sol\":2886:3095  for (uint i = 0; i< top_3_balance_addr.length;i++) {... */\n      jump(tag_100)\n    tag_101:\n      pop\n        /* \"homework/Bank.sol\":2847:3101  function init_top3() private {... */\n      jump\t// out\n        /* \"homework/Bank.sol\":833:928  function setAdminAddr(address new_addr) internal isOwner {... */\n    tag_80:\n        /* \"homework/Bank.sol\":579:589  admin_addr */\n      0x04\n      0x00\n      swap1\n      sload\n      swap1\n      0x0100\n      exp\n      swap1\n      div\n      0xffffffffffffffffffffffffffffffffffffffff\n      and\n        /* \"homework/Bank.sol\":565:589  msg.sender == admin_addr */\n      0xffffffffffffffffffffffffffffffffffffffff\n      and\n        /* \"homework/Bank.sol\":565:575  msg.sender */\n      caller\n        /* \"homework/Bank.sol\":565:589  msg.sender == admin_addr */\n      0xffffffffffffffffffffffffffffffffffffffff\n      and\n      eq\n        /* \"homework/Bank.sol\":557:607  require(msg.sender == admin_addr, \"must be owner\") */\n      tag_110\n      jumpi\n      mload(0x40)\n      0x08c379a000000000000000000000000000000000000000000000000000000000\n      dup2\n      mstore\n      0x04\n      add\n      tag_111\n      swap1\n      tag_77\n      jump\t// in\n    tag_111:\n      mload(0x40)\n      dup1\n      swap2\n      sub\n      swap1\n      revert\n    tag_110:\n        /* \"homework/Bank.sol\":913:921  new_addr */\n      dup1\n        /* \"homework/Bank.sol\":900:910  admin_addr */\n      0x04\n      0x00\n        /* \"homework/Bank.sol\":900:921  admin_addr = new_addr */\n      0x0100\n      exp\n      dup2\n      sload\n      dup2\n      0xffffffffffffffffffffffffffffffffffffffff\n      mul\n      not\n      and\n      swap1\n      dup4\n      0xffffffffffffffffffffffffffffffffffffffff\n      and\n      mul\n      or\n      swap1\n      sstore\n      pop\n        /* \"homework/Bank.sol\":833:928  function setAdminAddr(address new_addr) internal isOwner {... */\n      pop\n      jump\t// out\n    tag_69:\n      mload(0x40)\n      dup1\n      0x60\n      add\n      0x40\n      mstore\n      dup1\n      0x03\n      swap1\n      0x20\n      dup3\n      mul\n      dup1\n      calldatasize\n      dup4\n      calldatacopy\n      dup1\n      dup3\n      add\n      swap2\n      pop\n      pop\n      swap1\n      pop\n      pop\n      swap1\n      jump\t// out\n        /* \"#utility.yul\":7:146   */\n    tag_114:\n      0x00\n        /* \"#utility.yul\":91:97   */\n      dup2\n        /* \"#utility.yul\":78:98   */\n      calldataload\n        /* \"#utility.yul\":69:98   */\n      swap1\n      pop\n        /* \"#utility.yul\":107:140   */\n      tag_116\n        /* \"#utility.yul\":134:139   */\n      dup2\n        /* \"#utility.yul\":107:140   */\n      tag_117\n      jump\t// in\n    tag_116:\n        /* \"#utility.yul\":59:146   */\n      swap3\n      swap2\n      pop\n      pop\n      jump\t// out\n        /* \"#utility.yul\":152:414   */\n    tag_33:\n      0x00\n        /* \"#utility.yul\":260:262   */\n      0x20\n        /* \"#utility.yul\":248:257   */\n      dup3\n        /* \"#utility.yul\":239:246   */\n      dup5\n        /* \"#utility.yul\":235:258   */\n      sub\n        /* \"#utility.yul\":231:263   */\n      slt\n        /* \"#utility.yul\":228:230   */\n      iszero\n      tag_119\n      jumpi\n        /* \"#utility.yul\":276:277   */\n      0x00\n        /* \"#utility.yul\":273:274   */\n      dup1\n        /* \"#utility.yul\":266:278   */\n      revert\n        /* \"#utility.yul\":228:230   */\n    tag_119:\n        /* \"#utility.yul\":319:320   */\n      0x00\n        /* \"#utility.yul\":344:397   */\n      tag_120\n        /* \"#utility.yul\":389:396   */\n      dup5\n        /* \"#utility.yul\":380:386   */\n      dup3\n        /* \"#utility.yul\":369:378   */\n      dup6\n        /* \"#utility.yul\":365:387   */\n      add\n        /* \"#utility.yul\":344:397   */\n      tag_114\n      jump\t// in\n    tag_120:\n        /* \"#utility.yul\":334:397   */\n      swap2\n      pop\n        /* \"#utility.yul\":290:407   */\n      pop\n        /* \"#utility.yul\":218:414   */\n      swap3\n      swap2\n      pop\n      pop\n      jump\t// out\n        /* \"#utility.yul\":420:599   */\n    tag_121:\n      0x00\n        /* \"#utility.yul\":510:556   */\n      tag_123\n        /* \"#utility.yul\":552:555   */\n      dup4\n        /* \"#utility.yul\":544:550   */\n      dup4\n        /* \"#utility.yul\":510:556   */\n      tag_124\n      jump\t// in\n    tag_123:\n        /* \"#utility.yul\":588:592   */\n      0x20\n        /* \"#utility.yul\":583:586   */\n      dup4\n        /* \"#utility.yul\":579:593   */\n      add\n        /* \"#utility.yul\":565:593   */\n      swap1\n      pop\n        /* \"#utility.yul\":500:599   */\n      swap3\n      swap2\n      pop\n      pop\n      jump\t// out\n        /* \"#utility.yul\":605:713   */\n    tag_124:\n        /* \"#utility.yul\":682:706   */\n      tag_126\n        /* \"#utility.yul\":700:705   */\n      dup2\n        /* \"#utility.yul\":682:706   */\n      tag_127\n      jump\t// in\n    tag_126:\n        /* \"#utility.yul\":677:680   */\n      dup3\n        /* \"#utility.yul\":670:707   */\n      mstore\n        /* \"#utility.yul\":660:713   */\n      pop\n      pop\n      jump\t// out\n        /* \"#utility.yul\":719:837   */\n    tag_128:\n        /* \"#utility.yul\":806:830   */\n      tag_130\n        /* \"#utility.yul\":824:829   */\n      dup2\n        /* \"#utility.yul\":806:830   */\n      tag_127\n      jump\t// in\n    tag_130:\n        /* \"#utility.yul\":801:804   */\n      dup3\n        /* \"#utility.yul\":794:831   */\n      mstore\n        /* \"#utility.yul\":784:837   */\n      pop\n      pop\n      jump\t// out\n        /* \"#utility.yul\":875:1569   */\n    tag_131:\n        /* \"#utility.yul\":1011:1063   */\n      tag_133\n        /* \"#utility.yul\":1057:1062   */\n      dup2\n        /* \"#utility.yul\":1011:1063   */\n      tag_134\n      jump\t// in\n    tag_133:\n        /* \"#utility.yul\":1079:1163   */\n      tag_135\n        /* \"#utility.yul\":1156:1162   */\n      dup2\n        /* \"#utility.yul\":1151:1154   */\n      dup5\n        /* \"#utility.yul\":1079:1163   */\n      tag_136\n      jump\t// in\n    tag_135:\n        /* \"#utility.yul\":1072:1163   */\n      swap3\n      pop\n        /* \"#utility.yul\":1187:1241   */\n      tag_137\n        /* \"#utility.yul\":1235:1240   */\n      dup3\n        /* \"#utility.yul\":1187:1241   */\n      tag_138\n      jump\t// in\n    tag_137:\n        /* \"#utility.yul\":1264:1271   */\n      dup1\n        /* \"#utility.yul\":1295:1296   */\n      0x00\n        /* \"#utility.yul\":1280:1562   */\n    tag_139:\n        /* \"#utility.yul\":1305:1311   */\n      dup4\n        /* \"#utility.yul\":1302:1303   */\n      dup2\n        /* \"#utility.yul\":1299:1312   */\n      lt\n        /* \"#utility.yul\":1280:1562   */\n      iszero\n      tag_141\n      jumpi\n        /* \"#utility.yul\":1381:1387   */\n      dup2\n        /* \"#utility.yul\":1375:1388   */\n      mload\n        /* \"#utility.yul\":1408:1471   */\n      tag_142\n        /* \"#utility.yul\":1467:1470   */\n      dup8\n        /* \"#utility.yul\":1452:1465   */\n      dup3\n        /* \"#utility.yul\":1408:1471   */\n      tag_121\n      jump\t// in\n    tag_142:\n        /* \"#utility.yul\":1401:1471   */\n      swap7\n      pop\n        /* \"#utility.yul\":1494:1552   */\n      tag_143\n        /* \"#utility.yul\":1545:1551   */\n      dup4\n        /* \"#utility.yul\":1494:1552   */\n      tag_144\n      jump\t// in\n    tag_143:\n        /* \"#utility.yul\":1484:1552   */\n      swap3\n      pop\n        /* \"#utility.yul\":1340:1562   */\n      pop\n        /* \"#utility.yul\":1327:1328   */\n      0x01\n        /* \"#utility.yul\":1324:1325   */\n      dup2\n        /* \"#utility.yul\":1320:1329   */\n      add\n        /* \"#utility.yul\":1315:1329   */\n      swap1\n      pop\n        /* \"#utility.yul\":1280:1562   */\n      jump(tag_139)\n    tag_141:\n        /* \"#utility.yul\":1284:1298   */\n      pop\n        /* \"#utility.yul\":987:1569   */\n      pop\n      pop\n      pop\n      pop\n      pop\n      jump\t// out\n        /* \"#utility.yul\":1575:1684   */\n    tag_145:\n        /* \"#utility.yul\":1656:1677   */\n      tag_147\n        /* \"#utility.yul\":1671:1676   */\n      dup2\n        /* \"#utility.yul\":1656:1677   */\n      tag_148\n      jump\t// in\n    tag_147:\n        /* \"#utility.yul\":1651:1654   */\n      dup3\n        /* \"#utility.yul\":1644:1678   */\n      mstore\n        /* \"#utility.yul\":1634:1684   */\n      pop\n      pop\n      jump\t// out\n        /* \"#utility.yul\":1690:2056   */\n    tag_149:\n      0x00\n        /* \"#utility.yul\":1853:1920   */\n      tag_151\n        /* \"#utility.yul\":1917:1919   */\n      0x0d\n        /* \"#utility.yul\":1912:1915   */\n      dup4\n        /* \"#utility.yul\":1853:1920   */\n      tag_152\n      jump\t// in\n    tag_151:\n        /* \"#utility.yul\":1846:1920   */\n      swap2\n      pop\n        /* \"#utility.yul\":1929:2022   */\n      tag_153\n        /* \"#utility.yul\":2018:2021   */\n      dup3\n        /* \"#utility.yul\":1929:2022   */\n      tag_154\n      jump\t// in\n    tag_153:\n        /* \"#utility.yul\":2047:2049   */\n      0x20\n        /* \"#utility.yul\":2042:2045   */\n      dup3\n        /* \"#utility.yul\":2038:2050   */\n      add\n        /* \"#utility.yul\":2031:2050   */\n      swap1\n      pop\n        /* \"#utility.yul\":1836:2056   */\n      swap2\n      swap1\n      pop\n      jump\t// out\n        /* \"#utility.yul\":2062:2428   */\n    tag_155:\n      0x00\n        /* \"#utility.yul\":2225:2292   */\n      tag_157\n        /* \"#utility.yul\":2289:2291   */\n      0x12\n        /* \"#utility.yul\":2284:2287   */\n      dup4\n        /* \"#utility.yul\":2225:2292   */\n      tag_152\n      jump\t// in\n    tag_157:\n        /* \"#utility.yul\":2218:2292   */\n      swap2\n      pop\n        /* \"#utility.yul\":2301:2394   */\n      tag_158\n        /* \"#utility.yul\":2390:2393   */\n      dup3\n        /* \"#utility.yul\":2301:2394   */\n      tag_159\n      jump\t// in\n    tag_158:\n        /* \"#utility.yul\":2419:2421   */\n      0x20\n        /* \"#utility.yul\":2414:2417   */\n      dup3\n        /* \"#utility.yul\":2410:2422   */\n      add\n        /* \"#utility.yul\":2403:2422   */\n      swap1\n      pop\n        /* \"#utility.yul\":2208:2428   */\n      swap2\n      swap1\n      pop\n      jump\t// out\n        /* \"#utility.yul\":2434:2800   */\n    tag_160:\n      0x00\n        /* \"#utility.yul\":2597:2664   */\n      tag_162\n        /* \"#utility.yul\":2661:2663   */\n      0x18\n        /* \"#utility.yul\":2656:2659   */\n      dup4\n        /* \"#utility.yul\":2597:2664   */\n      tag_152\n      jump\t// in\n    tag_162:\n        /* \"#utility.yul\":2590:2664   */\n      swap2\n      pop\n        /* \"#utility.yul\":2673:2766   */\n      tag_163\n        /* \"#utility.yul\":2762:2765   */\n      dup3\n        /* \"#utility.yul\":2673:2766   */\n      tag_164\n      jump\t// in\n    tag_163:\n        /* \"#utility.yul\":2791:2793   */\n      0x20\n        /* \"#utility.yul\":2786:2789   */\n      dup3\n        /* \"#utility.yul\":2782:2794   */\n      add\n        /* \"#utility.yul\":2775:2794   */\n      swap1\n      pop\n        /* \"#utility.yul\":2580:2800   */\n      swap2\n      swap1\n      pop\n      jump\t// out\n        /* \"#utility.yul\":2806:2924   */\n    tag_165:\n        /* \"#utility.yul\":2893:2917   */\n      tag_167\n        /* \"#utility.yul\":2911:2916   */\n      dup2\n        /* \"#utility.yul\":2893:2917   */\n      tag_168\n      jump\t// in\n    tag_167:\n        /* \"#utility.yul\":2888:2891   */\n      dup3\n        /* \"#utility.yul\":2881:2918   */\n      mstore\n        /* \"#utility.yul\":2871:2924   */\n      pop\n      pop\n      jump\t// out\n        /* \"#utility.yul\":2930:3152   */\n    tag_29:\n      0x00\n        /* \"#utility.yul\":3061:3063   */\n      0x20\n        /* \"#utility.yul\":3050:3059   */\n      dup3\n        /* \"#utility.yul\":3046:3064   */\n      add\n        /* \"#utility.yul\":3038:3064   */\n      swap1\n      pop\n        /* \"#utility.yul\":3074:3145   */\n      tag_170\n        /* \"#utility.yul\":3142:3143   */\n      0x00\n        /* \"#utility.yul\":3131:3140   */\n      dup4\n        /* \"#utility.yul\":3127:3144   */\n      add\n        /* \"#utility.yul\":3118:3124   */\n      dup5\n        /* \"#utility.yul\":3074:3145   */\n      tag_128\n      jump\t// in\n    tag_170:\n        /* \"#utility.yul\":3028:3152   */\n      swap3\n      swap2\n      pop\n      pop\n      jump\t// out\n        /* \"#utility.yul\":3158:3472   */\n    tag_24:\n      0x00\n        /* \"#utility.yul\":3335:3337   */\n      0x60\n        /* \"#utility.yul\":3324:3333   */\n      dup3\n        /* \"#utility.yul\":3320:3338   */\n      add\n        /* \"#utility.yul\":3312:3338   */\n      swap1\n      pop\n        /* \"#utility.yul\":3348:3465   */\n      tag_172\n        /* \"#utility.yul\":3462:3463   */\n      0x00\n        /* \"#utility.yul\":3451:3460   */\n      dup4\n        /* \"#utility.yul\":3447:3464   */\n      add\n        /* \"#utility.yul\":3438:3444   */\n      dup5\n        /* \"#utility.yul\":3348:3465   */\n      tag_131\n      jump\t// in\n    tag_172:\n        /* \"#utility.yul\":3302:3472   */\n      swap3\n      swap2\n      pop\n      pop\n      jump\t// out\n        /* \"#utility.yul\":3478:3688   */\n    tag_19:\n      0x00\n        /* \"#utility.yul\":3603:3605   */\n      0x20\n        /* \"#utility.yul\":3592:3601   */\n      dup3\n        /* \"#utility.yul\":3588:3606   */\n      add\n        /* \"#utility.yul\":3580:3606   */\n      swap1\n      pop\n        /* \"#utility.yul\":3616:3681   */\n      tag_174\n        /* \"#utility.yul\":3678:3679   */\n      0x00\n        /* \"#utility.yul\":3667:3676   */\n      dup4\n        /* \"#utility.yul\":3663:3680   */\n      add\n        /* \"#utility.yul\":3654:3660   */\n      dup5\n        /* \"#utility.yul\":3616:3681   */\n      tag_145\n      jump\t// in\n    tag_174:\n        /* \"#utility.yul\":3570:3688   */\n      swap3\n      swap2\n      pop\n      pop\n      jump\t// out\n        /* \"#utility.yul\":3694:4113   */\n    tag_77:\n      0x00\n        /* \"#utility.yul\":3898:3900   */\n      0x20\n        /* \"#utility.yul\":3887:3896   */\n      dup3\n        /* \"#utility.yul\":3883:3901   */\n      add\n        /* \"#utility.yul\":3875:3901   */\n      swap1\n      pop\n        /* \"#utility.yul\":3947:3956   */\n      dup2\n        /* \"#utility.yul\":3941:3945   */\n      dup2\n        /* \"#utility.yul\":3937:3957   */\n      sub\n        /* \"#utility.yul\":3933:3934   */\n      0x00\n        /* \"#utility.yul\":3922:3931   */\n      dup4\n        /* \"#utility.yul\":3918:3935   */\n      add\n        /* \"#utility.yul\":3911:3958   */\n      mstore\n        /* \"#utility.yul\":3975:4106   */\n      tag_176\n        /* \"#utility.yul\":4101:4105   */\n      dup2\n        /* \"#utility.yul\":3975:4106   */\n      tag_149\n      jump\t// in\n    tag_176:\n        /* \"#utility.yul\":3967:4106   */\n      swap1\n      pop\n        /* \"#utility.yul\":3865:4113   */\n      swap2\n      swap1\n      pop\n      jump\t// out\n        /* \"#utility.yul\":4119:4538   */\n    tag_84:\n      0x00\n        /* \"#utility.yul\":4323:4325   */\n      0x20\n        /* \"#utility.yul\":4312:4321   */\n      dup3\n        /* \"#utility.yul\":4308:4326   */\n      add\n        /* \"#utility.yul\":4300:4326   */\n      swap1\n      pop\n        /* \"#utility.yul\":4372:4381   */\n      dup2\n        /* \"#utility.yul\":4366:4370   */\n      dup2\n        /* \"#utility.yul\":4362:4382   */\n      sub\n        /* \"#utility.yul\":4358:4359   */\n      0x00\n        /* \"#utility.yul\":4347:4356   */\n      dup4\n        /* \"#utility.yul\":4343:4360   */\n      add\n        /* \"#utility.yul\":4336:4383   */\n      mstore\n        /* \"#utility.yul\":4400:4531   */\n      tag_178\n        /* \"#utility.yul\":4526:4530   */\n      dup2\n        /* \"#utility.yul\":4400:4531   */\n      tag_155\n      jump\t// in\n    tag_178:\n        /* \"#utility.yul\":4392:4531   */\n      swap1\n      pop\n        /* \"#utility.yul\":4290:4538   */\n      swap2\n      swap1\n      pop\n      jump\t// out\n        /* \"#utility.yul\":4544:4963   */\n    tag_12:\n      0x00\n        /* \"#utility.yul\":4748:4750   */\n      0x20\n        /* \"#utility.yul\":4737:4746   */\n      dup3\n        /* \"#utility.yul\":4733:4751   */\n      add\n        /* \"#utility.yul\":4725:4751   */\n      swap1\n      pop\n        /* \"#utility.yul\":4797:4806   */\n      dup2\n        /* \"#utility.yul\":4791:4795   */\n      dup2\n        /* \"#utility.yul\":4787:4807   */\n      sub\n        /* \"#utility.yul\":4783:4784   */\n      0x00\n        /* \"#utility.yul\":4772:4781   */\n      dup4\n        /* \"#utility.yul\":4768:4785   */\n      add\n        /* \"#utility.yul\":4761:4808   */\n      mstore\n        /* \"#utility.yul\":4825:4956   */\n      tag_180\n        /* \"#utility.yul\":4951:4955   */\n      dup2\n        /* \"#utility.yul\":4825:4956   */\n      tag_160\n      jump\t// in\n    tag_180:\n        /* \"#utility.yul\":4817:4956   */\n      swap1\n      pop\n        /* \"#utility.yul\":4715:4963   */\n      swap2\n      swap1\n      pop\n      jump\t// out\n        /* \"#utility.yul\":4969:5191   */\n    tag_40:\n      0x00\n        /* \"#utility.yul\":5100:5102   */\n      0x20\n        /* \"#utility.yul\":5089:5098   */\n      dup3\n        /* \"#utility.yul\":5085:5103   */\n      add\n        /* \"#utility.yul\":5077:5103   */\n      swap1\n      pop\n        /* \"#utility.yul\":5113:5184   */\n      tag_182\n        /* \"#utility.yul\":5181:5182   */\n      0x00\n        /* \"#utility.yul\":5170:5179   */\n      dup4\n        /* \"#utility.yul\":5166:5183   */\n      add\n        /* \"#utility.yul\":5157:5163   */\n      dup5\n        /* \"#utility.yul\":5113:5184   */\n      tag_165\n      jump\t// in\n    tag_182:\n        /* \"#utility.yul\":5067:5191   */\n      swap3\n      swap2\n      pop\n      pop\n      jump\t// out\n        /* \"#utility.yul\":5197:5295   */\n    tag_138:\n      0x00\n        /* \"#utility.yul\":5285:5288   */\n      dup2\n        /* \"#utility.yul\":5277:5288   */\n      swap1\n      pop\n        /* \"#utility.yul\":5267:5295   */\n      swap2\n      swap1\n      pop\n      jump\t// out\n        /* \"#utility.yul\":5301:5405   */\n    tag_134:\n      0x00\n        /* \"#utility.yul\":5394:5398   */\n      0x03\n        /* \"#utility.yul\":5384:5398   */\n      swap1\n      pop\n        /* \"#utility.yul\":5373:5405   */\n      swap2\n      swap1\n      pop\n      jump\t// out\n        /* \"#utility.yul\":5411:5522   */\n    tag_144:\n      0x00\n        /* \"#utility.yul\":5511:5515   */\n      0x20\n        /* \"#utility.yul\":5506:5509   */\n      dup3\n        /* \"#utility.yul\":5502:5516   */\n      add\n        /* \"#utility.yul\":5494:5516   */\n      swap1\n      pop\n        /* \"#utility.yul\":5484:5522   */\n      swap2\n      swap1\n      pop\n      jump\t// out\n        /* \"#utility.yul\":5528:5671   */\n    tag_136:\n      0x00\n        /* \"#utility.yul\":5662:5665   */\n      dup2\n        /* \"#utility.yul\":5647:5665   */\n      swap1\n      pop\n        /* \"#utility.yul\":5637:5671   */\n      swap3\n      swap2\n      pop\n      pop\n      jump\t// out\n        /* \"#utility.yul\":5677:5846   */\n    tag_152:\n      0x00\n        /* \"#utility.yul\":5795:5801   */\n      dup3\n        /* \"#utility.yul\":5790:5793   */\n      dup3\n        /* \"#utility.yul\":5783:5802   */\n      mstore\n        /* \"#utility.yul\":5835:5839   */\n      0x20\n        /* \"#utility.yul\":5830:5833   */\n      dup3\n        /* \"#utility.yul\":5826:5840   */\n      add\n        /* \"#utility.yul\":5811:5840   */\n      swap1\n      pop\n        /* \"#utility.yul\":5773:5846   */\n      swap3\n      swap2\n      pop\n      pop\n      jump\t// out\n        /* \"#utility.yul\":5852:6157   */\n    tag_43:\n      0x00\n        /* \"#utility.yul\":5911:5931   */\n      tag_189\n        /* \"#utility.yul\":5929:5930   */\n      dup3\n        /* \"#utility.yul\":5911:5931   */\n      tag_168\n      jump\t// in\n    tag_189:\n        /* \"#utility.yul\":5906:5931   */\n      swap2\n      pop\n        /* \"#utility.yul\":5945:5965   */\n      tag_190\n        /* \"#utility.yul\":5963:5964   */\n      dup4\n        /* \"#utility.yul\":5945:5965   */\n      tag_168\n      jump\t// in\n    tag_190:\n        /* \"#utility.yul\":5940:5965   */\n      swap3\n      pop\n        /* \"#utility.yul\":6099:6100   */\n      dup3\n        /* \"#utility.yul\":6031:6097   */\n      0xffffffffffffffffffffffffffffffffffffffffffffffffffffffffffffffff\n        /* \"#utility.yul\":6027:6101   */\n      sub\n        /* \"#utility.yul\":6024:6025   */\n      dup3\n        /* \"#utility.yul\":6021:6102   */\n      gt\n        /* \"#utility.yul\":6018:6020   */\n      iszero\n      tag_191\n      jumpi\n        /* \"#utility.yul\":6105:6123   */\n      tag_192\n      tag_193\n      jump\t// in\n    tag_192:\n        /* \"#utility.yul\":6018:6020   */\n    tag_191:\n        /* \"#utility.yul\":6149:6150   */\n      dup3\n        /* \"#utility.yul\":6146:6147   */\n      dup3\n        /* \"#utility.yul\":6142:6151   */\n      add\n        /* \"#utility.yul\":6135:6151   */\n      swap1\n      pop\n        /* \"#utility.yul\":5896:6157   */\n      swap3\n      swap2\n      pop\n      pop\n      jump\t// out\n        /* \"#utility.yul\":6163:6259   */\n    tag_127:\n      0x00\n        /* \"#utility.yul\":6229:6253   */\n      tag_195\n        /* \"#utility.yul\":6247:6252   */\n      dup3\n        /* \"#utility.yul\":6229:6253   */\n      tag_196\n      jump\t// in\n    tag_195:\n        /* \"#utility.yul\":6218:6253   */\n      swap1\n      pop\n        /* \"#utility.yul\":6208:6259   */\n      swap2\n      swap1\n      pop\n      jump\t// out\n        /* \"#utility.yul\":6265:6354   */\n    tag_148:\n      0x00\n        /* \"#utility.yul\":6342:6347   */\n      dup2\n        /* \"#utility.yul\":6339:6340   */\n      0x00\n        /* \"#utility.yul\":6328:6348   */\n      signextend\n        /* \"#utility.yul\":6317:6348   */\n      swap1\n      pop\n        /* \"#utility.yul\":6307:6354   */\n      swap2\n      swap1\n      pop\n      jump\t// out\n        /* \"#utility.yul\":6360:6486   */\n    tag_196:\n      0x00\n        /* \"#utility.yul\":6437:6479   */\n      0xffffffffffffffffffffffffffffffffffffffff\n        /* \"#utility.yul\":6430:6435   */\n      dup3\n        /* \"#utility.yul\":6426:6480   */\n      and\n        /* \"#utility.yul\":6415:6480   */\n      swap1\n      pop\n        /* \"#utility.yul\":6405:6486   */\n      swap2\n      swap1\n      pop\n      jump\t// out\n        /* \"#utility.yul\":6492:6569   */\n    tag_168:\n      0x00\n        /* \"#utility.yul\":6558:6563   */\n      dup2\n        /* \"#utility.yul\":6547:6563   */\n      swap1\n      pop\n        /* \"#utility.yul\":6537:6569   */\n      swap2\n      swap1\n      pop\n      jump\t// out\n        /* \"#utility.yul\":6575:6808   */\n    tag_61:\n      0x00\n        /* \"#utility.yul\":6637:6661   */\n      tag_201\n        /* \"#utility.yul\":6655:6660   */\n      dup3\n        /* \"#utility.yul\":6637:6661   */\n      tag_168\n      jump\t// in\n    tag_201:\n        /* \"#utility.yul\":6628:6661   */\n      swap2\n      pop\n        /* \"#utility.yul\":6683:6749   */\n      0xffffffffffffffffffffffffffffffffffffffffffffffffffffffffffffffff\n        /* \"#utility.yul\":6676:6681   */\n      dup3\n        /* \"#utility.yul\":6673:6750   */\n      eq\n        /* \"#utility.yul\":6670:6672   */\n      iszero\n      tag_202\n      jumpi\n        /* \"#utility.yul\":6753:6771   */\n      tag_203\n      tag_193\n      jump\t// in\n    tag_203:\n        /* \"#utility.yul\":6670:6672   */\n    tag_202:\n        /* \"#utility.yul\":6800:6801   */\n      0x01\n        /* \"#utility.yul\":6793:6798   */\n      dup3\n        /* \"#utility.yul\":6789:6802   */\n      add\n        /* \"#utility.yul\":6782:6802   */\n      swap1\n      pop\n        /* \"#utility.yul\":6618:6808   */\n      swap2\n      swap1\n      pop\n      jump\t// out\n        /* \"#utility.yul\":6814:6994   */\n    tag_193:\n        /* \"#utility.yul\":6862:6939   */\n      0x4e487b7100000000000000000000000000000000000000000000000000000000\n        /* \"#utility.yul\":6859:6860   */\n      0x00\n        /* \"#utility.yul\":6852:6940   */\n      mstore\n        /* \"#utility.yul\":6959:6963   */\n      0x11\n        /* \"#utility.yul\":6956:6957   */\n      0x04\n        /* \"#utility.yul\":6949:6964   */\n      mstore\n        /* \"#utility.yul\":6983:6987   */\n      0x24\n        /* \"#utility.yul\":6980:6981   */\n      0x00\n        /* \"#utility.yul\":6973:6988   */\n      revert\n        /* \"#utility.yul\":7000:7163   */\n    tag_154:\n        /* \"#utility.yul\":7140:7155   */\n      0x6d757374206265206f776e657200000000000000000000000000000000000000\n        /* \"#utility.yul\":7136:7137   */\n      0x00\n        /* \"#utility.yul\":7128:7134   */\n      dup3\n        /* \"#utility.yul\":7124:7138   */\n      add\n        /* \"#utility.yul\":7117:7156   */\n      mstore\n        /* \"#utility.yul\":7106:7163   */\n      pop\n      jump\t// out\n        /* \"#utility.yul\":7169:7337   */\n    tag_159:\n        /* \"#utility.yul\":7309:7329   */\n      0x6e656564206d73672e76616c7565203e20300000000000000000000000000000\n        /* \"#utility.yul\":7305:7306   */\n      0x00\n        /* \"#utility.yul\":7297:7303   */\n      dup3\n        /* \"#utility.yul\":7293:7307   */\n      add\n        /* \"#utility.yul\":7286:7330   */\n      mstore\n        /* \"#utility.yul\":7275:7337   */\n      pop\n      jump\t// out\n        /* \"#utility.yul\":7343:7517   */\n    tag_164:\n        /* \"#utility.yul\":7483:7509   */\n      0x63616e2774206c657373207468616e20302e3030314554480000000000000000\n        /* \"#utility.yul\":7479:7480   */\n      0x00\n        /* \"#utility.yul\":7471:7477   */\n      dup3\n        /* \"#utility.yul\":7467:7481   */\n      add\n        /* \"#utility.yul\":7460:7510   */\n      mstore\n        /* \"#utility.yul\":7449:7517   */\n      pop\n      jump\t// out\n        /* \"#utility.yul\":7523:7645   */\n    tag_117:\n        /* \"#utility.yul\":7596:7620   */\n      tag_209\n        /* \"#utility.yul\":7614:7619   */\n      dup2\n        /* \"#utility.yul\":7596:7620   */\n      tag_127\n      jump\t// in\n    tag_209:\n        /* \"#utility.yul\":7589:7594   */\n      dup2\n        /* \"#utility.yul\":7586:7621   */\n      eq\n        /* \"#utility.yul\":7576:7578   */\n      tag_210\n      jumpi\n        /* \"#utility.yul\":7635:7636   */\n      0x00\n        /* \"#utility.yul\":7632:7633   */\n      dup1\n        /* \"#utility.yul\":7625:7637   */\n      revert\n        /* \"#utility.yul\":7576:7578   */\n    tag_210:\n        /* \"#utility.yul\":7566:7645   */\n      pop\n      jump\t// out\n\n    auxdata: 0xa264697066735822122043cab56dc7545a8e691a70758fb15e6fbfb7fd9271d38c5bb3ac01df7607384f64736f6c63430008020033\n}\n",
				"bytecode": {
					"linkReferences": {},
					"object": "608060405234801561001057600080fd5b5033600460006101000a81548173ffffffffffffffffffffffffffffffffffffffff021916908373ffffffffffffffffffffffffffffffffffffffff160217905550610f67806100616000396000f3fe60806040526004361061004e5760003560e01c80633ccfd60b146100ac5780634061a5bf146100ca5780636d645b44146100f557806375829def14610120578063e262838f14610149576100a7565b366100a75766038d7ea4c6800034101561009d576040517f08c379a000000000000000000000000000000000000000000000000000000000815260040161009490610d0f565b60405180910390fd5b6100a5610186565b005b600080fd5b6100b46103c6565b6040516100c19190610cb4565b60405180910390f35b3480156100d657600080fd5b506100df6104f6565b6040516100ec9190610c99565b60405180910390f35b34801561010157600080fd5b5061010a610577565b6040516101179190610c7e565b60405180910390f35b34801561012c57600080fd5b5061014760048036038101906101429190610b41565b6105a1565b005b34801561015557600080fd5b50610170600480360381019061016b9190610b41565b61063d565b60405161017d9190610d2f565b60405180910390f35b6000806000803373ffffffffffffffffffffffffffffffffffffffff1673ffffffffffffffffffffffffffffffffffffffff16815260200190815260200160002054119050346000803373ffffffffffffffffffffffffffffffffffffffff1673ffffffffffffffffffffffffffffffffffffffff16815260200190815260200160002060008282546102199190610d88565b9250508190555060008061022b610655565b9150915060008214801561023d575082155b1561024f5761024a610905565b6103c1565b816000803373ffffffffffffffffffffffffffffffffffffffff1673ffffffffffffffffffffffffffffffffffffffff1681526020019081526020016000205411156103c05760005b60038110156103be578173ffffffffffffffffffffffffffffffffffffffff16600182600381106102f2577f4e487b7100000000000000000000000000000000000000000000000000000000600052603260045260246000fd5b0160009054906101000a900473ffffffffffffffffffffffffffffffffffffffff1673ffffffffffffffffffffffffffffffffffffffff1614156103ab57336001826003811061036b577f4e487b7100000000000000000000000000000000000000000000000000000000600052603260045260246000fd5b0160006101000a81548173ffffffffffffffffffffffffffffffffffffffff021916908373ffffffffffffffffffffffffffffffffffffffff1602179055505b80806103b690610e27565b915050610298565b505b5b505050565b600080339050600460009054906101000a900473ffffffffffffffffffffffffffffffffffffffff1673ffffffffffffffffffffffffffffffffffffffff168173ffffffffffffffffffffffffffffffffffffffff161461044a577fffffffffffffffffffffffffffffffffffffffffffffffffffffffffffffffff9150506104f3565b600030905060008173ffffffffffffffffffffffffffffffffffffffff1631905060008111156104c0578273ffffffffffffffffffffffffffffffffffffffff166108fc829081150290604051600060405180830381858888f193505050501580156104ba573d6000803e3d6000fd5b506104eb565b7ffffffffffffffffffffffffffffffffffffffffffffffffffffffffffffffffe93505050506104f3565b600093505050505b90565b6104fe610b0a565b600160038060200260405190810160405280929190826003801561056d576020028201915b8160009054906101000a900473ffffffffffffffffffffffffffffffffffffffff1673ffffffffffffffffffffffffffffffffffffffff1681526020019060010190808311610523575b5050505050905090565b6000600460009054906101000a900473ffffffffffffffffffffffffffffffffffffffff16905090565b600460009054906101000a900473ffffffffffffffffffffffffffffffffffffffff1673ffffffffffffffffffffffffffffffffffffffff163373ffffffffffffffffffffffffffffffffffffffff1614610631576040517f08c379a000000000000000000000000000000000000000000000000000000000815260040161062890610ccf565b60405180910390fd5b61063a81610a36565b50565b60006020528060005260406000206000915090505481565b6000806000341161069b576040517f08c379a000000000000000000000000000000000000000000000000000000000815260040161069290610cef565b60405180910390fd5b600080600060016000600381106106db577f4e487b7100000000000000000000000000000000000000000000000000000000600052603260045260246000fd5b0160009054906101000a900473ffffffffffffffffffffffffffffffffffffffff1673ffffffffffffffffffffffffffffffffffffffff1673ffffffffffffffffffffffffffffffffffffffff16815260200190815260200160002054905060006001600060038110610777577f4e487b7100000000000000000000000000000000000000000000000000000000600052603260045260246000fd5b0160009054906101000a900473ffffffffffffffffffffffffffffffffffffffff16905060005b60038110156108f857600080600183600381106107e4577f4e487b7100000000000000000000000000000000000000000000000000000000600052603260045260246000fd5b0160009054906101000a900473ffffffffffffffffffffffffffffffffffffffff1673ffffffffffffffffffffffffffffffffffffffff1673ffffffffffffffffffffffffffffffffffffffff168152602001908152602001600020548311156108e55760008060018360038110610885577f4e487b7100000000000000000000000000000000000000000000000000000000600052603260045260246000fd5b0160009054906101000a900473ffffffffffffffffffffffffffffffffffffffff1673ffffffffffffffffffffffffffffffffffffffff1673ffffffffffffffffffffffffffffffffffffffff1681526020019081526020016000205492505b80806108f090610e27565b91505061079e565b5081819350935050509091565b60005b6003811015610a3357600073ffffffffffffffffffffffffffffffffffffffff1660018260038110610963577f4e487b7100000000000000000000000000000000000000000000000000000000600052603260045260246000fd5b0160009054906101000a900473ffffffffffffffffffffffffffffffffffffffff1673ffffffffffffffffffffffffffffffffffffffff161415610a205733600182600381106109dc577f4e487b7100000000000000000000000000000000000000000000000000000000600052603260045260246000fd5b0160006101000a81548173ffffffffffffffffffffffffffffffffffffffff021916908373ffffffffffffffffffffffffffffffffffffffff160217905550610a33565b8080610a2b90610e27565b915050610908565b50565b600460009054906101000a900473ffffffffffffffffffffffffffffffffffffffff1673ffffffffffffffffffffffffffffffffffffffff163373ffffffffffffffffffffffffffffffffffffffff1614610ac6576040517f08c379a0000000000000000000000000000000000000000000000000000000008152600401610abd90610ccf565b60405180910390fd5b80600460006101000a81548173ffffffffffffffffffffffffffffffffffffffff021916908373ffffffffffffffffffffffffffffffffffffffff16021790555050565b6040518060600160405280600390602082028036833780820191505090505090565b600081359050610b3b81610f1a565b92915050565b600060208284031215610b5357600080fd5b6000610b6184828501610b2c565b91505092915050565b6000610b768383610b82565b60208301905092915050565b610b8b81610dde565b82525050565b610b9a81610dde565b82525050565b610ba981610d54565b610bb38184610d6c565b9250610bbe82610d4a565b8060005b83811015610bef578151610bd68782610b6a565b9650610be183610d5f565b925050600181019050610bc2565b505050505050565b610c0081610df0565b82525050565b6000610c13600d83610d77565b9150610c1e82610e9f565b602082019050919050565b6000610c36601283610d77565b9150610c4182610ec8565b602082019050919050565b6000610c59601883610d77565b9150610c6482610ef1565b602082019050919050565b610c7881610e1d565b82525050565b6000602082019050610c936000830184610b91565b92915050565b6000606082019050610cae6000830184610ba0565b92915050565b6000602082019050610cc96000830184610bf7565b92915050565b60006020820190508181036000830152610ce881610c06565b9050919050565b60006020820190508181036000830152610d0881610c29565b9050919050565b60006020820190508181036000830152610d2881610c4c565b9050919050565b6000602082019050610d446000830184610c6f565b92915050565b6000819050919050565b600060039050919050565b6000602082019050919050565b600081905092915050565b600082825260208201905092915050565b6000610d9382610e1d565b9150610d9e83610e1d565b9250827fffffffffffffffffffffffffffffffffffffffffffffffffffffffffffffffff03821115610dd357610dd2610e70565b5b828201905092915050565b6000610de982610dfd565b9050919050565b60008160000b9050919050565b600073ffffffffffffffffffffffffffffffffffffffff82169050919050565b6000819050919050565b6000610e3282610e1d565b91507fffffffffffffffffffffffffffffffffffffffffffffffffffffffffffffffff821415610e6557610e64610e70565b5b600182019050919050565b7f4e487b7100000000000000000000000000000000000000000000000000000000600052601160045260246000fd5b7f6d757374206265206f776e657200000000000000000000000000000000000000600082015250565b7f6e656564206d73672e76616c7565203e20300000000000000000000000000000600082015250565b7f63616e2774206c657373207468616e20302e3030314554480000000000000000600082015250565b610f2381610dde565b8114610f2e57600080fd5b5056fea264697066735822122043cab56dc7545a8e691a70758fb15e6fbfb7fd9271d38c5bb3ac01df7607384f64736f6c63430008020033",
					"opcodes": "PUSH1 0x80 PUSH1 0x40 MSTORE CALLVALUE DUP1 ISZERO PUSH2 0x10 JUMPI PUSH1 0x0 DUP1 REVERT JUMPDEST POP CALLER PUSH1 0x4 PUSH1 0x0 PUSH2 0x100 EXP DUP2 SLOAD DUP2 PUSH20 0xFFFFFFFFFFFFFFFFFFFFFFFFFFFFFFFFFFFFFFFF MUL NOT AND SWAP1 DUP4 PUSH20 0xFFFFFFFFFFFFFFFFFFFFFFFFFFFFFFFFFFFFFFFF AND MUL OR SWAP1 SSTORE POP PUSH2 0xF67 DUP1 PUSH2 0x61 PUSH1 0x0 CODECOPY PUSH1 0x0 RETURN INVALID PUSH1 0x80 PUSH1 0x40 MSTORE PUSH1 0x4 CALLDATASIZE LT PUSH2 0x4E JUMPI PUSH1 0x0 CALLDATALOAD PUSH1 0xE0 SHR DUP1 PUSH4 0x3CCFD60B EQ PUSH2 0xAC JUMPI DUP1 PUSH4 0x4061A5BF EQ PUSH2 0xCA JUMPI DUP1 PUSH4 0x6D645B44 EQ PUSH2 0xF5 JUMPI DUP1 PUSH4 0x75829DEF EQ PUSH2 0x120 JUMPI DUP1 PUSH4 0xE262838F EQ PUSH2 0x149 JUMPI PUSH2 0xA7 JUMP JUMPDEST CALLDATASIZE PUSH2 0xA7 JUMPI PUSH7 0x38D7EA4C68000 CALLVALUE LT ISZERO PUSH2 0x9D JUMPI PUSH1 0x40 MLOAD PUSH32 0x8C379A000000000000000000000000000000000000000000000000000000000 DUP2 MSTORE PUSH1 0x4 ADD PUSH2 0x94 SWAP1 PUSH2 0xD0F JUMP JUMPDEST PUSH1 0x40 MLOAD DUP1 SWAP2 SUB SWAP1 REVERT JUMPDEST PUSH2 0xA5 PUSH2 0x186 JUMP JUMPDEST STOP JUMPDEST PUSH1 0x0 DUP1 REVERT JUMPDEST PUSH2 0xB4 PUSH2 0x3C6 JUMP JUMPDEST PUSH1 0x40 MLOAD PUSH2 0xC1 SWAP2 SWAP1 PUSH2 0xCB4 JUMP JUMPDEST PUSH1 0x40 MLOAD DUP1 SWAP2 SUB SWAP1 RETURN JUMPDEST CALLVALUE DUP1 ISZERO PUSH2 0xD6 JUMPI PUSH1 0x0 DUP1 REVERT JUMPDEST POP PUSH2 0xDF PUSH2 0x4F6 JUMP JUMPDEST PUSH1 0x40 MLOAD PUSH2 0xEC SWAP2 SWAP1 PUSH2 0xC99 JUMP JUMPDEST PUSH1 0x40 MLOAD DUP1 SWAP2 SUB SWAP1 RETURN JUMPDEST CALLVALUE DUP1 ISZERO PUSH2 0x101 JUMPI PUSH1 0x0 DUP1 REVERT JUMPDEST POP PUSH2 0x10A PUSH2 0x577 JUMP JUMPDEST PUSH1 0x40 MLOAD PUSH2 0x117 SWAP2 SWAP1 PUSH2 0xC7E JUMP JUMPDEST PUSH1 0x40 MLOAD DUP1 SWAP2 SUB SWAP1 RETURN JUMPDEST CALLVALUE DUP1 ISZERO PUSH2 0x12C JUMPI PUSH1 0x0 DUP1 REVERT JUMPDEST POP PUSH2 0x147 PUSH1 0x4 DUP1 CALLDATASIZE SUB DUP2 ADD SWAP1 PUSH2 0x142 SWAP2 SWAP1 PUSH2 0xB41 JUMP JUMPDEST PUSH2 0x5A1 JUMP JUMPDEST STOP JUMPDEST CALLVALUE DUP1 ISZERO PUSH2 0x155 JUMPI PUSH1 0x0 DUP1 REVERT JUMPDEST POP PUSH2 0x170 PUSH1 0x4 DUP1 CALLDATASIZE SUB DUP2 ADD SWAP1 PUSH2 0x16B SWAP2 SWAP1 PUSH2 0xB41 JUMP JUMPDEST PUSH2 0x63D JUMP JUMPDEST PUSH1 0x40 MLOAD PUSH2 0x17D SWAP2 SWAP1 PUSH2 0xD2F JUMP JUMPDEST PUSH1 0x40 MLOAD DUP1 SWAP2 SUB SWAP1 RETURN JUMPDEST PUSH1 0x0 DUP1 PUSH1 0x0 DUP1 CALLER PUSH20 0xFFFFFFFFFFFFFFFFFFFFFFFFFFFFFFFFFFFFFFFF AND PUSH20 0xFFFFFFFFFFFFFFFFFFFFFFFFFFFFFFFFFFFFFFFF AND DUP2 MSTORE PUSH1 0x20 ADD SWAP1 DUP2 MSTORE PUSH1 0x20 ADD PUSH1 0x0 KECCAK256 SLOAD GT SWAP1 POP CALLVALUE PUSH1 0x0 DUP1 CALLER PUSH20 0xFFFFFFFFFFFFFFFFFFFFFFFFFFFFFFFFFFFFFFFF AND PUSH20 0xFFFFFFFFFFFFFFFFFFFFFFFFFFFFFFFFFFFFFFFF AND DUP2 MSTORE PUSH1 0x20 ADD SWAP1 DUP2 MSTORE PUSH1 0x20 ADD PUSH1 0x0 KECCAK256 PUSH1 0x0 DUP3 DUP3 SLOAD PUSH2 0x219 SWAP2 SWAP1 PUSH2 0xD88 JUMP JUMPDEST SWAP3 POP POP DUP2 SWAP1 SSTORE POP PUSH1 0x0 DUP1 PUSH2 0x22B PUSH2 0x655 JUMP JUMPDEST SWAP2 POP SWAP2 POP PUSH1 0x0 DUP3 EQ DUP1 ISZERO PUSH2 0x23D JUMPI POP DUP3 ISZERO JUMPDEST ISZERO PUSH2 0x24F JUMPI PUSH2 0x24A PUSH2 0x905 JUMP JUMPDEST PUSH2 0x3C1 JUMP JUMPDEST DUP2 PUSH1 0x0 DUP1 CALLER PUSH20 0xFFFFFFFFFFFFFFFFFFFFFFFFFFFFFFFFFFFFFFFF AND PUSH20 0xFFFFFFFFFFFFFFFFFFFFFFFFFFFFFFFFFFFFFFFF AND DUP2 MSTORE PUSH1 0x20 ADD SWAP1 DUP2 MSTORE PUSH1 0x20 ADD PUSH1 0x0 KECCAK256 SLOAD GT ISZERO PUSH2 0x3C0 JUMPI PUSH1 0x0 JUMPDEST PUSH1 0x3 DUP2 LT ISZERO PUSH2 0x3BE JUMPI DUP2 PUSH20 0xFFFFFFFFFFFFFFFFFFFFFFFFFFFFFFFFFFFFFFFF AND PUSH1 0x1 DUP3 PUSH1 0x3 DUP2 LT PUSH2 0x2F2 JUMPI PUSH32 0x4E487B7100000000000000000000000000000000000000000000000000000000 PUSH1 0x0 MSTORE PUSH1 0x32 PUSH1 0x4 MSTORE PUSH1 0x24 PUSH1 0x0 REVERT JUMPDEST ADD PUSH1 0x0 SWAP1 SLOAD SWAP1 PUSH2 0x100 EXP SWAP1 DIV PUSH20 0xFFFFFFFFFFFFFFFFFFFFFFFFFFFFFFFFFFFFFFFF AND PUSH20 0xFFFFFFFFFFFFFFFFFFFFFFFFFFFFFFFFFFFFFFFF AND EQ ISZERO PUSH2 0x3AB JUMPI CALLER PUSH1 0x1 DUP3 PUSH1 0x3 DUP2 LT PUSH2 0x36B JUMPI PUSH32 0x4E487B7100000000000000000000000000000000000000000000000000000000 PUSH1 0x0 MSTORE PUSH1 0x32 PUSH1 0x4 MSTORE PUSH1 0x24 PUSH1 0x0 REVERT JUMPDEST ADD PUSH1 0x0 PUSH2 0x100 EXP DUP2 SLOAD DUP2 PUSH20 0xFFFFFFFFFFFFFFFFFFFFFFFFFFFFFFFFFFFFFFFF MUL NOT AND SWAP1 DUP4 PUSH20 0xFFFFFFFFFFFFFFFFFFFFFFFFFFFFFFFFFFFFFFFF AND MUL OR SWAP1 SSTORE POP JUMPDEST DUP1 DUP1 PUSH2 0x3B6 SWAP1 PUSH2 0xE27 JUMP JUMPDEST SWAP2 POP POP PUSH2 0x298 JUMP JUMPDEST POP JUMPDEST JUMPDEST POP POP POP JUMP JUMPDEST PUSH1 0x0 DUP1 CALLER SWAP1 POP PUSH1 0x4 PUSH1 0x0 SWAP1 SLOAD SWAP1 PUSH2 0x100 EXP SWAP1 DIV PUSH20 0xFFFFFFFFFFFFFFFFFFFFFFFFFFFFFFFFFFFFFFFF AND PUSH20 0xFFFFFFFFFFFFFFFFFFFFFFFFFFFFFFFFFFFFFFFF AND DUP2 PUSH20 0xFFFFFFFFFFFFFFFFFFFFFFFFFFFFFFFFFFFFFFFF AND EQ PUSH2 0x44A JUMPI PUSH32 0xFFFFFFFFFFFFFFFFFFFFFFFFFFFFFFFFFFFFFFFFFFFFFFFFFFFFFFFFFFFFFFFF SWAP2 POP POP PUSH2 0x4F3 JUMP JUMPDEST PUSH1 0x0 ADDRESS SWAP1 POP PUSH1 0x0 DUP2 PUSH20 0xFFFFFFFFFFFFFFFFFFFFFFFFFFFFFFFFFFFFFFFF AND BALANCE SWAP1 POP PUSH1 0x0 DUP2 GT ISZERO PUSH2 0x4C0 JUMPI DUP3 PUSH20 0xFFFFFFFFFFFFFFFFFFFFFFFFFFFFFFFFFFFFFFFF AND PUSH2 0x8FC DUP3 SWAP1 DUP2 ISZERO MUL SWAP1 PUSH1 0x40 MLOAD PUSH1 0x0 PUSH1 0x40 MLOAD DUP1 DUP4 SUB DUP2 DUP6 DUP9 DUP9 CALL SWAP4 POP POP POP POP ISZERO DUP1 ISZERO PUSH2 0x4BA JUMPI RETURNDATASIZE PUSH1 0x0 DUP1 RETURNDATACOPY RETURNDATASIZE PUSH1 0x0 REVERT JUMPDEST POP PUSH2 0x4EB JUMP JUMPDEST PUSH32 0xFFFFFFFFFFFFFFFFFFFFFFFFFFFFFFFFFFFFFFFFFFFFFFFFFFFFFFFFFFFFFFFE SWAP4 POP POP POP POP PUSH2 0x4F3 JUMP JUMPDEST PUSH1 0x0 SWAP4 POP POP POP POP JUMPDEST SWAP1 JUMP JUMPDEST PUSH2 0x4FE PUSH2 0xB0A JUMP JUMPDEST PUSH1 0x1 PUSH1 0x3 DUP1 PUSH1 0x20 MUL PUSH1 0x40 MLOAD SWAP1 DUP2 ADD PUSH1 0x40 MSTORE DUP1 SWAP3 SWAP2 SWAP1 DUP3 PUSH1 0x3 DUP1 ISZERO PUSH2 0x56D JUMPI PUSH1 0x20 MUL DUP3 ADD SWAP2 JUMPDEST DUP2 PUSH1 0x0 SWAP1 SLOAD SWAP1 PUSH2 0x100 EXP SWAP1 DIV PUSH20 0xFFFFFFFFFFFFFFFFFFFFFFFFFFFFFFFFFFFFFFFF AND PUSH20 0xFFFFFFFFFFFFFFFFFFFFFFFFFFFFFFFFFFFFFFFF AND DUP2 MSTORE PUSH1 0x20 ADD SWAP1 PUSH1 0x1 ADD SWAP1 DUP1 DUP4 GT PUSH2 0x523 JUMPI JUMPDEST POP POP POP POP POP SWAP1 POP SWAP1 JUMP JUMPDEST PUSH1 0x0 PUSH1 0x4 PUSH1 0x0 SWAP1 SLOAD SWAP1 PUSH2 0x100 EXP SWAP1 DIV PUSH20 0xFFFFFFFFFFFFFFFFFFFFFFFFFFFFFFFFFFFFFFFF AND SWAP1 POP SWAP1 JUMP JUMPDEST PUSH1 0x4 PUSH1 0x0 SWAP1 SLOAD SWAP1 PUSH2 0x100 EXP SWAP1 DIV PUSH20 0xFFFFFFFFFFFFFFFFFFFFFFFFFFFFFFFFFFFFFFFF AND PUSH20 0xFFFFFFFFFFFFFFFFFFFFFFFFFFFFFFFFFFFFFFFF AND CALLER PUSH20 0xFFFFFFFFFFFFFFFFFFFFFFFFFFFFFFFFFFFFFFFF AND EQ PUSH2 0x631 JUMPI PUSH1 0x40 MLOAD PUSH32 0x8C379A000000000000000000000000000000000000000000000000000000000 DUP2 MSTORE PUSH1 0x4 ADD PUSH2 0x628 SWAP1 PUSH2 0xCCF JUMP JUMPDEST PUSH1 0x40 MLOAD DUP1 SWAP2 SUB SWAP1 REVERT JUMPDEST PUSH2 0x63A DUP2 PUSH2 0xA36 JUMP JUMPDEST POP JUMP JUMPDEST PUSH1 0x0 PUSH1 0x20 MSTORE DUP1 PUSH1 0x0 MSTORE PUSH1 0x40 PUSH1 0x0 KECCAK256 PUSH1 0x0 SWAP2 POP SWAP1 POP SLOAD DUP2 JUMP JUMPDEST PUSH1 0x0 DUP1 PUSH1 0x0 CALLVALUE GT PUSH2 0x69B JUMPI PUSH1 0x40 MLOAD PUSH32 0x8C379A000000000000000000000000000000000000000000000000000000000 DUP2 MSTORE PUSH1 0x4 ADD PUSH2 0x692 SWAP1 PUSH2 0xCEF JUMP JUMPDEST PUSH1 0x40 MLOAD DUP1 SWAP2 SUB SWAP1 REVERT JUMPDEST PUSH1 0x0 DUP1 PUSH1 0x0 PUSH1 0x1 PUSH1 0x0 PUSH1 0x3 DUP2 LT PUSH2 0x6DB JUMPI PUSH32 0x4E487B7100000000000000000000000000000000000000000000000000000000 PUSH1 0x0 MSTORE PUSH1 0x32 PUSH1 0x4 MSTORE PUSH1 0x24 PUSH1 0x0 REVERT JUMPDEST ADD PUSH1 0x0 SWAP1 SLOAD SWAP1 PUSH2 0x100 EXP SWAP1 DIV PUSH20 0xFFFFFFFFFFFFFFFFFFFFFFFFFFFFFFFFFFFFFFFF AND PUSH20 0xFFFFFFFFFFFFFFFFFFFFFFFFFFFFFFFFFFFFFFFF AND PUSH20 0xFFFFFFFFFFFFFFFFFFFFFFFFFFFFFFFFFFFFFFFF AND DUP2 MSTORE PUSH1 0x20 ADD SWAP1 DUP2 MSTORE PUSH1 0x20 ADD PUSH1 0x0 KECCAK256 SLOAD SWAP1 POP PUSH1 0x0 PUSH1 0x1 PUSH1 0x0 PUSH1 0x3 DUP2 LT PUSH2 0x777 JUMPI PUSH32 0x4E487B7100000000000000000000000000000000000000000000000000000000 PUSH1 0x0 MSTORE PUSH1 0x32 PUSH1 0x4 MSTORE PUSH1 0x24 PUSH1 0x0 REVERT JUMPDEST ADD PUSH1 0x0 SWAP1 SLOAD SWAP1 PUSH2 0x100 EXP SWAP1 DIV PUSH20 0xFFFFFFFFFFFFFFFFFFFFFFFFFFFFFFFFFFFFFFFF AND SWAP1 POP PUSH1 0x0 JUMPDEST PUSH1 0x3 DUP2 LT ISZERO PUSH2 0x8F8 JUMPI PUSH1 0x0 DUP1 PUSH1 0x1 DUP4 PUSH1 0x3 DUP2 LT PUSH2 0x7E4 JUMPI PUSH32 0x4E487B7100000000000000000000000000000000000000000000000000000000 PUSH1 0x0 MSTORE PUSH1 0x32 PUSH1 0x4 MSTORE PUSH1 0x24 PUSH1 0x0 REVERT JUMPDEST ADD PUSH1 0x0 SWAP1 SLOAD SWAP1 PUSH2 0x100 EXP SWAP1 DIV PUSH20 0xFFFFFFFFFFFFFFFFFFFFFFFFFFFFFFFFFFFFFFFF AND PUSH20 0xFFFFFFFFFFFFFFFFFFFFFFFFFFFFFFFFFFFFFFFF AND PUSH20 0xFFFFFFFFFFFFFFFFFFFFFFFFFFFFFFFFFFFFFFFF AND DUP2 MSTORE PUSH1 0x20 ADD SWAP1 DUP2 MSTORE PUSH1 0x20 ADD PUSH1 0x0 KECCAK256 SLOAD DUP4 GT ISZERO PUSH2 0x8E5 JUMPI PUSH1 0x0 DUP1 PUSH1 0x1 DUP4 PUSH1 0x3 DUP2 LT PUSH2 0x885 JUMPI PUSH32 0x4E487B7100000000000000000000000000000000000000000000000000000000 PUSH1 0x0 MSTORE PUSH1 0x32 PUSH1 0x4 MSTORE PUSH1 0x24 PUSH1 0x0 REVERT JUMPDEST ADD PUSH1 0x0 SWAP1 SLOAD SWAP1 PUSH2 0x100 EXP SWAP1 DIV PUSH20 0xFFFFFFFFFFFFFFFFFFFFFFFFFFFFFFFFFFFFFFFF AND PUSH20 0xFFFFFFFFFFFFFFFFFFFFFFFFFFFFFFFFFFFFFFFF AND PUSH20 0xFFFFFFFFFFFFFFFFFFFFFFFFFFFFFFFFFFFFFFFF AND DUP2 MSTORE PUSH1 0x20 ADD SWAP1 DUP2 MSTORE PUSH1 0x20 ADD PUSH1 0x0 KECCAK256 SLOAD SWAP3 POP JUMPDEST DUP1 DUP1 PUSH2 0x8F0 SWAP1 PUSH2 0xE27 JUMP JUMPDEST SWAP2 POP POP PUSH2 0x79E JUMP JUMPDEST POP DUP2 DUP2 SWAP4 POP SWAP4 POP POP POP SWAP1 SWAP2 JUMP JUMPDEST PUSH1 0x0 JUMPDEST PUSH1 0x3 DUP2 LT ISZERO PUSH2 0xA33 JUMPI PUSH1 0x0 PUSH20 0xFFFFFFFFFFFFFFFFFFFFFFFFFFFFFFFFFFFFFFFF AND PUSH1 0x1 DUP3 PUSH1 0x3 DUP2 LT PUSH2 0x963 JUMPI PUSH32 0x4E487B7100000000000000000000000000000000000000000000000000000000 PUSH1 0x0 MSTORE PUSH1 0x32 PUSH1 0x4 MSTORE PUSH1 0x24 PUSH1 0x0 REVERT JUMPDEST ADD PUSH1 0x0 SWAP1 SLOAD SWAP1 PUSH2 0x100 EXP SWAP1 DIV PUSH20 0xFFFFFFFFFFFFFFFFFFFFFFFFFFFFFFFFFFFFFFFF AND PUSH20 0xFFFFFFFFFFFFFFFFFFFFFFFFFFFFFFFFFFFFFFFF AND EQ ISZERO PUSH2 0xA20 JUMPI CALLER PUSH1 0x1 DUP3 PUSH1 0x3 DUP2 LT PUSH2 0x9DC JUMPI PUSH32 0x4E487B7100000000000000000000000000000000000000000000000000000000 PUSH1 0x0 MSTORE PUSH1 0x32 PUSH1 0x4 MSTORE PUSH1 0x24 PUSH1 0x0 REVERT JUMPDEST ADD PUSH1 0x0 PUSH2 0x100 EXP DUP2 SLOAD DUP2 PUSH20 0xFFFFFFFFFFFFFFFFFFFFFFFFFFFFFFFFFFFFFFFF MUL NOT AND SWAP1 DUP4 PUSH20 0xFFFFFFFFFFFFFFFFFFFFFFFFFFFFFFFFFFFFFFFF AND MUL OR SWAP1 SSTORE POP PUSH2 0xA33 JUMP JUMPDEST DUP1 DUP1 PUSH2 0xA2B SWAP1 PUSH2 0xE27 JUMP JUMPDEST SWAP2 POP POP PUSH2 0x908 JUMP JUMPDEST POP JUMP JUMPDEST PUSH1 0x4 PUSH1 0x0 SWAP1 SLOAD SWAP1 PUSH2 0x100 EXP SWAP1 DIV PUSH20 0xFFFFFFFFFFFFFFFFFFFFFFFFFFFFFFFFFFFFFFFF AND PUSH20 0xFFFFFFFFFFFFFFFFFFFFFFFFFFFFFFFFFFFFFFFF AND CALLER PUSH20 0xFFFFFFFFFFFFFFFFFFFFFFFFFFFFFFFFFFFFFFFF AND EQ PUSH2 0xAC6 JUMPI PUSH1 0x40 MLOAD PUSH32 0x8C379A000000000000000000000000000000000000000000000000000000000 DUP2 MSTORE PUSH1 0x4 ADD PUSH2 0xABD SWAP1 PUSH2 0xCCF JUMP JUMPDEST PUSH1 0x40 MLOAD DUP1 SWAP2 SUB SWAP1 REVERT JUMPDEST DUP1 PUSH1 0x4 PUSH1 0x0 PUSH2 0x100 EXP DUP2 SLOAD DUP2 PUSH20 0xFFFFFFFFFFFFFFFFFFFFFFFFFFFFFFFFFFFFFFFF MUL NOT AND SWAP1 DUP4 PUSH20 0xFFFFFFFFFFFFFFFFFFFFFFFFFFFFFFFFFFFFFFFF AND MUL OR SWAP1 SSTORE POP POP JUMP JUMPDEST PUSH1 0x40 MLOAD DUP1 PUSH1 0x60 ADD PUSH1 0x40 MSTORE DUP1 PUSH1 0x3 SWAP1 PUSH1 0x20 DUP3 MUL DUP1 CALLDATASIZE DUP4 CALLDATACOPY DUP1 DUP3 ADD SWAP2 POP POP SWAP1 POP POP SWAP1 JUMP JUMPDEST PUSH1 0x0 DUP2 CALLDATALOAD SWAP1 POP PUSH2 0xB3B DUP2 PUSH2 0xF1A JUMP JUMPDEST SWAP3 SWAP2 POP POP JUMP JUMPDEST PUSH1 0x0 PUSH1 0x20 DUP3 DUP5 SUB SLT ISZERO PUSH2 0xB53 JUMPI PUSH1 0x0 DUP1 REVERT JUMPDEST PUSH1 0x0 PUSH2 0xB61 DUP5 DUP3 DUP6 ADD PUSH2 0xB2C JUMP JUMPDEST SWAP2 POP POP SWAP3 SWAP2 POP POP JUMP JUMPDEST PUSH1 0x0 PUSH2 0xB76 DUP4 DUP4 PUSH2 0xB82 JUMP JUMPDEST PUSH1 0x20 DUP4 ADD SWAP1 POP SWAP3 SWAP2 POP POP JUMP JUMPDEST PUSH2 0xB8B DUP2 PUSH2 0xDDE JUMP JUMPDEST DUP3 MSTORE POP POP JUMP JUMPDEST PUSH2 0xB9A DUP2 PUSH2 0xDDE JUMP JUMPDEST DUP3 MSTORE POP POP JUMP JUMPDEST PUSH2 0xBA9 DUP2 PUSH2 0xD54 JUMP JUMPDEST PUSH2 0xBB3 DUP2 DUP5 PUSH2 0xD6C JUMP JUMPDEST SWAP3 POP PUSH2 0xBBE DUP3 PUSH2 0xD4A JUMP JUMPDEST DUP1 PUSH1 0x0 JUMPDEST DUP4 DUP2 LT ISZERO PUSH2 0xBEF JUMPI DUP2 MLOAD PUSH2 0xBD6 DUP8 DUP3 PUSH2 0xB6A JUMP JUMPDEST SWAP7 POP PUSH2 0xBE1 DUP4 PUSH2 0xD5F JUMP JUMPDEST SWAP3 POP POP PUSH1 0x1 DUP2 ADD SWAP1 POP PUSH2 0xBC2 JUMP JUMPDEST POP POP POP POP POP POP JUMP JUMPDEST PUSH2 0xC00 DUP2 PUSH2 0xDF0 JUMP JUMPDEST DUP3 MSTORE POP POP JUMP JUMPDEST PUSH1 0x0 PUSH2 0xC13 PUSH1 0xD DUP4 PUSH2 0xD77 JUMP JUMPDEST SWAP2 POP PUSH2 0xC1E DUP3 PUSH2 0xE9F JUMP JUMPDEST PUSH1 0x20 DUP3 ADD SWAP1 POP SWAP2 SWAP1 POP JUMP JUMPDEST PUSH1 0x0 PUSH2 0xC36 PUSH1 0x12 DUP4 PUSH2 0xD77 JUMP JUMPDEST SWAP2 POP PUSH2 0xC41 DUP3 PUSH2 0xEC8 JUMP JUMPDEST PUSH1 0x20 DUP3 ADD SWAP1 POP SWAP2 SWAP1 POP JUMP JUMPDEST PUSH1 0x0 PUSH2 0xC59 PUSH1 0x18 DUP4 PUSH2 0xD77 JUMP JUMPDEST SWAP2 POP PUSH2 0xC64 DUP3 PUSH2 0xEF1 JUMP JUMPDEST PUSH1 0x20 DUP3 ADD SWAP1 POP SWAP2 SWAP1 POP JUMP JUMPDEST PUSH2 0xC78 DUP2 PUSH2 0xE1D JUMP JUMPDEST DUP3 MSTORE POP POP JUMP JUMPDEST PUSH1 0x0 PUSH1 0x20 DUP3 ADD SWAP1 POP PUSH2 0xC93 PUSH1 0x0 DUP4 ADD DUP5 PUSH2 0xB91 JUMP JUMPDEST SWAP3 SWAP2 POP POP JUMP JUMPDEST PUSH1 0x0 PUSH1 0x60 DUP3 ADD SWAP1 POP PUSH2 0xCAE PUSH1 0x0 DUP4 ADD DUP5 PUSH2 0xBA0 JUMP JUMPDEST SWAP3 SWAP2 POP POP JUMP JUMPDEST PUSH1 0x0 PUSH1 0x20 DUP3 ADD SWAP1 POP PUSH2 0xCC9 PUSH1 0x0 DUP4 ADD DUP5 PUSH2 0xBF7 JUMP JUMPDEST SWAP3 SWAP2 POP POP JUMP JUMPDEST PUSH1 0x0 PUSH1 0x20 DUP3 ADD SWAP1 POP DUP2 DUP2 SUB PUSH1 0x0 DUP4 ADD MSTORE PUSH2 0xCE8 DUP2 PUSH2 0xC06 JUMP JUMPDEST SWAP1 POP SWAP2 SWAP1 POP JUMP JUMPDEST PUSH1 0x0 PUSH1 0x20 DUP3 ADD SWAP1 POP DUP2 DUP2 SUB PUSH1 0x0 DUP4 ADD MSTORE PUSH2 0xD08 DUP2 PUSH2 0xC29 JUMP JUMPDEST SWAP1 POP SWAP2 SWAP1 POP JUMP JUMPDEST PUSH1 0x0 PUSH1 0x20 DUP3 ADD SWAP1 POP DUP2 DUP2 SUB PUSH1 0x0 DUP4 ADD MSTORE PUSH2 0xD28 DUP2 PUSH2 0xC4C JUMP JUMPDEST SWAP1 POP SWAP2 SWAP1 POP JUMP JUMPDEST PUSH1 0x0 PUSH1 0x20 DUP3 ADD SWAP1 POP PUSH2 0xD44 PUSH1 0x0 DUP4 ADD DUP5 PUSH2 0xC6F JUMP JUMPDEST SWAP3 SWAP2 POP POP JUMP JUMPDEST PUSH1 0x0 DUP2 SWAP1 POP SWAP2 SWAP1 POP JUMP JUMPDEST PUSH1 0x0 PUSH1 0x3 SWAP1 POP SWAP2 SWAP1 POP JUMP JUMPDEST PUSH1 0x0 PUSH1 0x20 DUP3 ADD SWAP1 POP SWAP2 SWAP1 POP JUMP JUMPDEST PUSH1 0x0 DUP2 SWAP1 POP SWAP3 SWAP2 POP POP JUMP JUMPDEST PUSH1 0x0 DUP3 DUP3 MSTORE PUSH1 0x20 DUP3 ADD SWAP1 POP SWAP3 SWAP2 POP POP JUMP JUMPDEST PUSH1 0x0 PUSH2 0xD93 DUP3 PUSH2 0xE1D JUMP JUMPDEST SWAP2 POP PUSH2 0xD9E DUP4 PUSH2 0xE1D JUMP JUMPDEST SWAP3 POP DUP3 PUSH32 0xFFFFFFFFFFFFFFFFFFFFFFFFFFFFFFFFFFFFFFFFFFFFFFFFFFFFFFFFFFFFFFFF SUB DUP3 GT ISZERO PUSH2 0xDD3 JUMPI PUSH2 0xDD2 PUSH2 0xE70 JUMP JUMPDEST JUMPDEST DUP3 DUP3 ADD SWAP1 POP SWAP3 SWAP2 POP POP JUMP JUMPDEST PUSH1 0x0 PUSH2 0xDE9 DUP3 PUSH2 0xDFD JUMP JUMPDEST SWAP1 POP SWAP2 SWAP1 POP JUMP JUMPDEST PUSH1 0x0 DUP2 PUSH1 0x0 SIGNEXTEND SWAP1 POP SWAP2 SWAP1 POP JUMP JUMPDEST PUSH1 0x0 PUSH20 0xFFFFFFFFFFFFFFFFFFFFFFFFFFFFFFFFFFFFFFFF DUP3 AND SWAP1 POP SWAP2 SWAP1 POP JUMP JUMPDEST PUSH1 0x0 DUP2 SWAP1 POP SWAP2 SWAP1 POP JUMP JUMPDEST PUSH1 0x0 PUSH2 0xE32 DUP3 PUSH2 0xE1D JUMP JUMPDEST SWAP2 POP PUSH32 0xFFFFFFFFFFFFFFFFFFFFFFFFFFFFFFFFFFFFFFFFFFFFFFFFFFFFFFFFFFFFFFFF DUP3 EQ ISZERO PUSH2 0xE65 JUMPI PUSH2 0xE64 PUSH2 0xE70 JUMP JUMPDEST JUMPDEST PUSH1 0x1 DUP3 ADD SWAP1 POP SWAP2 SWAP1 POP JUMP JUMPDEST PUSH32 0x4E487B7100000000000000000000000000000000000000000000000000000000 PUSH1 0x0 MSTORE PUSH1 0x11 PUSH1 0x4 MSTORE PUSH1 0x24 PUSH1 0x0 REVERT JUMPDEST PUSH32 0x6D757374206265206F776E657200000000000000000000000000000000000000 PUSH1 0x0 DUP3 ADD MSTORE POP JUMP JUMPDEST PUSH32 0x6E656564206D73672E76616C7565203E20300000000000000000000000000000 PUSH1 0x0 DUP3 ADD MSTORE POP JUMP JUMPDEST PUSH32 0x63616E2774206C657373207468616E20302E3030314554480000000000000000 PUSH1 0x0 DUP3 ADD MSTORE POP JUMP JUMPDEST PUSH2 0xF23 DUP2 PUSH2 0xDDE JUMP JUMPDEST DUP2 EQ PUSH2 0xF2E JUMPI PUSH1 0x0 DUP1 REVERT JUMPDEST POP JUMP INVALID LOG2 PUSH5 0x6970667358 0x22 SLT KECCAK256 NUMBER 0xCA 0xB5 PUSH14 0xC7545A8E691A70758FB15E6FBFB7 REVERT SWAP3 PUSH18 0xD38C5BB3AC01DF7607384F64736F6C634300 ADDMOD MUL STOP CALLER "
				},
				"gasEstimates": {
					"creation": {
						"codeDepositCost": "788600",
						"executionCost": "21691",
						"totalCost": "810291"
					},
					"external": {
						"addr_balance(address)": "1580",
						"getAdminAddr()": "1244",
						"getTop3()": "infinite",
						"transferAdmin(address)": "23135",
						"withdraw()": "infinite"
					}
				},
				"methodIdentifiers": {
					"addr_balance(address)": "e262838f",
					"getAdminAddr()": "6d645b44",
					"getTop3()": "4061a5bf",
					"transferAdmin(address)": "75829def",
					"withdraw()": "3ccfd60b"
				}
			},
			"storageLayout": {
				"storage": [
					{
						"astId": 8,
						"contract": "homework/BigBank.sol:BigBank",
						"label": "addr_balance",
						"offset": 0,
						"slot": "0",
						"type": "t_mapping(t_address,t_uint256)"
					},
					{
						"astId": 12,
						"contract": "homework/BigBank.sol:BigBank",
						"label": "top_3_balance_addr",
						"offset": 0,
						"slot": "1",
						"type": "t_array(t_address)3_storage"
					},
					{
						"astId": 14,
						"contract": "homework/BigBank.sol:BigBank",
						"label": "admin_addr",
						"offset": 0,
						"slot": "4",
						"type": "t_address"
					}
				],
				"types": {
					"t_address": {
						"encoding": "inplace",
						"label": "address",
						"numberOfBytes": "20"
					},
					"t_array(t_address)3_storage": {
						"base": "t_address",
						"encoding": "inplace",
						"label": "address[3]",
						"numberOfBytes": "96"
					},
					"t_mapping(t_address,t_uint256)": {
						"encoding": "mapping",
						"key": "t_address",
						"label": "mapping(address => uint256)",
						"numberOfBytes": "32",
						"value": "t_uint256"
					},
					"t_uint256": {
						"encoding": "inplace",
						"label": "uint256",
						"numberOfBytes": "32"
					}
				}
			},
			"userdoc": {
				"kind": "user",
				"methods": {},
				"version": 1
			}
		}
	}
}