{
	"homework/Bank.sol": {
		"Bank": {
			"abi": [
				{
					"inputs": [],
					"stateMutability": "nonpayable",
					"type": "constructor"
				},
				{
					"inputs": [
						{
							"internalType": "address",
							"name": "",
							"type": "address"
						}
					],
					"name": "addr_balance",
					"outputs": [
						{
							"internalType": "uint256",
							"name": "",
							"type": "uint256"
						}
					],
					"stateMutability": "view",
					"type": "function"
				},
				{
					"inputs": [],
					"name": "getAdminAddr",
					"outputs": [
						{
							"internalType": "address",
							"name": "",
							"type": "address"
						}
					],
					"stateMutability": "view",
					"type": "function"
				},
				{
					"inputs": [],
					"name": "getTop3",
					"outputs": [
						{
							"internalType": "address[3]",
							"name": "",
							"type": "address[3]"
						}
					],
					"stateMutability": "view",
					"type": "function"
				},
				{
					"inputs": [],
					"name": "withdraw",
					"outputs": [
						{
							"internalType": "int8",
							"name": "",
							"type": "int8"
						}
					],
					"stateMutability": "payable",
					"type": "function"
				},
				{
					"stateMutability": "payable",
					"type": "receive"
				}
			],
			"devdoc": {
				"kind": "dev",
				"methods": {},
				"version": 1
			},
			"evm": {
				"assembly": "    /* \"homework/Bank.sol\":88:3344  contract Bank is IBank {... */\n  mstore(0x40, 0x80)\n    /* \"homework/Bank.sol\":468:522  constructor() {... */\n  callvalue\n  dup1\n  iszero\n  tag_1\n  jumpi\n  0x00\n  dup1\n  revert\ntag_1:\n  pop\n    /* \"homework/Bank.sol\":505:515  msg.sender */\n  caller\n    /* \"homework/Bank.sol\":492:502  admin_addr */\n  0x04\n  0x00\n    /* \"homework/Bank.sol\":492:515  admin_addr = msg.sender */\n  0x0100\n  exp\n  dup2\n  sload\n  dup2\n  0xffffffffffffffffffffffffffffffffffffffff\n  mul\n  not\n  and\n  swap1\n  dup4\n  0xffffffffffffffffffffffffffffffffffffffff\n  and\n  mul\n  or\n  swap1\n  sstore\n  pop\n    /* \"homework/Bank.sol\":88:3344  contract Bank is IBank {... */\n  dataSize(sub_0)\n  dup1\n  dataOffset(sub_0)\n  0x00\n  codecopy\n  0x00\n  return\nstop\n\nsub_0: assembly {\n        /* \"homework/Bank.sol\":88:3344  contract Bank is IBank {... */\n      mstore(0x40, 0x80)\n      jumpi(tag_1, lt(calldatasize, 0x04))\n      shr(0xe0, calldataload(0x00))\n      dup1\n      0x3ccfd60b\n      eq\n      tag_3\n      jumpi\n      dup1\n      0x4061a5bf\n      eq\n      tag_4\n      jumpi\n      dup1\n      0x6d645b44\n      eq\n      tag_5\n      jumpi\n      dup1\n      0xe262838f\n      eq\n      tag_6\n      jumpi\n      jump(tag_2)\n    tag_1:\n      jumpi(tag_2, calldatasize)\n        /* \"homework/Bank.sol\":999:1020  recordBalanceOfAddr() */\n      tag_9\n        /* \"homework/Bank.sol\":999:1018  recordBalanceOfAddr */\n      tag_10\n        /* \"homework/Bank.sol\":999:1020  recordBalanceOfAddr() */\n      jump\t// in\n    tag_9:\n        /* \"homework/Bank.sol\":88:3344  contract Bank is IBank {... */\n      stop\n    tag_2:\n      0x00\n      dup1\n      revert\n        /* \"homework/Bank.sol\":1092:1587  function withdraw() external payable override returns(int8) {... */\n    tag_3:\n      tag_11\n      tag_12\n      jump\t// in\n    tag_11:\n      mload(0x40)\n      tag_13\n      swap2\n      swap1\n      tag_14\n      jump\t// in\n    tag_13:\n      mload(0x40)\n      dup1\n      swap2\n      sub\n      swap1\n      return\n        /* \"homework/Bank.sol\":2274:2374  function getTop3() public view returns(address[3] memory) {... */\n    tag_4:\n      callvalue\n      dup1\n      iszero\n      tag_15\n      jumpi\n      0x00\n      dup1\n      revert\n    tag_15:\n      pop\n      tag_16\n      tag_17\n      jump\t// in\n    tag_16:\n      mload(0x40)\n      tag_18\n      swap2\n      swap1\n      tag_19\n      jump\t// in\n    tag_18:\n      mload(0x40)\n      dup1\n      swap2\n      sub\n      swap1\n      return\n        /* \"homework/Bank.sol\":740:827  function getAdminAddr() public view returns(address) {... */\n    tag_5:\n      callvalue\n      dup1\n      iszero\n      tag_20\n      jumpi\n      0x00\n      dup1\n      revert\n    tag_20:\n      pop\n      tag_21\n      tag_22\n      jump\t// in\n    tag_21:\n      mload(0x40)\n      tag_23\n      swap2\n      swap1\n      tag_24\n      jump\t// in\n    tag_23:\n      mload(0x40)\n      dup1\n      swap2\n      sub\n      swap1\n      return\n        /* \"homework/Bank.sol\":164:211  mapping(address => uint256) public addr_balance */\n    tag_6:\n      callvalue\n      dup1\n      iszero\n      tag_25\n      jumpi\n      0x00\n      dup1\n      revert\n    tag_25:\n      pop\n      tag_26\n      0x04\n      dup1\n      calldatasize\n      sub\n      dup2\n      add\n      swap1\n      tag_27\n      swap2\n      swap1\n      tag_28\n      jump\t// in\n    tag_27:\n      tag_29\n      jump\t// in\n    tag_26:\n      mload(0x40)\n      tag_30\n      swap2\n      swap1\n      tag_31\n      jump\t// in\n    tag_30:\n      mload(0x40)\n      dup1\n      swap2\n      sub\n      swap1\n      return\n        /* \"homework/Bank.sol\":1593:2268  function recordBalanceOfAddr() internal {... */\n    tag_10:\n        /* \"homework/Bank.sol\":1643:1658  bool has_record */\n      0x00\n        /* \"homework/Bank.sol\":1688:1689  0 */\n      dup1\n        /* \"homework/Bank.sol\":1661:1673  addr_balance */\n      0x00\n        /* \"homework/Bank.sol\":1661:1685  addr_balance[msg.sender] */\n      dup1\n        /* \"homework/Bank.sol\":1674:1684  msg.sender */\n      caller\n        /* \"homework/Bank.sol\":1661:1685  addr_balance[msg.sender] */\n      0xffffffffffffffffffffffffffffffffffffffff\n      and\n      0xffffffffffffffffffffffffffffffffffffffff\n      and\n      dup2\n      mstore\n      0x20\n      add\n      swap1\n      dup2\n      mstore\n      0x20\n      add\n      0x00\n      keccak256\n      sload\n        /* \"homework/Bank.sol\":1661:1689  addr_balance[msg.sender] > 0 */\n      gt\n        /* \"homework/Bank.sol\":1643:1689  bool has_record = addr_balance[msg.sender] > 0 */\n      swap1\n      pop\n        /* \"homework/Bank.sol\":1745:1754  msg.value */\n      callvalue\n        /* \"homework/Bank.sol\":1717:1729  addr_balance */\n      0x00\n        /* \"homework/Bank.sol\":1717:1741  addr_balance[msg.sender] */\n      dup1\n        /* \"homework/Bank.sol\":1730:1740  msg.sender */\n      caller\n        /* \"homework/Bank.sol\":1717:1741  addr_balance[msg.sender] */\n      0xffffffffffffffffffffffffffffffffffffffff\n      and\n      0xffffffffffffffffffffffffffffffffffffffff\n      and\n      dup2\n      mstore\n      0x20\n      add\n      swap1\n      dup2\n      mstore\n      0x20\n      add\n      0x00\n      keccak256\n      0x00\n        /* \"homework/Bank.sol\":1717:1754  addr_balance[msg.sender] += msg.value */\n      dup3\n      dup3\n      sload\n      tag_33\n      swap2\n      swap1\n      tag_34\n      jump\t// in\n    tag_33:\n      swap3\n      pop\n      pop\n      dup2\n      swap1\n      sstore\n      pop\n        /* \"homework/Bank.sol\":1804:1818  uint256 lowest */\n      0x00\n        /* \"homework/Bank.sol\":1820:1839  address lowest_addr */\n      dup1\n        /* \"homework/Bank.sol\":1843:1867  lowest_balance_in_top3() */\n      tag_35\n        /* \"homework/Bank.sol\":1843:1865  lowest_balance_in_top3 */\n      tag_36\n        /* \"homework/Bank.sol\":1843:1867  lowest_balance_in_top3() */\n      jump\t// in\n    tag_35:\n        /* \"homework/Bank.sol\":1803:1867  (uint256 lowest, address lowest_addr) = lowest_balance_in_top3() */\n      swap2\n      pop\n      swap2\n      pop\n        /* \"homework/Bank.sol\":1891:1892  0 */\n      0x00\n        /* \"homework/Bank.sol\":1881:1887  lowest */\n      dup3\n        /* \"homework/Bank.sol\":1881:1892  lowest == 0 */\n      eq\n        /* \"homework/Bank.sol\":1881:1907  lowest == 0 && !has_record */\n      dup1\n      iszero\n      tag_37\n      jumpi\n      pop\n        /* \"homework/Bank.sol\":1897:1907  has_record */\n      dup3\n        /* \"homework/Bank.sol\":1896:1907  !has_record */\n      iszero\n        /* \"homework/Bank.sol\":1881:1907  lowest == 0 && !has_record */\n    tag_37:\n        /* \"homework/Bank.sol\":1877:2262  if (lowest == 0 && !has_record) {... */\n      iszero\n      tag_38\n      jumpi\n        /* \"homework/Bank.sol\":1923:1934  init_top3() */\n      tag_39\n        /* \"homework/Bank.sol\":1923:1932  init_top3 */\n      tag_40\n        /* \"homework/Bank.sol\":1923:1934  init_top3() */\n      jump\t// in\n    tag_39:\n        /* \"homework/Bank.sol\":1877:2262  if (lowest == 0 && !has_record) {... */\n      jump(tag_41)\n    tag_38:\n        /* \"homework/Bank.sol\":1982:1988  lowest */\n      dup2\n        /* \"homework/Bank.sol\":1955:1967  addr_balance */\n      0x00\n        /* \"homework/Bank.sol\":1955:1979  addr_balance[msg.sender] */\n      dup1\n        /* \"homework/Bank.sol\":1968:1978  msg.sender */\n      caller\n        /* \"homework/Bank.sol\":1955:1979  addr_balance[msg.sender] */\n      0xffffffffffffffffffffffffffffffffffffffff\n      and\n      0xffffffffffffffffffffffffffffffffffffffff\n      and\n      dup2\n      mstore\n      0x20\n      add\n      swap1\n      dup2\n      mstore\n      0x20\n      add\n      0x00\n      keccak256\n      sload\n        /* \"homework/Bank.sol\":1955:1988  addr_balance[msg.sender] > lowest */\n      gt\n        /* \"homework/Bank.sol\":1951:2262  if (addr_balance[msg.sender] > lowest) {... */\n      iszero\n      tag_42\n      jumpi\n        /* \"homework/Bank.sol\":2055:2061  uint i */\n      0x00\n        /* \"homework/Bank.sol\":2050:2252  for (uint i = 0; i < top_3_balance_addr.length; i++) {... */\n    tag_43:\n        /* \"homework/Bank.sol\":2071:2096  top_3_balance_addr.length */\n      0x03\n        /* \"homework/Bank.sol\":2067:2068  i */\n      dup2\n        /* \"homework/Bank.sol\":2067:2096  i < top_3_balance_addr.length */\n      lt\n        /* \"homework/Bank.sol\":2050:2252  for (uint i = 0; i < top_3_balance_addr.length; i++) {... */\n      iszero\n      tag_44\n      jumpi\n        /* \"homework/Bank.sol\":2150:2161  lowest_addr */\n      dup2\n        /* \"homework/Bank.sol\":2125:2161  top_3_balance_addr[i] == lowest_addr */\n      0xffffffffffffffffffffffffffffffffffffffff\n      and\n        /* \"homework/Bank.sol\":2125:2143  top_3_balance_addr */\n      0x01\n        /* \"homework/Bank.sol\":2144:2145  i */\n      dup3\n        /* \"homework/Bank.sol\":2125:2146  top_3_balance_addr[i] */\n      0x03\n      dup2\n      lt\n      tag_46\n      jumpi\n      mstore(0x00, 0x4e487b7100000000000000000000000000000000000000000000000000000000)\n      mstore(0x04, 0x32)\n      revert(0x00, 0x24)\n    tag_46:\n      add\n      0x00\n      swap1\n      sload\n      swap1\n      0x0100\n      exp\n      swap1\n      div\n      0xffffffffffffffffffffffffffffffffffffffff\n      and\n        /* \"homework/Bank.sol\":2125:2161  top_3_balance_addr[i] == lowest_addr */\n      0xffffffffffffffffffffffffffffffffffffffff\n      and\n      eq\n        /* \"homework/Bank.sol\":2121:2238  if (top_3_balance_addr[i] == lowest_addr) {... */\n      iszero\n      tag_48\n      jumpi\n        /* \"homework/Bank.sol\":2209:2219  msg.sender */\n      caller\n        /* \"homework/Bank.sol\":2185:2203  top_3_balance_addr */\n      0x01\n        /* \"homework/Bank.sol\":2204:2205  i */\n      dup3\n        /* \"homework/Bank.sol\":2185:2206  top_3_balance_addr[i] */\n      0x03\n      dup2\n      lt\n      tag_49\n      jumpi\n      mstore(0x00, 0x4e487b7100000000000000000000000000000000000000000000000000000000)\n      mstore(0x04, 0x32)\n      revert(0x00, 0x24)\n    tag_49:\n      add\n      0x00\n        /* \"homework/Bank.sol\":2185:2219  top_3_balance_addr[i] = msg.sender */\n      0x0100\n      exp\n      dup2\n      sload\n      dup2\n      0xffffffffffffffffffffffffffffffffffffffff\n      mul\n      not\n      and\n      swap1\n      dup4\n      0xffffffffffffffffffffffffffffffffffffffff\n      and\n      mul\n      or\n      swap1\n      sstore\n      pop\n        /* \"homework/Bank.sol\":2121:2238  if (top_3_balance_addr[i] == lowest_addr) {... */\n    tag_48:\n        /* \"homework/Bank.sol\":2098:2101  i++ */\n      dup1\n      dup1\n      tag_51\n      swap1\n      tag_52\n      jump\t// in\n    tag_51:\n      swap2\n      pop\n      pop\n        /* \"homework/Bank.sol\":2050:2252  for (uint i = 0; i < top_3_balance_addr.length; i++) {... */\n      jump(tag_43)\n    tag_44:\n      pop\n        /* \"homework/Bank.sol\":1951:2262  if (addr_balance[msg.sender] > lowest) {... */\n    tag_42:\n        /* \"homework/Bank.sol\":1877:2262  if (lowest == 0 && !has_record) {... */\n    tag_41:\n        /* \"homework/Bank.sol\":1593:2268  function recordBalanceOfAddr() internal {... */\n      pop\n      pop\n      pop\n      jump\t// out\n        /* \"homework/Bank.sol\":1092:1587  function withdraw() external payable override returns(int8) {... */\n    tag_12:\n        /* \"homework/Bank.sol\":1146:1150  int8 */\n      0x00\n        /* \"homework/Bank.sol\":1162:1182  address payable addr */\n      dup1\n        /* \"homework/Bank.sol\":1201:1211  msg.sender */\n      caller\n        /* \"homework/Bank.sol\":1162:1213  address payable addr = payable(address(msg.sender)) */\n      swap1\n      pop\n        /* \"homework/Bank.sol\":1271:1281  admin_addr */\n      0x04\n      0x00\n      swap1\n      sload\n      swap1\n      0x0100\n      exp\n      swap1\n      div\n      0xffffffffffffffffffffffffffffffffffffffff\n      and\n        /* \"homework/Bank.sol\":1263:1281  addr != admin_addr */\n      0xffffffffffffffffffffffffffffffffffffffff\n      and\n        /* \"homework/Bank.sol\":1263:1267  addr */\n      dup2\n        /* \"homework/Bank.sol\":1263:1281  addr != admin_addr */\n      0xffffffffffffffffffffffffffffffffffffffff\n      and\n      eq\n        /* \"homework/Bank.sol\":1259:1317  if (addr != admin_addr) {... */\n      tag_54\n      jumpi\n        /* \"homework/Bank.sol\":1304:1306  -1 */\n      0xffffffffffffffffffffffffffffffffffffffffffffffffffffffffffffffff\n        /* \"homework/Bank.sol\":1297:1306  return -1 */\n      swap2\n      pop\n      pop\n      jump(tag_53)\n        /* \"homework/Bank.sol\":1259:1317  if (addr != admin_addr) {... */\n    tag_54:\n        /* \"homework/Bank.sol\":1326:1351  address payable this_addr */\n      0x00\n        /* \"homework/Bank.sol\":1370:1374  this */\n      address\n        /* \"homework/Bank.sol\":1326:1376  address payable this_addr = payable(address(this)) */\n      swap1\n      pop\n        /* \"homework/Bank.sol\":1386:1401  uint256 balance */\n      0x00\n        /* \"homework/Bank.sol\":1404:1413  this_addr */\n      dup2\n        /* \"homework/Bank.sol\":1404:1421  this_addr.balance */\n      0xffffffffffffffffffffffffffffffffffffffff\n      and\n      balance\n        /* \"homework/Bank.sol\":1386:1421  uint256 balance = this_addr.balance */\n      swap1\n      pop\n        /* \"homework/Bank.sol\":1445:1446  0 */\n      0x00\n        /* \"homework/Bank.sol\":1435:1442  balance */\n      dup2\n        /* \"homework/Bank.sol\":1435:1446  balance > 0 */\n      gt\n        /* \"homework/Bank.sol\":1431:1563  if (balance > 0) {... */\n      iszero\n      tag_55\n      jumpi\n        /* \"homework/Bank.sol\":1462:1466  addr */\n      dup3\n        /* \"homework/Bank.sol\":1462:1475  addr.transfer */\n      0xffffffffffffffffffffffffffffffffffffffff\n      and\n        /* \"homework/Bank.sol\":1462:1484  addr.transfer(balance) */\n      0x08fc\n        /* \"homework/Bank.sol\":1476:1483  balance */\n      dup3\n        /* \"homework/Bank.sol\":1462:1484  addr.transfer(balance) */\n      swap1\n      dup2\n      iszero\n      mul\n      swap1\n      mload(0x40)\n      0x00\n      mload(0x40)\n      dup1\n      dup4\n      sub\n      dup2\n      dup6\n      dup9\n      dup9\n      call\n      swap4\n      pop\n      pop\n      pop\n      pop\n      iszero\n      dup1\n      iszero\n      tag_57\n      jumpi\n      returndatasize\n      0x00\n      dup1\n      returndatacopy\n      revert(0x00, returndatasize)\n    tag_57:\n      pop\n        /* \"homework/Bank.sol\":1431:1563  if (balance > 0) {... */\n      jump(tag_58)\n    tag_55:\n        /* \"homework/Bank.sol\":1550:1552  -2 */\n      0xfffffffffffffffffffffffffffffffffffffffffffffffffffffffffffffffe\n        /* \"homework/Bank.sol\":1543:1552  return -2 */\n      swap4\n      pop\n      pop\n      pop\n      pop\n      jump(tag_53)\n        /* \"homework/Bank.sol\":1431:1563  if (balance > 0) {... */\n    tag_58:\n        /* \"homework/Bank.sol\":1579:1580  0 */\n      0x00\n        /* \"homework/Bank.sol\":1572:1580  return 0 */\n      swap4\n      pop\n      pop\n      pop\n      pop\n        /* \"homework/Bank.sol\":1092:1587  function withdraw() external payable override returns(int8) {... */\n    tag_53:\n      swap1\n      jump\t// out\n        /* \"homework/Bank.sol\":2274:2374  function getTop3() public view returns(address[3] memory) {... */\n    tag_17:\n        /* \"homework/Bank.sol\":2313:2330  address[3] memory */\n      tag_59\n      tag_60\n      jump\t// in\n    tag_59:\n        /* \"homework/Bank.sol\":2349:2367  top_3_balance_addr */\n      0x01\n        /* \"homework/Bank.sol\":2342:2367  return top_3_balance_addr */\n      0x03\n      dup1\n      0x20\n      mul\n      mload(0x40)\n      swap1\n      dup2\n      add\n      0x40\n      mstore\n      dup1\n      swap3\n      swap2\n      swap1\n      dup3\n      0x03\n      dup1\n      iszero\n      tag_62\n      jumpi\n      0x20\n      mul\n      dup3\n      add\n      swap2\n    tag_63:\n      dup2\n      0x00\n      swap1\n      sload\n      swap1\n      0x0100\n      exp\n      swap1\n      div\n      0xffffffffffffffffffffffffffffffffffffffff\n      and\n      0xffffffffffffffffffffffffffffffffffffffff\n      and\n      dup2\n      mstore\n      0x20\n      add\n      swap1\n      0x01\n      add\n      swap1\n      dup1\n      dup4\n      gt\n      tag_63\n      jumpi\n    tag_62:\n      pop\n      pop\n      pop\n      pop\n      pop\n      swap1\n      pop\n        /* \"homework/Bank.sol\":2274:2374  function getTop3() public view returns(address[3] memory) {... */\n      swap1\n      jump\t// out\n        /* \"homework/Bank.sol\":740:827  function getAdminAddr() public view returns(address) {... */\n    tag_22:\n        /* \"homework/Bank.sol\":784:791  address */\n      0x00\n        /* \"homework/Bank.sol\":810:820  admin_addr */\n      0x04\n      0x00\n      swap1\n      sload\n      swap1\n      0x0100\n      exp\n      swap1\n      div\n      0xffffffffffffffffffffffffffffffffffffffff\n      and\n        /* \"homework/Bank.sol\":803:820  return admin_addr */\n      swap1\n      pop\n        /* \"homework/Bank.sol\":740:827  function getAdminAddr() public view returns(address) {... */\n      swap1\n      jump\t// out\n        /* \"homework/Bank.sol\":164:211  mapping(address => uint256) public addr_balance */\n    tag_29:\n      mstore(0x20, 0x00)\n      dup1\n      0x00\n      mstore\n      keccak256(0x00, 0x40)\n      0x00\n      swap2\n      pop\n      swap1\n      pop\n      sload\n      dup2\n      jump\t// out\n        /* \"homework/Bank.sol\":2380:2841  function lowest_balance_in_top3() private need_more_than_zero returns(uint256, address) {... */\n    tag_36:\n        /* \"homework/Bank.sol\":2450:2457  uint256 */\n      0x00\n        /* \"homework/Bank.sol\":2459:2466  address */\n      dup1\n        /* \"homework/Bank.sol\":692:693  0 */\n      0x00\n        /* \"homework/Bank.sol\":680:689  msg.value */\n      callvalue\n        /* \"homework/Bank.sol\":680:693  msg.value > 0 */\n      gt\n        /* \"homework/Bank.sol\":672:716  require(msg.value > 0, \"need msg.value > 0\") */\n      tag_66\n      jumpi\n      mload(0x40)\n      0x08c379a000000000000000000000000000000000000000000000000000000000\n      dup2\n      mstore\n      0x04\n      add\n      tag_67\n      swap1\n      tag_68\n      jump\t// in\n    tag_67:\n      mload(0x40)\n      dup1\n      swap2\n      sub\n      swap1\n      revert\n    tag_66:\n        /* \"homework/Bank.sol\":2478:2492  uint256 lowest */\n      0x00\n        /* \"homework/Bank.sol\":2495:2507  addr_balance */\n      dup1\n        /* \"homework/Bank.sol\":2495:2530  addr_balance[top_3_balance_addr[0]] */\n      0x00\n        /* \"homework/Bank.sol\":2508:2526  top_3_balance_addr */\n      0x01\n        /* \"homework/Bank.sol\":2527:2528  0 */\n      0x00\n        /* \"homework/Bank.sol\":2508:2529  top_3_balance_addr[0] */\n      0x03\n      dup2\n      lt\n      tag_70\n      jumpi\n      mstore(0x00, 0x4e487b7100000000000000000000000000000000000000000000000000000000)\n      mstore(0x04, 0x32)\n      revert(0x00, 0x24)\n    tag_70:\n      add\n      0x00\n      swap1\n      sload\n      swap1\n      0x0100\n      exp\n      swap1\n      div\n      0xffffffffffffffffffffffffffffffffffffffff\n      and\n        /* \"homework/Bank.sol\":2495:2530  addr_balance[top_3_balance_addr[0]] */\n      0xffffffffffffffffffffffffffffffffffffffff\n      and\n      0xffffffffffffffffffffffffffffffffffffffff\n      and\n      dup2\n      mstore\n      0x20\n      add\n      swap1\n      dup2\n      mstore\n      0x20\n      add\n      0x00\n      keccak256\n      sload\n        /* \"homework/Bank.sol\":2478:2530  uint256 lowest = addr_balance[top_3_balance_addr[0]] */\n      swap1\n      pop\n        /* \"homework/Bank.sol\":2540:2559  address lowest_addr */\n      0x00\n        /* \"homework/Bank.sol\":2562:2580  top_3_balance_addr */\n      0x01\n        /* \"homework/Bank.sol\":2581:2582  0 */\n      0x00\n        /* \"homework/Bank.sol\":2562:2583  top_3_balance_addr[0] */\n      0x03\n      dup2\n      lt\n      tag_72\n      jumpi\n      mstore(0x00, 0x4e487b7100000000000000000000000000000000000000000000000000000000)\n      mstore(0x04, 0x32)\n      revert(0x00, 0x24)\n    tag_72:\n      add\n      0x00\n      swap1\n      sload\n      swap1\n      0x0100\n      exp\n      swap1\n      div\n      0xffffffffffffffffffffffffffffffffffffffff\n      and\n        /* \"homework/Bank.sol\":2540:2583  address lowest_addr = top_3_balance_addr[0] */\n      swap1\n      pop\n        /* \"homework/Bank.sol\":2598:2604  uint i */\n      0x00\n        /* \"homework/Bank.sol\":2593:2797  for (uint i = 0; i < top_3_balance_addr.length; i++) {... */\n    tag_74:\n        /* \"homework/Bank.sol\":2614:2639  top_3_balance_addr.length */\n      0x03\n        /* \"homework/Bank.sol\":2610:2611  i */\n      dup2\n        /* \"homework/Bank.sol\":2610:2639  i < top_3_balance_addr.length */\n      lt\n        /* \"homework/Bank.sol\":2593:2797  for (uint i = 0; i < top_3_balance_addr.length; i++) {... */\n      iszero\n      tag_75\n      jumpi\n        /* \"homework/Bank.sol\":2673:2685  addr_balance */\n      0x00\n        /* \"homework/Bank.sol\":2673:2708  addr_balance[top_3_balance_addr[i]] */\n      dup1\n        /* \"homework/Bank.sol\":2686:2704  top_3_balance_addr */\n      0x01\n        /* \"homework/Bank.sol\":2705:2706  i */\n      dup4\n        /* \"homework/Bank.sol\":2686:2707  top_3_balance_addr[i] */\n      0x03\n      dup2\n      lt\n      tag_77\n      jumpi\n      mstore(0x00, 0x4e487b7100000000000000000000000000000000000000000000000000000000)\n      mstore(0x04, 0x32)\n      revert(0x00, 0x24)\n    tag_77:\n      add\n      0x00\n      swap1\n      sload\n      swap1\n      0x0100\n      exp\n      swap1\n      div\n      0xffffffffffffffffffffffffffffffffffffffff\n      and\n        /* \"homework/Bank.sol\":2673:2708  addr_balance[top_3_balance_addr[i]] */\n      0xffffffffffffffffffffffffffffffffffffffff\n      and\n      0xffffffffffffffffffffffffffffffffffffffff\n      and\n      dup2\n      mstore\n      0x20\n      add\n      swap1\n      dup2\n      mstore\n      0x20\n      add\n      0x00\n      keccak256\n      sload\n        /* \"homework/Bank.sol\":2664:2670  lowest */\n      dup4\n        /* \"homework/Bank.sol\":2664:2708  lowest > addr_balance[top_3_balance_addr[i]] */\n      gt\n        /* \"homework/Bank.sol\":2660:2787  if (lowest > addr_balance[top_3_balance_addr[i]]) {... */\n      iszero\n      tag_79\n      jumpi\n        /* \"homework/Bank.sol\":2737:2749  addr_balance */\n      0x00\n        /* \"homework/Bank.sol\":2737:2772  addr_balance[top_3_balance_addr[i]] */\n      dup1\n        /* \"homework/Bank.sol\":2750:2768  top_3_balance_addr */\n      0x01\n        /* \"homework/Bank.sol\":2769:2770  i */\n      dup4\n        /* \"homework/Bank.sol\":2750:2771  top_3_balance_addr[i] */\n      0x03\n      dup2\n      lt\n      tag_80\n      jumpi\n      mstore(0x00, 0x4e487b7100000000000000000000000000000000000000000000000000000000)\n      mstore(0x04, 0x32)\n      revert(0x00, 0x24)\n    tag_80:\n      add\n      0x00\n      swap1\n      sload\n      swap1\n      0x0100\n      exp\n      swap1\n      div\n      0xffffffffffffffffffffffffffffffffffffffff\n      and\n        /* \"homework/Bank.sol\":2737:2772  addr_balance[top_3_balance_addr[i]] */\n      0xffffffffffffffffffffffffffffffffffffffff\n      and\n      0xffffffffffffffffffffffffffffffffffffffff\n      and\n      dup2\n      mstore\n      0x20\n      add\n      swap1\n      dup2\n      mstore\n      0x20\n      add\n      0x00\n      keccak256\n      sload\n        /* \"homework/Bank.sol\":2728:2772  lowest = addr_balance[top_3_balance_addr[i]] */\n      swap3\n      pop\n        /* \"homework/Bank.sol\":2660:2787  if (lowest > addr_balance[top_3_balance_addr[i]]) {... */\n    tag_79:\n        /* \"homework/Bank.sol\":2641:2644  i++ */\n      dup1\n      dup1\n      tag_82\n      swap1\n      tag_52\n      jump\t// in\n    tag_82:\n      swap2\n      pop\n      pop\n        /* \"homework/Bank.sol\":2593:2797  for (uint i = 0; i < top_3_balance_addr.length; i++) {... */\n      jump(tag_74)\n    tag_75:\n      pop\n        /* \"homework/Bank.sol\":2814:2820  lowest */\n      dup2\n        /* \"homework/Bank.sol\":2822:2833  lowest_addr */\n      dup2\n        /* \"homework/Bank.sol\":2806:2834  return (lowest, lowest_addr) */\n      swap4\n      pop\n      swap4\n      pop\n      pop\n      pop\n        /* \"homework/Bank.sol\":2380:2841  function lowest_balance_in_top3() private need_more_than_zero returns(uint256, address) {... */\n      swap1\n      swap2\n      jump\t// out\n        /* \"homework/Bank.sol\":2847:3101  function init_top3() private {... */\n    tag_40:\n        /* \"homework/Bank.sol\":2891:2897  uint i */\n      0x00\n        /* \"homework/Bank.sol\":2886:3095  for (uint i = 0; i< top_3_balance_addr.length;i++) {... */\n    tag_84:\n        /* \"homework/Bank.sol\":2906:2931  top_3_balance_addr.length */\n      0x03\n        /* \"homework/Bank.sol\":2903:2904  i */\n      dup2\n        /* \"homework/Bank.sol\":2903:2931  i< top_3_balance_addr.length */\n      lt\n        /* \"homework/Bank.sol\":2886:3095  for (uint i = 0; i< top_3_balance_addr.length;i++) {... */\n      iszero\n      tag_85\n      jumpi\n        /* \"homework/Bank.sol\":419:461  0x0000000000000000000000000000000000000000 */\n      0x00\n        /* \"homework/Bank.sol\":2955:2992  top_3_balance_addr[i] == UN_INIT_ADDR */\n      0xffffffffffffffffffffffffffffffffffffffff\n      and\n        /* \"homework/Bank.sol\":2955:2973  top_3_balance_addr */\n      0x01\n        /* \"homework/Bank.sol\":2974:2975  i */\n      dup3\n        /* \"homework/Bank.sol\":2955:2976  top_3_balance_addr[i] */\n      0x03\n      dup2\n      lt\n      tag_87\n      jumpi\n      mstore(0x00, 0x4e487b7100000000000000000000000000000000000000000000000000000000)\n      mstore(0x04, 0x32)\n      revert(0x00, 0x24)\n    tag_87:\n      add\n      0x00\n      swap1\n      sload\n      swap1\n      0x0100\n      exp\n      swap1\n      div\n      0xffffffffffffffffffffffffffffffffffffffff\n      and\n        /* \"homework/Bank.sol\":2955:2992  top_3_balance_addr[i] == UN_INIT_ADDR */\n      0xffffffffffffffffffffffffffffffffffffffff\n      and\n      eq\n        /* \"homework/Bank.sol\":2951:3085  if (top_3_balance_addr[i] == UN_INIT_ADDR) {... */\n      iszero\n      tag_89\n      jumpi\n        /* \"homework/Bank.sol\":3036:3046  msg.sender */\n      caller\n        /* \"homework/Bank.sol\":3012:3030  top_3_balance_addr */\n      0x01\n        /* \"homework/Bank.sol\":3031:3032  i */\n      dup3\n        /* \"homework/Bank.sol\":3012:3033  top_3_balance_addr[i] */\n      0x03\n      dup2\n      lt\n      tag_90\n      jumpi\n      mstore(0x00, 0x4e487b7100000000000000000000000000000000000000000000000000000000)\n      mstore(0x04, 0x32)\n      revert(0x00, 0x24)\n    tag_90:\n      add\n      0x00\n        /* \"homework/Bank.sol\":3012:3046  top_3_balance_addr[i] = msg.sender */\n      0x0100\n      exp\n      dup2\n      sload\n      dup2\n      0xffffffffffffffffffffffffffffffffffffffff\n      mul\n      not\n      and\n      swap1\n      dup4\n      0xffffffffffffffffffffffffffffffffffffffff\n      and\n      mul\n      or\n      swap1\n      sstore\n      pop\n        /* \"homework/Bank.sol\":3064:3069  break */\n      jump(tag_85)\n        /* \"homework/Bank.sol\":2951:3085  if (top_3_balance_addr[i] == UN_INIT_ADDR) {... */\n    tag_89:\n        /* \"homework/Bank.sol\":2932:2935  i++ */\n      dup1\n      dup1\n      tag_92\n      swap1\n      tag_52\n      jump\t// in\n    tag_92:\n      swap2\n      pop\n      pop\n        /* \"homework/Bank.sol\":2886:3095  for (uint i = 0; i< top_3_balance_addr.length;i++) {... */\n      jump(tag_84)\n    tag_85:\n      pop\n        /* \"homework/Bank.sol\":2847:3101  function init_top3() private {... */\n      jump\t// out\n    tag_60:\n      mload(0x40)\n      dup1\n      0x60\n      add\n      0x40\n      mstore\n      dup1\n      0x03\n      swap1\n      0x20\n      dup3\n      mul\n      dup1\n      calldatasize\n      dup4\n      calldatacopy\n      dup1\n      dup3\n      add\n      swap2\n      pop\n      pop\n      swap1\n      pop\n      pop\n      swap1\n      jump\t// out\n        /* \"#utility.yul\":7:146   */\n    tag_94:\n      0x00\n        /* \"#utility.yul\":91:97   */\n      dup2\n        /* \"#utility.yul\":78:98   */\n      calldataload\n        /* \"#utility.yul\":69:98   */\n      swap1\n      pop\n        /* \"#utility.yul\":107:140   */\n      tag_96\n        /* \"#utility.yul\":134:139   */\n      dup2\n        /* \"#utility.yul\":107:140   */\n      tag_97\n      jump\t// in\n    tag_96:\n        /* \"#utility.yul\":59:146   */\n      swap3\n      swap2\n      pop\n      pop\n      jump\t// out\n        /* \"#utility.yul\":152:414   */\n    tag_28:\n      0x00\n        /* \"#utility.yul\":260:262   */\n      0x20\n        /* \"#utility.yul\":248:257   */\n      dup3\n        /* \"#utility.yul\":239:246   */\n      dup5\n        /* \"#utility.yul\":235:258   */\n      sub\n        /* \"#utility.yul\":231:263   */\n      slt\n        /* \"#utility.yul\":228:230   */\n      iszero\n      tag_99\n      jumpi\n        /* \"#utility.yul\":276:277   */\n      0x00\n        /* \"#utility.yul\":273:274   */\n      dup1\n        /* \"#utility.yul\":266:278   */\n      revert\n        /* \"#utility.yul\":228:230   */\n    tag_99:\n        /* \"#utility.yul\":319:320   */\n      0x00\n        /* \"#utility.yul\":344:397   */\n      tag_100\n        /* \"#utility.yul\":389:396   */\n      dup5\n        /* \"#utility.yul\":380:386   */\n      dup3\n        /* \"#utility.yul\":369:378   */\n      dup6\n        /* \"#utility.yul\":365:387   */\n      add\n        /* \"#utility.yul\":344:397   */\n      tag_94\n      jump\t// in\n    tag_100:\n        /* \"#utility.yul\":334:397   */\n      swap2\n      pop\n        /* \"#utility.yul\":290:407   */\n      pop\n        /* \"#utility.yul\":218:414   */\n      swap3\n      swap2\n      pop\n      pop\n      jump\t// out\n        /* \"#utility.yul\":420:599   */\n    tag_101:\n      0x00\n        /* \"#utility.yul\":510:556   */\n      tag_103\n        /* \"#utility.yul\":552:555   */\n      dup4\n        /* \"#utility.yul\":544:550   */\n      dup4\n        /* \"#utility.yul\":510:556   */\n      tag_104\n      jump\t// in\n    tag_103:\n        /* \"#utility.yul\":588:592   */\n      0x20\n        /* \"#utility.yul\":583:586   */\n      dup4\n        /* \"#utility.yul\":579:593   */\n      add\n        /* \"#utility.yul\":565:593   */\n      swap1\n      pop\n        /* \"#utility.yul\":500:599   */\n      swap3\n      swap2\n      pop\n      pop\n      jump\t// out\n        /* \"#utility.yul\":605:713   */\n    tag_104:\n        /* \"#utility.yul\":682:706   */\n      tag_106\n        /* \"#utility.yul\":700:705   */\n      dup2\n        /* \"#utility.yul\":682:706   */\n      tag_107\n      jump\t// in\n    tag_106:\n        /* \"#utility.yul\":677:680   */\n      dup3\n        /* \"#utility.yul\":670:707   */\n      mstore\n        /* \"#utility.yul\":660:713   */\n      pop\n      pop\n      jump\t// out\n        /* \"#utility.yul\":719:837   */\n    tag_108:\n        /* \"#utility.yul\":806:830   */\n      tag_110\n        /* \"#utility.yul\":824:829   */\n      dup2\n        /* \"#utility.yul\":806:830   */\n      tag_107\n      jump\t// in\n    tag_110:\n        /* \"#utility.yul\":801:804   */\n      dup3\n        /* \"#utility.yul\":794:831   */\n      mstore\n        /* \"#utility.yul\":784:837   */\n      pop\n      pop\n      jump\t// out\n        /* \"#utility.yul\":875:1569   */\n    tag_111:\n        /* \"#utility.yul\":1011:1063   */\n      tag_113\n        /* \"#utility.yul\":1057:1062   */\n      dup2\n        /* \"#utility.yul\":1011:1063   */\n      tag_114\n      jump\t// in\n    tag_113:\n        /* \"#utility.yul\":1079:1163   */\n      tag_115\n        /* \"#utility.yul\":1156:1162   */\n      dup2\n        /* \"#utility.yul\":1151:1154   */\n      dup5\n        /* \"#utility.yul\":1079:1163   */\n      tag_116\n      jump\t// in\n    tag_115:\n        /* \"#utility.yul\":1072:1163   */\n      swap3\n      pop\n        /* \"#utility.yul\":1187:1241   */\n      tag_117\n        /* \"#utility.yul\":1235:1240   */\n      dup3\n        /* \"#utility.yul\":1187:1241   */\n      tag_118\n      jump\t// in\n    tag_117:\n        /* \"#utility.yul\":1264:1271   */\n      dup1\n        /* \"#utility.yul\":1295:1296   */\n      0x00\n        /* \"#utility.yul\":1280:1562   */\n    tag_119:\n        /* \"#utility.yul\":1305:1311   */\n      dup4\n        /* \"#utility.yul\":1302:1303   */\n      dup2\n        /* \"#utility.yul\":1299:1312   */\n      lt\n        /* \"#utility.yul\":1280:1562   */\n      iszero\n      tag_121\n      jumpi\n        /* \"#utility.yul\":1381:1387   */\n      dup2\n        /* \"#utility.yul\":1375:1388   */\n      mload\n        /* \"#utility.yul\":1408:1471   */\n      tag_122\n        /* \"#utility.yul\":1467:1470   */\n      dup8\n        /* \"#utility.yul\":1452:1465   */\n      dup3\n        /* \"#utility.yul\":1408:1471   */\n      tag_101\n      jump\t// in\n    tag_122:\n        /* \"#utility.yul\":1401:1471   */\n      swap7\n      pop\n        /* \"#utility.yul\":1494:1552   */\n      tag_123\n        /* \"#utility.yul\":1545:1551   */\n      dup4\n        /* \"#utility.yul\":1494:1552   */\n      tag_124\n      jump\t// in\n    tag_123:\n        /* \"#utility.yul\":1484:1552   */\n      swap3\n      pop\n        /* \"#utility.yul\":1340:1562   */\n      pop\n        /* \"#utility.yul\":1327:1328   */\n      0x01\n        /* \"#utility.yul\":1324:1325   */\n      dup2\n        /* \"#utility.yul\":1320:1329   */\n      add\n        /* \"#utility.yul\":1315:1329   */\n      swap1\n      pop\n        /* \"#utility.yul\":1280:1562   */\n      jump(tag_119)\n    tag_121:\n        /* \"#utility.yul\":1284:1298   */\n      pop\n        /* \"#utility.yul\":987:1569   */\n      pop\n      pop\n      pop\n      pop\n      pop\n      jump\t// out\n        /* \"#utility.yul\":1575:1684   */\n    tag_125:\n        /* \"#utility.yul\":1656:1677   */\n      tag_127\n        /* \"#utility.yul\":1671:1676   */\n      dup2\n        /* \"#utility.yul\":1656:1677   */\n      tag_128\n      jump\t// in\n    tag_127:\n        /* \"#utility.yul\":1651:1654   */\n      dup3\n        /* \"#utility.yul\":1644:1678   */\n      mstore\n        /* \"#utility.yul\":1634:1684   */\n      pop\n      pop\n      jump\t// out\n        /* \"#utility.yul\":1690:2056   */\n    tag_129:\n      0x00\n        /* \"#utility.yul\":1853:1920   */\n      tag_131\n        /* \"#utility.yul\":1917:1919   */\n      0x12\n        /* \"#utility.yul\":1912:1915   */\n      dup4\n        /* \"#utility.yul\":1853:1920   */\n      tag_132\n      jump\t// in\n    tag_131:\n        /* \"#utility.yul\":1846:1920   */\n      swap2\n      pop\n        /* \"#utility.yul\":1929:2022   */\n      tag_133\n        /* \"#utility.yul\":2018:2021   */\n      dup3\n        /* \"#utility.yul\":1929:2022   */\n      tag_134\n      jump\t// in\n    tag_133:\n        /* \"#utility.yul\":2047:2049   */\n      0x20\n        /* \"#utility.yul\":2042:2045   */\n      dup3\n        /* \"#utility.yul\":2038:2050   */\n      add\n        /* \"#utility.yul\":2031:2050   */\n      swap1\n      pop\n        /* \"#utility.yul\":1836:2056   */\n      swap2\n      swap1\n      pop\n      jump\t// out\n        /* \"#utility.yul\":2062:2180   */\n    tag_135:\n        /* \"#utility.yul\":2149:2173   */\n      tag_137\n        /* \"#utility.yul\":2167:2172   */\n      dup2\n        /* \"#utility.yul\":2149:2173   */\n      tag_138\n      jump\t// in\n    tag_137:\n        /* \"#utility.yul\":2144:2147   */\n      dup3\n        /* \"#utility.yul\":2137:2174   */\n      mstore\n        /* \"#utility.yul\":2127:2180   */\n      pop\n      pop\n      jump\t// out\n        /* \"#utility.yul\":2186:2408   */\n    tag_24:\n      0x00\n        /* \"#utility.yul\":2317:2319   */\n      0x20\n        /* \"#utility.yul\":2306:2315   */\n      dup3\n        /* \"#utility.yul\":2302:2320   */\n      add\n        /* \"#utility.yul\":2294:2320   */\n      swap1\n      pop\n        /* \"#utility.yul\":2330:2401   */\n      tag_140\n        /* \"#utility.yul\":2398:2399   */\n      0x00\n        /* \"#utility.yul\":2387:2396   */\n      dup4\n        /* \"#utility.yul\":2383:2400   */\n      add\n        /* \"#utility.yul\":2374:2380   */\n      dup5\n        /* \"#utility.yul\":2330:2401   */\n      tag_108\n      jump\t// in\n    tag_140:\n        /* \"#utility.yul\":2284:2408   */\n      swap3\n      swap2\n      pop\n      pop\n      jump\t// out\n        /* \"#utility.yul\":2414:2728   */\n    tag_19:\n      0x00\n        /* \"#utility.yul\":2591:2593   */\n      0x60\n        /* \"#utility.yul\":2580:2589   */\n      dup3\n        /* \"#utility.yul\":2576:2594   */\n      add\n        /* \"#utility.yul\":2568:2594   */\n      swap1\n      pop\n        /* \"#utility.yul\":2604:2721   */\n      tag_142\n        /* \"#utility.yul\":2718:2719   */\n      0x00\n        /* \"#utility.yul\":2707:2716   */\n      dup4\n        /* \"#utility.yul\":2703:2720   */\n      add\n        /* \"#utility.yul\":2694:2700   */\n      dup5\n        /* \"#utility.yul\":2604:2721   */\n      tag_111\n      jump\t// in\n    tag_142:\n        /* \"#utility.yul\":2558:2728   */\n      swap3\n      swap2\n      pop\n      pop\n      jump\t// out\n        /* \"#utility.yul\":2734:2944   */\n    tag_14:\n      0x00\n        /* \"#utility.yul\":2859:2861   */\n      0x20\n        /* \"#utility.yul\":2848:2857   */\n      dup3\n        /* \"#utility.yul\":2844:2862   */\n      add\n        /* \"#utility.yul\":2836:2862   */\n      swap1\n      pop\n        /* \"#utility.yul\":2872:2937   */\n      tag_144\n        /* \"#utility.yul\":2934:2935   */\n      0x00\n        /* \"#utility.yul\":2923:2932   */\n      dup4\n        /* \"#utility.yul\":2919:2936   */\n      add\n        /* \"#utility.yul\":2910:2916   */\n      dup5\n        /* \"#utility.yul\":2872:2937   */\n      tag_125\n      jump\t// in\n    tag_144:\n        /* \"#utility.yul\":2826:2944   */\n      swap3\n      swap2\n      pop\n      pop\n      jump\t// out\n        /* \"#utility.yul\":2950:3369   */\n    tag_68:\n      0x00\n        /* \"#utility.yul\":3154:3156   */\n      0x20\n        /* \"#utility.yul\":3143:3152   */\n      dup3\n        /* \"#utility.yul\":3139:3157   */\n      add\n        /* \"#utility.yul\":3131:3157   */\n      swap1\n      pop\n        /* \"#utility.yul\":3203:3212   */\n      dup2\n        /* \"#utility.yul\":3197:3201   */\n      dup2\n        /* \"#utility.yul\":3193:3213   */\n      sub\n        /* \"#utility.yul\":3189:3190   */\n      0x00\n        /* \"#utility.yul\":3178:3187   */\n      dup4\n        /* \"#utility.yul\":3174:3191   */\n      add\n        /* \"#utility.yul\":3167:3214   */\n      mstore\n        /* \"#utility.yul\":3231:3362   */\n      tag_146\n        /* \"#utility.yul\":3357:3361   */\n      dup2\n        /* \"#utility.yul\":3231:3362   */\n      tag_129\n      jump\t// in\n    tag_146:\n        /* \"#utility.yul\":3223:3362   */\n      swap1\n      pop\n        /* \"#utility.yul\":3121:3369   */\n      swap2\n      swap1\n      pop\n      jump\t// out\n        /* \"#utility.yul\":3375:3597   */\n    tag_31:\n      0x00\n        /* \"#utility.yul\":3506:3508   */\n      0x20\n        /* \"#utility.yul\":3495:3504   */\n      dup3\n        /* \"#utility.yul\":3491:3509   */\n      add\n        /* \"#utility.yul\":3483:3509   */\n      swap1\n      pop\n        /* \"#utility.yul\":3519:3590   */\n      tag_148\n        /* \"#utility.yul\":3587:3588   */\n      0x00\n        /* \"#utility.yul\":3576:3585   */\n      dup4\n        /* \"#utility.yul\":3572:3589   */\n      add\n        /* \"#utility.yul\":3563:3569   */\n      dup5\n        /* \"#utility.yul\":3519:3590   */\n      tag_135\n      jump\t// in\n    tag_148:\n        /* \"#utility.yul\":3473:3597   */\n      swap3\n      swap2\n      pop\n      pop\n      jump\t// out\n        /* \"#utility.yul\":3603:3701   */\n    tag_118:\n      0x00\n        /* \"#utility.yul\":3691:3694   */\n      dup2\n        /* \"#utility.yul\":3683:3694   */\n      swap1\n      pop\n        /* \"#utility.yul\":3673:3701   */\n      swap2\n      swap1\n      pop\n      jump\t// out\n        /* \"#utility.yul\":3707:3811   */\n    tag_114:\n      0x00\n        /* \"#utility.yul\":3800:3804   */\n      0x03\n        /* \"#utility.yul\":3790:3804   */\n      swap1\n      pop\n        /* \"#utility.yul\":3779:3811   */\n      swap2\n      swap1\n      pop\n      jump\t// out\n        /* \"#utility.yul\":3817:3928   */\n    tag_124:\n      0x00\n        /* \"#utility.yul\":3917:3921   */\n      0x20\n        /* \"#utility.yul\":3912:3915   */\n      dup3\n        /* \"#utility.yul\":3908:3922   */\n      add\n        /* \"#utility.yul\":3900:3922   */\n      swap1\n      pop\n        /* \"#utility.yul\":3890:3928   */\n      swap2\n      swap1\n      pop\n      jump\t// out\n        /* \"#utility.yul\":3934:4077   */\n    tag_116:\n      0x00\n        /* \"#utility.yul\":4068:4071   */\n      dup2\n        /* \"#utility.yul\":4053:4071   */\n      swap1\n      pop\n        /* \"#utility.yul\":4043:4077   */\n      swap3\n      swap2\n      pop\n      pop\n      jump\t// out\n        /* \"#utility.yul\":4083:4252   */\n    tag_132:\n      0x00\n        /* \"#utility.yul\":4201:4207   */\n      dup3\n        /* \"#utility.yul\":4196:4199   */\n      dup3\n        /* \"#utility.yul\":4189:4208   */\n      mstore\n        /* \"#utility.yul\":4241:4245   */\n      0x20\n        /* \"#utility.yul\":4236:4239   */\n      dup3\n        /* \"#utility.yul\":4232:4246   */\n      add\n        /* \"#utility.yul\":4217:4246   */\n      swap1\n      pop\n        /* \"#utility.yul\":4179:4252   */\n      swap3\n      swap2\n      pop\n      pop\n      jump\t// out\n        /* \"#utility.yul\":4258:4563   */\n    tag_34:\n      0x00\n        /* \"#utility.yul\":4317:4337   */\n      tag_155\n        /* \"#utility.yul\":4335:4336   */\n      dup3\n        /* \"#utility.yul\":4317:4337   */\n      tag_138\n      jump\t// in\n    tag_155:\n        /* \"#utility.yul\":4312:4337   */\n      swap2\n      pop\n        /* \"#utility.yul\":4351:4371   */\n      tag_156\n        /* \"#utility.yul\":4369:4370   */\n      dup4\n        /* \"#utility.yul\":4351:4371   */\n      tag_138\n      jump\t// in\n    tag_156:\n        /* \"#utility.yul\":4346:4371   */\n      swap3\n      pop\n        /* \"#utility.yul\":4505:4506   */\n      dup3\n        /* \"#utility.yul\":4437:4503   */\n      0xffffffffffffffffffffffffffffffffffffffffffffffffffffffffffffffff\n        /* \"#utility.yul\":4433:4507   */\n      sub\n        /* \"#utility.yul\":4430:4431   */\n      dup3\n        /* \"#utility.yul\":4427:4508   */\n      gt\n        /* \"#utility.yul\":4424:4426   */\n      iszero\n      tag_157\n      jumpi\n        /* \"#utility.yul\":4511:4529   */\n      tag_158\n      tag_159\n      jump\t// in\n    tag_158:\n        /* \"#utility.yul\":4424:4426   */\n    tag_157:\n        /* \"#utility.yul\":4555:4556   */\n      dup3\n        /* \"#utility.yul\":4552:4553   */\n      dup3\n        /* \"#utility.yul\":4548:4557   */\n      add\n        /* \"#utility.yul\":4541:4557   */\n      swap1\n      pop\n        /* \"#utility.yul\":4302:4563   */\n      swap3\n      swap2\n      pop\n      pop\n      jump\t// out\n        /* \"#utility.yul\":4569:4665   */\n    tag_107:\n      0x00\n        /* \"#utility.yul\":4635:4659   */\n      tag_161\n        /* \"#utility.yul\":4653:4658   */\n      dup3\n        /* \"#utility.yul\":4635:4659   */\n      tag_162\n      jump\t// in\n    tag_161:\n        /* \"#utility.yul\":4624:4659   */\n      swap1\n      pop\n        /* \"#utility.yul\":4614:4665   */\n      swap2\n      swap1\n      pop\n      jump\t// out\n        /* \"#utility.yul\":4671:4760   */\n    tag_128:\n      0x00\n        /* \"#utility.yul\":4748:4753   */\n      dup2\n        /* \"#utility.yul\":4745:4746   */\n      0x00\n        /* \"#utility.yul\":4734:4754   */\n      signextend\n        /* \"#utility.yul\":4723:4754   */\n      swap1\n      pop\n        /* \"#utility.yul\":4713:4760   */\n      swap2\n      swap1\n      pop\n      jump\t// out\n        /* \"#utility.yul\":4766:4892   */\n    tag_162:\n      0x00\n        /* \"#utility.yul\":4843:4885   */\n      0xffffffffffffffffffffffffffffffffffffffff\n        /* \"#utility.yul\":4836:4841   */\n      dup3\n        /* \"#utility.yul\":4832:4886   */\n      and\n        /* \"#utility.yul\":4821:4886   */\n      swap1\n      pop\n        /* \"#utility.yul\":4811:4892   */\n      swap2\n      swap1\n      pop\n      jump\t// out\n        /* \"#utility.yul\":4898:4975   */\n    tag_138:\n      0x00\n        /* \"#utility.yul\":4964:4969   */\n      dup2\n        /* \"#utility.yul\":4953:4969   */\n      swap1\n      pop\n        /* \"#utility.yul\":4943:4975   */\n      swap2\n      swap1\n      pop\n      jump\t// out\n        /* \"#utility.yul\":4981:5214   */\n    tag_52:\n      0x00\n        /* \"#utility.yul\":5043:5067   */\n      tag_167\n        /* \"#utility.yul\":5061:5066   */\n      dup3\n        /* \"#utility.yul\":5043:5067   */\n      tag_138\n      jump\t// in\n    tag_167:\n        /* \"#utility.yul\":5034:5067   */\n      swap2\n      pop\n        /* \"#utility.yul\":5089:5155   */\n      0xffffffffffffffffffffffffffffffffffffffffffffffffffffffffffffffff\n        /* \"#utility.yul\":5082:5087   */\n      dup3\n        /* \"#utility.yul\":5079:5156   */\n      eq\n        /* \"#utility.yul\":5076:5078   */\n      iszero\n      tag_168\n      jumpi\n        /* \"#utility.yul\":5159:5177   */\n      tag_169\n      tag_159\n      jump\t// in\n    tag_169:\n        /* \"#utility.yul\":5076:5078   */\n    tag_168:\n        /* \"#utility.yul\":5206:5207   */\n      0x01\n        /* \"#utility.yul\":5199:5204   */\n      dup3\n        /* \"#utility.yul\":5195:5208   */\n      add\n        /* \"#utility.yul\":5188:5208   */\n      swap1\n      pop\n        /* \"#utility.yul\":5024:5214   */\n      swap2\n      swap1\n      pop\n      jump\t// out\n        /* \"#utility.yul\":5220:5400   */\n    tag_159:\n        /* \"#utility.yul\":5268:5345   */\n      0x4e487b7100000000000000000000000000000000000000000000000000000000\n        /* \"#utility.yul\":5265:5266   */\n      0x00\n        /* \"#utility.yul\":5258:5346   */\n      mstore\n        /* \"#utility.yul\":5365:5369   */\n      0x11\n        /* \"#utility.yul\":5362:5363   */\n      0x04\n        /* \"#utility.yul\":5355:5370   */\n      mstore\n        /* \"#utility.yul\":5389:5393   */\n      0x24\n        /* \"#utility.yul\":5386:5387   */\n      0x00\n        /* \"#utility.yul\":5379:5394   */\n      revert\n        /* \"#utility.yul\":5406:5574   */\n    tag_134:\n        /* \"#utility.yul\":5546:5566   */\n      0x6e656564206d73672e76616c7565203e20300000000000000000000000000000\n        /* \"#utility.yul\":5542:5543   */\n      0x00\n        /* \"#utility.yul\":5534:5540   */\n      dup3\n        /* \"#utility.yul\":5530:5544   */\n      add\n        /* \"#utility.yul\":5523:5567   */\n      mstore\n        /* \"#utility.yul\":5512:5574   */\n      pop\n      jump\t// out\n        /* \"#utility.yul\":5580:5702   */\n    tag_97:\n        /* \"#utility.yul\":5653:5677   */\n      tag_173\n        /* \"#utility.yul\":5671:5676   */\n      dup2\n        /* \"#utility.yul\":5653:5677   */\n      tag_107\n      jump\t// in\n    tag_173:\n        /* \"#utility.yul\":5646:5651   */\n      dup2\n        /* \"#utility.yul\":5643:5678   */\n      eq\n        /* \"#utility.yul\":5633:5635   */\n      tag_174\n      jumpi\n        /* \"#utility.yul\":5692:5693   */\n      0x00\n        /* \"#utility.yul\":5689:5690   */\n      dup1\n        /* \"#utility.yul\":5682:5694   */\n      revert\n        /* \"#utility.yul\":5633:5635   */\n    tag_174:\n        /* \"#utility.yul\":5623:5702   */\n      pop\n      jump\t// out\n\n    auxdata: 0xa26469706673582212209ca291c1e9b3ef19e9a1a8928b0a56520ed45bb754b6f3a3b2533bf20cc4b83164736f6c63430008020033\n}\n",
				"bytecode": {
					"linkReferences": {},
					"object": "608060405234801561001057600080fd5b5033600460006101000a81548173ffffffffffffffffffffffffffffffffffffffff021916908373ffffffffffffffffffffffffffffffffffffffff160217905550610ca1806100616000396000f3fe6080604052600436106100435760003560e01c80633ccfd60b146100575780634061a5bf146100755780636d645b44146100a0578063e262838f146100cb57610052565b3661005257610050610108565b005b600080fd5b61005f610348565b60405161006c9190610a80565b60405180910390f35b34801561008157600080fd5b5061008a610478565b6040516100979190610a65565b60405180910390f35b3480156100ac57600080fd5b506100b56104f9565b6040516100c29190610a4a565b60405180910390f35b3480156100d757600080fd5b506100f260048036038101906100ed9190610953565b610523565b6040516100ff9190610abb565b60405180910390f35b6000806000803373ffffffffffffffffffffffffffffffffffffffff1673ffffffffffffffffffffffffffffffffffffffff16815260200190815260200160002054119050346000803373ffffffffffffffffffffffffffffffffffffffff1673ffffffffffffffffffffffffffffffffffffffff168152602001908152602001600020600082825461019b9190610b14565b925050819055506000806101ad61053b565b915091506000821480156101bf575082155b156101d1576101cc6107eb565b610343565b816000803373ffffffffffffffffffffffffffffffffffffffff1673ffffffffffffffffffffffffffffffffffffffff1681526020019081526020016000205411156103425760005b6003811015610340578173ffffffffffffffffffffffffffffffffffffffff1660018260038110610274577f4e487b7100000000000000000000000000000000000000000000000000000000600052603260045260246000fd5b0160009054906101000a900473ffffffffffffffffffffffffffffffffffffffff1673ffffffffffffffffffffffffffffffffffffffff16141561032d5733600182600381106102ed577f4e487b7100000000000000000000000000000000000000000000000000000000600052603260045260246000fd5b0160006101000a81548173ffffffffffffffffffffffffffffffffffffffff021916908373ffffffffffffffffffffffffffffffffffffffff1602179055505b808061033890610bb3565b91505061021a565b505b5b505050565b600080339050600460009054906101000a900473ffffffffffffffffffffffffffffffffffffffff1673ffffffffffffffffffffffffffffffffffffffff168173ffffffffffffffffffffffffffffffffffffffff16146103cc577fffffffffffffffffffffffffffffffffffffffffffffffffffffffffffffffff915050610475565b600030905060008173ffffffffffffffffffffffffffffffffffffffff163190506000811115610442578273ffffffffffffffffffffffffffffffffffffffff166108fc829081150290604051600060405180830381858888f1935050505015801561043c573d6000803e3d6000fd5b5061046d565b7ffffffffffffffffffffffffffffffffffffffffffffffffffffffffffffffffe9350505050610475565b600093505050505b90565b61048061091c565b60016003806020026040519081016040528092919082600380156104ef576020028201915b8160009054906101000a900473ffffffffffffffffffffffffffffffffffffffff1673ffffffffffffffffffffffffffffffffffffffff16815260200190600101908083116104a5575b5050505050905090565b6000600460009054906101000a900473ffffffffffffffffffffffffffffffffffffffff16905090565b60006020528060005260406000206000915090505481565b60008060003411610581576040517f08c379a000000000000000000000000000000000000000000000000000000000815260040161057890610a9b565b60405180910390fd5b600080600060016000600381106105c1577f4e487b7100000000000000000000000000000000000000000000000000000000600052603260045260246000fd5b0160009054906101000a900473ffffffffffffffffffffffffffffffffffffffff1673ffffffffffffffffffffffffffffffffffffffff1673ffffffffffffffffffffffffffffffffffffffff1681526020019081526020016000205490506000600160006003811061065d577f4e487b7100000000000000000000000000000000000000000000000000000000600052603260045260246000fd5b0160009054906101000a900473ffffffffffffffffffffffffffffffffffffffff16905060005b60038110156107de57600080600183600381106106ca577f4e487b7100000000000000000000000000000000000000000000000000000000600052603260045260246000fd5b0160009054906101000a900473ffffffffffffffffffffffffffffffffffffffff1673ffffffffffffffffffffffffffffffffffffffff1673ffffffffffffffffffffffffffffffffffffffff168152602001908152602001600020548311156107cb576000806001836003811061076b577f4e487b7100000000000000000000000000000000000000000000000000000000600052603260045260246000fd5b0160009054906101000a900473ffffffffffffffffffffffffffffffffffffffff1673ffffffffffffffffffffffffffffffffffffffff1673ffffffffffffffffffffffffffffffffffffffff1681526020019081526020016000205492505b80806107d690610bb3565b915050610684565b5081819350935050509091565b60005b600381101561091957600073ffffffffffffffffffffffffffffffffffffffff1660018260038110610849577f4e487b7100000000000000000000000000000000000000000000000000000000600052603260045260246000fd5b0160009054906101000a900473ffffffffffffffffffffffffffffffffffffffff1673ffffffffffffffffffffffffffffffffffffffff1614156109065733600182600381106108c2577f4e487b7100000000000000000000000000000000000000000000000000000000600052603260045260246000fd5b0160006101000a81548173ffffffffffffffffffffffffffffffffffffffff021916908373ffffffffffffffffffffffffffffffffffffffff160217905550610919565b808061091190610bb3565b9150506107ee565b50565b6040518060600160405280600390602082028036833780820191505090505090565b60008135905061094d81610c54565b92915050565b60006020828403121561096557600080fd5b60006109738482850161093e565b91505092915050565b60006109888383610994565b60208301905092915050565b61099d81610b6a565b82525050565b6109ac81610b6a565b82525050565b6109bb81610ae0565b6109c58184610af8565b92506109d082610ad6565b8060005b83811015610a015781516109e8878261097c565b96506109f383610aeb565b9250506001810190506109d4565b505050505050565b610a1281610b7c565b82525050565b6000610a25601283610b03565b9150610a3082610c2b565b602082019050919050565b610a4481610ba9565b82525050565b6000602082019050610a5f60008301846109a3565b92915050565b6000606082019050610a7a60008301846109b2565b92915050565b6000602082019050610a956000830184610a09565b92915050565b60006020820190508181036000830152610ab481610a18565b9050919050565b6000602082019050610ad06000830184610a3b565b92915050565b6000819050919050565b600060039050919050565b6000602082019050919050565b600081905092915050565b600082825260208201905092915050565b6000610b1f82610ba9565b9150610b2a83610ba9565b9250827fffffffffffffffffffffffffffffffffffffffffffffffffffffffffffffffff03821115610b5f57610b5e610bfc565b5b828201905092915050565b6000610b7582610b89565b9050919050565b60008160000b9050919050565b600073ffffffffffffffffffffffffffffffffffffffff82169050919050565b6000819050919050565b6000610bbe82610ba9565b91507fffffffffffffffffffffffffffffffffffffffffffffffffffffffffffffffff821415610bf157610bf0610bfc565b5b600182019050919050565b7f4e487b7100000000000000000000000000000000000000000000000000000000600052601160045260246000fd5b7f6e656564206d73672e76616c7565203e20300000000000000000000000000000600082015250565b610c5d81610b6a565b8114610c6857600080fd5b5056fea26469706673582212209ca291c1e9b3ef19e9a1a8928b0a56520ed45bb754b6f3a3b2533bf20cc4b83164736f6c63430008020033",
					"opcodes": "PUSH1 0x80 PUSH1 0x40 MSTORE CALLVALUE DUP1 ISZERO PUSH2 0x10 JUMPI PUSH1 0x0 DUP1 REVERT JUMPDEST POP CALLER PUSH1 0x4 PUSH1 0x0 PUSH2 0x100 EXP DUP2 SLOAD DUP2 PUSH20 0xFFFFFFFFFFFFFFFFFFFFFFFFFFFFFFFFFFFFFFFF MUL NOT AND SWAP1 DUP4 PUSH20 0xFFFFFFFFFFFFFFFFFFFFFFFFFFFFFFFFFFFFFFFF AND MUL OR SWAP1 SSTORE POP PUSH2 0xCA1 DUP1 PUSH2 0x61 PUSH1 0x0 CODECOPY PUSH1 0x0 RETURN INVALID PUSH1 0x80 PUSH1 0x40 MSTORE PUSH1 0x4 CALLDATASIZE LT PUSH2 0x43 JUMPI PUSH1 0x0 CALLDATALOAD PUSH1 0xE0 SHR DUP1 PUSH4 0x3CCFD60B EQ PUSH2 0x57 JUMPI DUP1 PUSH4 0x4061A5BF EQ PUSH2 0x75 JUMPI DUP1 PUSH4 0x6D645B44 EQ PUSH2 0xA0 JUMPI DUP1 PUSH4 0xE262838F EQ PUSH2 0xCB JUMPI PUSH2 0x52 JUMP JUMPDEST CALLDATASIZE PUSH2 0x52 JUMPI PUSH2 0x50 PUSH2 0x108 JUMP JUMPDEST STOP JUMPDEST PUSH1 0x0 DUP1 REVERT JUMPDEST PUSH2 0x5F PUSH2 0x348 JUMP JUMPDEST PUSH1 0x40 MLOAD PUSH2 0x6C SWAP2 SWAP1 PUSH2 0xA80 JUMP JUMPDEST PUSH1 0x40 MLOAD DUP1 SWAP2 SUB SWAP1 RETURN JUMPDEST CALLVALUE DUP1 ISZERO PUSH2 0x81 JUMPI PUSH1 0x0 DUP1 REVERT JUMPDEST POP PUSH2 0x8A PUSH2 0x478 JUMP JUMPDEST PUSH1 0x40 MLOAD PUSH2 0x97 SWAP2 SWAP1 PUSH2 0xA65 JUMP JUMPDEST PUSH1 0x40 MLOAD DUP1 SWAP2 SUB SWAP1 RETURN JUMPDEST CALLVALUE DUP1 ISZERO PUSH2 0xAC JUMPI PUSH1 0x0 DUP1 REVERT JUMPDEST POP PUSH2 0xB5 PUSH2 0x4F9 JUMP JUMPDEST PUSH1 0x40 MLOAD PUSH2 0xC2 SWAP2 SWAP1 PUSH2 0xA4A JUMP JUMPDEST PUSH1 0x40 MLOAD DUP1 SWAP2 SUB SWAP1 RETURN JUMPDEST CALLVALUE DUP1 ISZERO PUSH2 0xD7 JUMPI PUSH1 0x0 DUP1 REVERT JUMPDEST POP PUSH2 0xF2 PUSH1 0x4 DUP1 CALLDATASIZE SUB DUP2 ADD SWAP1 PUSH2 0xED SWAP2 SWAP1 PUSH2 0x953 JUMP JUMPDEST PUSH2 0x523 JUMP JUMPDEST PUSH1 0x40 MLOAD PUSH2 0xFF SWAP2 SWAP1 PUSH2 0xABB JUMP JUMPDEST PUSH1 0x40 MLOAD DUP1 SWAP2 SUB SWAP1 RETURN JUMPDEST PUSH1 0x0 DUP1 PUSH1 0x0 DUP1 CALLER PUSH20 0xFFFFFFFFFFFFFFFFFFFFFFFFFFFFFFFFFFFFFFFF AND PUSH20 0xFFFFFFFFFFFFFFFFFFFFFFFFFFFFFFFFFFFFFFFF AND DUP2 MSTORE PUSH1 0x20 ADD SWAP1 DUP2 MSTORE PUSH1 0x20 ADD PUSH1 0x0 KECCAK256 SLOAD GT SWAP1 POP CALLVALUE PUSH1 0x0 DUP1 CALLER PUSH20 0xFFFFFFFFFFFFFFFFFFFFFFFFFFFFFFFFFFFFFFFF AND PUSH20 0xFFFFFFFFFFFFFFFFFFFFFFFFFFFFFFFFFFFFFFFF AND DUP2 MSTORE PUSH1 0x20 ADD SWAP1 DUP2 MSTORE PUSH1 0x20 ADD PUSH1 0x0 KECCAK256 PUSH1 0x0 DUP3 DUP3 SLOAD PUSH2 0x19B SWAP2 SWAP1 PUSH2 0xB14 JUMP JUMPDEST SWAP3 POP POP DUP2 SWAP1 SSTORE POP PUSH1 0x0 DUP1 PUSH2 0x1AD PUSH2 0x53B JUMP JUMPDEST SWAP2 POP SWAP2 POP PUSH1 0x0 DUP3 EQ DUP1 ISZERO PUSH2 0x1BF JUMPI POP DUP3 ISZERO JUMPDEST ISZERO PUSH2 0x1D1 JUMPI PUSH2 0x1CC PUSH2 0x7EB JUMP JUMPDEST PUSH2 0x343 JUMP JUMPDEST DUP2 PUSH1 0x0 DUP1 CALLER PUSH20 0xFFFFFFFFFFFFFFFFFFFFFFFFFFFFFFFFFFFFFFFF AND PUSH20 0xFFFFFFFFFFFFFFFFFFFFFFFFFFFFFFFFFFFFFFFF AND DUP2 MSTORE PUSH1 0x20 ADD SWAP1 DUP2 MSTORE PUSH1 0x20 ADD PUSH1 0x0 KECCAK256 SLOAD GT ISZERO PUSH2 0x342 JUMPI PUSH1 0x0 JUMPDEST PUSH1 0x3 DUP2 LT ISZERO PUSH2 0x340 JUMPI DUP2 PUSH20 0xFFFFFFFFFFFFFFFFFFFFFFFFFFFFFFFFFFFFFFFF AND PUSH1 0x1 DUP3 PUSH1 0x3 DUP2 LT PUSH2 0x274 JUMPI PUSH32 0x4E487B7100000000000000000000000000000000000000000000000000000000 PUSH1 0x0 MSTORE PUSH1 0x32 PUSH1 0x4 MSTORE PUSH1 0x24 PUSH1 0x0 REVERT JUMPDEST ADD PUSH1 0x0 SWAP1 SLOAD SWAP1 PUSH2 0x100 EXP SWAP1 DIV PUSH20 0xFFFFFFFFFFFFFFFFFFFFFFFFFFFFFFFFFFFFFFFF AND PUSH20 0xFFFFFFFFFFFFFFFFFFFFFFFFFFFFFFFFFFFFFFFF AND EQ ISZERO PUSH2 0x32D JUMPI CALLER PUSH1 0x1 DUP3 PUSH1 0x3 DUP2 LT PUSH2 0x2ED JUMPI PUSH32 0x4E487B7100000000000000000000000000000000000000000000000000000000 PUSH1 0x0 MSTORE PUSH1 0x32 PUSH1 0x4 MSTORE PUSH1 0x24 PUSH1 0x0 REVERT JUMPDEST ADD PUSH1 0x0 PUSH2 0x100 EXP DUP2 SLOAD DUP2 PUSH20 0xFFFFFFFFFFFFFFFFFFFFFFFFFFFFFFFFFFFFFFFF MUL NOT AND SWAP1 DUP4 PUSH20 0xFFFFFFFFFFFFFFFFFFFFFFFFFFFFFFFFFFFFFFFF AND MUL OR SWAP1 SSTORE POP JUMPDEST DUP1 DUP1 PUSH2 0x338 SWAP1 PUSH2 0xBB3 JUMP JUMPDEST SWAP2 POP POP PUSH2 0x21A JUMP JUMPDEST POP JUMPDEST JUMPDEST POP POP POP JUMP JUMPDEST PUSH1 0x0 DUP1 CALLER SWAP1 POP PUSH1 0x4 PUSH1 0x0 SWAP1 SLOAD SWAP1 PUSH2 0x100 EXP SWAP1 DIV PUSH20 0xFFFFFFFFFFFFFFFFFFFFFFFFFFFFFFFFFFFFFFFF AND PUSH20 0xFFFFFFFFFFFFFFFFFFFFFFFFFFFFFFFFFFFFFFFF AND DUP2 PUSH20 0xFFFFFFFFFFFFFFFFFFFFFFFFFFFFFFFFFFFFFFFF AND EQ PUSH2 0x3CC JUMPI PUSH32 0xFFFFFFFFFFFFFFFFFFFFFFFFFFFFFFFFFFFFFFFFFFFFFFFFFFFFFFFFFFFFFFFF SWAP2 POP POP PUSH2 0x475 JUMP JUMPDEST PUSH1 0x0 ADDRESS SWAP1 POP PUSH1 0x0 DUP2 PUSH20 0xFFFFFFFFFFFFFFFFFFFFFFFFFFFFFFFFFFFFFFFF AND BALANCE SWAP1 POP PUSH1 0x0 DUP2 GT ISZERO PUSH2 0x442 JUMPI DUP3 PUSH20 0xFFFFFFFFFFFFFFFFFFFFFFFFFFFFFFFFFFFFFFFF AND PUSH2 0x8FC DUP3 SWAP1 DUP2 ISZERO MUL SWAP1 PUSH1 0x40 MLOAD PUSH1 0x0 PUSH1 0x40 MLOAD DUP1 DUP4 SUB DUP2 DUP6 DUP9 DUP9 CALL SWAP4 POP POP POP POP ISZERO DUP1 ISZERO PUSH2 0x43C JUMPI RETURNDATASIZE PUSH1 0x0 DUP1 RETURNDATACOPY RETURNDATASIZE PUSH1 0x0 REVERT JUMPDEST POP PUSH2 0x46D JUMP JUMPDEST PUSH32 0xFFFFFFFFFFFFFFFFFFFFFFFFFFFFFFFFFFFFFFFFFFFFFFFFFFFFFFFFFFFFFFFE SWAP4 POP POP POP POP PUSH2 0x475 JUMP JUMPDEST PUSH1 0x0 SWAP4 POP POP POP POP JUMPDEST SWAP1 JUMP JUMPDEST PUSH2 0x480 PUSH2 0x91C JUMP JUMPDEST PUSH1 0x1 PUSH1 0x3 DUP1 PUSH1 0x20 MUL PUSH1 0x40 MLOAD SWAP1 DUP2 ADD PUSH1 0x40 MSTORE DUP1 SWAP3 SWAP2 SWAP1 DUP3 PUSH1 0x3 DUP1 ISZERO PUSH2 0x4EF JUMPI PUSH1 0x20 MUL DUP3 ADD SWAP2 JUMPDEST DUP2 PUSH1 0x0 SWAP1 SLOAD SWAP1 PUSH2 0x100 EXP SWAP1 DIV PUSH20 0xFFFFFFFFFFFFFFFFFFFFFFFFFFFFFFFFFFFFFFFF AND PUSH20 0xFFFFFFFFFFFFFFFFFFFFFFFFFFFFFFFFFFFFFFFF AND DUP2 MSTORE PUSH1 0x20 ADD SWAP1 PUSH1 0x1 ADD SWAP1 DUP1 DUP4 GT PUSH2 0x4A5 JUMPI JUMPDEST POP POP POP POP POP SWAP1 POP SWAP1 JUMP JUMPDEST PUSH1 0x0 PUSH1 0x4 PUSH1 0x0 SWAP1 SLOAD SWAP1 PUSH2 0x100 EXP SWAP1 DIV PUSH20 0xFFFFFFFFFFFFFFFFFFFFFFFFFFFFFFFFFFFFFFFF AND SWAP1 POP SWAP1 JUMP JUMPDEST PUSH1 0x0 PUSH1 0x20 MSTORE DUP1 PUSH1 0x0 MSTORE PUSH1 0x40 PUSH1 0x0 KECCAK256 PUSH1 0x0 SWAP2 POP SWAP1 POP SLOAD DUP2 JUMP JUMPDEST PUSH1 0x0 DUP1 PUSH1 0x0 CALLVALUE GT PUSH2 0x581 JUMPI PUSH1 0x40 MLOAD PUSH32 0x8C379A000000000000000000000000000000000000000000000000000000000 DUP2 MSTORE PUSH1 0x4 ADD PUSH2 0x578 SWAP1 PUSH2 0xA9B JUMP JUMPDEST PUSH1 0x40 MLOAD DUP1 SWAP2 SUB SWAP1 REVERT JUMPDEST PUSH1 0x0 DUP1 PUSH1 0x0 PUSH1 0x1 PUSH1 0x0 PUSH1 0x3 DUP2 LT PUSH2 0x5C1 JUMPI PUSH32 0x4E487B7100000000000000000000000000000000000000000000000000000000 PUSH1 0x0 MSTORE PUSH1 0x32 PUSH1 0x4 MSTORE PUSH1 0x24 PUSH1 0x0 REVERT JUMPDEST ADD PUSH1 0x0 SWAP1 SLOAD SWAP1 PUSH2 0x100 EXP SWAP1 DIV PUSH20 0xFFFFFFFFFFFFFFFFFFFFFFFFFFFFFFFFFFFFFFFF AND PUSH20 0xFFFFFFFFFFFFFFFFFFFFFFFFFFFFFFFFFFFFFFFF AND PUSH20 0xFFFFFFFFFFFFFFFFFFFFFFFFFFFFFFFFFFFFFFFF AND DUP2 MSTORE PUSH1 0x20 ADD SWAP1 DUP2 MSTORE PUSH1 0x20 ADD PUSH1 0x0 KECCAK256 SLOAD SWAP1 POP PUSH1 0x0 PUSH1 0x1 PUSH1 0x0 PUSH1 0x3 DUP2 LT PUSH2 0x65D JUMPI PUSH32 0x4E487B7100000000000000000000000000000000000000000000000000000000 PUSH1 0x0 MSTORE PUSH1 0x32 PUSH1 0x4 MSTORE PUSH1 0x24 PUSH1 0x0 REVERT JUMPDEST ADD PUSH1 0x0 SWAP1 SLOAD SWAP1 PUSH2 0x100 EXP SWAP1 DIV PUSH20 0xFFFFFFFFFFFFFFFFFFFFFFFFFFFFFFFFFFFFFFFF AND SWAP1 POP PUSH1 0x0 JUMPDEST PUSH1 0x3 DUP2 LT ISZERO PUSH2 0x7DE JUMPI PUSH1 0x0 DUP1 PUSH1 0x1 DUP4 PUSH1 0x3 DUP2 LT PUSH2 0x6CA JUMPI PUSH32 0x4E487B7100000000000000000000000000000000000000000000000000000000 PUSH1 0x0 MSTORE PUSH1 0x32 PUSH1 0x4 MSTORE PUSH1 0x24 PUSH1 0x0 REVERT JUMPDEST ADD PUSH1 0x0 SWAP1 SLOAD SWAP1 PUSH2 0x100 EXP SWAP1 DIV PUSH20 0xFFFFFFFFFFFFFFFFFFFFFFFFFFFFFFFFFFFFFFFF AND PUSH20 0xFFFFFFFFFFFFFFFFFFFFFFFFFFFFFFFFFFFFFFFF AND PUSH20 0xFFFFFFFFFFFFFFFFFFFFFFFFFFFFFFFFFFFFFFFF AND DUP2 MSTORE PUSH1 0x20 ADD SWAP1 DUP2 MSTORE PUSH1 0x20 ADD PUSH1 0x0 KECCAK256 SLOAD DUP4 GT ISZERO PUSH2 0x7CB JUMPI PUSH1 0x0 DUP1 PUSH1 0x1 DUP4 PUSH1 0x3 DUP2 LT PUSH2 0x76B JUMPI PUSH32 0x4E487B7100000000000000000000000000000000000000000000000000000000 PUSH1 0x0 MSTORE PUSH1 0x32 PUSH1 0x4 MSTORE PUSH1 0x24 PUSH1 0x0 REVERT JUMPDEST ADD PUSH1 0x0 SWAP1 SLOAD SWAP1 PUSH2 0x100 EXP SWAP1 DIV PUSH20 0xFFFFFFFFFFFFFFFFFFFFFFFFFFFFFFFFFFFFFFFF AND PUSH20 0xFFFFFFFFFFFFFFFFFFFFFFFFFFFFFFFFFFFFFFFF AND PUSH20 0xFFFFFFFFFFFFFFFFFFFFFFFFFFFFFFFFFFFFFFFF AND DUP2 MSTORE PUSH1 0x20 ADD SWAP1 DUP2 MSTORE PUSH1 0x20 ADD PUSH1 0x0 KECCAK256 SLOAD SWAP3 POP JUMPDEST DUP1 DUP1 PUSH2 0x7D6 SWAP1 PUSH2 0xBB3 JUMP JUMPDEST SWAP2 POP POP PUSH2 0x684 JUMP JUMPDEST POP DUP2 DUP2 SWAP4 POP SWAP4 POP POP POP SWAP1 SWAP2 JUMP JUMPDEST PUSH1 0x0 JUMPDEST PUSH1 0x3 DUP2 LT ISZERO PUSH2 0x919 JUMPI PUSH1 0x0 PUSH20 0xFFFFFFFFFFFFFFFFFFFFFFFFFFFFFFFFFFFFFFFF AND PUSH1 0x1 DUP3 PUSH1 0x3 DUP2 LT PUSH2 0x849 JUMPI PUSH32 0x4E487B7100000000000000000000000000000000000000000000000000000000 PUSH1 0x0 MSTORE PUSH1 0x32 PUSH1 0x4 MSTORE PUSH1 0x24 PUSH1 0x0 REVERT JUMPDEST ADD PUSH1 0x0 SWAP1 SLOAD SWAP1 PUSH2 0x100 EXP SWAP1 DIV PUSH20 0xFFFFFFFFFFFFFFFFFFFFFFFFFFFFFFFFFFFFFFFF AND PUSH20 0xFFFFFFFFFFFFFFFFFFFFFFFFFFFFFFFFFFFFFFFF AND EQ ISZERO PUSH2 0x906 JUMPI CALLER PUSH1 0x1 DUP3 PUSH1 0x3 DUP2 LT PUSH2 0x8C2 JUMPI PUSH32 0x4E487B7100000000000000000000000000000000000000000000000000000000 PUSH1 0x0 MSTORE PUSH1 0x32 PUSH1 0x4 MSTORE PUSH1 0x24 PUSH1 0x0 REVERT JUMPDEST ADD PUSH1 0x0 PUSH2 0x100 EXP DUP2 SLOAD DUP2 PUSH20 0xFFFFFFFFFFFFFFFFFFFFFFFFFFFFFFFFFFFFFFFF MUL NOT AND SWAP1 DUP4 PUSH20 0xFFFFFFFFFFFFFFFFFFFFFFFFFFFFFFFFFFFFFFFF AND MUL OR SWAP1 SSTORE POP PUSH2 0x919 JUMP JUMPDEST DUP1 DUP1 PUSH2 0x911 SWAP1 PUSH2 0xBB3 JUMP JUMPDEST SWAP2 POP POP PUSH2 0x7EE JUMP JUMPDEST POP JUMP JUMPDEST PUSH1 0x40 MLOAD DUP1 PUSH1 0x60 ADD PUSH1 0x40 MSTORE DUP1 PUSH1 0x3 SWAP1 PUSH1 0x20 DUP3 MUL DUP1 CALLDATASIZE DUP4 CALLDATACOPY DUP1 DUP3 ADD SWAP2 POP POP SWAP1 POP POP SWAP1 JUMP JUMPDEST PUSH1 0x0 DUP2 CALLDATALOAD SWAP1 POP PUSH2 0x94D DUP2 PUSH2 0xC54 JUMP JUMPDEST SWAP3 SWAP2 POP POP JUMP JUMPDEST PUSH1 0x0 PUSH1 0x20 DUP3 DUP5 SUB SLT ISZERO PUSH2 0x965 JUMPI PUSH1 0x0 DUP1 REVERT JUMPDEST PUSH1 0x0 PUSH2 0x973 DUP5 DUP3 DUP6 ADD PUSH2 0x93E JUMP JUMPDEST SWAP2 POP POP SWAP3 SWAP2 POP POP JUMP JUMPDEST PUSH1 0x0 PUSH2 0x988 DUP4 DUP4 PUSH2 0x994 JUMP JUMPDEST PUSH1 0x20 DUP4 ADD SWAP1 POP SWAP3 SWAP2 POP POP JUMP JUMPDEST PUSH2 0x99D DUP2 PUSH2 0xB6A JUMP JUMPDEST DUP3 MSTORE POP POP JUMP JUMPDEST PUSH2 0x9AC DUP2 PUSH2 0xB6A JUMP JUMPDEST DUP3 MSTORE POP POP JUMP JUMPDEST PUSH2 0x9BB DUP2 PUSH2 0xAE0 JUMP JUMPDEST PUSH2 0x9C5 DUP2 DUP5 PUSH2 0xAF8 JUMP JUMPDEST SWAP3 POP PUSH2 0x9D0 DUP3 PUSH2 0xAD6 JUMP JUMPDEST DUP1 PUSH1 0x0 JUMPDEST DUP4 DUP2 LT ISZERO PUSH2 0xA01 JUMPI DUP2 MLOAD PUSH2 0x9E8 DUP8 DUP3 PUSH2 0x97C JUMP JUMPDEST SWAP7 POP PUSH2 0x9F3 DUP4 PUSH2 0xAEB JUMP JUMPDEST SWAP3 POP POP PUSH1 0x1 DUP2 ADD SWAP1 POP PUSH2 0x9D4 JUMP JUMPDEST POP POP POP POP POP POP JUMP JUMPDEST PUSH2 0xA12 DUP2 PUSH2 0xB7C JUMP JUMPDEST DUP3 MSTORE POP POP JUMP JUMPDEST PUSH1 0x0 PUSH2 0xA25 PUSH1 0x12 DUP4 PUSH2 0xB03 JUMP JUMPDEST SWAP2 POP PUSH2 0xA30 DUP3 PUSH2 0xC2B JUMP JUMPDEST PUSH1 0x20 DUP3 ADD SWAP1 POP SWAP2 SWAP1 POP JUMP JUMPDEST PUSH2 0xA44 DUP2 PUSH2 0xBA9 JUMP JUMPDEST DUP3 MSTORE POP POP JUMP JUMPDEST PUSH1 0x0 PUSH1 0x20 DUP3 ADD SWAP1 POP PUSH2 0xA5F PUSH1 0x0 DUP4 ADD DUP5 PUSH2 0x9A3 JUMP JUMPDEST SWAP3 SWAP2 POP POP JUMP JUMPDEST PUSH1 0x0 PUSH1 0x60 DUP3 ADD SWAP1 POP PUSH2 0xA7A PUSH1 0x0 DUP4 ADD DUP5 PUSH2 0x9B2 JUMP JUMPDEST SWAP3 SWAP2 POP POP JUMP JUMPDEST PUSH1 0x0 PUSH1 0x20 DUP3 ADD SWAP1 POP PUSH2 0xA95 PUSH1 0x0 DUP4 ADD DUP5 PUSH2 0xA09 JUMP JUMPDEST SWAP3 SWAP2 POP POP JUMP JUMPDEST PUSH1 0x0 PUSH1 0x20 DUP3 ADD SWAP1 POP DUP2 DUP2 SUB PUSH1 0x0 DUP4 ADD MSTORE PUSH2 0xAB4 DUP2 PUSH2 0xA18 JUMP JUMPDEST SWAP1 POP SWAP2 SWAP1 POP JUMP JUMPDEST PUSH1 0x0 PUSH1 0x20 DUP3 ADD SWAP1 POP PUSH2 0xAD0 PUSH1 0x0 DUP4 ADD DUP5 PUSH2 0xA3B JUMP JUMPDEST SWAP3 SWAP2 POP POP JUMP JUMPDEST PUSH1 0x0 DUP2 SWAP1 POP SWAP2 SWAP1 POP JUMP JUMPDEST PUSH1 0x0 PUSH1 0x3 SWAP1 POP SWAP2 SWAP1 POP JUMP JUMPDEST PUSH1 0x0 PUSH1 0x20 DUP3 ADD SWAP1 POP SWAP2 SWAP1 POP JUMP JUMPDEST PUSH1 0x0 DUP2 SWAP1 POP SWAP3 SWAP2 POP POP JUMP JUMPDEST PUSH1 0x0 DUP3 DUP3 MSTORE PUSH1 0x20 DUP3 ADD SWAP1 POP SWAP3 SWAP2 POP POP JUMP JUMPDEST PUSH1 0x0 PUSH2 0xB1F DUP3 PUSH2 0xBA9 JUMP JUMPDEST SWAP2 POP PUSH2 0xB2A DUP4 PUSH2 0xBA9 JUMP JUMPDEST SWAP3 POP DUP3 PUSH32 0xFFFFFFFFFFFFFFFFFFFFFFFFFFFFFFFFFFFFFFFFFFFFFFFFFFFFFFFFFFFFFFFF SUB DUP3 GT ISZERO PUSH2 0xB5F JUMPI PUSH2 0xB5E PUSH2 0xBFC JUMP JUMPDEST JUMPDEST DUP3 DUP3 ADD SWAP1 POP SWAP3 SWAP2 POP POP JUMP JUMPDEST PUSH1 0x0 PUSH2 0xB75 DUP3 PUSH2 0xB89 JUMP JUMPDEST SWAP1 POP SWAP2 SWAP1 POP JUMP JUMPDEST PUSH1 0x0 DUP2 PUSH1 0x0 SIGNEXTEND SWAP1 POP SWAP2 SWAP1 POP JUMP JUMPDEST PUSH1 0x0 PUSH20 0xFFFFFFFFFFFFFFFFFFFFFFFFFFFFFFFFFFFFFFFF DUP3 AND SWAP1 POP SWAP2 SWAP1 POP JUMP JUMPDEST PUSH1 0x0 DUP2 SWAP1 POP SWAP2 SWAP1 POP JUMP JUMPDEST PUSH1 0x0 PUSH2 0xBBE DUP3 PUSH2 0xBA9 JUMP JUMPDEST SWAP2 POP PUSH32 0xFFFFFFFFFFFFFFFFFFFFFFFFFFFFFFFFFFFFFFFFFFFFFFFFFFFFFFFFFFFFFFFF DUP3 EQ ISZERO PUSH2 0xBF1 JUMPI PUSH2 0xBF0 PUSH2 0xBFC JUMP JUMPDEST JUMPDEST PUSH1 0x1 DUP3 ADD SWAP1 POP SWAP2 SWAP1 POP JUMP JUMPDEST PUSH32 0x4E487B7100000000000000000000000000000000000000000000000000000000 PUSH1 0x0 MSTORE PUSH1 0x11 PUSH1 0x4 MSTORE PUSH1 0x24 PUSH1 0x0 REVERT JUMPDEST PUSH32 0x6E656564206D73672E76616C7565203E20300000000000000000000000000000 PUSH1 0x0 DUP3 ADD MSTORE POP JUMP JUMPDEST PUSH2 0xC5D DUP2 PUSH2 0xB6A JUMP JUMPDEST DUP2 EQ PUSH2 0xC68 JUMPI PUSH1 0x0 DUP1 REVERT JUMPDEST POP JUMP INVALID LOG2 PUSH5 0x6970667358 0x22 SLT KECCAK256 SWAP13 LOG2 SWAP2 0xC1 0xE9 0xB3 0xEF NOT 0xE9 LOG1 0xA8 SWAP3 DUP12 EXP JUMP MSTORE 0xE 0xD4 JUMPDEST 0xB7 SLOAD 0xB6 RETURN LOG3 0xB2 MSTORE8 EXTCODESIZE CALLCODE 0xC 0xC4 0xB8 BALANCE PUSH5 0x736F6C6343 STOP ADDMOD MUL STOP CALLER "
				},
				"gasEstimates": {
					"creation": {
						"codeDepositCost": "646600",
						"executionCost": "21549",
						"totalCost": "668149"
					},
					"external": {
						"addr_balance(address)": "1558",
						"getAdminAddr()": "1244",
						"getTop3()": "infinite",
						"withdraw()": "infinite"
					},
					"internal": {
						"init_top3()": "infinite",
						"lowest_balance_in_top3()": "infinite",
						"recordBalanceOfAddr()": "infinite",
						"setAdminAddr(address)": "infinite"
					}
				},
				"methodIdentifiers": {
					"addr_balance(address)": "e262838f",
					"getAdminAddr()": "6d645b44",
					"getTop3()": "4061a5bf",
					"withdraw()": "3ccfd60b"
				}
			},
			"storageLayout": {
				"storage": [
					{
						"astId": 8,
						"contract": "homework/Bank.sol:Bank",
						"label": "addr_balance",
						"offset": 0,
						"slot": "0",
						"type": "t_mapping(t_address,t_uint256)"
					},
					{
						"astId": 12,
						"contract": "homework/Bank.sol:Bank",
						"label": "top_3_balance_addr",
						"offset": 0,
						"slot": "1",
						"type": "t_array(t_address)3_storage"
					},
					{
						"astId": 14,
						"contract": "homework/Bank.sol:Bank",
						"label": "admin_addr",
						"offset": 0,
						"slot": "4",
						"type": "t_address"
					}
				],
				"types": {
					"t_address": {
						"encoding": "inplace",
						"label": "address",
						"numberOfBytes": "20"
					},
					"t_array(t_address)3_storage": {
						"base": "t_address",
						"encoding": "inplace",
						"label": "address[3]",
						"numberOfBytes": "96"
					},
					"t_mapping(t_address,t_uint256)": {
						"encoding": "mapping",
						"key": "t_address",
						"label": "mapping(address => uint256)",
						"numberOfBytes": "32",
						"value": "t_uint256"
					},
					"t_uint256": {
						"encoding": "inplace",
						"label": "uint256",
						"numberOfBytes": "32"
					}
				}
			},
			"userdoc": {
				"kind": "user",
				"methods": {},
				"version": 1
			}
		}
	}
}