{
	"homework/trycatch/UseTryCatch.sol": {
		"DataConsumer": {
			"abi": [
				{
					"inputs": [
						{
							"internalType": "address",
							"name": "_dataStorageAddress",
							"type": "address"
						}
					],
					"stateMutability": "nonpayable",
					"type": "constructor"
				},
				{
					"inputs": [],
					"name": "getDataByABI",
					"outputs": [
						{
							"internalType": "string",
							"name": "",
							"type": "string"
						}
					],
					"stateMutability": "nonpayable",
					"type": "function"
				},
				{
					"inputs": [
						{
							"internalType": "string",
							"name": "newData",
							"type": "string"
						}
					],
					"name": "setDataByABI1",
					"outputs": [
						{
							"internalType": "bool",
							"name": "",
							"type": "bool"
						}
					],
					"stateMutability": "nonpayable",
					"type": "function"
				},
				{
					"inputs": [
						{
							"internalType": "string",
							"name": "newData",
							"type": "string"
						}
					],
					"name": "setDataByABI2",
					"outputs": [
						{
							"internalType": "bool",
							"name": "",
							"type": "bool"
						}
					],
					"stateMutability": "nonpayable",
					"type": "function"
				},
				{
					"inputs": [
						{
							"internalType": "string",
							"name": "newData",
							"type": "string"
						}
					],
					"name": "setDataByABI3",
					"outputs": [
						{
							"internalType": "bool",
							"name": "",
							"type": "bool"
						}
					],
					"stateMutability": "nonpayable",
					"type": "function"
				}
			],
			"devdoc": {
				"kind": "dev",
				"methods": {},
				"version": 1
			},
			"evm": {
				"assembly": "    /* \"homework/trycatch/UseTryCatch.sol\":5429:7272  contract DataConsumer {... */\n  mstore(0x40, 0x80)\n    /* \"homework/trycatch/UseTryCatch.sol\":5498:5596  constructor(address _dataStorageAddress) {... */\n  callvalue\n  dup1\n  iszero\n  tag_1\n  jumpi\n  0x00\n  dup1\n  revert\ntag_1:\n  pop\n  mload(0x40)\n  sub(codesize, bytecodeSize)\n  dup1\n  bytecodeSize\n  dup4\n  codecopy\n  dup2\n  dup2\n  add\n  0x40\n  mstore\n  dup2\n  add\n  swap1\n  tag_2\n  swap2\n  swap1\n  tag_3\n  jump\t// in\ntag_2:\n    /* \"homework/trycatch/UseTryCatch.sol\":5570:5589  _dataStorageAddress */\n  dup1\n    /* \"homework/trycatch/UseTryCatch.sol\":5549:5567  dataStorageAddress */\n  0x00\n  dup1\n    /* \"homework/trycatch/UseTryCatch.sol\":5549:5589  dataStorageAddress = _dataStorageAddress */\n  0x0100\n  exp\n  dup2\n  sload\n  dup2\n  0xffffffffffffffffffffffffffffffffffffffff\n  mul\n  not\n  and\n  swap1\n  dup4\n  0xffffffffffffffffffffffffffffffffffffffff\n  and\n  mul\n  or\n  swap1\n  sstore\n  pop\n    /* \"homework/trycatch/UseTryCatch.sol\":5498:5596  constructor(address _dataStorageAddress) {... */\n  pop\n    /* \"homework/trycatch/UseTryCatch.sol\":5429:7272  contract DataConsumer {... */\n  jump(tag_6)\n    /* \"#utility.yul\":88:205   */\ntag_8:\n    /* \"#utility.yul\":197:198   */\n  0x00\n    /* \"#utility.yul\":194:195   */\n  dup1\n    /* \"#utility.yul\":187:199   */\n  revert\n    /* \"#utility.yul\":334:460   */\ntag_10:\n    /* \"#utility.yul\":371:378   */\n  0x00\n    /* \"#utility.yul\":411:453   */\n  0xffffffffffffffffffffffffffffffffffffffff\n    /* \"#utility.yul\":404:409   */\n  dup3\n    /* \"#utility.yul\":400:454   */\n  and\n    /* \"#utility.yul\":389:454   */\n  swap1\n  pop\n    /* \"#utility.yul\":334:460   */\n  swap2\n  swap1\n  pop\n  jump\t// out\n    /* \"#utility.yul\":466:562   */\ntag_11:\n    /* \"#utility.yul\":503:510   */\n  0x00\n    /* \"#utility.yul\":532:556   */\n  tag_20\n    /* \"#utility.yul\":550:555   */\n  dup3\n    /* \"#utility.yul\":532:556   */\n  tag_10\n  jump\t// in\ntag_20:\n    /* \"#utility.yul\":521:556   */\n  swap1\n  pop\n    /* \"#utility.yul\":466:562   */\n  swap2\n  swap1\n  pop\n  jump\t// out\n    /* \"#utility.yul\":568:690   */\ntag_12:\n    /* \"#utility.yul\":641:665   */\n  tag_22\n    /* \"#utility.yul\":659:664   */\n  dup2\n    /* \"#utility.yul\":641:665   */\n  tag_11\n  jump\t// in\ntag_22:\n    /* \"#utility.yul\":634:639   */\n  dup2\n    /* \"#utility.yul\":631:666   */\n  eq\n    /* \"#utility.yul\":621:684   */\n  tag_23\n  jumpi\n    /* \"#utility.yul\":680:681   */\n  0x00\n    /* \"#utility.yul\":677:678   */\n  dup1\n    /* \"#utility.yul\":670:682   */\n  revert\n    /* \"#utility.yul\":621:684   */\ntag_23:\n    /* \"#utility.yul\":568:690   */\n  pop\n  jump\t// out\n    /* \"#utility.yul\":696:839   */\ntag_13:\n    /* \"#utility.yul\":753:758   */\n  0x00\n    /* \"#utility.yul\":784:790   */\n  dup2\n    /* \"#utility.yul\":778:791   */\n  mload\n    /* \"#utility.yul\":769:791   */\n  swap1\n  pop\n    /* \"#utility.yul\":800:833   */\n  tag_25\n    /* \"#utility.yul\":827:832   */\n  dup2\n    /* \"#utility.yul\":800:833   */\n  tag_12\n  jump\t// in\ntag_25:\n    /* \"#utility.yul\":696:839   */\n  swap3\n  swap2\n  pop\n  pop\n  jump\t// out\n    /* \"#utility.yul\":845:1196   */\ntag_3:\n    /* \"#utility.yul\":915:921   */\n  0x00\n    /* \"#utility.yul\":964:966   */\n  0x20\n    /* \"#utility.yul\":952:961   */\n  dup3\n    /* \"#utility.yul\":943:950   */\n  dup5\n    /* \"#utility.yul\":939:962   */\n  sub\n    /* \"#utility.yul\":935:967   */\n  slt\n    /* \"#utility.yul\":932:1051   */\n  iszero\n  tag_27\n  jumpi\n    /* \"#utility.yul\":970:1049   */\n  tag_28\n  tag_8\n  jump\t// in\ntag_28:\n    /* \"#utility.yul\":932:1051   */\ntag_27:\n    /* \"#utility.yul\":1090:1091   */\n  0x00\n    /* \"#utility.yul\":1115:1179   */\n  tag_29\n    /* \"#utility.yul\":1171:1178   */\n  dup5\n    /* \"#utility.yul\":1162:1168   */\n  dup3\n    /* \"#utility.yul\":1151:1160   */\n  dup6\n    /* \"#utility.yul\":1147:1169   */\n  add\n    /* \"#utility.yul\":1115:1179   */\n  tag_13\n  jump\t// in\ntag_29:\n    /* \"#utility.yul\":1105:1179   */\n  swap2\n  pop\n    /* \"#utility.yul\":1061:1189   */\n  pop\n    /* \"#utility.yul\":845:1196   */\n  swap3\n  swap2\n  pop\n  pop\n  jump\t// out\n    /* \"homework/trycatch/UseTryCatch.sol\":5429:7272  contract DataConsumer {... */\ntag_6:\n  dataSize(sub_0)\n  dup1\n  dataOffset(sub_0)\n  0x00\n  codecopy\n  0x00\n  return\nstop\n\nsub_0: assembly {\n        /* \"homework/trycatch/UseTryCatch.sol\":5429:7272  contract DataConsumer {... */\n      mstore(0x40, 0x80)\n      callvalue\n      dup1\n      iszero\n      tag_1\n      jumpi\n      0x00\n      dup1\n      revert\n    tag_1:\n      pop\n      jumpi(tag_2, lt(calldatasize, 0x04))\n      shr(0xe0, calldataload(0x00))\n      dup1\n      0x2971e81f\n      eq\n      tag_3\n      jumpi\n      dup1\n      0x424d571c\n      eq\n      tag_4\n      jumpi\n      dup1\n      0x70d1c75b\n      eq\n      tag_5\n      jumpi\n      dup1\n      0x76db04d4\n      eq\n      tag_6\n      jumpi\n    tag_2:\n      0x00\n      dup1\n      revert\n        /* \"homework/trycatch/UseTryCatch.sol\":5983:6299  function setDataByABI1(string calldata newData) public returns (bool) {... */\n    tag_3:\n      tag_7\n      0x04\n      dup1\n      calldatasize\n      sub\n      dup2\n      add\n      swap1\n      tag_8\n      swap2\n      swap1\n      tag_9\n      jump\t// in\n    tag_8:\n      tag_10\n      jump\t// in\n    tag_7:\n      mload(0x40)\n      tag_11\n      swap2\n      swap1\n      tag_12\n      jump\t// in\n    tag_11:\n      mload(0x40)\n      dup1\n      swap2\n      sub\n      swap1\n      return\n        /* \"homework/trycatch/UseTryCatch.sol\":6305:6729  function setDataByABI2(string calldata newData) public returns (bool) {... */\n    tag_4:\n      tag_13\n      0x04\n      dup1\n      calldatasize\n      sub\n      dup2\n      add\n      swap1\n      tag_14\n      swap2\n      swap1\n      tag_9\n      jump\t// in\n    tag_14:\n      tag_15\n      jump\t// in\n    tag_13:\n      mload(0x40)\n      tag_16\n      swap2\n      swap1\n      tag_12\n      jump\t// in\n    tag_16:\n      mload(0x40)\n      dup1\n      swap2\n      sub\n      swap1\n      return\n        /* \"homework/trycatch/UseTryCatch.sol\":5602:5977  function getDataByABI() public returns (string memory) {... */\n    tag_5:\n      tag_17\n      tag_18\n      jump\t// in\n    tag_17:\n      mload(0x40)\n      tag_19\n      swap2\n      swap1\n      tag_20\n      jump\t// in\n    tag_19:\n      mload(0x40)\n      dup1\n      swap2\n      sub\n      swap1\n      return\n        /* \"homework/trycatch/UseTryCatch.sol\":6735:7048  function setDataByABI3(string calldata newData) public returns (bool) {... */\n    tag_6:\n      tag_21\n      0x04\n      dup1\n      calldatasize\n      sub\n      dup2\n      add\n      swap1\n      tag_22\n      swap2\n      swap1\n      tag_9\n      jump\t// in\n    tag_22:\n      tag_23\n      jump\t// in\n    tag_21:\n      mload(0x40)\n      tag_24\n      swap2\n      swap1\n      tag_12\n      jump\t// in\n    tag_24:\n      mload(0x40)\n      dup1\n      swap2\n      sub\n      swap1\n      return\n        /* \"homework/trycatch/UseTryCatch.sol\":5983:6299  function setDataByABI1(string calldata newData) public returns (bool) {... */\n    tag_10:\n        /* \"homework/trycatch/UseTryCatch.sol\":6047:6051  bool */\n      0x00\n        /* \"homework/trycatch/UseTryCatch.sol\":6083:6103  bytes memory payload */\n      dup1\n        /* \"homework/trycatch/UseTryCatch.sol\":6149:6156  newData */\n      dup4\n      dup4\n        /* \"homework/trycatch/UseTryCatch.sol\":6106:6157  abi.encodeWithSignature(\"setData(string)\", newData) */\n      add(0x24, mload(0x40))\n      tag_26\n      swap3\n      swap2\n      swap1\n      tag_27\n      jump\t// in\n    tag_26:\n      mload(0x40)\n      0x20\n      dup2\n      dup4\n      sub\n      sub\n      dup2\n      mstore\n      swap1\n      0x40\n      mstore\n      and(not(0xffffffffffffffffffffffffffffffffffffffffffffffffffffffff), 0x47064d6a00000000000000000000000000000000000000000000000000000000)\n      0x20\n      dup3\n      add\n      dup1\n      mload\n      0xffffffffffffffffffffffffffffffffffffffffffffffffffffffff\n      dup4\n      dup2\n      dup4\n      and\n      or\n      dup4\n      mstore\n      pop\n      pop\n      pop\n      pop\n        /* \"homework/trycatch/UseTryCatch.sol\":6083:6157  bytes memory payload = abi.encodeWithSignature(\"setData(string)\", newData) */\n      swap1\n      pop\n        /* \"homework/trycatch/UseTryCatch.sol\":6168:6180  bool success */\n      0x00\n        /* \"homework/trycatch/UseTryCatch.sol\":6186:6204  dataStorageAddress */\n      dup1\n      0x00\n      swap1\n      sload\n      swap1\n      0x0100\n      exp\n      swap1\n      div\n      0xffffffffffffffffffffffffffffffffffffffff\n      and\n        /* \"homework/trycatch/UseTryCatch.sol\":6186:6209  dataStorageAddress.call */\n      0xffffffffffffffffffffffffffffffffffffffff\n      and\n        /* \"homework/trycatch/UseTryCatch.sol\":6210:6217  payload */\n      dup3\n        /* \"homework/trycatch/UseTryCatch.sol\":6186:6218  dataStorageAddress.call(payload) */\n      mload(0x40)\n      tag_28\n      swap2\n      swap1\n      tag_29\n      jump\t// in\n    tag_28:\n      0x00\n      mload(0x40)\n      dup1\n      dup4\n      sub\n      dup2\n      0x00\n      dup7\n      gas\n      call\n      swap2\n      pop\n      pop\n      returndatasize\n      dup1\n      0x00\n      dup2\n      eq\n      tag_32\n      jumpi\n      mload(0x40)\n      swap2\n      pop\n      and(add(returndatasize, 0x3f), not(0x1f))\n      dup3\n      add\n      0x40\n      mstore\n      returndatasize\n      dup3\n      mstore\n      returndatasize\n      0x00\n      0x20\n      dup5\n      add\n      returndatacopy\n      jump(tag_31)\n    tag_32:\n      0x60\n      swap2\n      pop\n    tag_31:\n      pop\n        /* \"homework/trycatch/UseTryCatch.sol\":6167:6218  (bool success, ) = dataStorageAddress.call(payload) */\n      pop\n      swap1\n      pop\n        /* \"homework/trycatch/UseTryCatch.sol\":6236:6243  success */\n      dup1\n        /* \"homework/trycatch/UseTryCatch.sol\":6228:6268  require(success, \"call function failed\") */\n      tag_33\n      jumpi\n      mload(0x40)\n      0x08c379a000000000000000000000000000000000000000000000000000000000\n      dup2\n      mstore\n      0x04\n      add\n      tag_34\n      swap1\n      tag_35\n      jump\t// in\n    tag_34:\n      mload(0x40)\n      dup1\n      swap2\n      sub\n      swap1\n      revert\n    tag_33:\n        /* \"homework/trycatch/UseTryCatch.sol\":6285:6292  success */\n      dup1\n        /* \"homework/trycatch/UseTryCatch.sol\":6278:6292  return success */\n      swap3\n      pop\n      pop\n      pop\n        /* \"homework/trycatch/UseTryCatch.sol\":5983:6299  function setDataByABI1(string calldata newData) public returns (bool) {... */\n      swap3\n      swap2\n      pop\n      pop\n      jump\t// out\n        /* \"homework/trycatch/UseTryCatch.sol\":6305:6729  function setDataByABI2(string calldata newData) public returns (bool) {... */\n    tag_15:\n        /* \"homework/trycatch/UseTryCatch.sol\":6369:6373  bool */\n      0x00\n        /* \"homework/trycatch/UseTryCatch.sol\":6503:6523  bytes memory payload */\n      dup1\n        /* \"homework/trycatch/UseTryCatch.sol\":6549:6577  DataStorage.setData.selector */\n      shl(0xe0, 0x47064d6a)\n        /* \"homework/trycatch/UseTryCatch.sol\":6579:6586  newData */\n      dup5\n      dup5\n        /* \"homework/trycatch/UseTryCatch.sol\":6526:6587  abi.encodeWithSelector(DataStorage.setData.selector, newData) */\n      add(0x24, mload(0x40))\n      tag_37\n      swap3\n      swap2\n      swap1\n      tag_27\n      jump\t// in\n    tag_37:\n      mload(0x40)\n      0x20\n      dup2\n      dup4\n      sub\n      sub\n      dup2\n      mstore\n      swap1\n      0x40\n      mstore\n      swap1\n      not(0xffffffffffffffffffffffffffffffffffffffffffffffffffffffff)\n      and\n      0x20\n      dup3\n      add\n      dup1\n      mload\n      0xffffffffffffffffffffffffffffffffffffffffffffffffffffffff\n      dup4\n      dup2\n      dup4\n      and\n      or\n      dup4\n      mstore\n      pop\n      pop\n      pop\n      pop\n        /* \"homework/trycatch/UseTryCatch.sol\":6503:6587  bytes memory payload = abi.encodeWithSelector(DataStorage.setData.selector, newData) */\n      swap1\n      pop\n        /* \"homework/trycatch/UseTryCatch.sol\":6598:6610  bool success */\n      0x00\n        /* \"homework/trycatch/UseTryCatch.sol\":6616:6634  dataStorageAddress */\n      dup1\n      0x00\n      swap1\n      sload\n      swap1\n      0x0100\n      exp\n      swap1\n      div\n      0xffffffffffffffffffffffffffffffffffffffff\n      and\n        /* \"homework/trycatch/UseTryCatch.sol\":6616:6639  dataStorageAddress.call */\n      0xffffffffffffffffffffffffffffffffffffffff\n      and\n        /* \"homework/trycatch/UseTryCatch.sol\":6640:6647  payload */\n      dup3\n        /* \"homework/trycatch/UseTryCatch.sol\":6616:6648  dataStorageAddress.call(payload) */\n      mload(0x40)\n      tag_38\n      swap2\n      swap1\n      tag_29\n      jump\t// in\n    tag_38:\n      0x00\n      mload(0x40)\n      dup1\n      dup4\n      sub\n      dup2\n      0x00\n      dup7\n      gas\n      call\n      swap2\n      pop\n      pop\n      returndatasize\n      dup1\n      0x00\n      dup2\n      eq\n      tag_41\n      jumpi\n      mload(0x40)\n      swap2\n      pop\n      and(add(returndatasize, 0x3f), not(0x1f))\n      dup3\n      add\n      0x40\n      mstore\n      returndatasize\n      dup3\n      mstore\n      returndatasize\n      0x00\n      0x20\n      dup5\n      add\n      returndatacopy\n      jump(tag_40)\n    tag_41:\n      0x60\n      swap2\n      pop\n    tag_40:\n      pop\n        /* \"homework/trycatch/UseTryCatch.sol\":6597:6648  (bool success, ) = dataStorageAddress.call(payload) */\n      pop\n      swap1\n      pop\n        /* \"homework/trycatch/UseTryCatch.sol\":6666:6673  success */\n      dup1\n        /* \"homework/trycatch/UseTryCatch.sol\":6658:6698  require(success, \"call function failed\") */\n      tag_42\n      jumpi\n      mload(0x40)\n      0x08c379a000000000000000000000000000000000000000000000000000000000\n      dup2\n      mstore\n      0x04\n      add\n      tag_43\n      swap1\n      tag_35\n      jump\t// in\n    tag_43:\n      mload(0x40)\n      dup1\n      swap2\n      sub\n      swap1\n      revert\n    tag_42:\n        /* \"homework/trycatch/UseTryCatch.sol\":6715:6722  success */\n      dup1\n        /* \"homework/trycatch/UseTryCatch.sol\":6708:6722  return success */\n      swap3\n      pop\n      pop\n      pop\n        /* \"homework/trycatch/UseTryCatch.sol\":6305:6729  function setDataByABI2(string calldata newData) public returns (bool) {... */\n      swap3\n      swap2\n      pop\n      pop\n      jump\t// out\n        /* \"homework/trycatch/UseTryCatch.sol\":5602:5977  function getDataByABI() public returns (string memory) {... */\n    tag_18:\n        /* \"homework/trycatch/UseTryCatch.sol\":5642:5655  string memory */\n      0x60\n        /* \"homework/trycatch/UseTryCatch.sol\":5686:5706  bytes memory payload */\n      0x00\n        /* \"homework/trycatch/UseTryCatch.sol\":5709:5743  abi.encodeWithSignature(\"getData\") */\n      add(0x24, mload(0x40))\n      mload(0x40)\n      0x20\n      dup2\n      dup4\n      sub\n      sub\n      dup2\n      mstore\n      swap1\n      0x40\n      mstore\n      and(not(0xffffffffffffffffffffffffffffffffffffffffffffffffffffffff), 0x8a4c8dab00000000000000000000000000000000000000000000000000000000)\n      0x20\n      dup3\n      add\n      dup1\n      mload\n      0xffffffffffffffffffffffffffffffffffffffffffffffffffffffff\n      dup4\n      dup2\n      dup4\n      and\n      or\n      dup4\n      mstore\n      pop\n      pop\n      pop\n      pop\n        /* \"homework/trycatch/UseTryCatch.sol\":5686:5743  bytes memory payload = abi.encodeWithSignature(\"getData\") */\n      swap1\n      pop\n        /* \"homework/trycatch/UseTryCatch.sol\":5754:5766  bool success */\n      0x00\n        /* \"homework/trycatch/UseTryCatch.sol\":5768:5785  bytes memory data */\n      dup1\n        /* \"homework/trycatch/UseTryCatch.sol\":5789:5807  dataStorageAddress */\n      0x00\n      dup1\n      sload\n      swap1\n      0x0100\n      exp\n      swap1\n      div\n      0xffffffffffffffffffffffffffffffffffffffff\n      and\n        /* \"homework/trycatch/UseTryCatch.sol\":5789:5812  dataStorageAddress.call */\n      0xffffffffffffffffffffffffffffffffffffffff\n      and\n        /* \"homework/trycatch/UseTryCatch.sol\":5813:5820  payload */\n      dup4\n        /* \"homework/trycatch/UseTryCatch.sol\":5789:5821  dataStorageAddress.call(payload) */\n      mload(0x40)\n      tag_45\n      swap2\n      swap1\n      tag_29\n      jump\t// in\n    tag_45:\n      0x00\n      mload(0x40)\n      dup1\n      dup4\n      sub\n      dup2\n      0x00\n      dup7\n      gas\n      call\n      swap2\n      pop\n      pop\n      returndatasize\n      dup1\n      0x00\n      dup2\n      eq\n      tag_48\n      jumpi\n      mload(0x40)\n      swap2\n      pop\n      and(add(returndatasize, 0x3f), not(0x1f))\n      dup3\n      add\n      0x40\n      mstore\n      returndatasize\n      dup3\n      mstore\n      returndatasize\n      0x00\n      0x20\n      dup5\n      add\n      returndatacopy\n      jump(tag_47)\n    tag_48:\n      0x60\n      swap2\n      pop\n    tag_47:\n      pop\n        /* \"homework/trycatch/UseTryCatch.sol\":5753:5821  (bool success, bytes memory data) = dataStorageAddress.call(payload) */\n      swap2\n      pop\n      swap2\n      pop\n        /* \"homework/trycatch/UseTryCatch.sol\":5839:5846  success */\n      dup2\n        /* \"homework/trycatch/UseTryCatch.sol\":5831:5871  require(success, \"call function failed\") */\n      tag_49\n      jumpi\n      mload(0x40)\n      0x08c379a000000000000000000000000000000000000000000000000000000000\n      dup2\n      mstore\n      0x04\n      add\n      tag_50\n      swap1\n      tag_35\n      jump\t// in\n    tag_50:\n      mload(0x40)\n      dup1\n      swap2\n      sub\n      swap1\n      revert\n    tag_49:\n        /* \"homework/trycatch/UseTryCatch.sol\":5881:5898  string memory res */\n      0x00\n        /* \"homework/trycatch/UseTryCatch.sol\":5912:5916  data */\n      dup2\n        /* \"homework/trycatch/UseTryCatch.sol\":5901:5927  abi.decode(data, (string)) */\n      dup1\n      0x20\n      add\n      swap1\n      mload\n      dup2\n      add\n      swap1\n      tag_51\n      swap2\n      swap1\n      tag_52\n      jump\t// in\n    tag_51:\n        /* \"homework/trycatch/UseTryCatch.sol\":5881:5927  string memory res = abi.decode(data, (string)) */\n      swap1\n      pop\n        /* \"homework/trycatch/UseTryCatch.sol\":5944:5947  res */\n      dup1\n        /* \"homework/trycatch/UseTryCatch.sol\":5937:5947  return res */\n      swap5\n      pop\n      pop\n      pop\n      pop\n      pop\n        /* \"homework/trycatch/UseTryCatch.sol\":5602:5977  function getDataByABI() public returns (string memory) {... */\n      swap1\n      jump\t// out\n        /* \"homework/trycatch/UseTryCatch.sol\":6735:7048  function setDataByABI3(string calldata newData) public returns (bool) {... */\n    tag_23:\n        /* \"homework/trycatch/UseTryCatch.sol\":6799:6803  bool */\n      0x00\n        /* \"homework/trycatch/UseTryCatch.sol\":6835:6856  bytes memory playload */\n      dup1\n        /* \"homework/trycatch/UseTryCatch.sol\":6896:6903  newData */\n      dup4\n      dup4\n        /* \"homework/trycatch/UseTryCatch.sol\":6859:6905  abi.encodeCall(DataStorage.setData, (newData)) */\n      add(0x24, mload(0x40))\n      tag_54\n      swap3\n      swap2\n      swap1\n      tag_27\n      jump\t// in\n    tag_54:\n      mload(0x40)\n      0x20\n      dup2\n      dup4\n      sub\n      sub\n      dup2\n      mstore\n      swap1\n      0x40\n      mstore\n      shl(0xe0, 0x47064d6a)\n      0x20\n      dup3\n      add\n      dup1\n      mload\n      0xffffffffffffffffffffffffffffffffffffffffffffffffffffffff\n      dup4\n      dup2\n      dup4\n      and\n      or\n      dup4\n      mstore\n      pop\n      pop\n      pop\n      pop\n        /* \"homework/trycatch/UseTryCatch.sol\":6835:6905  bytes memory playload = abi.encodeCall(DataStorage.setData, (newData)) */\n      swap1\n      pop\n        /* \"homework/trycatch/UseTryCatch.sol\":6916:6928  bool success */\n      0x00\n        /* \"homework/trycatch/UseTryCatch.sol\":6934:6952  dataStorageAddress */\n      dup1\n      0x00\n      swap1\n      sload\n      swap1\n      0x0100\n      exp\n      swap1\n      div\n      0xffffffffffffffffffffffffffffffffffffffff\n      and\n        /* \"homework/trycatch/UseTryCatch.sol\":6934:6957  dataStorageAddress.call */\n      0xffffffffffffffffffffffffffffffffffffffff\n      and\n        /* \"homework/trycatch/UseTryCatch.sol\":6958:6966  playload */\n      dup3\n        /* \"homework/trycatch/UseTryCatch.sol\":6934:6967  dataStorageAddress.call(playload) */\n      mload(0x40)\n      tag_55\n      swap2\n      swap1\n      tag_29\n      jump\t// in\n    tag_55:\n      0x00\n      mload(0x40)\n      dup1\n      dup4\n      sub\n      dup2\n      0x00\n      dup7\n      gas\n      call\n      swap2\n      pop\n      pop\n      returndatasize\n      dup1\n      0x00\n      dup2\n      eq\n      tag_58\n      jumpi\n      mload(0x40)\n      swap2\n      pop\n      and(add(returndatasize, 0x3f), not(0x1f))\n      dup3\n      add\n      0x40\n      mstore\n      returndatasize\n      dup3\n      mstore\n      returndatasize\n      0x00\n      0x20\n      dup5\n      add\n      returndatacopy\n      jump(tag_57)\n    tag_58:\n      0x60\n      swap2\n      pop\n    tag_57:\n      pop\n        /* \"homework/trycatch/UseTryCatch.sol\":6915:6967  (bool success, ) = dataStorageAddress.call(playload) */\n      pop\n      swap1\n      pop\n        /* \"homework/trycatch/UseTryCatch.sol\":6985:6992  success */\n      dup1\n        /* \"homework/trycatch/UseTryCatch.sol\":6977:7017  require(success, \"call function failed\") */\n      tag_59\n      jumpi\n      mload(0x40)\n      0x08c379a000000000000000000000000000000000000000000000000000000000\n      dup2\n      mstore\n      0x04\n      add\n      tag_60\n      swap1\n      tag_35\n      jump\t// in\n    tag_60:\n      mload(0x40)\n      dup1\n      swap2\n      sub\n      swap1\n      revert\n    tag_59:\n        /* \"homework/trycatch/UseTryCatch.sol\":7034:7041  success */\n      dup1\n        /* \"homework/trycatch/UseTryCatch.sol\":7027:7041  return success */\n      swap3\n      pop\n      pop\n      pop\n        /* \"homework/trycatch/UseTryCatch.sol\":6735:7048  function setDataByABI3(string calldata newData) public returns (bool) {... */\n      swap3\n      swap2\n      pop\n      pop\n      jump\t// out\n        /* \"#utility.yul\":7:82   */\n    tag_61:\n        /* \"#utility.yul\":40:46   */\n      0x00\n        /* \"#utility.yul\":73:75   */\n      0x40\n        /* \"#utility.yul\":67:76   */\n      mload\n        /* \"#utility.yul\":57:76   */\n      swap1\n      pop\n        /* \"#utility.yul\":7:82   */\n      swap1\n      jump\t// out\n        /* \"#utility.yul\":88:205   */\n    tag_62:\n        /* \"#utility.yul\":197:198   */\n      0x00\n        /* \"#utility.yul\":194:195   */\n      dup1\n        /* \"#utility.yul\":187:199   */\n      revert\n        /* \"#utility.yul\":211:328   */\n    tag_63:\n        /* \"#utility.yul\":320:321   */\n      0x00\n        /* \"#utility.yul\":317:318   */\n      dup1\n        /* \"#utility.yul\":310:322   */\n      revert\n        /* \"#utility.yul\":334:451   */\n    tag_64:\n        /* \"#utility.yul\":443:444   */\n      0x00\n        /* \"#utility.yul\":440:441   */\n      dup1\n        /* \"#utility.yul\":433:445   */\n      revert\n        /* \"#utility.yul\":457:574   */\n    tag_65:\n        /* \"#utility.yul\":566:567   */\n      0x00\n        /* \"#utility.yul\":563:564   */\n      dup1\n        /* \"#utility.yul\":556:568   */\n      revert\n        /* \"#utility.yul\":580:697   */\n    tag_66:\n        /* \"#utility.yul\":689:690   */\n      0x00\n        /* \"#utility.yul\":686:687   */\n      dup1\n        /* \"#utility.yul\":679:691   */\n      revert\n        /* \"#utility.yul\":717:1270   */\n    tag_67:\n        /* \"#utility.yul\":775:783   */\n      0x00\n        /* \"#utility.yul\":785:791   */\n      dup1\n        /* \"#utility.yul\":835:838   */\n      dup4\n        /* \"#utility.yul\":828:832   */\n      0x1f\n        /* \"#utility.yul\":820:826   */\n      dup5\n        /* \"#utility.yul\":816:833   */\n      add\n        /* \"#utility.yul\":812:839   */\n      slt\n        /* \"#utility.yul\":802:924   */\n      tag_97\n      jumpi\n        /* \"#utility.yul\":843:922   */\n      tag_98\n      tag_64\n      jump\t// in\n    tag_98:\n        /* \"#utility.yul\":802:924   */\n    tag_97:\n        /* \"#utility.yul\":956:962   */\n      dup3\n        /* \"#utility.yul\":943:963   */\n      calldataload\n        /* \"#utility.yul\":933:963   */\n      swap1\n      pop\n        /* \"#utility.yul\":986:1004   */\n      0xffffffffffffffff\n        /* \"#utility.yul\":978:984   */\n      dup2\n        /* \"#utility.yul\":975:1005   */\n      gt\n        /* \"#utility.yul\":972:1089   */\n      iszero\n      tag_99\n      jumpi\n        /* \"#utility.yul\":1008:1087   */\n      tag_100\n      tag_65\n      jump\t// in\n    tag_100:\n        /* \"#utility.yul\":972:1089   */\n    tag_99:\n        /* \"#utility.yul\":1122:1126   */\n      0x20\n        /* \"#utility.yul\":1114:1120   */\n      dup4\n        /* \"#utility.yul\":1110:1127   */\n      add\n        /* \"#utility.yul\":1098:1127   */\n      swap2\n      pop\n        /* \"#utility.yul\":1176:1179   */\n      dup4\n        /* \"#utility.yul\":1168:1172   */\n      0x01\n        /* \"#utility.yul\":1160:1166   */\n      dup3\n        /* \"#utility.yul\":1156:1173   */\n      mul\n        /* \"#utility.yul\":1146:1154   */\n      dup4\n        /* \"#utility.yul\":1142:1174   */\n      add\n        /* \"#utility.yul\":1139:1180   */\n      gt\n        /* \"#utility.yul\":1136:1264   */\n      iszero\n      tag_101\n      jumpi\n        /* \"#utility.yul\":1183:1262   */\n      tag_102\n      tag_66\n      jump\t// in\n    tag_102:\n        /* \"#utility.yul\":1136:1264   */\n    tag_101:\n        /* \"#utility.yul\":717:1270   */\n      swap3\n      pop\n      swap3\n      swap1\n      pop\n      jump\t// out\n        /* \"#utility.yul\":1276:1805   */\n    tag_9:\n        /* \"#utility.yul\":1347:1353   */\n      0x00\n        /* \"#utility.yul\":1355:1361   */\n      dup1\n        /* \"#utility.yul\":1404:1406   */\n      0x20\n        /* \"#utility.yul\":1392:1401   */\n      dup4\n        /* \"#utility.yul\":1383:1390   */\n      dup6\n        /* \"#utility.yul\":1379:1402   */\n      sub\n        /* \"#utility.yul\":1375:1407   */\n      slt\n        /* \"#utility.yul\":1372:1491   */\n      iszero\n      tag_104\n      jumpi\n        /* \"#utility.yul\":1410:1489   */\n      tag_105\n      tag_62\n      jump\t// in\n    tag_105:\n        /* \"#utility.yul\":1372:1491   */\n    tag_104:\n        /* \"#utility.yul\":1558:1559   */\n      0x00\n        /* \"#utility.yul\":1547:1556   */\n      dup4\n        /* \"#utility.yul\":1543:1560   */\n      add\n        /* \"#utility.yul\":1530:1561   */\n      calldataload\n        /* \"#utility.yul\":1588:1606   */\n      0xffffffffffffffff\n        /* \"#utility.yul\":1580:1586   */\n      dup2\n        /* \"#utility.yul\":1577:1607   */\n      gt\n        /* \"#utility.yul\":1574:1691   */\n      iszero\n      tag_106\n      jumpi\n        /* \"#utility.yul\":1610:1689   */\n      tag_107\n      tag_63\n      jump\t// in\n    tag_107:\n        /* \"#utility.yul\":1574:1691   */\n    tag_106:\n        /* \"#utility.yul\":1723:1788   */\n      tag_108\n        /* \"#utility.yul\":1780:1787   */\n      dup6\n        /* \"#utility.yul\":1771:1777   */\n      dup3\n        /* \"#utility.yul\":1760:1769   */\n      dup7\n        /* \"#utility.yul\":1756:1778   */\n      add\n        /* \"#utility.yul\":1723:1788   */\n      tag_67\n      jump\t// in\n    tag_108:\n        /* \"#utility.yul\":1705:1788   */\n      swap3\n      pop\n      swap3\n      pop\n        /* \"#utility.yul\":1501:1798   */\n      pop\n        /* \"#utility.yul\":1276:1805   */\n      swap3\n      pop\n      swap3\n      swap1\n      pop\n      jump\t// out\n        /* \"#utility.yul\":1811:1901   */\n    tag_68:\n        /* \"#utility.yul\":1845:1852   */\n      0x00\n        /* \"#utility.yul\":1888:1893   */\n      dup2\n        /* \"#utility.yul\":1881:1894   */\n      iszero\n        /* \"#utility.yul\":1874:1895   */\n      iszero\n        /* \"#utility.yul\":1863:1895   */\n      swap1\n      pop\n        /* \"#utility.yul\":1811:1901   */\n      swap2\n      swap1\n      pop\n      jump\t// out\n        /* \"#utility.yul\":1907:2016   */\n    tag_69:\n        /* \"#utility.yul\":1988:2009   */\n      tag_111\n        /* \"#utility.yul\":2003:2008   */\n      dup2\n        /* \"#utility.yul\":1988:2009   */\n      tag_68\n      jump\t// in\n    tag_111:\n        /* \"#utility.yul\":1983:1986   */\n      dup3\n        /* \"#utility.yul\":1976:2010   */\n      mstore\n        /* \"#utility.yul\":1907:2016   */\n      pop\n      pop\n      jump\t// out\n        /* \"#utility.yul\":2022:2232   */\n    tag_12:\n        /* \"#utility.yul\":2109:2113   */\n      0x00\n        /* \"#utility.yul\":2147:2149   */\n      0x20\n        /* \"#utility.yul\":2136:2145   */\n      dup3\n        /* \"#utility.yul\":2132:2150   */\n      add\n        /* \"#utility.yul\":2124:2150   */\n      swap1\n      pop\n        /* \"#utility.yul\":2160:2225   */\n      tag_113\n        /* \"#utility.yul\":2222:2223   */\n      0x00\n        /* \"#utility.yul\":2211:2220   */\n      dup4\n        /* \"#utility.yul\":2207:2224   */\n      add\n        /* \"#utility.yul\":2198:2204   */\n      dup5\n        /* \"#utility.yul\":2160:2225   */\n      tag_69\n      jump\t// in\n    tag_113:\n        /* \"#utility.yul\":2022:2232   */\n      swap3\n      swap2\n      pop\n      pop\n      jump\t// out\n        /* \"#utility.yul\":2238:2337   */\n    tag_70:\n        /* \"#utility.yul\":2290:2296   */\n      0x00\n        /* \"#utility.yul\":2324:2329   */\n      dup2\n        /* \"#utility.yul\":2318:2330   */\n      mload\n        /* \"#utility.yul\":2308:2330   */\n      swap1\n      pop\n        /* \"#utility.yul\":2238:2337   */\n      swap2\n      swap1\n      pop\n      jump\t// out\n        /* \"#utility.yul\":2343:2512   */\n    tag_71:\n        /* \"#utility.yul\":2427:2438   */\n      0x00\n        /* \"#utility.yul\":2461:2467   */\n      dup3\n        /* \"#utility.yul\":2456:2459   */\n      dup3\n        /* \"#utility.yul\":2449:2468   */\n      mstore\n        /* \"#utility.yul\":2501:2505   */\n      0x20\n        /* \"#utility.yul\":2496:2499   */\n      dup3\n        /* \"#utility.yul\":2492:2506   */\n      add\n        /* \"#utility.yul\":2477:2506   */\n      swap1\n      pop\n        /* \"#utility.yul\":2343:2512   */\n      swap3\n      swap2\n      pop\n      pop\n      jump\t// out\n        /* \"#utility.yul\":2518:2764   */\n    tag_72:\n        /* \"#utility.yul\":2599:2600   */\n      0x00\n        /* \"#utility.yul\":2609:2722   */\n    tag_117:\n        /* \"#utility.yul\":2623:2629   */\n      dup4\n        /* \"#utility.yul\":2620:2621   */\n      dup2\n        /* \"#utility.yul\":2617:2630   */\n      lt\n        /* \"#utility.yul\":2609:2722   */\n      iszero\n      tag_119\n      jumpi\n        /* \"#utility.yul\":2708:2709   */\n      dup1\n        /* \"#utility.yul\":2703:2706   */\n      dup3\n        /* \"#utility.yul\":2699:2710   */\n      add\n        /* \"#utility.yul\":2693:2711   */\n      mload\n        /* \"#utility.yul\":2689:2690   */\n      dup2\n        /* \"#utility.yul\":2684:2687   */\n      dup5\n        /* \"#utility.yul\":2680:2691   */\n      add\n        /* \"#utility.yul\":2673:2712   */\n      mstore\n        /* \"#utility.yul\":2645:2647   */\n      0x20\n        /* \"#utility.yul\":2642:2643   */\n      dup2\n        /* \"#utility.yul\":2638:2648   */\n      add\n        /* \"#utility.yul\":2633:2648   */\n      swap1\n      pop\n        /* \"#utility.yul\":2609:2722   */\n      jump(tag_117)\n    tag_119:\n        /* \"#utility.yul\":2756:2757   */\n      0x00\n        /* \"#utility.yul\":2747:2753   */\n      dup5\n        /* \"#utility.yul\":2742:2745   */\n      dup5\n        /* \"#utility.yul\":2738:2754   */\n      add\n        /* \"#utility.yul\":2731:2758   */\n      mstore\n        /* \"#utility.yul\":2580:2764   */\n      pop\n        /* \"#utility.yul\":2518:2764   */\n      pop\n      pop\n      pop\n      jump\t// out\n        /* \"#utility.yul\":2770:2872   */\n    tag_73:\n        /* \"#utility.yul\":2811:2817   */\n      0x00\n        /* \"#utility.yul\":2862:2864   */\n      0x1f\n        /* \"#utility.yul\":2858:2865   */\n      not\n        /* \"#utility.yul\":2853:2855   */\n      0x1f\n        /* \"#utility.yul\":2846:2851   */\n      dup4\n        /* \"#utility.yul\":2842:2856   */\n      add\n        /* \"#utility.yul\":2838:2866   */\n      and\n        /* \"#utility.yul\":2828:2866   */\n      swap1\n      pop\n        /* \"#utility.yul\":2770:2872   */\n      swap2\n      swap1\n      pop\n      jump\t// out\n        /* \"#utility.yul\":2878:3255   */\n    tag_74:\n        /* \"#utility.yul\":2966:2969   */\n      0x00\n        /* \"#utility.yul\":2994:3033   */\n      tag_122\n        /* \"#utility.yul\":3027:3032   */\n      dup3\n        /* \"#utility.yul\":2994:3033   */\n      tag_70\n      jump\t// in\n    tag_122:\n        /* \"#utility.yul\":3049:3120   */\n      tag_123\n        /* \"#utility.yul\":3113:3119   */\n      dup2\n        /* \"#utility.yul\":3108:3111   */\n      dup6\n        /* \"#utility.yul\":3049:3120   */\n      tag_71\n      jump\t// in\n    tag_123:\n        /* \"#utility.yul\":3042:3120   */\n      swap4\n      pop\n        /* \"#utility.yul\":3129:3194   */\n      tag_124\n        /* \"#utility.yul\":3187:3193   */\n      dup2\n        /* \"#utility.yul\":3182:3185   */\n      dup6\n        /* \"#utility.yul\":3175:3179   */\n      0x20\n        /* \"#utility.yul\":3168:3173   */\n      dup7\n        /* \"#utility.yul\":3164:3180   */\n      add\n        /* \"#utility.yul\":3129:3194   */\n      tag_72\n      jump\t// in\n    tag_124:\n        /* \"#utility.yul\":3219:3248   */\n      tag_125\n        /* \"#utility.yul\":3241:3247   */\n      dup2\n        /* \"#utility.yul\":3219:3248   */\n      tag_73\n      jump\t// in\n    tag_125:\n        /* \"#utility.yul\":3214:3217   */\n      dup5\n        /* \"#utility.yul\":3210:3249   */\n      add\n        /* \"#utility.yul\":3203:3249   */\n      swap2\n      pop\n        /* \"#utility.yul\":2970:3255   */\n      pop\n        /* \"#utility.yul\":2878:3255   */\n      swap3\n      swap2\n      pop\n      pop\n      jump\t// out\n        /* \"#utility.yul\":3261:3574   */\n    tag_20:\n        /* \"#utility.yul\":3374:3378   */\n      0x00\n        /* \"#utility.yul\":3412:3414   */\n      0x20\n        /* \"#utility.yul\":3401:3410   */\n      dup3\n        /* \"#utility.yul\":3397:3415   */\n      add\n        /* \"#utility.yul\":3389:3415   */\n      swap1\n      pop\n        /* \"#utility.yul\":3461:3470   */\n      dup2\n        /* \"#utility.yul\":3455:3459   */\n      dup2\n        /* \"#utility.yul\":3451:3471   */\n      sub\n        /* \"#utility.yul\":3447:3448   */\n      0x00\n        /* \"#utility.yul\":3436:3445   */\n      dup4\n        /* \"#utility.yul\":3432:3449   */\n      add\n        /* \"#utility.yul\":3425:3472   */\n      mstore\n        /* \"#utility.yul\":3489:3567   */\n      tag_127\n        /* \"#utility.yul\":3562:3566   */\n      dup2\n        /* \"#utility.yul\":3553:3559   */\n      dup5\n        /* \"#utility.yul\":3489:3567   */\n      tag_74\n      jump\t// in\n    tag_127:\n        /* \"#utility.yul\":3481:3567   */\n      swap1\n      pop\n        /* \"#utility.yul\":3261:3574   */\n      swap3\n      swap2\n      pop\n      pop\n      jump\t// out\n        /* \"#utility.yul\":3580:3726   */\n    tag_75:\n        /* \"#utility.yul\":3677:3683   */\n      dup3\n        /* \"#utility.yul\":3672:3675   */\n      dup2\n        /* \"#utility.yul\":3667:3670   */\n      dup4\n        /* \"#utility.yul\":3654:3684   */\n      calldatacopy\n        /* \"#utility.yul\":3718:3719   */\n      0x00\n        /* \"#utility.yul\":3709:3715   */\n      dup4\n        /* \"#utility.yul\":3704:3707   */\n      dup4\n        /* \"#utility.yul\":3700:3716   */\n      add\n        /* \"#utility.yul\":3693:3720   */\n      mstore\n        /* \"#utility.yul\":3580:3726   */\n      pop\n      pop\n      pop\n      jump\t// out\n        /* \"#utility.yul\":3756:4073   */\n    tag_76:\n        /* \"#utility.yul\":3854:3857   */\n      0x00\n        /* \"#utility.yul\":3875:3946   */\n      tag_130\n        /* \"#utility.yul\":3939:3945   */\n      dup4\n        /* \"#utility.yul\":3934:3937   */\n      dup6\n        /* \"#utility.yul\":3875:3946   */\n      tag_71\n      jump\t// in\n    tag_130:\n        /* \"#utility.yul\":3868:3946   */\n      swap4\n      pop\n        /* \"#utility.yul\":3956:4012   */\n      tag_131\n        /* \"#utility.yul\":4005:4011   */\n      dup4\n        /* \"#utility.yul\":4000:4003   */\n      dup6\n        /* \"#utility.yul\":3993:3998   */\n      dup5\n        /* \"#utility.yul\":3956:4012   */\n      tag_75\n      jump\t// in\n    tag_131:\n        /* \"#utility.yul\":4037:4066   */\n      tag_132\n        /* \"#utility.yul\":4059:4065   */\n      dup4\n        /* \"#utility.yul\":4037:4066   */\n      tag_73\n      jump\t// in\n    tag_132:\n        /* \"#utility.yul\":4032:4035   */\n      dup5\n        /* \"#utility.yul\":4028:4067   */\n      add\n        /* \"#utility.yul\":4021:4067   */\n      swap1\n      pop\n        /* \"#utility.yul\":3756:4073   */\n      swap4\n      swap3\n      pop\n      pop\n      pop\n      jump\t// out\n        /* \"#utility.yul\":4079:4412   */\n    tag_27:\n        /* \"#utility.yul\":4202:4206   */\n      0x00\n        /* \"#utility.yul\":4240:4242   */\n      0x20\n        /* \"#utility.yul\":4229:4238   */\n      dup3\n        /* \"#utility.yul\":4225:4243   */\n      add\n        /* \"#utility.yul\":4217:4243   */\n      swap1\n      pop\n        /* \"#utility.yul\":4289:4298   */\n      dup2\n        /* \"#utility.yul\":4283:4287   */\n      dup2\n        /* \"#utility.yul\":4279:4299   */\n      sub\n        /* \"#utility.yul\":4275:4276   */\n      0x00\n        /* \"#utility.yul\":4264:4273   */\n      dup4\n        /* \"#utility.yul\":4260:4277   */\n      add\n        /* \"#utility.yul\":4253:4300   */\n      mstore\n        /* \"#utility.yul\":4317:4405   */\n      tag_134\n        /* \"#utility.yul\":4400:4404   */\n      dup2\n        /* \"#utility.yul\":4391:4397   */\n      dup5\n        /* \"#utility.yul\":4383:4389   */\n      dup7\n        /* \"#utility.yul\":4317:4405   */\n      tag_76\n      jump\t// in\n    tag_134:\n        /* \"#utility.yul\":4309:4405   */\n      swap1\n      pop\n        /* \"#utility.yul\":4079:4412   */\n      swap4\n      swap3\n      pop\n      pop\n      pop\n      jump\t// out\n        /* \"#utility.yul\":4418:4516   */\n    tag_77:\n        /* \"#utility.yul\":4469:4475   */\n      0x00\n        /* \"#utility.yul\":4503:4508   */\n      dup2\n        /* \"#utility.yul\":4497:4509   */\n      mload\n        /* \"#utility.yul\":4487:4509   */\n      swap1\n      pop\n        /* \"#utility.yul\":4418:4516   */\n      swap2\n      swap1\n      pop\n      jump\t// out\n        /* \"#utility.yul\":4522:4669   */\n    tag_78:\n        /* \"#utility.yul\":4623:4634   */\n      0x00\n        /* \"#utility.yul\":4660:4663   */\n      dup2\n        /* \"#utility.yul\":4645:4663   */\n      swap1\n      pop\n        /* \"#utility.yul\":4522:4669   */\n      swap3\n      swap2\n      pop\n      pop\n      jump\t// out\n        /* \"#utility.yul\":4675:5061   */\n    tag_79:\n        /* \"#utility.yul\":4779:4782   */\n      0x00\n        /* \"#utility.yul\":4807:4845   */\n      tag_138\n        /* \"#utility.yul\":4839:4844   */\n      dup3\n        /* \"#utility.yul\":4807:4845   */\n      tag_77\n      jump\t// in\n    tag_138:\n        /* \"#utility.yul\":4861:4949   */\n      tag_139\n        /* \"#utility.yul\":4942:4948   */\n      dup2\n        /* \"#utility.yul\":4937:4940   */\n      dup6\n        /* \"#utility.yul\":4861:4949   */\n      tag_78\n      jump\t// in\n    tag_139:\n        /* \"#utility.yul\":4854:4949   */\n      swap4\n      pop\n        /* \"#utility.yul\":4958:5023   */\n      tag_140\n        /* \"#utility.yul\":5016:5022   */\n      dup2\n        /* \"#utility.yul\":5011:5014   */\n      dup6\n        /* \"#utility.yul\":5004:5008   */\n      0x20\n        /* \"#utility.yul\":4997:5002   */\n      dup7\n        /* \"#utility.yul\":4993:5009   */\n      add\n        /* \"#utility.yul\":4958:5023   */\n      tag_72\n      jump\t// in\n    tag_140:\n        /* \"#utility.yul\":5048:5054   */\n      dup1\n        /* \"#utility.yul\":5043:5046   */\n      dup5\n        /* \"#utility.yul\":5039:5055   */\n      add\n        /* \"#utility.yul\":5032:5055   */\n      swap2\n      pop\n        /* \"#utility.yul\":4783:5061   */\n      pop\n        /* \"#utility.yul\":4675:5061   */\n      swap3\n      swap2\n      pop\n      pop\n      jump\t// out\n        /* \"#utility.yul\":5067:5338   */\n    tag_29:\n        /* \"#utility.yul\":5197:5200   */\n      0x00\n        /* \"#utility.yul\":5219:5312   */\n      tag_142\n        /* \"#utility.yul\":5308:5311   */\n      dup3\n        /* \"#utility.yul\":5299:5305   */\n      dup5\n        /* \"#utility.yul\":5219:5312   */\n      tag_79\n      jump\t// in\n    tag_142:\n        /* \"#utility.yul\":5212:5312   */\n      swap2\n      pop\n        /* \"#utility.yul\":5329:5332   */\n      dup2\n        /* \"#utility.yul\":5322:5332   */\n      swap1\n      pop\n        /* \"#utility.yul\":5067:5338   */\n      swap3\n      swap2\n      pop\n      pop\n      jump\t// out\n        /* \"#utility.yul\":5344:5514   */\n    tag_80:\n        /* \"#utility.yul\":5484:5506   */\n      0x63616c6c2066756e6374696f6e206661696c6564000000000000000000000000\n        /* \"#utility.yul\":5480:5481   */\n      0x00\n        /* \"#utility.yul\":5472:5478   */\n      dup3\n        /* \"#utility.yul\":5468:5482   */\n      add\n        /* \"#utility.yul\":5461:5507   */\n      mstore\n        /* \"#utility.yul\":5344:5514   */\n      pop\n      jump\t// out\n        /* \"#utility.yul\":5520:5886   */\n    tag_81:\n        /* \"#utility.yul\":5662:5665   */\n      0x00\n        /* \"#utility.yul\":5683:5750   */\n      tag_145\n        /* \"#utility.yul\":5747:5749   */\n      0x14\n        /* \"#utility.yul\":5742:5745   */\n      dup4\n        /* \"#utility.yul\":5683:5750   */\n      tag_71\n      jump\t// in\n    tag_145:\n        /* \"#utility.yul\":5676:5750   */\n      swap2\n      pop\n        /* \"#utility.yul\":5759:5852   */\n      tag_146\n        /* \"#utility.yul\":5848:5851   */\n      dup3\n        /* \"#utility.yul\":5759:5852   */\n      tag_80\n      jump\t// in\n    tag_146:\n        /* \"#utility.yul\":5877:5879   */\n      0x20\n        /* \"#utility.yul\":5872:5875   */\n      dup3\n        /* \"#utility.yul\":5868:5880   */\n      add\n        /* \"#utility.yul\":5861:5880   */\n      swap1\n      pop\n        /* \"#utility.yul\":5520:5886   */\n      swap2\n      swap1\n      pop\n      jump\t// out\n        /* \"#utility.yul\":5892:6311   */\n    tag_35:\n        /* \"#utility.yul\":6058:6062   */\n      0x00\n        /* \"#utility.yul\":6096:6098   */\n      0x20\n        /* \"#utility.yul\":6085:6094   */\n      dup3\n        /* \"#utility.yul\":6081:6099   */\n      add\n        /* \"#utility.yul\":6073:6099   */\n      swap1\n      pop\n        /* \"#utility.yul\":6145:6154   */\n      dup2\n        /* \"#utility.yul\":6139:6143   */\n      dup2\n        /* \"#utility.yul\":6135:6155   */\n      sub\n        /* \"#utility.yul\":6131:6132   */\n      0x00\n        /* \"#utility.yul\":6120:6129   */\n      dup4\n        /* \"#utility.yul\":6116:6133   */\n      add\n        /* \"#utility.yul\":6109:6156   */\n      mstore\n        /* \"#utility.yul\":6173:6304   */\n      tag_148\n        /* \"#utility.yul\":6299:6303   */\n      dup2\n        /* \"#utility.yul\":6173:6304   */\n      tag_81\n      jump\t// in\n    tag_148:\n        /* \"#utility.yul\":6165:6304   */\n      swap1\n      pop\n        /* \"#utility.yul\":5892:6311   */\n      swap2\n      swap1\n      pop\n      jump\t// out\n        /* \"#utility.yul\":6317:6434   */\n    tag_82:\n        /* \"#utility.yul\":6426:6427   */\n      0x00\n        /* \"#utility.yul\":6423:6424   */\n      dup1\n        /* \"#utility.yul\":6416:6428   */\n      revert\n        /* \"#utility.yul\":6440:6620   */\n    tag_83:\n        /* \"#utility.yul\":6488:6565   */\n      0x4e487b7100000000000000000000000000000000000000000000000000000000\n        /* \"#utility.yul\":6485:6486   */\n      0x00\n        /* \"#utility.yul\":6478:6566   */\n      mstore\n        /* \"#utility.yul\":6585:6589   */\n      0x41\n        /* \"#utility.yul\":6582:6583   */\n      0x04\n        /* \"#utility.yul\":6575:6590   */\n      mstore\n        /* \"#utility.yul\":6609:6613   */\n      0x24\n        /* \"#utility.yul\":6606:6607   */\n      0x00\n        /* \"#utility.yul\":6599:6614   */\n      revert\n        /* \"#utility.yul\":6626:6907   */\n    tag_84:\n        /* \"#utility.yul\":6709:6736   */\n      tag_152\n        /* \"#utility.yul\":6731:6735   */\n      dup3\n        /* \"#utility.yul\":6709:6736   */\n      tag_73\n      jump\t// in\n    tag_152:\n        /* \"#utility.yul\":6701:6707   */\n      dup2\n        /* \"#utility.yul\":6697:6737   */\n      add\n        /* \"#utility.yul\":6839:6845   */\n      dup2\n        /* \"#utility.yul\":6827:6837   */\n      dup2\n        /* \"#utility.yul\":6824:6846   */\n      lt\n        /* \"#utility.yul\":6803:6821   */\n      0xffffffffffffffff\n        /* \"#utility.yul\":6791:6801   */\n      dup3\n        /* \"#utility.yul\":6788:6822   */\n      gt\n        /* \"#utility.yul\":6785:6847   */\n      or\n        /* \"#utility.yul\":6782:6870   */\n      iszero\n      tag_153\n      jumpi\n        /* \"#utility.yul\":6850:6868   */\n      tag_154\n      tag_83\n      jump\t// in\n    tag_154:\n        /* \"#utility.yul\":6782:6870   */\n    tag_153:\n        /* \"#utility.yul\":6890:6900   */\n      dup1\n        /* \"#utility.yul\":6886:6888   */\n      0x40\n        /* \"#utility.yul\":6879:6901   */\n      mstore\n        /* \"#utility.yul\":6669:6907   */\n      pop\n        /* \"#utility.yul\":6626:6907   */\n      pop\n      pop\n      jump\t// out\n        /* \"#utility.yul\":6913:7042   */\n    tag_85:\n        /* \"#utility.yul\":6947:6953   */\n      0x00\n        /* \"#utility.yul\":6974:6994   */\n      tag_156\n      tag_61\n      jump\t// in\n    tag_156:\n        /* \"#utility.yul\":6964:6994   */\n      swap1\n      pop\n        /* \"#utility.yul\":7003:7036   */\n      tag_157\n        /* \"#utility.yul\":7031:7035   */\n      dup3\n        /* \"#utility.yul\":7023:7029   */\n      dup3\n        /* \"#utility.yul\":7003:7036   */\n      tag_84\n      jump\t// in\n    tag_157:\n        /* \"#utility.yul\":6913:7042   */\n      swap2\n      swap1\n      pop\n      jump\t// out\n        /* \"#utility.yul\":7048:7356   */\n    tag_86:\n        /* \"#utility.yul\":7110:7114   */\n      0x00\n        /* \"#utility.yul\":7200:7218   */\n      0xffffffffffffffff\n        /* \"#utility.yul\":7192:7198   */\n      dup3\n        /* \"#utility.yul\":7189:7219   */\n      gt\n        /* \"#utility.yul\":7186:7242   */\n      iszero\n      tag_159\n      jumpi\n        /* \"#utility.yul\":7222:7240   */\n      tag_160\n      tag_83\n      jump\t// in\n    tag_160:\n        /* \"#utility.yul\":7186:7242   */\n    tag_159:\n        /* \"#utility.yul\":7260:7289   */\n      tag_161\n        /* \"#utility.yul\":7282:7288   */\n      dup3\n        /* \"#utility.yul\":7260:7289   */\n      tag_73\n      jump\t// in\n    tag_161:\n        /* \"#utility.yul\":7252:7289   */\n      swap1\n      pop\n        /* \"#utility.yul\":7344:7348   */\n      0x20\n        /* \"#utility.yul\":7338:7342   */\n      dup2\n        /* \"#utility.yul\":7334:7349   */\n      add\n        /* \"#utility.yul\":7326:7349   */\n      swap1\n      pop\n        /* \"#utility.yul\":7048:7356   */\n      swap2\n      swap1\n      pop\n      jump\t// out\n        /* \"#utility.yul\":7362:7796   */\n    tag_87:\n        /* \"#utility.yul\":7451:7456   */\n      0x00\n        /* \"#utility.yul\":7476:7542   */\n      tag_163\n        /* \"#utility.yul\":7492:7541   */\n      tag_164\n        /* \"#utility.yul\":7534:7540   */\n      dup5\n        /* \"#utility.yul\":7492:7541   */\n      tag_86\n      jump\t// in\n    tag_164:\n        /* \"#utility.yul\":7476:7542   */\n      tag_85\n      jump\t// in\n    tag_163:\n        /* \"#utility.yul\":7467:7542   */\n      swap1\n      pop\n        /* \"#utility.yul\":7565:7571   */\n      dup3\n        /* \"#utility.yul\":7558:7563   */\n      dup2\n        /* \"#utility.yul\":7551:7572   */\n      mstore\n        /* \"#utility.yul\":7603:7607   */\n      0x20\n        /* \"#utility.yul\":7596:7601   */\n      dup2\n        /* \"#utility.yul\":7592:7608   */\n      add\n        /* \"#utility.yul\":7641:7644   */\n      dup5\n        /* \"#utility.yul\":7632:7638   */\n      dup5\n        /* \"#utility.yul\":7627:7630   */\n      dup5\n        /* \"#utility.yul\":7623:7639   */\n      add\n        /* \"#utility.yul\":7620:7645   */\n      gt\n        /* \"#utility.yul\":7617:7729   */\n      iszero\n      tag_165\n      jumpi\n        /* \"#utility.yul\":7648:7727   */\n      tag_166\n      tag_82\n      jump\t// in\n    tag_166:\n        /* \"#utility.yul\":7617:7729   */\n    tag_165:\n        /* \"#utility.yul\":7738:7790   */\n      tag_167\n        /* \"#utility.yul\":7783:7789   */\n      dup5\n        /* \"#utility.yul\":7778:7781   */\n      dup3\n        /* \"#utility.yul\":7773:7776   */\n      dup6\n        /* \"#utility.yul\":7738:7790   */\n      tag_72\n      jump\t// in\n    tag_167:\n        /* \"#utility.yul\":7457:7796   */\n      pop\n        /* \"#utility.yul\":7362:7796   */\n      swap4\n      swap3\n      pop\n      pop\n      pop\n      jump\t// out\n        /* \"#utility.yul\":7816:8171   */\n    tag_88:\n        /* \"#utility.yul\":7883:7888   */\n      0x00\n        /* \"#utility.yul\":7932:7935   */\n      dup3\n        /* \"#utility.yul\":7925:7929   */\n      0x1f\n        /* \"#utility.yul\":7917:7923   */\n      dup4\n        /* \"#utility.yul\":7913:7930   */\n      add\n        /* \"#utility.yul\":7909:7936   */\n      slt\n        /* \"#utility.yul\":7899:8021   */\n      tag_169\n      jumpi\n        /* \"#utility.yul\":7940:8019   */\n      tag_170\n      tag_64\n      jump\t// in\n    tag_170:\n        /* \"#utility.yul\":7899:8021   */\n    tag_169:\n        /* \"#utility.yul\":8050:8056   */\n      dup2\n        /* \"#utility.yul\":8044:8057   */\n      mload\n        /* \"#utility.yul\":8075:8165   */\n      tag_171\n        /* \"#utility.yul\":8161:8164   */\n      dup5\n        /* \"#utility.yul\":8153:8159   */\n      dup3\n        /* \"#utility.yul\":8146:8150   */\n      0x20\n        /* \"#utility.yul\":8138:8144   */\n      dup7\n        /* \"#utility.yul\":8134:8151   */\n      add\n        /* \"#utility.yul\":8075:8165   */\n      tag_87\n      jump\t// in\n    tag_171:\n        /* \"#utility.yul\":8066:8165   */\n      swap2\n      pop\n        /* \"#utility.yul\":7889:8171   */\n      pop\n        /* \"#utility.yul\":7816:8171   */\n      swap3\n      swap2\n      pop\n      pop\n      jump\t// out\n        /* \"#utility.yul\":8177:8701   */\n    tag_52:\n        /* \"#utility.yul\":8257:8263   */\n      0x00\n        /* \"#utility.yul\":8306:8308   */\n      0x20\n        /* \"#utility.yul\":8294:8303   */\n      dup3\n        /* \"#utility.yul\":8285:8292   */\n      dup5\n        /* \"#utility.yul\":8281:8304   */\n      sub\n        /* \"#utility.yul\":8277:8309   */\n      slt\n        /* \"#utility.yul\":8274:8393   */\n      iszero\n      tag_173\n      jumpi\n        /* \"#utility.yul\":8312:8391   */\n      tag_174\n      tag_62\n      jump\t// in\n    tag_174:\n        /* \"#utility.yul\":8274:8393   */\n    tag_173:\n        /* \"#utility.yul\":8453:8454   */\n      0x00\n        /* \"#utility.yul\":8442:8451   */\n      dup3\n        /* \"#utility.yul\":8438:8455   */\n      add\n        /* \"#utility.yul\":8432:8456   */\n      mload\n        /* \"#utility.yul\":8483:8501   */\n      0xffffffffffffffff\n        /* \"#utility.yul\":8475:8481   */\n      dup2\n        /* \"#utility.yul\":8472:8502   */\n      gt\n        /* \"#utility.yul\":8469:8586   */\n      iszero\n      tag_175\n      jumpi\n        /* \"#utility.yul\":8505:8584   */\n      tag_176\n      tag_63\n      jump\t// in\n    tag_176:\n        /* \"#utility.yul\":8469:8586   */\n    tag_175:\n        /* \"#utility.yul\":8610:8684   */\n      tag_177\n        /* \"#utility.yul\":8676:8683   */\n      dup5\n        /* \"#utility.yul\":8667:8673   */\n      dup3\n        /* \"#utility.yul\":8656:8665   */\n      dup6\n        /* \"#utility.yul\":8652:8674   */\n      add\n        /* \"#utility.yul\":8610:8684   */\n      tag_88\n      jump\t// in\n    tag_177:\n        /* \"#utility.yul\":8600:8684   */\n      swap2\n      pop\n        /* \"#utility.yul\":8403:8694   */\n      pop\n        /* \"#utility.yul\":8177:8701   */\n      swap3\n      swap2\n      pop\n      pop\n      jump\t// out\n\n    auxdata: 0xa2646970667358221220befb32acec0302024b92fb13498748f4689340146bbeb12a541cec4cbf8f672464736f6c63430008110033\n}\n",
				"bytecode": {
					"linkReferences": {},
					"object": "608060405234801561001057600080fd5b50604051610c02380380610c02833981810160405281019061003291906100db565b806000806101000a81548173ffffffffffffffffffffffffffffffffffffffff021916908373ffffffffffffffffffffffffffffffffffffffff16021790555050610108565b600080fd5b600073ffffffffffffffffffffffffffffffffffffffff82169050919050565b60006100a88261007d565b9050919050565b6100b88161009d565b81146100c357600080fd5b50565b6000815190506100d5816100af565b92915050565b6000602082840312156100f1576100f0610078565b5b60006100ff848285016100c6565b91505092915050565b610aeb806101176000396000f3fe608060405234801561001057600080fd5b506004361061004c5760003560e01c80632971e81f14610051578063424d571c1461008157806370d1c75b146100b157806376db04d4146100cf575b600080fd5b61006b600480360381019061006691906106ec565b6100ff565b6040516100789190610754565b60405180910390f35b61009b600480360381019061009691906106ec565b61026d565b6040516100a89190610754565b60405180910390f35b6100b96103c3565b6040516100c691906107ff565b60405180910390f35b6100e960048036038101906100e491906106ec565b61053d565b6040516100f69190610754565b60405180910390f35b600080838360405160240161011592919061085d565b6040516020818303038152906040527f47064d6a000000000000000000000000000000000000000000000000000000007bffffffffffffffffffffffffffffffffffffffffffffffffffffffff19166020820180517bffffffffffffffffffffffffffffffffffffffffffffffffffffffff8381831617835250505050905060008060009054906101000a900473ffffffffffffffffffffffffffffffffffffffff1673ffffffffffffffffffffffffffffffffffffffff16826040516101dc91906108c8565b6000604051808303816000865af19150503d8060008114610219576040519150601f19603f3d011682016040523d82523d6000602084013e61021e565b606091505b5050905080610262576040517f08c379a00000000000000000000000000000000000000000000000000000000081526004016102599061092b565b60405180910390fd5b809250505092915050565b6000806347064d6a60e01b848460405160240161028b92919061085d565b604051602081830303815290604052907bffffffffffffffffffffffffffffffffffffffffffffffffffffffff19166020820180517bffffffffffffffffffffffffffffffffffffffffffffffffffffffff8381831617835250505050905060008060009054906101000a900473ffffffffffffffffffffffffffffffffffffffff1673ffffffffffffffffffffffffffffffffffffffff168260405161033291906108c8565b6000604051808303816000865af19150503d806000811461036f576040519150601f19603f3d011682016040523d82523d6000602084013e610374565b606091505b50509050806103b8576040517f08c379a00000000000000000000000000000000000000000000000000000000081526004016103af9061092b565b60405180910390fd5b809250505092915050565b606060006040516024016040516020818303038152906040527f8a4c8dab000000000000000000000000000000000000000000000000000000007bffffffffffffffffffffffffffffffffffffffffffffffffffffffff19166020820180517bffffffffffffffffffffffffffffffffffffffffffffffffffffffff8381831617835250505050905060008060008054906101000a900473ffffffffffffffffffffffffffffffffffffffff1673ffffffffffffffffffffffffffffffffffffffff168360405161049491906108c8565b6000604051808303816000865af19150503d80600081146104d1576040519150601f19603f3d011682016040523d82523d6000602084013e6104d6565b606091505b50915091508161051b576040517f08c379a00000000000000000000000000000000000000000000000000000000081526004016105129061092b565b60405180910390fd5b6000818060200190518101906105319190610a6c565b90508094505050505090565b600080838360405160240161055392919061085d565b6040516020818303038152906040526347064d6a60e01b6020820180517bffffffffffffffffffffffffffffffffffffffffffffffffffffffff8381831617835250505050905060008060009054906101000a900473ffffffffffffffffffffffffffffffffffffffff1673ffffffffffffffffffffffffffffffffffffffff16826040516105e291906108c8565b6000604051808303816000865af19150503d806000811461061f576040519150601f19603f3d011682016040523d82523d6000602084013e610624565b606091505b5050905080610668576040517f08c379a000000000000000000000000000000000000000000000000000000000815260040161065f9061092b565b60405180910390fd5b809250505092915050565b6000604051905090565b600080fd5b600080fd5b600080fd5b600080fd5b600080fd5b60008083601f8401126106ac576106ab610687565b5b8235905067ffffffffffffffff8111156106c9576106c861068c565b5b6020830191508360018202830111156106e5576106e4610691565b5b9250929050565b600080602083850312156107035761070261067d565b5b600083013567ffffffffffffffff81111561072157610720610682565b5b61072d85828601610696565b92509250509250929050565b60008115159050919050565b61074e81610739565b82525050565b60006020820190506107696000830184610745565b92915050565b600081519050919050565b600082825260208201905092915050565b60005b838110156107a957808201518184015260208101905061078e565b60008484015250505050565b6000601f19601f8301169050919050565b60006107d18261076f565b6107db818561077a565b93506107eb81856020860161078b565b6107f4816107b5565b840191505092915050565b6000602082019050818103600083015261081981846107c6565b905092915050565b82818337600083830152505050565b600061083c838561077a565b9350610849838584610821565b610852836107b5565b840190509392505050565b60006020820190508181036000830152610878818486610830565b90509392505050565b600081519050919050565b600081905092915050565b60006108a282610881565b6108ac818561088c565b93506108bc81856020860161078b565b80840191505092915050565b60006108d48284610897565b915081905092915050565b7f63616c6c2066756e6374696f6e206661696c6564000000000000000000000000600082015250565b600061091560148361077a565b9150610920826108df565b602082019050919050565b6000602082019050818103600083015261094481610908565b9050919050565b600080fd5b7f4e487b7100000000000000000000000000000000000000000000000000000000600052604160045260246000fd5b610988826107b5565b810181811067ffffffffffffffff821117156109a7576109a6610950565b5b80604052505050565b60006109ba610673565b90506109c6828261097f565b919050565b600067ffffffffffffffff8211156109e6576109e5610950565b5b6109ef826107b5565b9050602081019050919050565b6000610a0f610a0a846109cb565b6109b0565b905082815260208101848484011115610a2b57610a2a61094b565b5b610a3684828561078b565b509392505050565b600082601f830112610a5357610a52610687565b5b8151610a638482602086016109fc565b91505092915050565b600060208284031215610a8257610a8161067d565b5b600082015167ffffffffffffffff811115610aa057610a9f610682565b5b610aac84828501610a3e565b9150509291505056fea2646970667358221220befb32acec0302024b92fb13498748f4689340146bbeb12a541cec4cbf8f672464736f6c63430008110033",
					"opcodes": "PUSH1 0x80 PUSH1 0x40 MSTORE CALLVALUE DUP1 ISZERO PUSH2 0x10 JUMPI PUSH1 0x0 DUP1 REVERT JUMPDEST POP PUSH1 0x40 MLOAD PUSH2 0xC02 CODESIZE SUB DUP1 PUSH2 0xC02 DUP4 CODECOPY DUP2 DUP2 ADD PUSH1 0x40 MSTORE DUP2 ADD SWAP1 PUSH2 0x32 SWAP2 SWAP1 PUSH2 0xDB JUMP JUMPDEST DUP1 PUSH1 0x0 DUP1 PUSH2 0x100 EXP DUP2 SLOAD DUP2 PUSH20 0xFFFFFFFFFFFFFFFFFFFFFFFFFFFFFFFFFFFFFFFF MUL NOT AND SWAP1 DUP4 PUSH20 0xFFFFFFFFFFFFFFFFFFFFFFFFFFFFFFFFFFFFFFFF AND MUL OR SWAP1 SSTORE POP POP PUSH2 0x108 JUMP JUMPDEST PUSH1 0x0 DUP1 REVERT JUMPDEST PUSH1 0x0 PUSH20 0xFFFFFFFFFFFFFFFFFFFFFFFFFFFFFFFFFFFFFFFF DUP3 AND SWAP1 POP SWAP2 SWAP1 POP JUMP JUMPDEST PUSH1 0x0 PUSH2 0xA8 DUP3 PUSH2 0x7D JUMP JUMPDEST SWAP1 POP SWAP2 SWAP1 POP JUMP JUMPDEST PUSH2 0xB8 DUP2 PUSH2 0x9D JUMP JUMPDEST DUP2 EQ PUSH2 0xC3 JUMPI PUSH1 0x0 DUP1 REVERT JUMPDEST POP JUMP JUMPDEST PUSH1 0x0 DUP2 MLOAD SWAP1 POP PUSH2 0xD5 DUP2 PUSH2 0xAF JUMP JUMPDEST SWAP3 SWAP2 POP POP JUMP JUMPDEST PUSH1 0x0 PUSH1 0x20 DUP3 DUP5 SUB SLT ISZERO PUSH2 0xF1 JUMPI PUSH2 0xF0 PUSH2 0x78 JUMP JUMPDEST JUMPDEST PUSH1 0x0 PUSH2 0xFF DUP5 DUP3 DUP6 ADD PUSH2 0xC6 JUMP JUMPDEST SWAP2 POP POP SWAP3 SWAP2 POP POP JUMP JUMPDEST PUSH2 0xAEB DUP1 PUSH2 0x117 PUSH1 0x0 CODECOPY PUSH1 0x0 RETURN INVALID PUSH1 0x80 PUSH1 0x40 MSTORE CALLVALUE DUP1 ISZERO PUSH2 0x10 JUMPI PUSH1 0x0 DUP1 REVERT JUMPDEST POP PUSH1 0x4 CALLDATASIZE LT PUSH2 0x4C JUMPI PUSH1 0x0 CALLDATALOAD PUSH1 0xE0 SHR DUP1 PUSH4 0x2971E81F EQ PUSH2 0x51 JUMPI DUP1 PUSH4 0x424D571C EQ PUSH2 0x81 JUMPI DUP1 PUSH4 0x70D1C75B EQ PUSH2 0xB1 JUMPI DUP1 PUSH4 0x76DB04D4 EQ PUSH2 0xCF JUMPI JUMPDEST PUSH1 0x0 DUP1 REVERT JUMPDEST PUSH2 0x6B PUSH1 0x4 DUP1 CALLDATASIZE SUB DUP2 ADD SWAP1 PUSH2 0x66 SWAP2 SWAP1 PUSH2 0x6EC JUMP JUMPDEST PUSH2 0xFF JUMP JUMPDEST PUSH1 0x40 MLOAD PUSH2 0x78 SWAP2 SWAP1 PUSH2 0x754 JUMP JUMPDEST PUSH1 0x40 MLOAD DUP1 SWAP2 SUB SWAP1 RETURN JUMPDEST PUSH2 0x9B PUSH1 0x4 DUP1 CALLDATASIZE SUB DUP2 ADD SWAP1 PUSH2 0x96 SWAP2 SWAP1 PUSH2 0x6EC JUMP JUMPDEST PUSH2 0x26D JUMP JUMPDEST PUSH1 0x40 MLOAD PUSH2 0xA8 SWAP2 SWAP1 PUSH2 0x754 JUMP JUMPDEST PUSH1 0x40 MLOAD DUP1 SWAP2 SUB SWAP1 RETURN JUMPDEST PUSH2 0xB9 PUSH2 0x3C3 JUMP JUMPDEST PUSH1 0x40 MLOAD PUSH2 0xC6 SWAP2 SWAP1 PUSH2 0x7FF JUMP JUMPDEST PUSH1 0x40 MLOAD DUP1 SWAP2 SUB SWAP1 RETURN JUMPDEST PUSH2 0xE9 PUSH1 0x4 DUP1 CALLDATASIZE SUB DUP2 ADD SWAP1 PUSH2 0xE4 SWAP2 SWAP1 PUSH2 0x6EC JUMP JUMPDEST PUSH2 0x53D JUMP JUMPDEST PUSH1 0x40 MLOAD PUSH2 0xF6 SWAP2 SWAP1 PUSH2 0x754 JUMP JUMPDEST PUSH1 0x40 MLOAD DUP1 SWAP2 SUB SWAP1 RETURN JUMPDEST PUSH1 0x0 DUP1 DUP4 DUP4 PUSH1 0x40 MLOAD PUSH1 0x24 ADD PUSH2 0x115 SWAP3 SWAP2 SWAP1 PUSH2 0x85D JUMP JUMPDEST PUSH1 0x40 MLOAD PUSH1 0x20 DUP2 DUP4 SUB SUB DUP2 MSTORE SWAP1 PUSH1 0x40 MSTORE PUSH32 0x47064D6A00000000000000000000000000000000000000000000000000000000 PUSH28 0xFFFFFFFFFFFFFFFFFFFFFFFFFFFFFFFFFFFFFFFFFFFFFFFFFFFFFFFF NOT AND PUSH1 0x20 DUP3 ADD DUP1 MLOAD PUSH28 0xFFFFFFFFFFFFFFFFFFFFFFFFFFFFFFFFFFFFFFFFFFFFFFFFFFFFFFFF DUP4 DUP2 DUP4 AND OR DUP4 MSTORE POP POP POP POP SWAP1 POP PUSH1 0x0 DUP1 PUSH1 0x0 SWAP1 SLOAD SWAP1 PUSH2 0x100 EXP SWAP1 DIV PUSH20 0xFFFFFFFFFFFFFFFFFFFFFFFFFFFFFFFFFFFFFFFF AND PUSH20 0xFFFFFFFFFFFFFFFFFFFFFFFFFFFFFFFFFFFFFFFF AND DUP3 PUSH1 0x40 MLOAD PUSH2 0x1DC SWAP2 SWAP1 PUSH2 0x8C8 JUMP JUMPDEST PUSH1 0x0 PUSH1 0x40 MLOAD DUP1 DUP4 SUB DUP2 PUSH1 0x0 DUP7 GAS CALL SWAP2 POP POP RETURNDATASIZE DUP1 PUSH1 0x0 DUP2 EQ PUSH2 0x219 JUMPI PUSH1 0x40 MLOAD SWAP2 POP PUSH1 0x1F NOT PUSH1 0x3F RETURNDATASIZE ADD AND DUP3 ADD PUSH1 0x40 MSTORE RETURNDATASIZE DUP3 MSTORE RETURNDATASIZE PUSH1 0x0 PUSH1 0x20 DUP5 ADD RETURNDATACOPY PUSH2 0x21E JUMP JUMPDEST PUSH1 0x60 SWAP2 POP JUMPDEST POP POP SWAP1 POP DUP1 PUSH2 0x262 JUMPI PUSH1 0x40 MLOAD PUSH32 0x8C379A000000000000000000000000000000000000000000000000000000000 DUP2 MSTORE PUSH1 0x4 ADD PUSH2 0x259 SWAP1 PUSH2 0x92B JUMP JUMPDEST PUSH1 0x40 MLOAD DUP1 SWAP2 SUB SWAP1 REVERT JUMPDEST DUP1 SWAP3 POP POP POP SWAP3 SWAP2 POP POP JUMP JUMPDEST PUSH1 0x0 DUP1 PUSH4 0x47064D6A PUSH1 0xE0 SHL DUP5 DUP5 PUSH1 0x40 MLOAD PUSH1 0x24 ADD PUSH2 0x28B SWAP3 SWAP2 SWAP1 PUSH2 0x85D JUMP JUMPDEST PUSH1 0x40 MLOAD PUSH1 0x20 DUP2 DUP4 SUB SUB DUP2 MSTORE SWAP1 PUSH1 0x40 MSTORE SWAP1 PUSH28 0xFFFFFFFFFFFFFFFFFFFFFFFFFFFFFFFFFFFFFFFFFFFFFFFFFFFFFFFF NOT AND PUSH1 0x20 DUP3 ADD DUP1 MLOAD PUSH28 0xFFFFFFFFFFFFFFFFFFFFFFFFFFFFFFFFFFFFFFFFFFFFFFFFFFFFFFFF DUP4 DUP2 DUP4 AND OR DUP4 MSTORE POP POP POP POP SWAP1 POP PUSH1 0x0 DUP1 PUSH1 0x0 SWAP1 SLOAD SWAP1 PUSH2 0x100 EXP SWAP1 DIV PUSH20 0xFFFFFFFFFFFFFFFFFFFFFFFFFFFFFFFFFFFFFFFF AND PUSH20 0xFFFFFFFFFFFFFFFFFFFFFFFFFFFFFFFFFFFFFFFF AND DUP3 PUSH1 0x40 MLOAD PUSH2 0x332 SWAP2 SWAP1 PUSH2 0x8C8 JUMP JUMPDEST PUSH1 0x0 PUSH1 0x40 MLOAD DUP1 DUP4 SUB DUP2 PUSH1 0x0 DUP7 GAS CALL SWAP2 POP POP RETURNDATASIZE DUP1 PUSH1 0x0 DUP2 EQ PUSH2 0x36F JUMPI PUSH1 0x40 MLOAD SWAP2 POP PUSH1 0x1F NOT PUSH1 0x3F RETURNDATASIZE ADD AND DUP3 ADD PUSH1 0x40 MSTORE RETURNDATASIZE DUP3 MSTORE RETURNDATASIZE PUSH1 0x0 PUSH1 0x20 DUP5 ADD RETURNDATACOPY PUSH2 0x374 JUMP JUMPDEST PUSH1 0x60 SWAP2 POP JUMPDEST POP POP SWAP1 POP DUP1 PUSH2 0x3B8 JUMPI PUSH1 0x40 MLOAD PUSH32 0x8C379A000000000000000000000000000000000000000000000000000000000 DUP2 MSTORE PUSH1 0x4 ADD PUSH2 0x3AF SWAP1 PUSH2 0x92B JUMP JUMPDEST PUSH1 0x40 MLOAD DUP1 SWAP2 SUB SWAP1 REVERT JUMPDEST DUP1 SWAP3 POP POP POP SWAP3 SWAP2 POP POP JUMP JUMPDEST PUSH1 0x60 PUSH1 0x0 PUSH1 0x40 MLOAD PUSH1 0x24 ADD PUSH1 0x40 MLOAD PUSH1 0x20 DUP2 DUP4 SUB SUB DUP2 MSTORE SWAP1 PUSH1 0x40 MSTORE PUSH32 0x8A4C8DAB00000000000000000000000000000000000000000000000000000000 PUSH28 0xFFFFFFFFFFFFFFFFFFFFFFFFFFFFFFFFFFFFFFFFFFFFFFFFFFFFFFFF NOT AND PUSH1 0x20 DUP3 ADD DUP1 MLOAD PUSH28 0xFFFFFFFFFFFFFFFFFFFFFFFFFFFFFFFFFFFFFFFFFFFFFFFFFFFFFFFF DUP4 DUP2 DUP4 AND OR DUP4 MSTORE POP POP POP POP SWAP1 POP PUSH1 0x0 DUP1 PUSH1 0x0 DUP1 SLOAD SWAP1 PUSH2 0x100 EXP SWAP1 DIV PUSH20 0xFFFFFFFFFFFFFFFFFFFFFFFFFFFFFFFFFFFFFFFF AND PUSH20 0xFFFFFFFFFFFFFFFFFFFFFFFFFFFFFFFFFFFFFFFF AND DUP4 PUSH1 0x40 MLOAD PUSH2 0x494 SWAP2 SWAP1 PUSH2 0x8C8 JUMP JUMPDEST PUSH1 0x0 PUSH1 0x40 MLOAD DUP1 DUP4 SUB DUP2 PUSH1 0x0 DUP7 GAS CALL SWAP2 POP POP RETURNDATASIZE DUP1 PUSH1 0x0 DUP2 EQ PUSH2 0x4D1 JUMPI PUSH1 0x40 MLOAD SWAP2 POP PUSH1 0x1F NOT PUSH1 0x3F RETURNDATASIZE ADD AND DUP3 ADD PUSH1 0x40 MSTORE RETURNDATASIZE DUP3 MSTORE RETURNDATASIZE PUSH1 0x0 PUSH1 0x20 DUP5 ADD RETURNDATACOPY PUSH2 0x4D6 JUMP JUMPDEST PUSH1 0x60 SWAP2 POP JUMPDEST POP SWAP2 POP SWAP2 POP DUP2 PUSH2 0x51B JUMPI PUSH1 0x40 MLOAD PUSH32 0x8C379A000000000000000000000000000000000000000000000000000000000 DUP2 MSTORE PUSH1 0x4 ADD PUSH2 0x512 SWAP1 PUSH2 0x92B JUMP JUMPDEST PUSH1 0x40 MLOAD DUP1 SWAP2 SUB SWAP1 REVERT JUMPDEST PUSH1 0x0 DUP2 DUP1 PUSH1 0x20 ADD SWAP1 MLOAD DUP2 ADD SWAP1 PUSH2 0x531 SWAP2 SWAP1 PUSH2 0xA6C JUMP JUMPDEST SWAP1 POP DUP1 SWAP5 POP POP POP POP POP SWAP1 JUMP JUMPDEST PUSH1 0x0 DUP1 DUP4 DUP4 PUSH1 0x40 MLOAD PUSH1 0x24 ADD PUSH2 0x553 SWAP3 SWAP2 SWAP1 PUSH2 0x85D JUMP JUMPDEST PUSH1 0x40 MLOAD PUSH1 0x20 DUP2 DUP4 SUB SUB DUP2 MSTORE SWAP1 PUSH1 0x40 MSTORE PUSH4 0x47064D6A PUSH1 0xE0 SHL PUSH1 0x20 DUP3 ADD DUP1 MLOAD PUSH28 0xFFFFFFFFFFFFFFFFFFFFFFFFFFFFFFFFFFFFFFFFFFFFFFFFFFFFFFFF DUP4 DUP2 DUP4 AND OR DUP4 MSTORE POP POP POP POP SWAP1 POP PUSH1 0x0 DUP1 PUSH1 0x0 SWAP1 SLOAD SWAP1 PUSH2 0x100 EXP SWAP1 DIV PUSH20 0xFFFFFFFFFFFFFFFFFFFFFFFFFFFFFFFFFFFFFFFF AND PUSH20 0xFFFFFFFFFFFFFFFFFFFFFFFFFFFFFFFFFFFFFFFF AND DUP3 PUSH1 0x40 MLOAD PUSH2 0x5E2 SWAP2 SWAP1 PUSH2 0x8C8 JUMP JUMPDEST PUSH1 0x0 PUSH1 0x40 MLOAD DUP1 DUP4 SUB DUP2 PUSH1 0x0 DUP7 GAS CALL SWAP2 POP POP RETURNDATASIZE DUP1 PUSH1 0x0 DUP2 EQ PUSH2 0x61F JUMPI PUSH1 0x40 MLOAD SWAP2 POP PUSH1 0x1F NOT PUSH1 0x3F RETURNDATASIZE ADD AND DUP3 ADD PUSH1 0x40 MSTORE RETURNDATASIZE DUP3 MSTORE RETURNDATASIZE PUSH1 0x0 PUSH1 0x20 DUP5 ADD RETURNDATACOPY PUSH2 0x624 JUMP JUMPDEST PUSH1 0x60 SWAP2 POP JUMPDEST POP POP SWAP1 POP DUP1 PUSH2 0x668 JUMPI PUSH1 0x40 MLOAD PUSH32 0x8C379A000000000000000000000000000000000000000000000000000000000 DUP2 MSTORE PUSH1 0x4 ADD PUSH2 0x65F SWAP1 PUSH2 0x92B JUMP JUMPDEST PUSH1 0x40 MLOAD DUP1 SWAP2 SUB SWAP1 REVERT JUMPDEST DUP1 SWAP3 POP POP POP SWAP3 SWAP2 POP POP JUMP JUMPDEST PUSH1 0x0 PUSH1 0x40 MLOAD SWAP1 POP SWAP1 JUMP JUMPDEST PUSH1 0x0 DUP1 REVERT JUMPDEST PUSH1 0x0 DUP1 REVERT JUMPDEST PUSH1 0x0 DUP1 REVERT JUMPDEST PUSH1 0x0 DUP1 REVERT JUMPDEST PUSH1 0x0 DUP1 REVERT JUMPDEST PUSH1 0x0 DUP1 DUP4 PUSH1 0x1F DUP5 ADD SLT PUSH2 0x6AC JUMPI PUSH2 0x6AB PUSH2 0x687 JUMP JUMPDEST JUMPDEST DUP3 CALLDATALOAD SWAP1 POP PUSH8 0xFFFFFFFFFFFFFFFF DUP2 GT ISZERO PUSH2 0x6C9 JUMPI PUSH2 0x6C8 PUSH2 0x68C JUMP JUMPDEST JUMPDEST PUSH1 0x20 DUP4 ADD SWAP2 POP DUP4 PUSH1 0x1 DUP3 MUL DUP4 ADD GT ISZERO PUSH2 0x6E5 JUMPI PUSH2 0x6E4 PUSH2 0x691 JUMP JUMPDEST JUMPDEST SWAP3 POP SWAP3 SWAP1 POP JUMP JUMPDEST PUSH1 0x0 DUP1 PUSH1 0x20 DUP4 DUP6 SUB SLT ISZERO PUSH2 0x703 JUMPI PUSH2 0x702 PUSH2 0x67D JUMP JUMPDEST JUMPDEST PUSH1 0x0 DUP4 ADD CALLDATALOAD PUSH8 0xFFFFFFFFFFFFFFFF DUP2 GT ISZERO PUSH2 0x721 JUMPI PUSH2 0x720 PUSH2 0x682 JUMP JUMPDEST JUMPDEST PUSH2 0x72D DUP6 DUP3 DUP7 ADD PUSH2 0x696 JUMP JUMPDEST SWAP3 POP SWAP3 POP POP SWAP3 POP SWAP3 SWAP1 POP JUMP JUMPDEST PUSH1 0x0 DUP2 ISZERO ISZERO SWAP1 POP SWAP2 SWAP1 POP JUMP JUMPDEST PUSH2 0x74E DUP2 PUSH2 0x739 JUMP JUMPDEST DUP3 MSTORE POP POP JUMP JUMPDEST PUSH1 0x0 PUSH1 0x20 DUP3 ADD SWAP1 POP PUSH2 0x769 PUSH1 0x0 DUP4 ADD DUP5 PUSH2 0x745 JUMP JUMPDEST SWAP3 SWAP2 POP POP JUMP JUMPDEST PUSH1 0x0 DUP2 MLOAD SWAP1 POP SWAP2 SWAP1 POP JUMP JUMPDEST PUSH1 0x0 DUP3 DUP3 MSTORE PUSH1 0x20 DUP3 ADD SWAP1 POP SWAP3 SWAP2 POP POP JUMP JUMPDEST PUSH1 0x0 JUMPDEST DUP4 DUP2 LT ISZERO PUSH2 0x7A9 JUMPI DUP1 DUP3 ADD MLOAD DUP2 DUP5 ADD MSTORE PUSH1 0x20 DUP2 ADD SWAP1 POP PUSH2 0x78E JUMP JUMPDEST PUSH1 0x0 DUP5 DUP5 ADD MSTORE POP POP POP POP JUMP JUMPDEST PUSH1 0x0 PUSH1 0x1F NOT PUSH1 0x1F DUP4 ADD AND SWAP1 POP SWAP2 SWAP1 POP JUMP JUMPDEST PUSH1 0x0 PUSH2 0x7D1 DUP3 PUSH2 0x76F JUMP JUMPDEST PUSH2 0x7DB DUP2 DUP6 PUSH2 0x77A JUMP JUMPDEST SWAP4 POP PUSH2 0x7EB DUP2 DUP6 PUSH1 0x20 DUP7 ADD PUSH2 0x78B JUMP JUMPDEST PUSH2 0x7F4 DUP2 PUSH2 0x7B5 JUMP JUMPDEST DUP5 ADD SWAP2 POP POP SWAP3 SWAP2 POP POP JUMP JUMPDEST PUSH1 0x0 PUSH1 0x20 DUP3 ADD SWAP1 POP DUP2 DUP2 SUB PUSH1 0x0 DUP4 ADD MSTORE PUSH2 0x819 DUP2 DUP5 PUSH2 0x7C6 JUMP JUMPDEST SWAP1 POP SWAP3 SWAP2 POP POP JUMP JUMPDEST DUP3 DUP2 DUP4 CALLDATACOPY PUSH1 0x0 DUP4 DUP4 ADD MSTORE POP POP POP JUMP JUMPDEST PUSH1 0x0 PUSH2 0x83C DUP4 DUP6 PUSH2 0x77A JUMP JUMPDEST SWAP4 POP PUSH2 0x849 DUP4 DUP6 DUP5 PUSH2 0x821 JUMP JUMPDEST PUSH2 0x852 DUP4 PUSH2 0x7B5 JUMP JUMPDEST DUP5 ADD SWAP1 POP SWAP4 SWAP3 POP POP POP JUMP JUMPDEST PUSH1 0x0 PUSH1 0x20 DUP3 ADD SWAP1 POP DUP2 DUP2 SUB PUSH1 0x0 DUP4 ADD MSTORE PUSH2 0x878 DUP2 DUP5 DUP7 PUSH2 0x830 JUMP JUMPDEST SWAP1 POP SWAP4 SWAP3 POP POP POP JUMP JUMPDEST PUSH1 0x0 DUP2 MLOAD SWAP1 POP SWAP2 SWAP1 POP JUMP JUMPDEST PUSH1 0x0 DUP2 SWAP1 POP SWAP3 SWAP2 POP POP JUMP JUMPDEST PUSH1 0x0 PUSH2 0x8A2 DUP3 PUSH2 0x881 JUMP JUMPDEST PUSH2 0x8AC DUP2 DUP6 PUSH2 0x88C JUMP JUMPDEST SWAP4 POP PUSH2 0x8BC DUP2 DUP6 PUSH1 0x20 DUP7 ADD PUSH2 0x78B JUMP JUMPDEST DUP1 DUP5 ADD SWAP2 POP POP SWAP3 SWAP2 POP POP JUMP JUMPDEST PUSH1 0x0 PUSH2 0x8D4 DUP3 DUP5 PUSH2 0x897 JUMP JUMPDEST SWAP2 POP DUP2 SWAP1 POP SWAP3 SWAP2 POP POP JUMP JUMPDEST PUSH32 0x63616C6C2066756E6374696F6E206661696C6564000000000000000000000000 PUSH1 0x0 DUP3 ADD MSTORE POP JUMP JUMPDEST PUSH1 0x0 PUSH2 0x915 PUSH1 0x14 DUP4 PUSH2 0x77A JUMP JUMPDEST SWAP2 POP PUSH2 0x920 DUP3 PUSH2 0x8DF JUMP JUMPDEST PUSH1 0x20 DUP3 ADD SWAP1 POP SWAP2 SWAP1 POP JUMP JUMPDEST PUSH1 0x0 PUSH1 0x20 DUP3 ADD SWAP1 POP DUP2 DUP2 SUB PUSH1 0x0 DUP4 ADD MSTORE PUSH2 0x944 DUP2 PUSH2 0x908 JUMP JUMPDEST SWAP1 POP SWAP2 SWAP1 POP JUMP JUMPDEST PUSH1 0x0 DUP1 REVERT JUMPDEST PUSH32 0x4E487B7100000000000000000000000000000000000000000000000000000000 PUSH1 0x0 MSTORE PUSH1 0x41 PUSH1 0x4 MSTORE PUSH1 0x24 PUSH1 0x0 REVERT JUMPDEST PUSH2 0x988 DUP3 PUSH2 0x7B5 JUMP JUMPDEST DUP2 ADD DUP2 DUP2 LT PUSH8 0xFFFFFFFFFFFFFFFF DUP3 GT OR ISZERO PUSH2 0x9A7 JUMPI PUSH2 0x9A6 PUSH2 0x950 JUMP JUMPDEST JUMPDEST DUP1 PUSH1 0x40 MSTORE POP POP POP JUMP JUMPDEST PUSH1 0x0 PUSH2 0x9BA PUSH2 0x673 JUMP JUMPDEST SWAP1 POP PUSH2 0x9C6 DUP3 DUP3 PUSH2 0x97F JUMP JUMPDEST SWAP2 SWAP1 POP JUMP JUMPDEST PUSH1 0x0 PUSH8 0xFFFFFFFFFFFFFFFF DUP3 GT ISZERO PUSH2 0x9E6 JUMPI PUSH2 0x9E5 PUSH2 0x950 JUMP JUMPDEST JUMPDEST PUSH2 0x9EF DUP3 PUSH2 0x7B5 JUMP JUMPDEST SWAP1 POP PUSH1 0x20 DUP2 ADD SWAP1 POP SWAP2 SWAP1 POP JUMP JUMPDEST PUSH1 0x0 PUSH2 0xA0F PUSH2 0xA0A DUP5 PUSH2 0x9CB JUMP JUMPDEST PUSH2 0x9B0 JUMP JUMPDEST SWAP1 POP DUP3 DUP2 MSTORE PUSH1 0x20 DUP2 ADD DUP5 DUP5 DUP5 ADD GT ISZERO PUSH2 0xA2B JUMPI PUSH2 0xA2A PUSH2 0x94B JUMP JUMPDEST JUMPDEST PUSH2 0xA36 DUP5 DUP3 DUP6 PUSH2 0x78B JUMP JUMPDEST POP SWAP4 SWAP3 POP POP POP JUMP JUMPDEST PUSH1 0x0 DUP3 PUSH1 0x1F DUP4 ADD SLT PUSH2 0xA53 JUMPI PUSH2 0xA52 PUSH2 0x687 JUMP JUMPDEST JUMPDEST DUP2 MLOAD PUSH2 0xA63 DUP5 DUP3 PUSH1 0x20 DUP7 ADD PUSH2 0x9FC JUMP JUMPDEST SWAP2 POP POP SWAP3 SWAP2 POP POP JUMP JUMPDEST PUSH1 0x0 PUSH1 0x20 DUP3 DUP5 SUB SLT ISZERO PUSH2 0xA82 JUMPI PUSH2 0xA81 PUSH2 0x67D JUMP JUMPDEST JUMPDEST PUSH1 0x0 DUP3 ADD MLOAD PUSH8 0xFFFFFFFFFFFFFFFF DUP2 GT ISZERO PUSH2 0xAA0 JUMPI PUSH2 0xA9F PUSH2 0x682 JUMP JUMPDEST JUMPDEST PUSH2 0xAAC DUP5 DUP3 DUP6 ADD PUSH2 0xA3E JUMP JUMPDEST SWAP2 POP POP SWAP3 SWAP2 POP POP JUMP INVALID LOG2 PUSH5 0x6970667358 0x22 SLT KECCAK256 0xBE 0xFB ORIGIN 0xAC 0xEC SUB MUL MUL 0x4B SWAP3 0xFB SGT 0x49 DUP8 BASEFEE DELEGATECALL PUSH9 0x9340146BBEB12A541C 0xEC 0x4C 0xBF DUP16 PUSH8 0x2464736F6C634300 ADDMOD GT STOP CALLER "
				},
				"gasEstimates": {
					"creation": {
						"codeDepositCost": "559000",
						"executionCost": "infinite",
						"totalCost": "infinite"
					},
					"external": {
						"getDataByABI()": "infinite",
						"setDataByABI1(string)": "infinite",
						"setDataByABI2(string)": "infinite",
						"setDataByABI3(string)": "infinite"
					}
				},
				"methodIdentifiers": {
					"getDataByABI()": "70d1c75b",
					"setDataByABI1(string)": "2971e81f",
					"setDataByABI2(string)": "424d571c",
					"setDataByABI3(string)": "76db04d4"
				}
			},
			"storageLayout": {
				"storage": [
					{
						"astId": 466,
						"contract": "homework/trycatch/UseTryCatch.sol:DataConsumer",
						"label": "dataStorageAddress",
						"offset": 0,
						"slot": "0",
						"type": "t_address"
					}
				],
				"types": {
					"t_address": {
						"encoding": "inplace",
						"label": "address",
						"numberOfBytes": "20"
					}
				}
			},
			"userdoc": {
				"kind": "user",
				"methods": {},
				"version": 1
			}
		}
	}
}