{
	"homework/trycatch/UseTryCatch.sol": {
		"Admin": {
			"abi": [
				{
					"inputs": [],
					"stateMutability": "nonpayable",
					"type": "constructor"
				},
				{
					"inputs": [
						{
							"internalType": "contract IBank",
							"name": "bank",
							"type": "address"
						}
					],
					"name": "adminWithdraw",
					"outputs": [],
					"stateMutability": "nonpayable",
					"type": "function"
				},
				{
					"inputs": [],
					"name": "encode_bytes_len",
					"outputs": [
						{
							"internalType": "uint256",
							"name": "",
							"type": "uint256"
						}
					],
					"stateMutability": "pure",
					"type": "function"
				},
				{
					"inputs": [],
					"name": "getValue",
					"outputs": [
						{
							"internalType": "uint256",
							"name": "",
							"type": "uint256"
						}
					],
					"stateMutability": "view",
					"type": "function"
				},
				{
					"inputs": [],
					"name": "owner",
					"outputs": [
						{
							"internalType": "address",
							"name": "",
							"type": "address"
						}
					],
					"stateMutability": "view",
					"type": "function"
				},
				{
					"inputs": [
						{
							"internalType": "uint256",
							"name": "value",
							"type": "uint256"
						}
					],
					"name": "setValue",
					"outputs": [],
					"stateMutability": "nonpayable",
					"type": "function"
				}
			],
			"devdoc": {
				"kind": "dev",
				"methods": {},
				"version": 1
			},
			"evm": {
				"assembly": "    /* \"homework/trycatch/UseTryCatch.sol\":80:1392  contract Admin {... */\n  mstore(0x40, 0x80)\n    /* \"homework/trycatch/UseTryCatch.sol\":151:200  constructor() {... */\n  callvalue\n  dup1\n  iszero\n  tag_1\n  jumpi\n  0x00\n  dup1\n  revert\ntag_1:\n  pop\n    /* \"homework/trycatch/UseTryCatch.sol\":183:193  msg.sender */\n  caller\n    /* \"homework/trycatch/UseTryCatch.sol\":175:180  owner */\n  0x00\n  dup1\n    /* \"homework/trycatch/UseTryCatch.sol\":175:193  owner = msg.sender */\n  0x0100\n  exp\n  dup2\n  sload\n  dup2\n  0xffffffffffffffffffffffffffffffffffffffff\n  mul\n  not\n  and\n  swap1\n  dup4\n  0xffffffffffffffffffffffffffffffffffffffff\n  and\n  mul\n  or\n  swap1\n  sstore\n  pop\n    /* \"homework/trycatch/UseTryCatch.sol\":80:1392  contract Admin {... */\n  dataSize(sub_0)\n  dup1\n  dataOffset(sub_0)\n  0x00\n  codecopy\n  0x00\n  return\nstop\n\nsub_0: assembly {\n        /* \"homework/trycatch/UseTryCatch.sol\":80:1392  contract Admin {... */\n      mstore(0x40, 0x80)\n      callvalue\n      dup1\n      iszero\n      tag_1\n      jumpi\n      0x00\n      dup1\n      revert\n    tag_1:\n      pop\n      jumpi(tag_2, lt(calldatasize, 0x04))\n      shr(0xe0, calldataload(0x00))\n      dup1\n      0x20965255\n      eq\n      tag_3\n      jumpi\n      dup1\n      0x47a49bc7\n      eq\n      tag_4\n      jumpi\n      dup1\n      0x55241077\n      eq\n      tag_5\n      jumpi\n      dup1\n      0x8da5cb5b\n      eq\n      tag_6\n      jumpi\n      dup1\n      0xa28835b6\n      eq\n      tag_7\n      jumpi\n    tag_2:\n      0x00\n      dup1\n      revert\n        /* \"homework/trycatch/UseTryCatch.sol\":720:802  function getValue() public view returns (uint) {... */\n    tag_3:\n      tag_8\n      tag_9\n      jump\t// in\n    tag_8:\n      mload(0x40)\n      tag_10\n      swap2\n      swap1\n      tag_11\n      jump\t// in\n    tag_10:\n      mload(0x40)\n      dup1\n      swap2\n      sub\n      swap1\n      return\n        /* \"homework/trycatch/UseTryCatch.sol\":1209:1389  function encode_bytes_len() public pure returns (uint) {... */\n    tag_4:\n      tag_12\n      tag_13\n      jump\t// in\n    tag_12:\n      mload(0x40)\n      tag_14\n      swap2\n      swap1\n      tag_11\n      jump\t// in\n    tag_14:\n      mload(0x40)\n      dup1\n      swap2\n      sub\n      swap1\n      return\n        /* \"homework/trycatch/UseTryCatch.sol\":808:881  function setValue(uint value) public {... */\n    tag_5:\n      tag_15\n      0x04\n      dup1\n      calldatasize\n      sub\n      dup2\n      add\n      swap1\n      tag_16\n      swap2\n      swap1\n      tag_17\n      jump\t// in\n    tag_16:\n      tag_18\n      jump\t// in\n    tag_15:\n      stop\n        /* \"homework/trycatch/UseTryCatch.sol\":101:121  address public owner */\n    tag_6:\n      tag_19\n      tag_20\n      jump\t// in\n    tag_19:\n      mload(0x40)\n      tag_21\n      swap2\n      swap1\n      tag_22\n      jump\t// in\n    tag_21:\n      mload(0x40)\n      dup1\n      swap2\n      sub\n      swap1\n      return\n        /* \"homework/trycatch/UseTryCatch.sol\":300:714  function adminWithdraw(IBank bank) external onlyOwner {... */\n    tag_7:\n      tag_23\n      0x04\n      dup1\n      calldatasize\n      sub\n      dup2\n      add\n      swap1\n      tag_24\n      swap2\n      swap1\n      tag_25\n      jump\t// in\n    tag_24:\n      tag_26\n      jump\t// in\n    tag_23:\n      stop\n        /* \"homework/trycatch/UseTryCatch.sol\":720:802  function getValue() public view returns (uint) {... */\n    tag_9:\n        /* \"homework/trycatch/UseTryCatch.sol\":761:765  uint */\n      0x00\n        /* \"homework/trycatch/UseTryCatch.sol\":784:795  storedValue */\n      sload(0x01)\n        /* \"homework/trycatch/UseTryCatch.sol\":777:795  return storedValue */\n      swap1\n      pop\n        /* \"homework/trycatch/UseTryCatch.sol\":720:802  function getValue() public view returns (uint) {... */\n      swap1\n      jump\t// out\n        /* \"homework/trycatch/UseTryCatch.sol\":1209:1389  function encode_bytes_len() public pure returns (uint) {... */\n    tag_13:\n        /* \"homework/trycatch/UseTryCatch.sol\":1258:1262  uint */\n      0x00\n        /* \"homework/trycatch/UseTryCatch.sol\":1274:1291  bytes memory data */\n      dup1\n        /* \"homework/trycatch/UseTryCatch.sol\":1349:1350  1 */\n      0x01\n        /* \"homework/trycatch/UseTryCatch.sol\":1352:1353  2 */\n      0x02\n        /* \"homework/trycatch/UseTryCatch.sol\":1294:1354  abi.encodeWithSignature(\"transfer(address , uint256)\", 1, 2) */\n      add(0x24, mload(0x40))\n      tag_29\n      swap3\n      swap2\n      swap1\n      tag_30\n      jump\t// in\n    tag_29:\n      mload(0x40)\n      0x20\n      dup2\n      dup4\n      sub\n      sub\n      dup2\n      mstore\n      swap1\n      0x40\n      mstore\n      and(not(0xffffffffffffffffffffffffffffffffffffffffffffffffffffffff), 0x3b68bbe900000000000000000000000000000000000000000000000000000000)\n      0x20\n      dup3\n      add\n      dup1\n      mload\n      0xffffffffffffffffffffffffffffffffffffffffffffffffffffffff\n      dup4\n      dup2\n      dup4\n      and\n      or\n      dup4\n      mstore\n      pop\n      pop\n      pop\n      pop\n        /* \"homework/trycatch/UseTryCatch.sol\":1274:1354  bytes memory data = abi.encodeWithSignature(\"transfer(address , uint256)\", 1, 2) */\n      swap1\n      pop\n        /* \"homework/trycatch/UseTryCatch.sol\":1371:1375  data */\n      dup1\n        /* \"homework/trycatch/UseTryCatch.sol\":1371:1382  data.length */\n      mload\n        /* \"homework/trycatch/UseTryCatch.sol\":1364:1382  return data.length */\n      swap2\n      pop\n      pop\n        /* \"homework/trycatch/UseTryCatch.sol\":1209:1389  function encode_bytes_len() public pure returns (uint) {... */\n      swap1\n      jump\t// out\n        /* \"homework/trycatch/UseTryCatch.sol\":808:881  function setValue(uint value) public {... */\n    tag_18:\n        /* \"homework/trycatch/UseTryCatch.sol\":869:874  value */\n      dup1\n        /* \"homework/trycatch/UseTryCatch.sol\":855:866  storedValue */\n      0x01\n        /* \"homework/trycatch/UseTryCatch.sol\":855:874  storedValue = value */\n      dup2\n      swap1\n      sstore\n      pop\n        /* \"homework/trycatch/UseTryCatch.sol\":808:881  function setValue(uint value) public {... */\n      pop\n      jump\t// out\n        /* \"homework/trycatch/UseTryCatch.sol\":101:121  address public owner */\n    tag_20:\n      0x00\n      dup1\n      sload\n      swap1\n      0x0100\n      exp\n      swap1\n      div\n      0xffffffffffffffffffffffffffffffffffffffff\n      and\n      dup2\n      jump\t// out\n        /* \"homework/trycatch/UseTryCatch.sol\":300:714  function adminWithdraw(IBank bank) external onlyOwner {... */\n    tag_26:\n        /* \"homework/trycatch/UseTryCatch.sol\":257:262  owner */\n      0x00\n      dup1\n      sload\n      swap1\n      0x0100\n      exp\n      swap1\n      div\n      0xffffffffffffffffffffffffffffffffffffffff\n      and\n        /* \"homework/trycatch/UseTryCatch.sol\":243:262  msg.sender == owner */\n      0xffffffffffffffffffffffffffffffffffffffff\n      and\n        /* \"homework/trycatch/UseTryCatch.sol\":243:253  msg.sender */\n      caller\n        /* \"homework/trycatch/UseTryCatch.sol\":243:262  msg.sender == owner */\n      0xffffffffffffffffffffffffffffffffffffffff\n      and\n      eq\n        /* \"homework/trycatch/UseTryCatch.sol\":235:276  require(msg.sender == owner, \"Not owner\") */\n      tag_33\n      jumpi\n      mload(0x40)\n      0x08c379a000000000000000000000000000000000000000000000000000000000\n      dup2\n      mstore\n      0x04\n      add\n      tag_34\n      swap1\n      tag_35\n      jump\t// in\n    tag_34:\n      mload(0x40)\n      dup1\n      swap2\n      sub\n      swap1\n      revert\n    tag_33:\n        /* \"homework/trycatch/UseTryCatch.sol\":368:372  bank */\n      dup1\n        /* \"homework/trycatch/UseTryCatch.sol\":368:381  bank.withdraw */\n      0xffffffffffffffffffffffffffffffffffffffff\n      and\n      0x3ccfd60b\n        /* \"homework/trycatch/UseTryCatch.sol\":368:383  bank.withdraw() */\n      mload(0x40)\n      dup2\n      0xffffffff\n      and\n      0xe0\n      shl\n      dup2\n      mstore\n      0x04\n      add\n      0x00\n      mload(0x40)\n      dup1\n      dup4\n      sub\n      dup2\n      0x00\n      dup8\n      dup1\n      extcodesize\n      iszero\n      dup1\n      iszero\n      tag_37\n      jumpi\n      0x00\n      dup1\n      revert\n    tag_37:\n      pop\n      gas\n      call\n      swap3\n      pop\n      pop\n      pop\n      dup1\n      iszero\n      tag_38\n      jumpi\n      pop\n      0x01\n    tag_38:\n        /* \"homework/trycatch/UseTryCatch.sol\":364:708  try bank.withdraw() {... */\n      tag_39\n      jumpi\n      tag_43\n      tag_44\n      jump\t// in\n    tag_43:\n      dup1\n      0x08c379a0\n      sub\n      tag_42\n      jumpi\n      pop\n      tag_45\n      tag_46\n      jump\t// in\n    tag_45:\n      dup1\n      tag_47\n      jumpi\n      pop\n      jump(tag_41)\n    tag_47:\n        /* \"homework/trycatch/UseTryCatch.sol\":567:603  revert(\"Bank withdrawal failed: %s\") */\n      mload(0x40)\n      0x08c379a000000000000000000000000000000000000000000000000000000000\n      dup2\n      mstore\n      0x04\n      add\n      tag_48\n      swap1\n      tag_49\n      jump\t// in\n    tag_48:\n      mload(0x40)\n      dup1\n      swap2\n      sub\n      swap1\n      revert\n        /* \"homework/trycatch/UseTryCatch.sol\":364:708  try bank.withdraw() {... */\n    tag_42:\n      pop\n    tag_41:\n        /* \"homework/trycatch/UseTryCatch.sol\":663:697  revert(\"Unknown withdrawal error\") */\n      mload(0x40)\n      0x08c379a000000000000000000000000000000000000000000000000000000000\n      dup2\n      mstore\n      0x04\n      add\n      tag_50\n      swap1\n      tag_51\n      jump\t// in\n    tag_50:\n      mload(0x40)\n      dup1\n      swap2\n      sub\n      swap1\n      revert\n        /* \"homework/trycatch/UseTryCatch.sol\":364:708  try bank.withdraw() {... */\n    tag_39:\n        /* \"homework/trycatch/UseTryCatch.sol\":300:714  function adminWithdraw(IBank bank) external onlyOwner {... */\n      pop\n      jump\t// out\n        /* \"#utility.yul\":7:84   */\n    tag_53:\n        /* \"#utility.yul\":44:51   */\n      0x00\n        /* \"#utility.yul\":73:78   */\n      dup2\n        /* \"#utility.yul\":62:78   */\n      swap1\n      pop\n        /* \"#utility.yul\":7:84   */\n      swap2\n      swap1\n      pop\n      jump\t// out\n        /* \"#utility.yul\":90:208   */\n    tag_54:\n        /* \"#utility.yul\":177:201   */\n      tag_88\n        /* \"#utility.yul\":195:200   */\n      dup2\n        /* \"#utility.yul\":177:201   */\n      tag_53\n      jump\t// in\n    tag_88:\n        /* \"#utility.yul\":172:175   */\n      dup3\n        /* \"#utility.yul\":165:202   */\n      mstore\n        /* \"#utility.yul\":90:208   */\n      pop\n      pop\n      jump\t// out\n        /* \"#utility.yul\":214:436   */\n    tag_11:\n        /* \"#utility.yul\":307:311   */\n      0x00\n        /* \"#utility.yul\":345:347   */\n      0x20\n        /* \"#utility.yul\":334:343   */\n      dup3\n        /* \"#utility.yul\":330:348   */\n      add\n        /* \"#utility.yul\":322:348   */\n      swap1\n      pop\n        /* \"#utility.yul\":358:429   */\n      tag_90\n        /* \"#utility.yul\":426:427   */\n      0x00\n        /* \"#utility.yul\":415:424   */\n      dup4\n        /* \"#utility.yul\":411:428   */\n      add\n        /* \"#utility.yul\":402:408   */\n      dup5\n        /* \"#utility.yul\":358:429   */\n      tag_54\n      jump\t// in\n    tag_90:\n        /* \"#utility.yul\":214:436   */\n      swap3\n      swap2\n      pop\n      pop\n      jump\t// out\n        /* \"#utility.yul\":442:517   */\n    tag_55:\n        /* \"#utility.yul\":475:481   */\n      0x00\n        /* \"#utility.yul\":508:510   */\n      0x40\n        /* \"#utility.yul\":502:511   */\n      mload\n        /* \"#utility.yul\":492:511   */\n      swap1\n      pop\n        /* \"#utility.yul\":442:517   */\n      swap1\n      jump\t// out\n        /* \"#utility.yul\":523:640   */\n    tag_56:\n        /* \"#utility.yul\":632:633   */\n      0x00\n        /* \"#utility.yul\":629:630   */\n      dup1\n        /* \"#utility.yul\":622:634   */\n      revert\n        /* \"#utility.yul\":769:891   */\n    tag_58:\n        /* \"#utility.yul\":842:866   */\n      tag_95\n        /* \"#utility.yul\":860:865   */\n      dup2\n        /* \"#utility.yul\":842:866   */\n      tag_53\n      jump\t// in\n    tag_95:\n        /* \"#utility.yul\":835:840   */\n      dup2\n        /* \"#utility.yul\":832:867   */\n      eq\n        /* \"#utility.yul\":822:885   */\n      tag_96\n      jumpi\n        /* \"#utility.yul\":881:882   */\n      0x00\n        /* \"#utility.yul\":878:879   */\n      dup1\n        /* \"#utility.yul\":871:883   */\n      revert\n        /* \"#utility.yul\":822:885   */\n    tag_96:\n        /* \"#utility.yul\":769:891   */\n      pop\n      jump\t// out\n        /* \"#utility.yul\":897:1036   */\n    tag_59:\n        /* \"#utility.yul\":943:948   */\n      0x00\n        /* \"#utility.yul\":981:987   */\n      dup2\n        /* \"#utility.yul\":968:988   */\n      calldataload\n        /* \"#utility.yul\":959:988   */\n      swap1\n      pop\n        /* \"#utility.yul\":997:1030   */\n      tag_98\n        /* \"#utility.yul\":1024:1029   */\n      dup2\n        /* \"#utility.yul\":997:1030   */\n      tag_58\n      jump\t// in\n    tag_98:\n        /* \"#utility.yul\":897:1036   */\n      swap3\n      swap2\n      pop\n      pop\n      jump\t// out\n        /* \"#utility.yul\":1042:1371   */\n    tag_17:\n        /* \"#utility.yul\":1101:1107   */\n      0x00\n        /* \"#utility.yul\":1150:1152   */\n      0x20\n        /* \"#utility.yul\":1138:1147   */\n      dup3\n        /* \"#utility.yul\":1129:1136   */\n      dup5\n        /* \"#utility.yul\":1125:1148   */\n      sub\n        /* \"#utility.yul\":1121:1153   */\n      slt\n        /* \"#utility.yul\":1118:1237   */\n      iszero\n      tag_100\n      jumpi\n        /* \"#utility.yul\":1156:1235   */\n      tag_101\n      tag_56\n      jump\t// in\n    tag_101:\n        /* \"#utility.yul\":1118:1237   */\n    tag_100:\n        /* \"#utility.yul\":1276:1277   */\n      0x00\n        /* \"#utility.yul\":1301:1354   */\n      tag_102\n        /* \"#utility.yul\":1346:1353   */\n      dup5\n        /* \"#utility.yul\":1337:1343   */\n      dup3\n        /* \"#utility.yul\":1326:1335   */\n      dup6\n        /* \"#utility.yul\":1322:1344   */\n      add\n        /* \"#utility.yul\":1301:1354   */\n      tag_59\n      jump\t// in\n    tag_102:\n        /* \"#utility.yul\":1291:1354   */\n      swap2\n      pop\n        /* \"#utility.yul\":1247:1364   */\n      pop\n        /* \"#utility.yul\":1042:1371   */\n      swap3\n      swap2\n      pop\n      pop\n      jump\t// out\n        /* \"#utility.yul\":1377:1503   */\n    tag_60:\n        /* \"#utility.yul\":1414:1421   */\n      0x00\n        /* \"#utility.yul\":1454:1496   */\n      0xffffffffffffffffffffffffffffffffffffffff\n        /* \"#utility.yul\":1447:1452   */\n      dup3\n        /* \"#utility.yul\":1443:1497   */\n      and\n        /* \"#utility.yul\":1432:1497   */\n      swap1\n      pop\n        /* \"#utility.yul\":1377:1503   */\n      swap2\n      swap1\n      pop\n      jump\t// out\n        /* \"#utility.yul\":1509:1605   */\n    tag_61:\n        /* \"#utility.yul\":1546:1553   */\n      0x00\n        /* \"#utility.yul\":1575:1599   */\n      tag_105\n        /* \"#utility.yul\":1593:1598   */\n      dup3\n        /* \"#utility.yul\":1575:1599   */\n      tag_60\n      jump\t// in\n    tag_105:\n        /* \"#utility.yul\":1564:1599   */\n      swap1\n      pop\n        /* \"#utility.yul\":1509:1605   */\n      swap2\n      swap1\n      pop\n      jump\t// out\n        /* \"#utility.yul\":1611:1729   */\n    tag_62:\n        /* \"#utility.yul\":1698:1722   */\n      tag_107\n        /* \"#utility.yul\":1716:1721   */\n      dup2\n        /* \"#utility.yul\":1698:1722   */\n      tag_61\n      jump\t// in\n    tag_107:\n        /* \"#utility.yul\":1693:1696   */\n      dup3\n        /* \"#utility.yul\":1686:1723   */\n      mstore\n        /* \"#utility.yul\":1611:1729   */\n      pop\n      pop\n      jump\t// out\n        /* \"#utility.yul\":1735:1957   */\n    tag_22:\n        /* \"#utility.yul\":1828:1832   */\n      0x00\n        /* \"#utility.yul\":1866:1868   */\n      0x20\n        /* \"#utility.yul\":1855:1864   */\n      dup3\n        /* \"#utility.yul\":1851:1869   */\n      add\n        /* \"#utility.yul\":1843:1869   */\n      swap1\n      pop\n        /* \"#utility.yul\":1879:1950   */\n      tag_109\n        /* \"#utility.yul\":1947:1948   */\n      0x00\n        /* \"#utility.yul\":1936:1945   */\n      dup4\n        /* \"#utility.yul\":1932:1949   */\n      add\n        /* \"#utility.yul\":1923:1929   */\n      dup5\n        /* \"#utility.yul\":1879:1950   */\n      tag_62\n      jump\t// in\n    tag_109:\n        /* \"#utility.yul\":1735:1957   */\n      swap3\n      swap2\n      pop\n      pop\n      jump\t// out\n        /* \"#utility.yul\":1963:2070   */\n    tag_63:\n        /* \"#utility.yul\":2011:2018   */\n      0x00\n        /* \"#utility.yul\":2040:2064   */\n      tag_111\n        /* \"#utility.yul\":2058:2063   */\n      dup3\n        /* \"#utility.yul\":2040:2064   */\n      tag_61\n      jump\t// in\n    tag_111:\n        /* \"#utility.yul\":2029:2064   */\n      swap1\n      pop\n        /* \"#utility.yul\":1963:2070   */\n      swap2\n      swap1\n      pop\n      jump\t// out\n        /* \"#utility.yul\":2076:2220   */\n    tag_64:\n        /* \"#utility.yul\":2160:2195   */\n      tag_113\n        /* \"#utility.yul\":2189:2194   */\n      dup2\n        /* \"#utility.yul\":2160:2195   */\n      tag_63\n      jump\t// in\n    tag_113:\n        /* \"#utility.yul\":2153:2158   */\n      dup2\n        /* \"#utility.yul\":2150:2196   */\n      eq\n        /* \"#utility.yul\":2140:2214   */\n      tag_114\n      jumpi\n        /* \"#utility.yul\":2210:2211   */\n      0x00\n        /* \"#utility.yul\":2207:2208   */\n      dup1\n        /* \"#utility.yul\":2200:2212   */\n      revert\n        /* \"#utility.yul\":2140:2214   */\n    tag_114:\n        /* \"#utility.yul\":2076:2220   */\n      pop\n      jump\t// out\n        /* \"#utility.yul\":2226:2387   */\n    tag_65:\n        /* \"#utility.yul\":2283:2288   */\n      0x00\n        /* \"#utility.yul\":2321:2327   */\n      dup2\n        /* \"#utility.yul\":2308:2328   */\n      calldataload\n        /* \"#utility.yul\":2299:2328   */\n      swap1\n      pop\n        /* \"#utility.yul\":2337:2381   */\n      tag_116\n        /* \"#utility.yul\":2375:2380   */\n      dup2\n        /* \"#utility.yul\":2337:2381   */\n      tag_64\n      jump\t// in\n    tag_116:\n        /* \"#utility.yul\":2226:2387   */\n      swap3\n      swap2\n      pop\n      pop\n      jump\t// out\n        /* \"#utility.yul\":2393:2744   */\n    tag_25:\n        /* \"#utility.yul\":2463:2469   */\n      0x00\n        /* \"#utility.yul\":2512:2514   */\n      0x20\n        /* \"#utility.yul\":2500:2509   */\n      dup3\n        /* \"#utility.yul\":2491:2498   */\n      dup5\n        /* \"#utility.yul\":2487:2510   */\n      sub\n        /* \"#utility.yul\":2483:2515   */\n      slt\n        /* \"#utility.yul\":2480:2599   */\n      iszero\n      tag_118\n      jumpi\n        /* \"#utility.yul\":2518:2597   */\n      tag_119\n      tag_56\n      jump\t// in\n    tag_119:\n        /* \"#utility.yul\":2480:2599   */\n    tag_118:\n        /* \"#utility.yul\":2638:2639   */\n      0x00\n        /* \"#utility.yul\":2663:2727   */\n      tag_120\n        /* \"#utility.yul\":2719:2726   */\n      dup5\n        /* \"#utility.yul\":2710:2716   */\n      dup3\n        /* \"#utility.yul\":2699:2708   */\n      dup6\n        /* \"#utility.yul\":2695:2717   */\n      add\n        /* \"#utility.yul\":2663:2727   */\n      tag_65\n      jump\t// in\n    tag_120:\n        /* \"#utility.yul\":2653:2727   */\n      swap2\n      pop\n        /* \"#utility.yul\":2609:2737   */\n      pop\n        /* \"#utility.yul\":2393:2744   */\n      swap3\n      swap2\n      pop\n      pop\n      jump\t// out\n        /* \"#utility.yul\":2750:2835   */\n    tag_66:\n        /* \"#utility.yul\":2795:2802   */\n      0x00\n        /* \"#utility.yul\":2824:2829   */\n      dup2\n        /* \"#utility.yul\":2813:2829   */\n      swap1\n      pop\n        /* \"#utility.yul\":2750:2835   */\n      swap2\n      swap1\n      pop\n      jump\t// out\n        /* \"#utility.yul\":2841:2927   */\n    tag_67:\n        /* \"#utility.yul\":2876:2883   */\n      0x00\n        /* \"#utility.yul\":2916:2920   */\n      0xff\n        /* \"#utility.yul\":2909:2914   */\n      dup3\n        /* \"#utility.yul\":2905:2921   */\n      and\n        /* \"#utility.yul\":2894:2921   */\n      swap1\n      pop\n        /* \"#utility.yul\":2841:2927   */\n      swap2\n      swap1\n      pop\n      jump\t// out\n        /* \"#utility.yul\":2933:2993   */\n    tag_68:\n        /* \"#utility.yul\":2961:2964   */\n      0x00\n        /* \"#utility.yul\":2982:2987   */\n      dup2\n        /* \"#utility.yul\":2975:2987   */\n      swap1\n      pop\n        /* \"#utility.yul\":2933:2993   */\n      swap2\n      swap1\n      pop\n      jump\t// out\n        /* \"#utility.yul\":2999:3153   */\n    tag_69:\n        /* \"#utility.yul\":3055:3064   */\n      0x00\n        /* \"#utility.yul\":3088:3147   */\n      tag_125\n        /* \"#utility.yul\":3104:3146   */\n      tag_126\n        /* \"#utility.yul\":3113:3145   */\n      tag_127\n        /* \"#utility.yul\":3139:3144   */\n      dup5\n        /* \"#utility.yul\":3113:3145   */\n      tag_66\n      jump\t// in\n    tag_127:\n        /* \"#utility.yul\":3104:3146   */\n      tag_68\n      jump\t// in\n    tag_126:\n        /* \"#utility.yul\":3088:3147   */\n      tag_67\n      jump\t// in\n    tag_125:\n        /* \"#utility.yul\":3075:3147   */\n      swap1\n      pop\n        /* \"#utility.yul\":2999:3153   */\n      swap2\n      swap1\n      pop\n      jump\t// out\n        /* \"#utility.yul\":3159:3302   */\n    tag_70:\n        /* \"#utility.yul\":3252:3295   */\n      tag_129\n        /* \"#utility.yul\":3289:3294   */\n      dup2\n        /* \"#utility.yul\":3252:3295   */\n      tag_69\n      jump\t// in\n    tag_129:\n        /* \"#utility.yul\":3247:3250   */\n      dup3\n        /* \"#utility.yul\":3240:3296   */\n      mstore\n        /* \"#utility.yul\":3159:3302   */\n      pop\n      pop\n      jump\t// out\n        /* \"#utility.yul\":3308:3393   */\n    tag_71:\n        /* \"#utility.yul\":3353:3360   */\n      0x00\n        /* \"#utility.yul\":3382:3387   */\n      dup2\n        /* \"#utility.yul\":3371:3387   */\n      swap1\n      pop\n        /* \"#utility.yul\":3308:3393   */\n      swap2\n      swap1\n      pop\n      jump\t// out\n        /* \"#utility.yul\":3399:3553   */\n    tag_72:\n        /* \"#utility.yul\":3455:3464   */\n      0x00\n        /* \"#utility.yul\":3488:3547   */\n      tag_132\n        /* \"#utility.yul\":3504:3546   */\n      tag_133\n        /* \"#utility.yul\":3513:3545   */\n      tag_134\n        /* \"#utility.yul\":3539:3544   */\n      dup5\n        /* \"#utility.yul\":3513:3545   */\n      tag_71\n      jump\t// in\n    tag_134:\n        /* \"#utility.yul\":3504:3546   */\n      tag_68\n      jump\t// in\n    tag_133:\n        /* \"#utility.yul\":3488:3547   */\n      tag_67\n      jump\t// in\n    tag_132:\n        /* \"#utility.yul\":3475:3547   */\n      swap1\n      pop\n        /* \"#utility.yul\":3399:3553   */\n      swap2\n      swap1\n      pop\n      jump\t// out\n        /* \"#utility.yul\":3559:3702   */\n    tag_73:\n        /* \"#utility.yul\":3652:3695   */\n      tag_136\n        /* \"#utility.yul\":3689:3694   */\n      dup2\n        /* \"#utility.yul\":3652:3695   */\n      tag_72\n      jump\t// in\n    tag_136:\n        /* \"#utility.yul\":3647:3650   */\n      dup3\n        /* \"#utility.yul\":3640:3696   */\n      mstore\n        /* \"#utility.yul\":3559:3702   */\n      pop\n      pop\n      jump\t// out\n        /* \"#utility.yul\":3708:4064   */\n    tag_30:\n        /* \"#utility.yul\":3841:3845   */\n      0x00\n        /* \"#utility.yul\":3879:3881   */\n      0x40\n        /* \"#utility.yul\":3868:3877   */\n      dup3\n        /* \"#utility.yul\":3864:3882   */\n      add\n        /* \"#utility.yul\":3856:3882   */\n      swap1\n      pop\n        /* \"#utility.yul\":3892:3969   */\n      tag_138\n        /* \"#utility.yul\":3966:3967   */\n      0x00\n        /* \"#utility.yul\":3955:3964   */\n      dup4\n        /* \"#utility.yul\":3951:3968   */\n      add\n        /* \"#utility.yul\":3942:3948   */\n      dup6\n        /* \"#utility.yul\":3892:3969   */\n      tag_70\n      jump\t// in\n    tag_138:\n        /* \"#utility.yul\":3979:4057   */\n      tag_139\n        /* \"#utility.yul\":4053:4055   */\n      0x20\n        /* \"#utility.yul\":4042:4051   */\n      dup4\n        /* \"#utility.yul\":4038:4056   */\n      add\n        /* \"#utility.yul\":4029:4035   */\n      dup5\n        /* \"#utility.yul\":3979:4057   */\n      tag_73\n      jump\t// in\n    tag_139:\n        /* \"#utility.yul\":3708:4064   */\n      swap4\n      swap3\n      pop\n      pop\n      pop\n      jump\t// out\n        /* \"#utility.yul\":4070:4239   */\n    tag_74:\n        /* \"#utility.yul\":4154:4165   */\n      0x00\n        /* \"#utility.yul\":4188:4194   */\n      dup3\n        /* \"#utility.yul\":4183:4186   */\n      dup3\n        /* \"#utility.yul\":4176:4195   */\n      mstore\n        /* \"#utility.yul\":4228:4232   */\n      0x20\n        /* \"#utility.yul\":4223:4226   */\n      dup3\n        /* \"#utility.yul\":4219:4233   */\n      add\n        /* \"#utility.yul\":4204:4233   */\n      swap1\n      pop\n        /* \"#utility.yul\":4070:4239   */\n      swap3\n      swap2\n      pop\n      pop\n      jump\t// out\n        /* \"#utility.yul\":4245:4404   */\n    tag_75:\n        /* \"#utility.yul\":4385:4396   */\n      0x4e6f74206f776e65720000000000000000000000000000000000000000000000\n        /* \"#utility.yul\":4381:4382   */\n      0x00\n        /* \"#utility.yul\":4373:4379   */\n      dup3\n        /* \"#utility.yul\":4369:4383   */\n      add\n        /* \"#utility.yul\":4362:4397   */\n      mstore\n        /* \"#utility.yul\":4245:4404   */\n      pop\n      jump\t// out\n        /* \"#utility.yul\":4410:4775   */\n    tag_76:\n        /* \"#utility.yul\":4552:4555   */\n      0x00\n        /* \"#utility.yul\":4573:4639   */\n      tag_143\n        /* \"#utility.yul\":4637:4638   */\n      0x09\n        /* \"#utility.yul\":4632:4635   */\n      dup4\n        /* \"#utility.yul\":4573:4639   */\n      tag_74\n      jump\t// in\n    tag_143:\n        /* \"#utility.yul\":4566:4639   */\n      swap2\n      pop\n        /* \"#utility.yul\":4648:4741   */\n      tag_144\n        /* \"#utility.yul\":4737:4740   */\n      dup3\n        /* \"#utility.yul\":4648:4741   */\n      tag_75\n      jump\t// in\n    tag_144:\n        /* \"#utility.yul\":4766:4768   */\n      0x20\n        /* \"#utility.yul\":4761:4764   */\n      dup3\n        /* \"#utility.yul\":4757:4769   */\n      add\n        /* \"#utility.yul\":4750:4769   */\n      swap1\n      pop\n        /* \"#utility.yul\":4410:4775   */\n      swap2\n      swap1\n      pop\n      jump\t// out\n        /* \"#utility.yul\":4781:5200   */\n    tag_35:\n        /* \"#utility.yul\":4947:4951   */\n      0x00\n        /* \"#utility.yul\":4985:4987   */\n      0x20\n        /* \"#utility.yul\":4974:4983   */\n      dup3\n        /* \"#utility.yul\":4970:4988   */\n      add\n        /* \"#utility.yul\":4962:4988   */\n      swap1\n      pop\n        /* \"#utility.yul\":5034:5043   */\n      dup2\n        /* \"#utility.yul\":5028:5032   */\n      dup2\n        /* \"#utility.yul\":5024:5044   */\n      sub\n        /* \"#utility.yul\":5020:5021   */\n      0x00\n        /* \"#utility.yul\":5009:5018   */\n      dup4\n        /* \"#utility.yul\":5005:5022   */\n      add\n        /* \"#utility.yul\":4998:5045   */\n      mstore\n        /* \"#utility.yul\":5062:5193   */\n      tag_146\n        /* \"#utility.yul\":5188:5192   */\n      dup2\n        /* \"#utility.yul\":5062:5193   */\n      tag_76\n      jump\t// in\n    tag_146:\n        /* \"#utility.yul\":5054:5193   */\n      swap1\n      pop\n        /* \"#utility.yul\":4781:5200   */\n      swap2\n      swap1\n      pop\n      jump\t// out\n        /* \"#utility.yul\":5206:5312   */\n    tag_77:\n        /* \"#utility.yul\":5250:5258   */\n      0x00\n        /* \"#utility.yul\":5299:5304   */\n      dup2\n        /* \"#utility.yul\":5294:5297   */\n      0xe0\n        /* \"#utility.yul\":5290:5305   */\n      shr\n        /* \"#utility.yul\":5269:5305   */\n      swap1\n      pop\n        /* \"#utility.yul\":5206:5312   */\n      swap2\n      swap1\n      pop\n      jump\t// out\n        /* \"#utility.yul\":5318:5501   */\n    tag_44:\n        /* \"#utility.yul\":5353:5356   */\n      0x00\n        /* \"#utility.yul\":5391:5392   */\n      0x03\n        /* \"#utility.yul\":5373:5389   */\n      returndatasize\n        /* \"#utility.yul\":5370:5393   */\n      gt\n        /* \"#utility.yul\":5367:5495   */\n      iszero\n      tag_149\n      jumpi\n        /* \"#utility.yul\":5429:5430   */\n      0x04\n        /* \"#utility.yul\":5426:5427   */\n      0x00\n        /* \"#utility.yul\":5423:5424   */\n      dup1\n        /* \"#utility.yul\":5408:5431   */\n      returndatacopy\n        /* \"#utility.yul\":5451:5485   */\n      tag_150\n        /* \"#utility.yul\":5482:5483   */\n      0x00\n        /* \"#utility.yul\":5476:5484   */\n      mload\n        /* \"#utility.yul\":5451:5485   */\n      tag_77\n      jump\t// in\n    tag_150:\n        /* \"#utility.yul\":5444:5485   */\n      swap1\n      pop\n        /* \"#utility.yul\":5367:5495   */\n    tag_149:\n        /* \"#utility.yul\":5318:5501   */\n      swap1\n      jump\t// out\n        /* \"#utility.yul\":5507:5609   */\n    tag_78:\n        /* \"#utility.yul\":5548:5554   */\n      0x00\n        /* \"#utility.yul\":5599:5601   */\n      0x1f\n        /* \"#utility.yul\":5595:5602   */\n      not\n        /* \"#utility.yul\":5590:5592   */\n      0x1f\n        /* \"#utility.yul\":5583:5588   */\n      dup4\n        /* \"#utility.yul\":5579:5593   */\n      add\n        /* \"#utility.yul\":5575:5603   */\n      and\n        /* \"#utility.yul\":5565:5603   */\n      swap1\n      pop\n        /* \"#utility.yul\":5507:5609   */\n      swap2\n      swap1\n      pop\n      jump\t// out\n        /* \"#utility.yul\":5615:5795   */\n    tag_79:\n        /* \"#utility.yul\":5663:5740   */\n      0x4e487b7100000000000000000000000000000000000000000000000000000000\n        /* \"#utility.yul\":5660:5661   */\n      0x00\n        /* \"#utility.yul\":5653:5741   */\n      mstore\n        /* \"#utility.yul\":5760:5764   */\n      0x41\n        /* \"#utility.yul\":5757:5758   */\n      0x04\n        /* \"#utility.yul\":5750:5765   */\n      mstore\n        /* \"#utility.yul\":5784:5788   */\n      0x24\n        /* \"#utility.yul\":5781:5782   */\n      0x00\n        /* \"#utility.yul\":5774:5789   */\n      revert\n        /* \"#utility.yul\":5801:6082   */\n    tag_80:\n        /* \"#utility.yul\":5884:5911   */\n      tag_154\n        /* \"#utility.yul\":5906:5910   */\n      dup3\n        /* \"#utility.yul\":5884:5911   */\n      tag_78\n      jump\t// in\n    tag_154:\n        /* \"#utility.yul\":5876:5882   */\n      dup2\n        /* \"#utility.yul\":5872:5912   */\n      add\n        /* \"#utility.yul\":6014:6020   */\n      dup2\n        /* \"#utility.yul\":6002:6012   */\n      dup2\n        /* \"#utility.yul\":5999:6021   */\n      lt\n        /* \"#utility.yul\":5978:5996   */\n      0xffffffffffffffff\n        /* \"#utility.yul\":5966:5976   */\n      dup3\n        /* \"#utility.yul\":5963:5997   */\n      gt\n        /* \"#utility.yul\":5960:6022   */\n      or\n        /* \"#utility.yul\":5957:6045   */\n      iszero\n      tag_155\n      jumpi\n        /* \"#utility.yul\":6025:6043   */\n      tag_156\n      tag_79\n      jump\t// in\n    tag_156:\n        /* \"#utility.yul\":5957:6045   */\n    tag_155:\n        /* \"#utility.yul\":6065:6075   */\n      dup1\n        /* \"#utility.yul\":6061:6063   */\n      0x40\n        /* \"#utility.yul\":6054:6076   */\n      mstore\n        /* \"#utility.yul\":5844:6082   */\n      pop\n        /* \"#utility.yul\":5801:6082   */\n      pop\n      pop\n      jump\t// out\n        /* \"#utility.yul\":6088:6799   */\n    tag_46:\n        /* \"#utility.yul\":6127:6130   */\n      0x00\n        /* \"#utility.yul\":6165:6169   */\n      0x44\n        /* \"#utility.yul\":6147:6163   */\n      returndatasize\n        /* \"#utility.yul\":6144:6170   */\n      lt\n        /* \"#utility.yul\":6173:6178   */\n      tag_157\n        /* \"#utility.yul\":6141:6180   */\n      jumpi\n        /* \"#utility.yul\":6202:6222   */\n      tag_159\n      tag_55\n      jump\t// in\n    tag_159:\n        /* \"#utility.yul\":6277:6278   */\n      0x04\n        /* \"#utility.yul\":6259:6275   */\n      returndatasize\n        /* \"#utility.yul\":6255:6279   */\n      sub\n        /* \"#utility.yul\":6252:6253   */\n      0x04\n        /* \"#utility.yul\":6246:6250   */\n      dup3\n        /* \"#utility.yul\":6231:6280   */\n      returndatacopy\n        /* \"#utility.yul\":6310:6314   */\n      dup1\n        /* \"#utility.yul\":6304:6315   */\n      mload\n        /* \"#utility.yul\":6409:6425   */\n      returndatasize\n        /* \"#utility.yul\":6402:6406   */\n      0x24\n        /* \"#utility.yul\":6394:6400   */\n      dup3\n        /* \"#utility.yul\":6390:6407   */\n      add\n        /* \"#utility.yul\":6387:6426   */\n      gt\n        /* \"#utility.yul\":6354:6372   */\n      0xffffffffffffffff\n        /* \"#utility.yul\":6346:6352   */\n      dup3\n        /* \"#utility.yul\":6343:6373   */\n      gt\n        /* \"#utility.yul\":6327:6440   */\n      or\n        /* \"#utility.yul\":6324:6470   */\n      iszero\n      tag_160\n      jumpi\n        /* \"#utility.yul\":6455:6460   */\n      pop\n      pop\n      jump(tag_157)\n        /* \"#utility.yul\":6324:6470   */\n    tag_160:\n        /* \"#utility.yul\":6501:6507   */\n      dup1\n        /* \"#utility.yul\":6495:6499   */\n      dup3\n        /* \"#utility.yul\":6491:6508   */\n      add\n        /* \"#utility.yul\":6537:6540   */\n      dup1\n        /* \"#utility.yul\":6531:6541   */\n      mload\n        /* \"#utility.yul\":6564:6582   */\n      0xffffffffffffffff\n        /* \"#utility.yul\":6556:6562   */\n      dup2\n        /* \"#utility.yul\":6553:6583   */\n      gt\n        /* \"#utility.yul\":6550:6593   */\n      iszero\n      tag_161\n      jumpi\n        /* \"#utility.yul\":6586:6591   */\n      pop\n      pop\n      pop\n      pop\n      jump(tag_157)\n        /* \"#utility.yul\":6550:6593   */\n    tag_161:\n        /* \"#utility.yul\":6634:6640   */\n      dup1\n        /* \"#utility.yul\":6627:6631   */\n      0x20\n        /* \"#utility.yul\":6622:6625   */\n      dup4\n        /* \"#utility.yul\":6618:6632   */\n      add\n        /* \"#utility.yul\":6614:6641   */\n      add\n        /* \"#utility.yul\":6693:6694   */\n      0x04\n        /* \"#utility.yul\":6675:6691   */\n      returndatasize\n        /* \"#utility.yul\":6671:6695   */\n      sub\n        /* \"#utility.yul\":6665:6669   */\n      dup6\n        /* \"#utility.yul\":6661:6696   */\n      add\n        /* \"#utility.yul\":6656:6659   */\n      dup2\n        /* \"#utility.yul\":6653:6697   */\n      gt\n        /* \"#utility.yul\":6650:6707   */\n      iszero\n      tag_162\n      jumpi\n        /* \"#utility.yul\":6700:6705   */\n      pop\n      pop\n      pop\n      pop\n      pop\n      jump(tag_157)\n        /* \"#utility.yul\":6650:6707   */\n    tag_162:\n        /* \"#utility.yul\":6717:6774   */\n      tag_163\n        /* \"#utility.yul\":6765:6771   */\n      dup3\n        /* \"#utility.yul\":6759:6763   */\n      0x20\n        /* \"#utility.yul\":6755:6772   */\n      add\n        /* \"#utility.yul\":6747:6753   */\n      dup6\n        /* \"#utility.yul\":6743:6773   */\n      add\n        /* \"#utility.yul\":6737:6741   */\n      dup7\n        /* \"#utility.yul\":6717:6774   */\n      tag_80\n      jump\t// in\n    tag_163:\n        /* \"#utility.yul\":6790:6793   */\n      dup3\n        /* \"#utility.yul\":6783:6793   */\n      swap6\n      pop\n        /* \"#utility.yul\":6131:6799   */\n      pop\n      pop\n      pop\n      pop\n      pop\n        /* \"#utility.yul\":6088:6799   */\n    tag_157:\n      swap1\n      jump\t// out\n        /* \"#utility.yul\":6805:6981   */\n    tag_81:\n        /* \"#utility.yul\":6945:6973   */\n      0x42616e6b207769746864726177616c206661696c65643a202573000000000000\n        /* \"#utility.yul\":6941:6942   */\n      0x00\n        /* \"#utility.yul\":6933:6939   */\n      dup3\n        /* \"#utility.yul\":6929:6943   */\n      add\n        /* \"#utility.yul\":6922:6974   */\n      mstore\n        /* \"#utility.yul\":6805:6981   */\n      pop\n      jump\t// out\n        /* \"#utility.yul\":6987:7353   */\n    tag_82:\n        /* \"#utility.yul\":7129:7132   */\n      0x00\n        /* \"#utility.yul\":7150:7217   */\n      tag_166\n        /* \"#utility.yul\":7214:7216   */\n      0x1a\n        /* \"#utility.yul\":7209:7212   */\n      dup4\n        /* \"#utility.yul\":7150:7217   */\n      tag_74\n      jump\t// in\n    tag_166:\n        /* \"#utility.yul\":7143:7217   */\n      swap2\n      pop\n        /* \"#utility.yul\":7226:7319   */\n      tag_167\n        /* \"#utility.yul\":7315:7318   */\n      dup3\n        /* \"#utility.yul\":7226:7319   */\n      tag_81\n      jump\t// in\n    tag_167:\n        /* \"#utility.yul\":7344:7346   */\n      0x20\n        /* \"#utility.yul\":7339:7342   */\n      dup3\n        /* \"#utility.yul\":7335:7347   */\n      add\n        /* \"#utility.yul\":7328:7347   */\n      swap1\n      pop\n        /* \"#utility.yul\":6987:7353   */\n      swap2\n      swap1\n      pop\n      jump\t// out\n        /* \"#utility.yul\":7359:7778   */\n    tag_49:\n        /* \"#utility.yul\":7525:7529   */\n      0x00\n        /* \"#utility.yul\":7563:7565   */\n      0x20\n        /* \"#utility.yul\":7552:7561   */\n      dup3\n        /* \"#utility.yul\":7548:7566   */\n      add\n        /* \"#utility.yul\":7540:7566   */\n      swap1\n      pop\n        /* \"#utility.yul\":7612:7621   */\n      dup2\n        /* \"#utility.yul\":7606:7610   */\n      dup2\n        /* \"#utility.yul\":7602:7622   */\n      sub\n        /* \"#utility.yul\":7598:7599   */\n      0x00\n        /* \"#utility.yul\":7587:7596   */\n      dup4\n        /* \"#utility.yul\":7583:7600   */\n      add\n        /* \"#utility.yul\":7576:7623   */\n      mstore\n        /* \"#utility.yul\":7640:7771   */\n      tag_169\n        /* \"#utility.yul\":7766:7770   */\n      dup2\n        /* \"#utility.yul\":7640:7771   */\n      tag_82\n      jump\t// in\n    tag_169:\n        /* \"#utility.yul\":7632:7771   */\n      swap1\n      pop\n        /* \"#utility.yul\":7359:7778   */\n      swap2\n      swap1\n      pop\n      jump\t// out\n        /* \"#utility.yul\":7784:7958   */\n    tag_83:\n        /* \"#utility.yul\":7924:7950   */\n      0x556e6b6e6f776e207769746864726177616c206572726f720000000000000000\n        /* \"#utility.yul\":7920:7921   */\n      0x00\n        /* \"#utility.yul\":7912:7918   */\n      dup3\n        /* \"#utility.yul\":7908:7922   */\n      add\n        /* \"#utility.yul\":7901:7951   */\n      mstore\n        /* \"#utility.yul\":7784:7958   */\n      pop\n      jump\t// out\n        /* \"#utility.yul\":7964:8330   */\n    tag_84:\n        /* \"#utility.yul\":8106:8109   */\n      0x00\n        /* \"#utility.yul\":8127:8194   */\n      tag_172\n        /* \"#utility.yul\":8191:8193   */\n      0x18\n        /* \"#utility.yul\":8186:8189   */\n      dup4\n        /* \"#utility.yul\":8127:8194   */\n      tag_74\n      jump\t// in\n    tag_172:\n        /* \"#utility.yul\":8120:8194   */\n      swap2\n      pop\n        /* \"#utility.yul\":8203:8296   */\n      tag_173\n        /* \"#utility.yul\":8292:8295   */\n      dup3\n        /* \"#utility.yul\":8203:8296   */\n      tag_83\n      jump\t// in\n    tag_173:\n        /* \"#utility.yul\":8321:8323   */\n      0x20\n        /* \"#utility.yul\":8316:8319   */\n      dup3\n        /* \"#utility.yul\":8312:8324   */\n      add\n        /* \"#utility.yul\":8305:8324   */\n      swap1\n      pop\n        /* \"#utility.yul\":7964:8330   */\n      swap2\n      swap1\n      pop\n      jump\t// out\n        /* \"#utility.yul\":8336:8755   */\n    tag_51:\n        /* \"#utility.yul\":8502:8506   */\n      0x00\n        /* \"#utility.yul\":8540:8542   */\n      0x20\n        /* \"#utility.yul\":8529:8538   */\n      dup3\n        /* \"#utility.yul\":8525:8543   */\n      add\n        /* \"#utility.yul\":8517:8543   */\n      swap1\n      pop\n        /* \"#utility.yul\":8589:8598   */\n      dup2\n        /* \"#utility.yul\":8583:8587   */\n      dup2\n        /* \"#utility.yul\":8579:8599   */\n      sub\n        /* \"#utility.yul\":8575:8576   */\n      0x00\n        /* \"#utility.yul\":8564:8573   */\n      dup4\n        /* \"#utility.yul\":8560:8577   */\n      add\n        /* \"#utility.yul\":8553:8600   */\n      mstore\n        /* \"#utility.yul\":8617:8748   */\n      tag_175\n        /* \"#utility.yul\":8743:8747   */\n      dup2\n        /* \"#utility.yul\":8617:8748   */\n      tag_84\n      jump\t// in\n    tag_175:\n        /* \"#utility.yul\":8609:8748   */\n      swap1\n      pop\n        /* \"#utility.yul\":8336:8755   */\n      swap2\n      swap1\n      pop\n      jump\t// out\n\n    auxdata: 0xa2646970667358221220c63335528f5a1d983d58ce334596f915d5330da874f359e69616a79f63ec30fc64736f6c63430008110033\n}\n",
				"bytecode": {
					"linkReferences": {},
					"object": "608060405234801561001057600080fd5b50336000806101000a81548173ffffffffffffffffffffffffffffffffffffffff021916908373ffffffffffffffffffffffffffffffffffffffff160217905550610826806100606000396000f3fe608060405234801561001057600080fd5b50600436106100575760003560e01c8063209652551461005c57806347a49bc71461007a57806355241077146100985780638da5cb5b146100b4578063a28835b6146100d2575b600080fd5b6100646100ee565b604051610071919061036b565b60405180910390f35b6100826100f8565b60405161008f919061036b565b60405180910390f35b6100b260048036038101906100ad91906103c1565b610197565b005b6100bc6101a1565b6040516100c9919061042f565b60405180910390f35b6100ec60048036038101906100e79190610488565b6101c5565b005b6000600154905090565b60008060016002604051602401610110929190610542565b6040516020818303038152906040527f3b68bbe9000000000000000000000000000000000000000000000000000000007bffffffffffffffffffffffffffffffffffffffffffffffffffffffff19166020820180517bffffffffffffffffffffffffffffffffffffffffffffffffffffffff83818316178352505050509050805191505090565b8060018190555050565b60008054906101000a900473ffffffffffffffffffffffffffffffffffffffff1681565b60008054906101000a900473ffffffffffffffffffffffffffffffffffffffff1673ffffffffffffffffffffffffffffffffffffffff163373ffffffffffffffffffffffffffffffffffffffff1614610253576040517f08c379a000000000000000000000000000000000000000000000000000000000815260040161024a906105c8565b60405180910390fd5b8073ffffffffffffffffffffffffffffffffffffffff16633ccfd60b6040518163ffffffff1660e01b8152600401600060405180830381600087803b15801561029b57600080fd5b505af19250505080156102ac575060015b61034f576102b86105f5565b806308c379a00361031257506102cc610688565b806102d75750610314565b6040517f08c379a000000000000000000000000000000000000000000000000000000000815260040161030990610764565b60405180910390fd5b505b6040517f08c379a0000000000000000000000000000000000000000000000000000000008152600401610346906107d0565b60405180910390fd5b50565b6000819050919050565b61036581610352565b82525050565b6000602082019050610380600083018461035c565b92915050565b6000604051905090565b600080fd5b61039e81610352565b81146103a957600080fd5b50565b6000813590506103bb81610395565b92915050565b6000602082840312156103d7576103d6610390565b5b60006103e5848285016103ac565b91505092915050565b600073ffffffffffffffffffffffffffffffffffffffff82169050919050565b6000610419826103ee565b9050919050565b6104298161040e565b82525050565b60006020820190506104446000830184610420565b92915050565b60006104558261040e565b9050919050565b6104658161044a565b811461047057600080fd5b50565b6000813590506104828161045c565b92915050565b60006020828403121561049e5761049d610390565b5b60006104ac84828501610473565b91505092915050565b6000819050919050565b600060ff82169050919050565b6000819050919050565b60006104f16104ec6104e7846104b5565b6104cc565b6104bf565b9050919050565b610501816104d6565b82525050565b6000819050919050565b600061052c61052761052284610507565b6104cc565b6104bf565b9050919050565b61053c81610511565b82525050565b600060408201905061055760008301856104f8565b6105646020830184610533565b9392505050565b600082825260208201905092915050565b7f4e6f74206f776e65720000000000000000000000000000000000000000000000600082015250565b60006105b260098361056b565b91506105bd8261057c565b602082019050919050565b600060208201905081810360008301526105e1816105a5565b9050919050565b60008160e01c9050919050565b600060033d11156106145760046000803e6106116000516105e8565b90505b90565b6000601f19601f8301169050919050565b7f4e487b7100000000000000000000000000000000000000000000000000000000600052604160045260246000fd5b61066082610617565b810181811067ffffffffffffffff8211171561067f5761067e610628565b5b80604052505050565b600060443d106107155761069a610386565b60043d036004823e80513d602482011167ffffffffffffffff821117156106c2575050610715565b808201805167ffffffffffffffff8111156106e05750505050610715565b80602083010160043d0385018111156106fd575050505050610715565b61070c82602001850186610657565b82955050505050505b90565b7f42616e6b207769746864726177616c206661696c65643a202573000000000000600082015250565b600061074e601a8361056b565b915061075982610718565b602082019050919050565b6000602082019050818103600083015261077d81610741565b9050919050565b7f556e6b6e6f776e207769746864726177616c206572726f720000000000000000600082015250565b60006107ba60188361056b565b91506107c582610784565b602082019050919050565b600060208201905081810360008301526107e9816107ad565b905091905056fea2646970667358221220c63335528f5a1d983d58ce334596f915d5330da874f359e69616a79f63ec30fc64736f6c63430008110033",
					"opcodes": "PUSH1 0x80 PUSH1 0x40 MSTORE CALLVALUE DUP1 ISZERO PUSH2 0x10 JUMPI PUSH1 0x0 DUP1 REVERT JUMPDEST POP CALLER PUSH1 0x0 DUP1 PUSH2 0x100 EXP DUP2 SLOAD DUP2 PUSH20 0xFFFFFFFFFFFFFFFFFFFFFFFFFFFFFFFFFFFFFFFF MUL NOT AND SWAP1 DUP4 PUSH20 0xFFFFFFFFFFFFFFFFFFFFFFFFFFFFFFFFFFFFFFFF AND MUL OR SWAP1 SSTORE POP PUSH2 0x826 DUP1 PUSH2 0x60 PUSH1 0x0 CODECOPY PUSH1 0x0 RETURN INVALID PUSH1 0x80 PUSH1 0x40 MSTORE CALLVALUE DUP1 ISZERO PUSH2 0x10 JUMPI PUSH1 0x0 DUP1 REVERT JUMPDEST POP PUSH1 0x4 CALLDATASIZE LT PUSH2 0x57 JUMPI PUSH1 0x0 CALLDATALOAD PUSH1 0xE0 SHR DUP1 PUSH4 0x20965255 EQ PUSH2 0x5C JUMPI DUP1 PUSH4 0x47A49BC7 EQ PUSH2 0x7A JUMPI DUP1 PUSH4 0x55241077 EQ PUSH2 0x98 JUMPI DUP1 PUSH4 0x8DA5CB5B EQ PUSH2 0xB4 JUMPI DUP1 PUSH4 0xA28835B6 EQ PUSH2 0xD2 JUMPI JUMPDEST PUSH1 0x0 DUP1 REVERT JUMPDEST PUSH2 0x64 PUSH2 0xEE JUMP JUMPDEST PUSH1 0x40 MLOAD PUSH2 0x71 SWAP2 SWAP1 PUSH2 0x36B JUMP JUMPDEST PUSH1 0x40 MLOAD DUP1 SWAP2 SUB SWAP1 RETURN JUMPDEST PUSH2 0x82 PUSH2 0xF8 JUMP JUMPDEST PUSH1 0x40 MLOAD PUSH2 0x8F SWAP2 SWAP1 PUSH2 0x36B JUMP JUMPDEST PUSH1 0x40 MLOAD DUP1 SWAP2 SUB SWAP1 RETURN JUMPDEST PUSH2 0xB2 PUSH1 0x4 DUP1 CALLDATASIZE SUB DUP2 ADD SWAP1 PUSH2 0xAD SWAP2 SWAP1 PUSH2 0x3C1 JUMP JUMPDEST PUSH2 0x197 JUMP JUMPDEST STOP JUMPDEST PUSH2 0xBC PUSH2 0x1A1 JUMP JUMPDEST PUSH1 0x40 MLOAD PUSH2 0xC9 SWAP2 SWAP1 PUSH2 0x42F JUMP JUMPDEST PUSH1 0x40 MLOAD DUP1 SWAP2 SUB SWAP1 RETURN JUMPDEST PUSH2 0xEC PUSH1 0x4 DUP1 CALLDATASIZE SUB DUP2 ADD SWAP1 PUSH2 0xE7 SWAP2 SWAP1 PUSH2 0x488 JUMP JUMPDEST PUSH2 0x1C5 JUMP JUMPDEST STOP JUMPDEST PUSH1 0x0 PUSH1 0x1 SLOAD SWAP1 POP SWAP1 JUMP JUMPDEST PUSH1 0x0 DUP1 PUSH1 0x1 PUSH1 0x2 PUSH1 0x40 MLOAD PUSH1 0x24 ADD PUSH2 0x110 SWAP3 SWAP2 SWAP1 PUSH2 0x542 JUMP JUMPDEST PUSH1 0x40 MLOAD PUSH1 0x20 DUP2 DUP4 SUB SUB DUP2 MSTORE SWAP1 PUSH1 0x40 MSTORE PUSH32 0x3B68BBE900000000000000000000000000000000000000000000000000000000 PUSH28 0xFFFFFFFFFFFFFFFFFFFFFFFFFFFFFFFFFFFFFFFFFFFFFFFFFFFFFFFF NOT AND PUSH1 0x20 DUP3 ADD DUP1 MLOAD PUSH28 0xFFFFFFFFFFFFFFFFFFFFFFFFFFFFFFFFFFFFFFFFFFFFFFFFFFFFFFFF DUP4 DUP2 DUP4 AND OR DUP4 MSTORE POP POP POP POP SWAP1 POP DUP1 MLOAD SWAP2 POP POP SWAP1 JUMP JUMPDEST DUP1 PUSH1 0x1 DUP2 SWAP1 SSTORE POP POP JUMP JUMPDEST PUSH1 0x0 DUP1 SLOAD SWAP1 PUSH2 0x100 EXP SWAP1 DIV PUSH20 0xFFFFFFFFFFFFFFFFFFFFFFFFFFFFFFFFFFFFFFFF AND DUP2 JUMP JUMPDEST PUSH1 0x0 DUP1 SLOAD SWAP1 PUSH2 0x100 EXP SWAP1 DIV PUSH20 0xFFFFFFFFFFFFFFFFFFFFFFFFFFFFFFFFFFFFFFFF AND PUSH20 0xFFFFFFFFFFFFFFFFFFFFFFFFFFFFFFFFFFFFFFFF AND CALLER PUSH20 0xFFFFFFFFFFFFFFFFFFFFFFFFFFFFFFFFFFFFFFFF AND EQ PUSH2 0x253 JUMPI PUSH1 0x40 MLOAD PUSH32 0x8C379A000000000000000000000000000000000000000000000000000000000 DUP2 MSTORE PUSH1 0x4 ADD PUSH2 0x24A SWAP1 PUSH2 0x5C8 JUMP JUMPDEST PUSH1 0x40 MLOAD DUP1 SWAP2 SUB SWAP1 REVERT JUMPDEST DUP1 PUSH20 0xFFFFFFFFFFFFFFFFFFFFFFFFFFFFFFFFFFFFFFFF AND PUSH4 0x3CCFD60B PUSH1 0x40 MLOAD DUP2 PUSH4 0xFFFFFFFF AND PUSH1 0xE0 SHL DUP2 MSTORE PUSH1 0x4 ADD PUSH1 0x0 PUSH1 0x40 MLOAD DUP1 DUP4 SUB DUP2 PUSH1 0x0 DUP8 DUP1 EXTCODESIZE ISZERO DUP1 ISZERO PUSH2 0x29B JUMPI PUSH1 0x0 DUP1 REVERT JUMPDEST POP GAS CALL SWAP3 POP POP POP DUP1 ISZERO PUSH2 0x2AC JUMPI POP PUSH1 0x1 JUMPDEST PUSH2 0x34F JUMPI PUSH2 0x2B8 PUSH2 0x5F5 JUMP JUMPDEST DUP1 PUSH4 0x8C379A0 SUB PUSH2 0x312 JUMPI POP PUSH2 0x2CC PUSH2 0x688 JUMP JUMPDEST DUP1 PUSH2 0x2D7 JUMPI POP PUSH2 0x314 JUMP JUMPDEST PUSH1 0x40 MLOAD PUSH32 0x8C379A000000000000000000000000000000000000000000000000000000000 DUP2 MSTORE PUSH1 0x4 ADD PUSH2 0x309 SWAP1 PUSH2 0x764 JUMP JUMPDEST PUSH1 0x40 MLOAD DUP1 SWAP2 SUB SWAP1 REVERT JUMPDEST POP JUMPDEST PUSH1 0x40 MLOAD PUSH32 0x8C379A000000000000000000000000000000000000000000000000000000000 DUP2 MSTORE PUSH1 0x4 ADD PUSH2 0x346 SWAP1 PUSH2 0x7D0 JUMP JUMPDEST PUSH1 0x40 MLOAD DUP1 SWAP2 SUB SWAP1 REVERT JUMPDEST POP JUMP JUMPDEST PUSH1 0x0 DUP2 SWAP1 POP SWAP2 SWAP1 POP JUMP JUMPDEST PUSH2 0x365 DUP2 PUSH2 0x352 JUMP JUMPDEST DUP3 MSTORE POP POP JUMP JUMPDEST PUSH1 0x0 PUSH1 0x20 DUP3 ADD SWAP1 POP PUSH2 0x380 PUSH1 0x0 DUP4 ADD DUP5 PUSH2 0x35C JUMP JUMPDEST SWAP3 SWAP2 POP POP JUMP JUMPDEST PUSH1 0x0 PUSH1 0x40 MLOAD SWAP1 POP SWAP1 JUMP JUMPDEST PUSH1 0x0 DUP1 REVERT JUMPDEST PUSH2 0x39E DUP2 PUSH2 0x352 JUMP JUMPDEST DUP2 EQ PUSH2 0x3A9 JUMPI PUSH1 0x0 DUP1 REVERT JUMPDEST POP JUMP JUMPDEST PUSH1 0x0 DUP2 CALLDATALOAD SWAP1 POP PUSH2 0x3BB DUP2 PUSH2 0x395 JUMP JUMPDEST SWAP3 SWAP2 POP POP JUMP JUMPDEST PUSH1 0x0 PUSH1 0x20 DUP3 DUP5 SUB SLT ISZERO PUSH2 0x3D7 JUMPI PUSH2 0x3D6 PUSH2 0x390 JUMP JUMPDEST JUMPDEST PUSH1 0x0 PUSH2 0x3E5 DUP5 DUP3 DUP6 ADD PUSH2 0x3AC JUMP JUMPDEST SWAP2 POP POP SWAP3 SWAP2 POP POP JUMP JUMPDEST PUSH1 0x0 PUSH20 0xFFFFFFFFFFFFFFFFFFFFFFFFFFFFFFFFFFFFFFFF DUP3 AND SWAP1 POP SWAP2 SWAP1 POP JUMP JUMPDEST PUSH1 0x0 PUSH2 0x419 DUP3 PUSH2 0x3EE JUMP JUMPDEST SWAP1 POP SWAP2 SWAP1 POP JUMP JUMPDEST PUSH2 0x429 DUP2 PUSH2 0x40E JUMP JUMPDEST DUP3 MSTORE POP POP JUMP JUMPDEST PUSH1 0x0 PUSH1 0x20 DUP3 ADD SWAP1 POP PUSH2 0x444 PUSH1 0x0 DUP4 ADD DUP5 PUSH2 0x420 JUMP JUMPDEST SWAP3 SWAP2 POP POP JUMP JUMPDEST PUSH1 0x0 PUSH2 0x455 DUP3 PUSH2 0x40E JUMP JUMPDEST SWAP1 POP SWAP2 SWAP1 POP JUMP JUMPDEST PUSH2 0x465 DUP2 PUSH2 0x44A JUMP JUMPDEST DUP2 EQ PUSH2 0x470 JUMPI PUSH1 0x0 DUP1 REVERT JUMPDEST POP JUMP JUMPDEST PUSH1 0x0 DUP2 CALLDATALOAD SWAP1 POP PUSH2 0x482 DUP2 PUSH2 0x45C JUMP JUMPDEST SWAP3 SWAP2 POP POP JUMP JUMPDEST PUSH1 0x0 PUSH1 0x20 DUP3 DUP5 SUB SLT ISZERO PUSH2 0x49E JUMPI PUSH2 0x49D PUSH2 0x390 JUMP JUMPDEST JUMPDEST PUSH1 0x0 PUSH2 0x4AC DUP5 DUP3 DUP6 ADD PUSH2 0x473 JUMP JUMPDEST SWAP2 POP POP SWAP3 SWAP2 POP POP JUMP JUMPDEST PUSH1 0x0 DUP2 SWAP1 POP SWAP2 SWAP1 POP JUMP JUMPDEST PUSH1 0x0 PUSH1 0xFF DUP3 AND SWAP1 POP SWAP2 SWAP1 POP JUMP JUMPDEST PUSH1 0x0 DUP2 SWAP1 POP SWAP2 SWAP1 POP JUMP JUMPDEST PUSH1 0x0 PUSH2 0x4F1 PUSH2 0x4EC PUSH2 0x4E7 DUP5 PUSH2 0x4B5 JUMP JUMPDEST PUSH2 0x4CC JUMP JUMPDEST PUSH2 0x4BF JUMP JUMPDEST SWAP1 POP SWAP2 SWAP1 POP JUMP JUMPDEST PUSH2 0x501 DUP2 PUSH2 0x4D6 JUMP JUMPDEST DUP3 MSTORE POP POP JUMP JUMPDEST PUSH1 0x0 DUP2 SWAP1 POP SWAP2 SWAP1 POP JUMP JUMPDEST PUSH1 0x0 PUSH2 0x52C PUSH2 0x527 PUSH2 0x522 DUP5 PUSH2 0x507 JUMP JUMPDEST PUSH2 0x4CC JUMP JUMPDEST PUSH2 0x4BF JUMP JUMPDEST SWAP1 POP SWAP2 SWAP1 POP JUMP JUMPDEST PUSH2 0x53C DUP2 PUSH2 0x511 JUMP JUMPDEST DUP3 MSTORE POP POP JUMP JUMPDEST PUSH1 0x0 PUSH1 0x40 DUP3 ADD SWAP1 POP PUSH2 0x557 PUSH1 0x0 DUP4 ADD DUP6 PUSH2 0x4F8 JUMP JUMPDEST PUSH2 0x564 PUSH1 0x20 DUP4 ADD DUP5 PUSH2 0x533 JUMP JUMPDEST SWAP4 SWAP3 POP POP POP JUMP JUMPDEST PUSH1 0x0 DUP3 DUP3 MSTORE PUSH1 0x20 DUP3 ADD SWAP1 POP SWAP3 SWAP2 POP POP JUMP JUMPDEST PUSH32 0x4E6F74206F776E65720000000000000000000000000000000000000000000000 PUSH1 0x0 DUP3 ADD MSTORE POP JUMP JUMPDEST PUSH1 0x0 PUSH2 0x5B2 PUSH1 0x9 DUP4 PUSH2 0x56B JUMP JUMPDEST SWAP2 POP PUSH2 0x5BD DUP3 PUSH2 0x57C JUMP JUMPDEST PUSH1 0x20 DUP3 ADD SWAP1 POP SWAP2 SWAP1 POP JUMP JUMPDEST PUSH1 0x0 PUSH1 0x20 DUP3 ADD SWAP1 POP DUP2 DUP2 SUB PUSH1 0x0 DUP4 ADD MSTORE PUSH2 0x5E1 DUP2 PUSH2 0x5A5 JUMP JUMPDEST SWAP1 POP SWAP2 SWAP1 POP JUMP JUMPDEST PUSH1 0x0 DUP2 PUSH1 0xE0 SHR SWAP1 POP SWAP2 SWAP1 POP JUMP JUMPDEST PUSH1 0x0 PUSH1 0x3 RETURNDATASIZE GT ISZERO PUSH2 0x614 JUMPI PUSH1 0x4 PUSH1 0x0 DUP1 RETURNDATACOPY PUSH2 0x611 PUSH1 0x0 MLOAD PUSH2 0x5E8 JUMP JUMPDEST SWAP1 POP JUMPDEST SWAP1 JUMP JUMPDEST PUSH1 0x0 PUSH1 0x1F NOT PUSH1 0x1F DUP4 ADD AND SWAP1 POP SWAP2 SWAP1 POP JUMP JUMPDEST PUSH32 0x4E487B7100000000000000000000000000000000000000000000000000000000 PUSH1 0x0 MSTORE PUSH1 0x41 PUSH1 0x4 MSTORE PUSH1 0x24 PUSH1 0x0 REVERT JUMPDEST PUSH2 0x660 DUP3 PUSH2 0x617 JUMP JUMPDEST DUP2 ADD DUP2 DUP2 LT PUSH8 0xFFFFFFFFFFFFFFFF DUP3 GT OR ISZERO PUSH2 0x67F JUMPI PUSH2 0x67E PUSH2 0x628 JUMP JUMPDEST JUMPDEST DUP1 PUSH1 0x40 MSTORE POP POP POP JUMP JUMPDEST PUSH1 0x0 PUSH1 0x44 RETURNDATASIZE LT PUSH2 0x715 JUMPI PUSH2 0x69A PUSH2 0x386 JUMP JUMPDEST PUSH1 0x4 RETURNDATASIZE SUB PUSH1 0x4 DUP3 RETURNDATACOPY DUP1 MLOAD RETURNDATASIZE PUSH1 0x24 DUP3 ADD GT PUSH8 0xFFFFFFFFFFFFFFFF DUP3 GT OR ISZERO PUSH2 0x6C2 JUMPI POP POP PUSH2 0x715 JUMP JUMPDEST DUP1 DUP3 ADD DUP1 MLOAD PUSH8 0xFFFFFFFFFFFFFFFF DUP2 GT ISZERO PUSH2 0x6E0 JUMPI POP POP POP POP PUSH2 0x715 JUMP JUMPDEST DUP1 PUSH1 0x20 DUP4 ADD ADD PUSH1 0x4 RETURNDATASIZE SUB DUP6 ADD DUP2 GT ISZERO PUSH2 0x6FD JUMPI POP POP POP POP POP PUSH2 0x715 JUMP JUMPDEST PUSH2 0x70C DUP3 PUSH1 0x20 ADD DUP6 ADD DUP7 PUSH2 0x657 JUMP JUMPDEST DUP3 SWAP6 POP POP POP POP POP POP JUMPDEST SWAP1 JUMP JUMPDEST PUSH32 0x42616E6B207769746864726177616C206661696C65643A202573000000000000 PUSH1 0x0 DUP3 ADD MSTORE POP JUMP JUMPDEST PUSH1 0x0 PUSH2 0x74E PUSH1 0x1A DUP4 PUSH2 0x56B JUMP JUMPDEST SWAP2 POP PUSH2 0x759 DUP3 PUSH2 0x718 JUMP JUMPDEST PUSH1 0x20 DUP3 ADD SWAP1 POP SWAP2 SWAP1 POP JUMP JUMPDEST PUSH1 0x0 PUSH1 0x20 DUP3 ADD SWAP1 POP DUP2 DUP2 SUB PUSH1 0x0 DUP4 ADD MSTORE PUSH2 0x77D DUP2 PUSH2 0x741 JUMP JUMPDEST SWAP1 POP SWAP2 SWAP1 POP JUMP JUMPDEST PUSH32 0x556E6B6E6F776E207769746864726177616C206572726F720000000000000000 PUSH1 0x0 DUP3 ADD MSTORE POP JUMP JUMPDEST PUSH1 0x0 PUSH2 0x7BA PUSH1 0x18 DUP4 PUSH2 0x56B JUMP JUMPDEST SWAP2 POP PUSH2 0x7C5 DUP3 PUSH2 0x784 JUMP JUMPDEST PUSH1 0x20 DUP3 ADD SWAP1 POP SWAP2 SWAP1 POP JUMP JUMPDEST PUSH1 0x0 PUSH1 0x20 DUP3 ADD SWAP1 POP DUP2 DUP2 SUB PUSH1 0x0 DUP4 ADD MSTORE PUSH2 0x7E9 DUP2 PUSH2 0x7AD JUMP JUMPDEST SWAP1 POP SWAP2 SWAP1 POP JUMP INVALID LOG2 PUSH5 0x6970667358 0x22 SLT KECCAK256 0xC6 CALLER CALLDATALOAD MSTORE DUP16 GAS SAR SWAP9 RETURNDATASIZE PC 0xCE CALLER GASLIMIT SWAP7 0xF9 ISZERO 0xD5 CALLER 0xD 0xA8 PUSH21 0xF359E69616A79F63EC30FC64736F6C634300081100 CALLER "
				},
				"gasEstimates": {
					"creation": {
						"codeDepositCost": "417200",
						"executionCost": "24721",
						"totalCost": "441921"
					},
					"external": {
						"adminWithdraw(address)": "infinite",
						"encode_bytes_len()": "infinite",
						"getValue()": "2415",
						"owner()": "2555",
						"setValue(uint256)": "22542"
					}
				},
				"methodIdentifiers": {
					"adminWithdraw(address)": "a28835b6",
					"encode_bytes_len()": "47a49bc7",
					"getValue()": "20965255",
					"owner()": "8da5cb5b",
					"setValue(uint256)": "55241077"
				}
			},
			"storageLayout": {
				"storage": [
					{
						"astId": 7,
						"contract": "homework/trycatch/UseTryCatch.sol:Admin",
						"label": "owner",
						"offset": 0,
						"slot": "0",
						"type": "t_address"
					},
					{
						"astId": 9,
						"contract": "homework/trycatch/UseTryCatch.sol:Admin",
						"label": "storedValue",
						"offset": 0,
						"slot": "1",
						"type": "t_uint256"
					}
				],
				"types": {
					"t_address": {
						"encoding": "inplace",
						"label": "address",
						"numberOfBytes": "20"
					},
					"t_uint256": {
						"encoding": "inplace",
						"label": "uint256",
						"numberOfBytes": "32"
					}
				}
			},
			"userdoc": {
				"kind": "user",
				"methods": {},
				"version": 1
			}
		}
	}
}