{
	"homework/trycatch/UseTryCatch.sol": {
		"UseTryCatch": {
			"abi": [
				{
					"inputs": [
						{
							"internalType": "string",
							"name": "hexString",
							"type": "string"
						}
					],
					"name": "byteLength",
					"outputs": [
						{
							"internalType": "uint256",
							"name": "",
							"type": "uint256"
						}
					],
					"stateMutability": "pure",
					"type": "function"
				},
				{
					"inputs": [],
					"name": "calc",
					"outputs": [
						{
							"internalType": "uint256",
							"name": "",
							"type": "uint256"
						}
					],
					"stateMutability": "pure",
					"type": "function"
				},
				{
					"inputs": [
						{
							"internalType": "contract Admin",
							"name": "ad",
							"type": "address"
						}
					],
					"name": "callAddr",
					"outputs": [
						{
							"internalType": "uint256",
							"name": "",
							"type": "uint256"
						}
					],
					"stateMutability": "nonpayable",
					"type": "function"
				}
			],
			"devdoc": {
				"kind": "dev",
				"methods": {},
				"version": 1
			},
			"evm": {
				"assembly": "    /* \"homework/trycatch/UseTryCatch.sol\":1394:2639  contract UseTryCatch {... */\n  mstore(0x40, 0x80)\n  callvalue\n  dup1\n  iszero\n  tag_1\n  jumpi\n  0x00\n  dup1\n  revert\ntag_1:\n  pop\n  dataSize(sub_0)\n  dup1\n  dataOffset(sub_0)\n  0x00\n  codecopy\n  0x00\n  return\nstop\n\nsub_0: assembly {\n        /* \"homework/trycatch/UseTryCatch.sol\":1394:2639  contract UseTryCatch {... */\n      mstore(0x40, 0x80)\n      callvalue\n      dup1\n      iszero\n      tag_1\n      jumpi\n      0x00\n      dup1\n      revert\n    tag_1:\n      pop\n      jumpi(tag_2, lt(calldatasize, 0x04))\n      shr(0xe0, calldataload(0x00))\n      dup1\n      0x96f1b6be\n      eq\n      tag_3\n      jumpi\n      dup1\n      0xa068029f\n      eq\n      tag_4\n      jumpi\n      dup1\n      0xb44c6caf\n      eq\n      tag_5\n      jumpi\n    tag_2:\n      0x00\n      dup1\n      revert\n        /* \"homework/trycatch/UseTryCatch.sol\":1529:2044  function calc() public pure returns (uint) {... */\n    tag_3:\n      tag_6\n      tag_7\n      jump\t// in\n    tag_6:\n      mload(0x40)\n      tag_8\n      swap2\n      swap1\n      tag_9\n      jump\t// in\n    tag_8:\n      mload(0x40)\n      dup1\n      swap2\n      sub\n      swap1\n      return\n        /* \"homework/trycatch/UseTryCatch.sol\":1422:1523  function callAddr(Admin ad) public returns(uint) {... */\n    tag_4:\n      tag_10\n      0x04\n      dup1\n      calldatasize\n      sub\n      dup2\n      add\n      swap1\n      tag_11\n      swap2\n      swap1\n      tag_12\n      jump\t// in\n    tag_11:\n      tag_13\n      jump\t// in\n    tag_10:\n      mload(0x40)\n      tag_14\n      swap2\n      swap1\n      tag_9\n      jump\t// in\n    tag_14:\n      mload(0x40)\n      dup1\n      swap2\n      sub\n      swap1\n      return\n        /* \"homework/trycatch/UseTryCatch.sol\":2050:2636  function byteLength(string memory hexString) public pure returns (uint256) {... */\n    tag_5:\n      tag_15\n      0x04\n      dup1\n      calldatasize\n      sub\n      dup2\n      add\n      swap1\n      tag_16\n      swap2\n      swap1\n      tag_17\n      jump\t// in\n    tag_16:\n      tag_18\n      jump\t// in\n    tag_15:\n      mload(0x40)\n      tag_19\n      swap2\n      swap1\n      tag_9\n      jump\t// in\n    tag_19:\n      mload(0x40)\n      dup1\n      swap2\n      sub\n      swap1\n      return\n        /* \"homework/trycatch/UseTryCatch.sol\":1529:2044  function calc() public pure returns (uint) {... */\n    tag_7:\n        /* \"homework/trycatch/UseTryCatch.sol\":1566:1570  uint */\n      0x00\n        /* \"homework/trycatch/UseTryCatch.sol\":1646:1663  string memory tmp */\n      dup1\n        /* \"homework/trycatch/UseTryCatch.sol\":1646:1720  string memory tmp = \"function transfer(address recipient, uint256 amount)\" */\n      mload(0x40)\n      dup1\n      0x60\n      add\n      0x40\n      mstore\n      dup1\n      0x34\n      dup2\n      mstore\n      0x20\n      add\n      data_3e0732179cf8623a92de66687b05e2c7778a4560fb6508b3232a95746c1c0221\n      0x34\n      swap2\n      codecopy\n      swap1\n      pop\n        /* \"homework/trycatch/UseTryCatch.sol\":1855:1870  bytes memory bl */\n      0x00\n        /* \"homework/trycatch/UseTryCatch.sol\":1884:1887  tmp */\n      dup2\n        /* \"homework/trycatch/UseTryCatch.sol\":1873:1888  abi.encode(tmp) */\n      add(0x20, mload(0x40))\n      tag_21\n      swap2\n      swap1\n      tag_22\n      jump\t// in\n    tag_21:\n      mload(0x40)\n      0x20\n      dup2\n      dup4\n      sub\n      sub\n      dup2\n      mstore\n      swap1\n      0x40\n      mstore\n        /* \"homework/trycatch/UseTryCatch.sol\":1855:1888  bytes memory bl = abi.encode(tmp) */\n      swap1\n      pop\n        /* \"homework/trycatch/UseTryCatch.sol\":2028:2030  bl */\n      dup1\n        /* \"homework/trycatch/UseTryCatch.sol\":2028:2037  bl.length */\n      mload\n        /* \"homework/trycatch/UseTryCatch.sol\":2021:2037  return bl.length */\n      swap3\n      pop\n      pop\n      pop\n        /* \"homework/trycatch/UseTryCatch.sol\":1529:2044  function calc() public pure returns (uint) {... */\n      swap1\n      jump\t// out\n        /* \"homework/trycatch/UseTryCatch.sol\":1422:1523  function callAddr(Admin ad) public returns(uint) {... */\n    tag_13:\n        /* \"homework/trycatch/UseTryCatch.sol\":1465:1469  uint */\n      0x00\n        /* \"homework/trycatch/UseTryCatch.sol\":1481:1493  address addr */\n      dup1\n        /* \"homework/trycatch/UseTryCatch.sol\":1504:1506  ad */\n      dup3\n        /* \"homework/trycatch/UseTryCatch.sol\":1481:1507  address addr = address(ad) */\n      swap1\n      pop\n        /* \"homework/trycatch/UseTryCatch.sol\":1471:1523  {... */\n      pop\n        /* \"homework/trycatch/UseTryCatch.sol\":1422:1523  function callAddr(Admin ad) public returns(uint) {... */\n      swap2\n      swap1\n      pop\n      jump\t// out\n        /* \"homework/trycatch/UseTryCatch.sol\":2050:2636  function byteLength(string memory hexString) public pure returns (uint256) {... */\n    tag_18:\n        /* \"homework/trycatch/UseTryCatch.sol\":2116:2123  uint256 */\n      0x00\n        /* \"homework/trycatch/UseTryCatch.sol\":2165:2166  2 */\n      0x02\n        /* \"homework/trycatch/UseTryCatch.sol\":2145:2154  hexString */\n      dup3\n        /* \"homework/trycatch/UseTryCatch.sol\":2139:2162  bytes(hexString).length */\n      mload\n        /* \"homework/trycatch/UseTryCatch.sol\":2139:2166  bytes(hexString).length < 2 */\n      lt\n        /* \"homework/trycatch/UseTryCatch.sol\":2135:2176  if (bytes(hexString).length < 2) return 0 */\n      iszero\n      tag_25\n      jumpi\n        /* \"homework/trycatch/UseTryCatch.sol\":2175:2176  0 */\n      0x00\n        /* \"homework/trycatch/UseTryCatch.sol\":2168:2176  return 0 */\n      swap1\n      pop\n      jump(tag_24)\n        /* \"homework/trycatch/UseTryCatch.sol\":2135:2176  if (bytes(hexString).length < 2) return 0 */\n    tag_25:\n        /* \"homework/trycatch/UseTryCatch.sol\":2186:2207  bytes memory hexBytes */\n      0x00\n        /* \"homework/trycatch/UseTryCatch.sol\":2216:2225  hexString */\n      dup3\n        /* \"homework/trycatch/UseTryCatch.sol\":2186:2226  bytes memory hexBytes = bytes(hexString) */\n      swap1\n      pop\n        /* \"homework/trycatch/UseTryCatch.sol\":2280:2298  hexBytes[0] != '0' */\n      0x3000000000000000000000000000000000000000000000000000000000000000\n        /* \"homework/trycatch/UseTryCatch.sol\":2280:2288  hexBytes */\n      dup2\n        /* \"homework/trycatch/UseTryCatch.sol\":2289:2290  0 */\n      0x00\n        /* \"homework/trycatch/UseTryCatch.sol\":2280:2291  hexBytes[0] */\n      dup2\n      mload\n      dup2\n      lt\n      tag_26\n      jumpi\n      tag_27\n      tag_28\n      jump\t// in\n    tag_27:\n    tag_26:\n      0x20\n      add\n      add\n      mload\n      0xf8\n      shr\n      0xf8\n      shl\n        /* \"homework/trycatch/UseTryCatch.sol\":2280:2298  hexBytes[0] != '0' */\n      not(0xffffffffffffffffffffffffffffffffffffffffffffffffffffffffffffff)\n      and\n      eq\n      iszero\n        /* \"homework/trycatch/UseTryCatch.sol\":2280:2344  hexBytes[0] != '0' || (hexBytes[1] != 'x' && hexBytes[1] != 'X') */\n      dup1\n      tag_29\n      jumpi\n      pop\n        /* \"homework/trycatch/UseTryCatch.sol\":2303:2321  hexBytes[1] != 'x' */\n      0x7800000000000000000000000000000000000000000000000000000000000000\n        /* \"homework/trycatch/UseTryCatch.sol\":2303:2311  hexBytes */\n      dup2\n        /* \"homework/trycatch/UseTryCatch.sol\":2312:2313  1 */\n      0x01\n        /* \"homework/trycatch/UseTryCatch.sol\":2303:2314  hexBytes[1] */\n      dup2\n      mload\n      dup2\n      lt\n      tag_30\n      jumpi\n      tag_31\n      tag_28\n      jump\t// in\n    tag_31:\n    tag_30:\n      0x20\n      add\n      add\n      mload\n      0xf8\n      shr\n      0xf8\n      shl\n        /* \"homework/trycatch/UseTryCatch.sol\":2303:2321  hexBytes[1] != 'x' */\n      not(0xffffffffffffffffffffffffffffffffffffffffffffffffffffffffffffff)\n      and\n      eq\n      iszero\n        /* \"homework/trycatch/UseTryCatch.sol\":2303:2343  hexBytes[1] != 'x' && hexBytes[1] != 'X' */\n      dup1\n      iszero\n      tag_32\n      jumpi\n      pop\n        /* \"homework/trycatch/UseTryCatch.sol\":2325:2343  hexBytes[1] != 'X' */\n      0x5800000000000000000000000000000000000000000000000000000000000000\n        /* \"homework/trycatch/UseTryCatch.sol\":2325:2333  hexBytes */\n      dup2\n        /* \"homework/trycatch/UseTryCatch.sol\":2334:2335  1 */\n      0x01\n        /* \"homework/trycatch/UseTryCatch.sol\":2325:2336  hexBytes[1] */\n      dup2\n      mload\n      dup2\n      lt\n      tag_33\n      jumpi\n      tag_34\n      tag_28\n      jump\t// in\n    tag_34:\n    tag_33:\n      0x20\n      add\n      add\n      mload\n      0xf8\n      shr\n      0xf8\n      shl\n        /* \"homework/trycatch/UseTryCatch.sol\":2325:2343  hexBytes[1] != 'X' */\n      not(0xffffffffffffffffffffffffffffffffffffffffffffffffffffffffffffff)\n      and\n      eq\n      iszero\n        /* \"homework/trycatch/UseTryCatch.sol\":2303:2343  hexBytes[1] != 'x' && hexBytes[1] != 'X' */\n    tag_32:\n        /* \"homework/trycatch/UseTryCatch.sol\":2280:2344  hexBytes[0] != '0' || (hexBytes[1] != 'x' && hexBytes[1] != 'X') */\n    tag_29:\n        /* \"homework/trycatch/UseTryCatch.sol\":2276:2399  if (hexBytes[0] != '0' || (hexBytes[1] != 'x' && hexBytes[1] != 'X')) {... */\n      iszero\n      tag_35\n      jumpi\n        /* \"homework/trycatch/UseTryCatch.sol\":2360:2388  revert(\"Invalid hex string\") */\n      mload(0x40)\n      0x08c379a000000000000000000000000000000000000000000000000000000000\n      dup2\n      mstore\n      0x04\n      add\n      tag_36\n      swap1\n      tag_37\n      jump\t// in\n    tag_36:\n      mload(0x40)\n      dup1\n      swap2\n      sub\n      swap1\n      revert\n        /* \"homework/trycatch/UseTryCatch.sol\":2276:2399  if (hexBytes[0] != '0' || (hexBytes[1] != 'x' && hexBytes[1] != 'X')) {... */\n    tag_35:\n        /* \"homework/trycatch/UseTryCatch.sol\":2463:2481  uint256 dataLength */\n      0x00\n        /* \"homework/trycatch/UseTryCatch.sol\":2502:2503  2 */\n      0x02\n        /* \"homework/trycatch/UseTryCatch.sol\":2484:2492  hexBytes */\n      dup3\n        /* \"homework/trycatch/UseTryCatch.sol\":2484:2499  hexBytes.length */\n      mload\n        /* \"homework/trycatch/UseTryCatch.sol\":2484:2503  hexBytes.length - 2 */\n      tag_38\n      swap2\n      swap1\n      tag_39\n      jump\t// in\n    tag_38:\n        /* \"homework/trycatch/UseTryCatch.sol\":2463:2503  uint256 dataLength = hexBytes.length - 2 */\n      swap1\n      pop\n        /* \"homework/trycatch/UseTryCatch.sol\":2535:2536  0 */\n      0x00\n        /* \"homework/trycatch/UseTryCatch.sol\":2530:2531  2 */\n      0x02\n        /* \"homework/trycatch/UseTryCatch.sol\":2517:2527  dataLength */\n      dup3\n        /* \"homework/trycatch/UseTryCatch.sol\":2517:2531  dataLength % 2 */\n      tag_40\n      swap2\n      swap1\n      tag_41\n      jump\t// in\n    tag_40:\n        /* \"homework/trycatch/UseTryCatch.sol\":2517:2536  dataLength % 2 != 0 */\n      eq\n        /* \"homework/trycatch/UseTryCatch.sol\":2513:2598  if (dataLength % 2 != 0) {... */\n      tag_42\n      jumpi\n        /* \"homework/trycatch/UseTryCatch.sol\":2552:2587  revert(\"Hex string has odd length\") */\n      mload(0x40)\n      0x08c379a000000000000000000000000000000000000000000000000000000000\n      dup2\n      mstore\n      0x04\n      add\n      tag_43\n      swap1\n      tag_44\n      jump\t// in\n    tag_43:\n      mload(0x40)\n      dup1\n      swap2\n      sub\n      swap1\n      revert\n        /* \"homework/trycatch/UseTryCatch.sol\":2513:2598  if (dataLength % 2 != 0) {... */\n    tag_42:\n        /* \"homework/trycatch/UseTryCatch.sol\":2628:2629  2 */\n      0x02\n        /* \"homework/trycatch/UseTryCatch.sol\":2615:2625  dataLength */\n      dup2\n        /* \"homework/trycatch/UseTryCatch.sol\":2615:2629  dataLength / 2 */\n      tag_45\n      swap2\n      swap1\n      tag_46\n      jump\t// in\n    tag_45:\n        /* \"homework/trycatch/UseTryCatch.sol\":2608:2629  return dataLength / 2 */\n      swap3\n      pop\n      pop\n      pop\n        /* \"homework/trycatch/UseTryCatch.sol\":2050:2636  function byteLength(string memory hexString) public pure returns (uint256) {... */\n    tag_24:\n      swap2\n      swap1\n      pop\n      jump\t// out\n        /* \"#utility.yul\":7:84   */\n    tag_47:\n        /* \"#utility.yul\":44:51   */\n      0x00\n        /* \"#utility.yul\":73:78   */\n      dup2\n        /* \"#utility.yul\":62:78   */\n      swap1\n      pop\n        /* \"#utility.yul\":7:84   */\n      swap2\n      swap1\n      pop\n      jump\t// out\n        /* \"#utility.yul\":90:208   */\n    tag_48:\n        /* \"#utility.yul\":177:201   */\n      tag_80\n        /* \"#utility.yul\":195:200   */\n      dup2\n        /* \"#utility.yul\":177:201   */\n      tag_47\n      jump\t// in\n    tag_80:\n        /* \"#utility.yul\":172:175   */\n      dup3\n        /* \"#utility.yul\":165:202   */\n      mstore\n        /* \"#utility.yul\":90:208   */\n      pop\n      pop\n      jump\t// out\n        /* \"#utility.yul\":214:436   */\n    tag_9:\n        /* \"#utility.yul\":307:311   */\n      0x00\n        /* \"#utility.yul\":345:347   */\n      0x20\n        /* \"#utility.yul\":334:343   */\n      dup3\n        /* \"#utility.yul\":330:348   */\n      add\n        /* \"#utility.yul\":322:348   */\n      swap1\n      pop\n        /* \"#utility.yul\":358:429   */\n      tag_82\n        /* \"#utility.yul\":426:427   */\n      0x00\n        /* \"#utility.yul\":415:424   */\n      dup4\n        /* \"#utility.yul\":411:428   */\n      add\n        /* \"#utility.yul\":402:408   */\n      dup5\n        /* \"#utility.yul\":358:429   */\n      tag_48\n      jump\t// in\n    tag_82:\n        /* \"#utility.yul\":214:436   */\n      swap3\n      swap2\n      pop\n      pop\n      jump\t// out\n        /* \"#utility.yul\":442:517   */\n    tag_49:\n        /* \"#utility.yul\":475:481   */\n      0x00\n        /* \"#utility.yul\":508:510   */\n      0x40\n        /* \"#utility.yul\":502:511   */\n      mload\n        /* \"#utility.yul\":492:511   */\n      swap1\n      pop\n        /* \"#utility.yul\":442:517   */\n      swap1\n      jump\t// out\n        /* \"#utility.yul\":523:640   */\n    tag_50:\n        /* \"#utility.yul\":632:633   */\n      0x00\n        /* \"#utility.yul\":629:630   */\n      dup1\n        /* \"#utility.yul\":622:634   */\n      revert\n        /* \"#utility.yul\":646:763   */\n    tag_51:\n        /* \"#utility.yul\":755:756   */\n      0x00\n        /* \"#utility.yul\":752:753   */\n      dup1\n        /* \"#utility.yul\":745:757   */\n      revert\n        /* \"#utility.yul\":769:895   */\n    tag_52:\n        /* \"#utility.yul\":806:813   */\n      0x00\n        /* \"#utility.yul\":846:888   */\n      0xffffffffffffffffffffffffffffffffffffffff\n        /* \"#utility.yul\":839:844   */\n      dup3\n        /* \"#utility.yul\":835:889   */\n      and\n        /* \"#utility.yul\":824:889   */\n      swap1\n      pop\n        /* \"#utility.yul\":769:895   */\n      swap2\n      swap1\n      pop\n      jump\t// out\n        /* \"#utility.yul\":901:997   */\n    tag_53:\n        /* \"#utility.yul\":938:945   */\n      0x00\n        /* \"#utility.yul\":967:991   */\n      tag_88\n        /* \"#utility.yul\":985:990   */\n      dup3\n        /* \"#utility.yul\":967:991   */\n      tag_52\n      jump\t// in\n    tag_88:\n        /* \"#utility.yul\":956:991   */\n      swap1\n      pop\n        /* \"#utility.yul\":901:997   */\n      swap2\n      swap1\n      pop\n      jump\t// out\n        /* \"#utility.yul\":1003:1111   */\n    tag_54:\n        /* \"#utility.yul\":1052:1059   */\n      0x00\n        /* \"#utility.yul\":1081:1105   */\n      tag_90\n        /* \"#utility.yul\":1099:1104   */\n      dup3\n        /* \"#utility.yul\":1081:1105   */\n      tag_53\n      jump\t// in\n    tag_90:\n        /* \"#utility.yul\":1070:1105   */\n      swap1\n      pop\n        /* \"#utility.yul\":1003:1111   */\n      swap2\n      swap1\n      pop\n      jump\t// out\n        /* \"#utility.yul\":1117:1263   */\n    tag_55:\n        /* \"#utility.yul\":1202:1238   */\n      tag_92\n        /* \"#utility.yul\":1232:1237   */\n      dup2\n        /* \"#utility.yul\":1202:1238   */\n      tag_54\n      jump\t// in\n    tag_92:\n        /* \"#utility.yul\":1195:1200   */\n      dup2\n        /* \"#utility.yul\":1192:1239   */\n      eq\n        /* \"#utility.yul\":1182:1257   */\n      tag_93\n      jumpi\n        /* \"#utility.yul\":1253:1254   */\n      0x00\n        /* \"#utility.yul\":1250:1251   */\n      dup1\n        /* \"#utility.yul\":1243:1255   */\n      revert\n        /* \"#utility.yul\":1182:1257   */\n    tag_93:\n        /* \"#utility.yul\":1117:1263   */\n      pop\n      jump\t// out\n        /* \"#utility.yul\":1269:1432   */\n    tag_56:\n        /* \"#utility.yul\":1327:1332   */\n      0x00\n        /* \"#utility.yul\":1365:1371   */\n      dup2\n        /* \"#utility.yul\":1352:1372   */\n      calldataload\n        /* \"#utility.yul\":1343:1372   */\n      swap1\n      pop\n        /* \"#utility.yul\":1381:1426   */\n      tag_95\n        /* \"#utility.yul\":1420:1425   */\n      dup2\n        /* \"#utility.yul\":1381:1426   */\n      tag_55\n      jump\t// in\n    tag_95:\n        /* \"#utility.yul\":1269:1432   */\n      swap3\n      swap2\n      pop\n      pop\n      jump\t// out\n        /* \"#utility.yul\":1438:1791   */\n    tag_12:\n        /* \"#utility.yul\":1509:1515   */\n      0x00\n        /* \"#utility.yul\":1558:1560   */\n      0x20\n        /* \"#utility.yul\":1546:1555   */\n      dup3\n        /* \"#utility.yul\":1537:1544   */\n      dup5\n        /* \"#utility.yul\":1533:1556   */\n      sub\n        /* \"#utility.yul\":1529:1561   */\n      slt\n        /* \"#utility.yul\":1526:1645   */\n      iszero\n      tag_97\n      jumpi\n        /* \"#utility.yul\":1564:1643   */\n      tag_98\n      tag_50\n      jump\t// in\n    tag_98:\n        /* \"#utility.yul\":1526:1645   */\n    tag_97:\n        /* \"#utility.yul\":1684:1685   */\n      0x00\n        /* \"#utility.yul\":1709:1774   */\n      tag_99\n        /* \"#utility.yul\":1766:1773   */\n      dup5\n        /* \"#utility.yul\":1757:1763   */\n      dup3\n        /* \"#utility.yul\":1746:1755   */\n      dup6\n        /* \"#utility.yul\":1742:1764   */\n      add\n        /* \"#utility.yul\":1709:1774   */\n      tag_56\n      jump\t// in\n    tag_99:\n        /* \"#utility.yul\":1699:1774   */\n      swap2\n      pop\n        /* \"#utility.yul\":1655:1784   */\n      pop\n        /* \"#utility.yul\":1438:1791   */\n      swap3\n      swap2\n      pop\n      pop\n      jump\t// out\n        /* \"#utility.yul\":1797:1914   */\n    tag_57:\n        /* \"#utility.yul\":1906:1907   */\n      0x00\n        /* \"#utility.yul\":1903:1904   */\n      dup1\n        /* \"#utility.yul\":1896:1908   */\n      revert\n        /* \"#utility.yul\":1920:2037   */\n    tag_58:\n        /* \"#utility.yul\":2029:2030   */\n      0x00\n        /* \"#utility.yul\":2026:2027   */\n      dup1\n        /* \"#utility.yul\":2019:2031   */\n      revert\n        /* \"#utility.yul\":2043:2145   */\n    tag_59:\n        /* \"#utility.yul\":2084:2090   */\n      0x00\n        /* \"#utility.yul\":2135:2137   */\n      0x1f\n        /* \"#utility.yul\":2131:2138   */\n      not\n        /* \"#utility.yul\":2126:2128   */\n      0x1f\n        /* \"#utility.yul\":2119:2124   */\n      dup4\n        /* \"#utility.yul\":2115:2129   */\n      add\n        /* \"#utility.yul\":2111:2139   */\n      and\n        /* \"#utility.yul\":2101:2139   */\n      swap1\n      pop\n        /* \"#utility.yul\":2043:2145   */\n      swap2\n      swap1\n      pop\n      jump\t// out\n        /* \"#utility.yul\":2151:2331   */\n    tag_60:\n        /* \"#utility.yul\":2199:2276   */\n      0x4e487b7100000000000000000000000000000000000000000000000000000000\n        /* \"#utility.yul\":2196:2197   */\n      0x00\n        /* \"#utility.yul\":2189:2277   */\n      mstore\n        /* \"#utility.yul\":2296:2300   */\n      0x41\n        /* \"#utility.yul\":2293:2294   */\n      0x04\n        /* \"#utility.yul\":2286:2301   */\n      mstore\n        /* \"#utility.yul\":2320:2324   */\n      0x24\n        /* \"#utility.yul\":2317:2318   */\n      0x00\n        /* \"#utility.yul\":2310:2325   */\n      revert\n        /* \"#utility.yul\":2337:2618   */\n    tag_61:\n        /* \"#utility.yul\":2420:2447   */\n      tag_105\n        /* \"#utility.yul\":2442:2446   */\n      dup3\n        /* \"#utility.yul\":2420:2447   */\n      tag_59\n      jump\t// in\n    tag_105:\n        /* \"#utility.yul\":2412:2418   */\n      dup2\n        /* \"#utility.yul\":2408:2448   */\n      add\n        /* \"#utility.yul\":2550:2556   */\n      dup2\n        /* \"#utility.yul\":2538:2548   */\n      dup2\n        /* \"#utility.yul\":2535:2557   */\n      lt\n        /* \"#utility.yul\":2514:2532   */\n      0xffffffffffffffff\n        /* \"#utility.yul\":2502:2512   */\n      dup3\n        /* \"#utility.yul\":2499:2533   */\n      gt\n        /* \"#utility.yul\":2496:2558   */\n      or\n        /* \"#utility.yul\":2493:2581   */\n      iszero\n      tag_106\n      jumpi\n        /* \"#utility.yul\":2561:2579   */\n      tag_107\n      tag_60\n      jump\t// in\n    tag_107:\n        /* \"#utility.yul\":2493:2581   */\n    tag_106:\n        /* \"#utility.yul\":2601:2611   */\n      dup1\n        /* \"#utility.yul\":2597:2599   */\n      0x40\n        /* \"#utility.yul\":2590:2612   */\n      mstore\n        /* \"#utility.yul\":2380:2618   */\n      pop\n        /* \"#utility.yul\":2337:2618   */\n      pop\n      pop\n      jump\t// out\n        /* \"#utility.yul\":2624:2753   */\n    tag_62:\n        /* \"#utility.yul\":2658:2664   */\n      0x00\n        /* \"#utility.yul\":2685:2705   */\n      tag_109\n      tag_49\n      jump\t// in\n    tag_109:\n        /* \"#utility.yul\":2675:2705   */\n      swap1\n      pop\n        /* \"#utility.yul\":2714:2747   */\n      tag_110\n        /* \"#utility.yul\":2742:2746   */\n      dup3\n        /* \"#utility.yul\":2734:2740   */\n      dup3\n        /* \"#utility.yul\":2714:2747   */\n      tag_61\n      jump\t// in\n    tag_110:\n        /* \"#utility.yul\":2624:2753   */\n      swap2\n      swap1\n      pop\n      jump\t// out\n        /* \"#utility.yul\":2759:3067   */\n    tag_63:\n        /* \"#utility.yul\":2821:2825   */\n      0x00\n        /* \"#utility.yul\":2911:2929   */\n      0xffffffffffffffff\n        /* \"#utility.yul\":2903:2909   */\n      dup3\n        /* \"#utility.yul\":2900:2930   */\n      gt\n        /* \"#utility.yul\":2897:2953   */\n      iszero\n      tag_112\n      jumpi\n        /* \"#utility.yul\":2933:2951   */\n      tag_113\n      tag_60\n      jump\t// in\n    tag_113:\n        /* \"#utility.yul\":2897:2953   */\n    tag_112:\n        /* \"#utility.yul\":2971:3000   */\n      tag_114\n        /* \"#utility.yul\":2993:2999   */\n      dup3\n        /* \"#utility.yul\":2971:3000   */\n      tag_59\n      jump\t// in\n    tag_114:\n        /* \"#utility.yul\":2963:3000   */\n      swap1\n      pop\n        /* \"#utility.yul\":3055:3059   */\n      0x20\n        /* \"#utility.yul\":3049:3053   */\n      dup2\n        /* \"#utility.yul\":3045:3060   */\n      add\n        /* \"#utility.yul\":3037:3060   */\n      swap1\n      pop\n        /* \"#utility.yul\":2759:3067   */\n      swap2\n      swap1\n      pop\n      jump\t// out\n        /* \"#utility.yul\":3073:3219   */\n    tag_64:\n        /* \"#utility.yul\":3170:3176   */\n      dup3\n        /* \"#utility.yul\":3165:3168   */\n      dup2\n        /* \"#utility.yul\":3160:3163   */\n      dup4\n        /* \"#utility.yul\":3147:3177   */\n      calldatacopy\n        /* \"#utility.yul\":3211:3212   */\n      0x00\n        /* \"#utility.yul\":3202:3208   */\n      dup4\n        /* \"#utility.yul\":3197:3200   */\n      dup4\n        /* \"#utility.yul\":3193:3209   */\n      add\n        /* \"#utility.yul\":3186:3213   */\n      mstore\n        /* \"#utility.yul\":3073:3219   */\n      pop\n      pop\n      pop\n      jump\t// out\n        /* \"#utility.yul\":3225:3650   */\n    tag_65:\n        /* \"#utility.yul\":3303:3308   */\n      0x00\n        /* \"#utility.yul\":3328:3394   */\n      tag_117\n        /* \"#utility.yul\":3344:3393   */\n      tag_118\n        /* \"#utility.yul\":3386:3392   */\n      dup5\n        /* \"#utility.yul\":3344:3393   */\n      tag_63\n      jump\t// in\n    tag_118:\n        /* \"#utility.yul\":3328:3394   */\n      tag_62\n      jump\t// in\n    tag_117:\n        /* \"#utility.yul\":3319:3394   */\n      swap1\n      pop\n        /* \"#utility.yul\":3417:3423   */\n      dup3\n        /* \"#utility.yul\":3410:3415   */\n      dup2\n        /* \"#utility.yul\":3403:3424   */\n      mstore\n        /* \"#utility.yul\":3455:3459   */\n      0x20\n        /* \"#utility.yul\":3448:3453   */\n      dup2\n        /* \"#utility.yul\":3444:3460   */\n      add\n        /* \"#utility.yul\":3493:3496   */\n      dup5\n        /* \"#utility.yul\":3484:3490   */\n      dup5\n        /* \"#utility.yul\":3479:3482   */\n      dup5\n        /* \"#utility.yul\":3475:3491   */\n      add\n        /* \"#utility.yul\":3472:3497   */\n      gt\n        /* \"#utility.yul\":3469:3581   */\n      iszero\n      tag_119\n      jumpi\n        /* \"#utility.yul\":3500:3579   */\n      tag_120\n      tag_58\n      jump\t// in\n    tag_120:\n        /* \"#utility.yul\":3469:3581   */\n    tag_119:\n        /* \"#utility.yul\":3590:3644   */\n      tag_121\n        /* \"#utility.yul\":3637:3643   */\n      dup5\n        /* \"#utility.yul\":3632:3635   */\n      dup3\n        /* \"#utility.yul\":3627:3630   */\n      dup6\n        /* \"#utility.yul\":3590:3644   */\n      tag_64\n      jump\t// in\n    tag_121:\n        /* \"#utility.yul\":3309:3650   */\n      pop\n        /* \"#utility.yul\":3225:3650   */\n      swap4\n      swap3\n      pop\n      pop\n      pop\n      jump\t// out\n        /* \"#utility.yul\":3670:4010   */\n    tag_66:\n        /* \"#utility.yul\":3726:3731   */\n      0x00\n        /* \"#utility.yul\":3775:3778   */\n      dup3\n        /* \"#utility.yul\":3768:3772   */\n      0x1f\n        /* \"#utility.yul\":3760:3766   */\n      dup4\n        /* \"#utility.yul\":3756:3773   */\n      add\n        /* \"#utility.yul\":3752:3779   */\n      slt\n        /* \"#utility.yul\":3742:3864   */\n      tag_123\n      jumpi\n        /* \"#utility.yul\":3783:3862   */\n      tag_124\n      tag_57\n      jump\t// in\n    tag_124:\n        /* \"#utility.yul\":3742:3864   */\n    tag_123:\n        /* \"#utility.yul\":3900:3906   */\n      dup2\n        /* \"#utility.yul\":3887:3907   */\n      calldataload\n        /* \"#utility.yul\":3925:4004   */\n      tag_125\n        /* \"#utility.yul\":4000:4003   */\n      dup5\n        /* \"#utility.yul\":3992:3998   */\n      dup3\n        /* \"#utility.yul\":3985:3989   */\n      0x20\n        /* \"#utility.yul\":3977:3983   */\n      dup7\n        /* \"#utility.yul\":3973:3990   */\n      add\n        /* \"#utility.yul\":3925:4004   */\n      tag_65\n      jump\t// in\n    tag_125:\n        /* \"#utility.yul\":3916:4004   */\n      swap2\n      pop\n        /* \"#utility.yul\":3732:4010   */\n      pop\n        /* \"#utility.yul\":3670:4010   */\n      swap3\n      swap2\n      pop\n      pop\n      jump\t// out\n        /* \"#utility.yul\":4016:4525   */\n    tag_17:\n        /* \"#utility.yul\":4085:4091   */\n      0x00\n        /* \"#utility.yul\":4134:4136   */\n      0x20\n        /* \"#utility.yul\":4122:4131   */\n      dup3\n        /* \"#utility.yul\":4113:4120   */\n      dup5\n        /* \"#utility.yul\":4109:4132   */\n      sub\n        /* \"#utility.yul\":4105:4137   */\n      slt\n        /* \"#utility.yul\":4102:4221   */\n      iszero\n      tag_127\n      jumpi\n        /* \"#utility.yul\":4140:4219   */\n      tag_128\n      tag_50\n      jump\t// in\n    tag_128:\n        /* \"#utility.yul\":4102:4221   */\n    tag_127:\n        /* \"#utility.yul\":4288:4289   */\n      0x00\n        /* \"#utility.yul\":4277:4286   */\n      dup3\n        /* \"#utility.yul\":4273:4290   */\n      add\n        /* \"#utility.yul\":4260:4291   */\n      calldataload\n        /* \"#utility.yul\":4318:4336   */\n      0xffffffffffffffff\n        /* \"#utility.yul\":4310:4316   */\n      dup2\n        /* \"#utility.yul\":4307:4337   */\n      gt\n        /* \"#utility.yul\":4304:4421   */\n      iszero\n      tag_129\n      jumpi\n        /* \"#utility.yul\":4340:4419   */\n      tag_130\n      tag_51\n      jump\t// in\n    tag_130:\n        /* \"#utility.yul\":4304:4421   */\n    tag_129:\n        /* \"#utility.yul\":4445:4508   */\n      tag_131\n        /* \"#utility.yul\":4500:4507   */\n      dup5\n        /* \"#utility.yul\":4491:4497   */\n      dup3\n        /* \"#utility.yul\":4480:4489   */\n      dup6\n        /* \"#utility.yul\":4476:4498   */\n      add\n        /* \"#utility.yul\":4445:4508   */\n      tag_66\n      jump\t// in\n    tag_131:\n        /* \"#utility.yul\":4435:4508   */\n      swap2\n      pop\n        /* \"#utility.yul\":4231:4518   */\n      pop\n        /* \"#utility.yul\":4016:4525   */\n      swap3\n      swap2\n      pop\n      pop\n      jump\t// out\n        /* \"#utility.yul\":4531:4630   */\n    tag_67:\n        /* \"#utility.yul\":4583:4589   */\n      0x00\n        /* \"#utility.yul\":4617:4622   */\n      dup2\n        /* \"#utility.yul\":4611:4623   */\n      mload\n        /* \"#utility.yul\":4601:4623   */\n      swap1\n      pop\n        /* \"#utility.yul\":4531:4630   */\n      swap2\n      swap1\n      pop\n      jump\t// out\n        /* \"#utility.yul\":4636:4805   */\n    tag_68:\n        /* \"#utility.yul\":4720:4731   */\n      0x00\n        /* \"#utility.yul\":4754:4760   */\n      dup3\n        /* \"#utility.yul\":4749:4752   */\n      dup3\n        /* \"#utility.yul\":4742:4761   */\n      mstore\n        /* \"#utility.yul\":4794:4798   */\n      0x20\n        /* \"#utility.yul\":4789:4792   */\n      dup3\n        /* \"#utility.yul\":4785:4799   */\n      add\n        /* \"#utility.yul\":4770:4799   */\n      swap1\n      pop\n        /* \"#utility.yul\":4636:4805   */\n      swap3\n      swap2\n      pop\n      pop\n      jump\t// out\n        /* \"#utility.yul\":4811:5057   */\n    tag_69:\n        /* \"#utility.yul\":4892:4893   */\n      0x00\n        /* \"#utility.yul\":4902:5015   */\n    tag_135:\n        /* \"#utility.yul\":4916:4922   */\n      dup4\n        /* \"#utility.yul\":4913:4914   */\n      dup2\n        /* \"#utility.yul\":4910:4923   */\n      lt\n        /* \"#utility.yul\":4902:5015   */\n      iszero\n      tag_137\n      jumpi\n        /* \"#utility.yul\":5001:5002   */\n      dup1\n        /* \"#utility.yul\":4996:4999   */\n      dup3\n        /* \"#utility.yul\":4992:5003   */\n      add\n        /* \"#utility.yul\":4986:5004   */\n      mload\n        /* \"#utility.yul\":4982:4983   */\n      dup2\n        /* \"#utility.yul\":4977:4980   */\n      dup5\n        /* \"#utility.yul\":4973:4984   */\n      add\n        /* \"#utility.yul\":4966:5005   */\n      mstore\n        /* \"#utility.yul\":4938:4940   */\n      0x20\n        /* \"#utility.yul\":4935:4936   */\n      dup2\n        /* \"#utility.yul\":4931:4941   */\n      add\n        /* \"#utility.yul\":4926:4941   */\n      swap1\n      pop\n        /* \"#utility.yul\":4902:5015   */\n      jump(tag_135)\n    tag_137:\n        /* \"#utility.yul\":5049:5050   */\n      0x00\n        /* \"#utility.yul\":5040:5046   */\n      dup5\n        /* \"#utility.yul\":5035:5038   */\n      dup5\n        /* \"#utility.yul\":5031:5047   */\n      add\n        /* \"#utility.yul\":5024:5051   */\n      mstore\n        /* \"#utility.yul\":4873:5057   */\n      pop\n        /* \"#utility.yul\":4811:5057   */\n      pop\n      pop\n      pop\n      jump\t// out\n        /* \"#utility.yul\":5063:5440   */\n    tag_70:\n        /* \"#utility.yul\":5151:5154   */\n      0x00\n        /* \"#utility.yul\":5179:5218   */\n      tag_139\n        /* \"#utility.yul\":5212:5217   */\n      dup3\n        /* \"#utility.yul\":5179:5218   */\n      tag_67\n      jump\t// in\n    tag_139:\n        /* \"#utility.yul\":5234:5305   */\n      tag_140\n        /* \"#utility.yul\":5298:5304   */\n      dup2\n        /* \"#utility.yul\":5293:5296   */\n      dup6\n        /* \"#utility.yul\":5234:5305   */\n      tag_68\n      jump\t// in\n    tag_140:\n        /* \"#utility.yul\":5227:5305   */\n      swap4\n      pop\n        /* \"#utility.yul\":5314:5379   */\n      tag_141\n        /* \"#utility.yul\":5372:5378   */\n      dup2\n        /* \"#utility.yul\":5367:5370   */\n      dup6\n        /* \"#utility.yul\":5360:5364   */\n      0x20\n        /* \"#utility.yul\":5353:5358   */\n      dup7\n        /* \"#utility.yul\":5349:5365   */\n      add\n        /* \"#utility.yul\":5314:5379   */\n      tag_69\n      jump\t// in\n    tag_141:\n        /* \"#utility.yul\":5404:5433   */\n      tag_142\n        /* \"#utility.yul\":5426:5432   */\n      dup2\n        /* \"#utility.yul\":5404:5433   */\n      tag_59\n      jump\t// in\n    tag_142:\n        /* \"#utility.yul\":5399:5402   */\n      dup5\n        /* \"#utility.yul\":5395:5434   */\n      add\n        /* \"#utility.yul\":5388:5434   */\n      swap2\n      pop\n        /* \"#utility.yul\":5155:5440   */\n      pop\n        /* \"#utility.yul\":5063:5440   */\n      swap3\n      swap2\n      pop\n      pop\n      jump\t// out\n        /* \"#utility.yul\":5446:5759   */\n    tag_22:\n        /* \"#utility.yul\":5559:5563   */\n      0x00\n        /* \"#utility.yul\":5597:5599   */\n      0x20\n        /* \"#utility.yul\":5586:5595   */\n      dup3\n        /* \"#utility.yul\":5582:5600   */\n      add\n        /* \"#utility.yul\":5574:5600   */\n      swap1\n      pop\n        /* \"#utility.yul\":5646:5655   */\n      dup2\n        /* \"#utility.yul\":5640:5644   */\n      dup2\n        /* \"#utility.yul\":5636:5656   */\n      sub\n        /* \"#utility.yul\":5632:5633   */\n      0x00\n        /* \"#utility.yul\":5621:5630   */\n      dup4\n        /* \"#utility.yul\":5617:5634   */\n      add\n        /* \"#utility.yul\":5610:5657   */\n      mstore\n        /* \"#utility.yul\":5674:5752   */\n      tag_144\n        /* \"#utility.yul\":5747:5751   */\n      dup2\n        /* \"#utility.yul\":5738:5744   */\n      dup5\n        /* \"#utility.yul\":5674:5752   */\n      tag_70\n      jump\t// in\n    tag_144:\n        /* \"#utility.yul\":5666:5752   */\n      swap1\n      pop\n        /* \"#utility.yul\":5446:5759   */\n      swap3\n      swap2\n      pop\n      pop\n      jump\t// out\n        /* \"#utility.yul\":5765:5945   */\n    tag_28:\n        /* \"#utility.yul\":5813:5890   */\n      0x4e487b7100000000000000000000000000000000000000000000000000000000\n        /* \"#utility.yul\":5810:5811   */\n      0x00\n        /* \"#utility.yul\":5803:5891   */\n      mstore\n        /* \"#utility.yul\":5910:5914   */\n      0x32\n        /* \"#utility.yul\":5907:5908   */\n      0x04\n        /* \"#utility.yul\":5900:5915   */\n      mstore\n        /* \"#utility.yul\":5934:5938   */\n      0x24\n        /* \"#utility.yul\":5931:5932   */\n      0x00\n        /* \"#utility.yul\":5924:5939   */\n      revert\n        /* \"#utility.yul\":5951:6119   */\n    tag_71:\n        /* \"#utility.yul\":6091:6111   */\n      0x496e76616c69642068657820737472696e670000000000000000000000000000\n        /* \"#utility.yul\":6087:6088   */\n      0x00\n        /* \"#utility.yul\":6079:6085   */\n      dup3\n        /* \"#utility.yul\":6075:6089   */\n      add\n        /* \"#utility.yul\":6068:6112   */\n      mstore\n        /* \"#utility.yul\":5951:6119   */\n      pop\n      jump\t// out\n        /* \"#utility.yul\":6125:6491   */\n    tag_72:\n        /* \"#utility.yul\":6267:6270   */\n      0x00\n        /* \"#utility.yul\":6288:6355   */\n      tag_148\n        /* \"#utility.yul\":6352:6354   */\n      0x12\n        /* \"#utility.yul\":6347:6350   */\n      dup4\n        /* \"#utility.yul\":6288:6355   */\n      tag_68\n      jump\t// in\n    tag_148:\n        /* \"#utility.yul\":6281:6355   */\n      swap2\n      pop\n        /* \"#utility.yul\":6364:6457   */\n      tag_149\n        /* \"#utility.yul\":6453:6456   */\n      dup3\n        /* \"#utility.yul\":6364:6457   */\n      tag_71\n      jump\t// in\n    tag_149:\n        /* \"#utility.yul\":6482:6484   */\n      0x20\n        /* \"#utility.yul\":6477:6480   */\n      dup3\n        /* \"#utility.yul\":6473:6485   */\n      add\n        /* \"#utility.yul\":6466:6485   */\n      swap1\n      pop\n        /* \"#utility.yul\":6125:6491   */\n      swap2\n      swap1\n      pop\n      jump\t// out\n        /* \"#utility.yul\":6497:6916   */\n    tag_37:\n        /* \"#utility.yul\":6663:6667   */\n      0x00\n        /* \"#utility.yul\":6701:6703   */\n      0x20\n        /* \"#utility.yul\":6690:6699   */\n      dup3\n        /* \"#utility.yul\":6686:6704   */\n      add\n        /* \"#utility.yul\":6678:6704   */\n      swap1\n      pop\n        /* \"#utility.yul\":6750:6759   */\n      dup2\n        /* \"#utility.yul\":6744:6748   */\n      dup2\n        /* \"#utility.yul\":6740:6760   */\n      sub\n        /* \"#utility.yul\":6736:6737   */\n      0x00\n        /* \"#utility.yul\":6725:6734   */\n      dup4\n        /* \"#utility.yul\":6721:6738   */\n      add\n        /* \"#utility.yul\":6714:6761   */\n      mstore\n        /* \"#utility.yul\":6778:6909   */\n      tag_151\n        /* \"#utility.yul\":6904:6908   */\n      dup2\n        /* \"#utility.yul\":6778:6909   */\n      tag_72\n      jump\t// in\n    tag_151:\n        /* \"#utility.yul\":6770:6909   */\n      swap1\n      pop\n        /* \"#utility.yul\":6497:6916   */\n      swap2\n      swap1\n      pop\n      jump\t// out\n        /* \"#utility.yul\":6922:7102   */\n    tag_73:\n        /* \"#utility.yul\":6970:7047   */\n      0x4e487b7100000000000000000000000000000000000000000000000000000000\n        /* \"#utility.yul\":6967:6968   */\n      0x00\n        /* \"#utility.yul\":6960:7048   */\n      mstore\n        /* \"#utility.yul\":7067:7071   */\n      0x11\n        /* \"#utility.yul\":7064:7065   */\n      0x04\n        /* \"#utility.yul\":7057:7072   */\n      mstore\n        /* \"#utility.yul\":7091:7095   */\n      0x24\n        /* \"#utility.yul\":7088:7089   */\n      0x00\n        /* \"#utility.yul\":7081:7096   */\n      revert\n        /* \"#utility.yul\":7108:7302   */\n    tag_39:\n        /* \"#utility.yul\":7148:7152   */\n      0x00\n        /* \"#utility.yul\":7168:7188   */\n      tag_154\n        /* \"#utility.yul\":7186:7187   */\n      dup3\n        /* \"#utility.yul\":7168:7188   */\n      tag_47\n      jump\t// in\n    tag_154:\n        /* \"#utility.yul\":7163:7188   */\n      swap2\n      pop\n        /* \"#utility.yul\":7202:7222   */\n      tag_155\n        /* \"#utility.yul\":7220:7221   */\n      dup4\n        /* \"#utility.yul\":7202:7222   */\n      tag_47\n      jump\t// in\n    tag_155:\n        /* \"#utility.yul\":7197:7222   */\n      swap3\n      pop\n        /* \"#utility.yul\":7246:7247   */\n      dup3\n        /* \"#utility.yul\":7243:7244   */\n      dup3\n        /* \"#utility.yul\":7239:7248   */\n      sub\n        /* \"#utility.yul\":7231:7248   */\n      swap1\n      pop\n        /* \"#utility.yul\":7270:7271   */\n      dup2\n        /* \"#utility.yul\":7264:7268   */\n      dup2\n        /* \"#utility.yul\":7261:7272   */\n      gt\n        /* \"#utility.yul\":7258:7295   */\n      iszero\n      tag_156\n      jumpi\n        /* \"#utility.yul\":7275:7293   */\n      tag_157\n      tag_73\n      jump\t// in\n    tag_157:\n        /* \"#utility.yul\":7258:7295   */\n    tag_156:\n        /* \"#utility.yul\":7108:7302   */\n      swap3\n      swap2\n      pop\n      pop\n      jump\t// out\n        /* \"#utility.yul\":7308:7488   */\n    tag_74:\n        /* \"#utility.yul\":7356:7433   */\n      0x4e487b7100000000000000000000000000000000000000000000000000000000\n        /* \"#utility.yul\":7353:7354   */\n      0x00\n        /* \"#utility.yul\":7346:7434   */\n      mstore\n        /* \"#utility.yul\":7453:7457   */\n      0x12\n        /* \"#utility.yul\":7450:7451   */\n      0x04\n        /* \"#utility.yul\":7443:7458   */\n      mstore\n        /* \"#utility.yul\":7477:7481   */\n      0x24\n        /* \"#utility.yul\":7474:7475   */\n      0x00\n        /* \"#utility.yul\":7467:7482   */\n      revert\n        /* \"#utility.yul\":7494:7670   */\n    tag_41:\n        /* \"#utility.yul\":7526:7527   */\n      0x00\n        /* \"#utility.yul\":7543:7563   */\n      tag_160\n        /* \"#utility.yul\":7561:7562   */\n      dup3\n        /* \"#utility.yul\":7543:7563   */\n      tag_47\n      jump\t// in\n    tag_160:\n        /* \"#utility.yul\":7538:7563   */\n      swap2\n      pop\n        /* \"#utility.yul\":7577:7597   */\n      tag_161\n        /* \"#utility.yul\":7595:7596   */\n      dup4\n        /* \"#utility.yul\":7577:7597   */\n      tag_47\n      jump\t// in\n    tag_161:\n        /* \"#utility.yul\":7572:7597   */\n      swap3\n      pop\n        /* \"#utility.yul\":7616:7617   */\n      dup3\n        /* \"#utility.yul\":7606:7641   */\n      tag_162\n      jumpi\n        /* \"#utility.yul\":7621:7639   */\n      tag_163\n      tag_74\n      jump\t// in\n    tag_163:\n        /* \"#utility.yul\":7606:7641   */\n    tag_162:\n        /* \"#utility.yul\":7662:7663   */\n      dup3\n        /* \"#utility.yul\":7659:7660   */\n      dup3\n        /* \"#utility.yul\":7655:7664   */\n      mod\n        /* \"#utility.yul\":7650:7664   */\n      swap1\n      pop\n        /* \"#utility.yul\":7494:7670   */\n      swap3\n      swap2\n      pop\n      pop\n      jump\t// out\n        /* \"#utility.yul\":7676:7851   */\n    tag_75:\n        /* \"#utility.yul\":7816:7843   */\n      0x48657820737472696e6720686173206f6464206c656e67746800000000000000\n        /* \"#utility.yul\":7812:7813   */\n      0x00\n        /* \"#utility.yul\":7804:7810   */\n      dup3\n        /* \"#utility.yul\":7800:7814   */\n      add\n        /* \"#utility.yul\":7793:7844   */\n      mstore\n        /* \"#utility.yul\":7676:7851   */\n      pop\n      jump\t// out\n        /* \"#utility.yul\":7857:8223   */\n    tag_76:\n        /* \"#utility.yul\":7999:8002   */\n      0x00\n        /* \"#utility.yul\":8020:8087   */\n      tag_166\n        /* \"#utility.yul\":8084:8086   */\n      0x19\n        /* \"#utility.yul\":8079:8082   */\n      dup4\n        /* \"#utility.yul\":8020:8087   */\n      tag_68\n      jump\t// in\n    tag_166:\n        /* \"#utility.yul\":8013:8087   */\n      swap2\n      pop\n        /* \"#utility.yul\":8096:8189   */\n      tag_167\n        /* \"#utility.yul\":8185:8188   */\n      dup3\n        /* \"#utility.yul\":8096:8189   */\n      tag_75\n      jump\t// in\n    tag_167:\n        /* \"#utility.yul\":8214:8216   */\n      0x20\n        /* \"#utility.yul\":8209:8212   */\n      dup3\n        /* \"#utility.yul\":8205:8217   */\n      add\n        /* \"#utility.yul\":8198:8217   */\n      swap1\n      pop\n        /* \"#utility.yul\":7857:8223   */\n      swap2\n      swap1\n      pop\n      jump\t// out\n        /* \"#utility.yul\":8229:8648   */\n    tag_44:\n        /* \"#utility.yul\":8395:8399   */\n      0x00\n        /* \"#utility.yul\":8433:8435   */\n      0x20\n        /* \"#utility.yul\":8422:8431   */\n      dup3\n        /* \"#utility.yul\":8418:8436   */\n      add\n        /* \"#utility.yul\":8410:8436   */\n      swap1\n      pop\n        /* \"#utility.yul\":8482:8491   */\n      dup2\n        /* \"#utility.yul\":8476:8480   */\n      dup2\n        /* \"#utility.yul\":8472:8492   */\n      sub\n        /* \"#utility.yul\":8468:8469   */\n      0x00\n        /* \"#utility.yul\":8457:8466   */\n      dup4\n        /* \"#utility.yul\":8453:8470   */\n      add\n        /* \"#utility.yul\":8446:8493   */\n      mstore\n        /* \"#utility.yul\":8510:8641   */\n      tag_169\n        /* \"#utility.yul\":8636:8640   */\n      dup2\n        /* \"#utility.yul\":8510:8641   */\n      tag_76\n      jump\t// in\n    tag_169:\n        /* \"#utility.yul\":8502:8641   */\n      swap1\n      pop\n        /* \"#utility.yul\":8229:8648   */\n      swap2\n      swap1\n      pop\n      jump\t// out\n        /* \"#utility.yul\":8654:8839   */\n    tag_46:\n        /* \"#utility.yul\":8694:8695   */\n      0x00\n        /* \"#utility.yul\":8711:8731   */\n      tag_171\n        /* \"#utility.yul\":8729:8730   */\n      dup3\n        /* \"#utility.yul\":8711:8731   */\n      tag_47\n      jump\t// in\n    tag_171:\n        /* \"#utility.yul\":8706:8731   */\n      swap2\n      pop\n        /* \"#utility.yul\":8745:8765   */\n      tag_172\n        /* \"#utility.yul\":8763:8764   */\n      dup4\n        /* \"#utility.yul\":8745:8765   */\n      tag_47\n      jump\t// in\n    tag_172:\n        /* \"#utility.yul\":8740:8765   */\n      swap3\n      pop\n        /* \"#utility.yul\":8784:8785   */\n      dup3\n        /* \"#utility.yul\":8774:8809   */\n      tag_173\n      jumpi\n        /* \"#utility.yul\":8789:8807   */\n      tag_174\n      tag_74\n      jump\t// in\n    tag_174:\n        /* \"#utility.yul\":8774:8809   */\n    tag_173:\n        /* \"#utility.yul\":8831:8832   */\n      dup3\n        /* \"#utility.yul\":8828:8829   */\n      dup3\n        /* \"#utility.yul\":8824:8833   */\n      div\n        /* \"#utility.yul\":8819:8833   */\n      swap1\n      pop\n        /* \"#utility.yul\":8654:8839   */\n      swap3\n      swap2\n      pop\n      pop\n      jump\t// out\n    stop\n    data_3e0732179cf8623a92de66687b05e2c7778a4560fb6508b3232a95746c1c0221 66756e6374696f6e207472616e73666572286164647265737320726563697069656e742c2075696e7432353620616d6f756e7429\n\n    auxdata: 0xa2646970667358221220af1d58d93a48b7f4a71ff88c7293d515fdc7129fd3726a779c64b125502c1ad764736f6c63430008110033\n}\n",
				"bytecode": {
					"linkReferences": {},
					"object": "608060405234801561001057600080fd5b506108a2806100206000396000f3fe608060405234801561001057600080fd5b50600436106100415760003560e01c806396f1b6be14610046578063a068029f14610064578063b44c6caf14610094575b600080fd5b61004e6100c4565b60405161005b9190610341565b60405180910390f35b61007e600480360381019061007991906103e0565b61010f565b60405161008b9190610341565b60405180910390f35b6100ae60048036038101906100a99190610553565b61011b565b6040516100bb9190610341565b60405180910390f35b6000806040518060600160405280603481526020016108396034913990506000816040516020016100f5919061061b565b604051602081830303815290604052905080519250505090565b60008082905050919050565b60006002825110156101305760009050610323565b60008290507f30000000000000000000000000000000000000000000000000000000000000008160008151811061016a5761016961063d565b5b602001015160f81c60f81b7effffffffffffffffffffffffffffffffffffffffffffffffffffffffffffff191614158061027057507f7800000000000000000000000000000000000000000000000000000000000000816001815181106101d4576101d361063d565b5b602001015160f81c60f81b7effffffffffffffffffffffffffffffffffffffffffffffffffffffffffffff19161415801561026f57507f58000000000000000000000000000000000000000000000000000000000000008160018151811061023f5761023e61063d565b5b602001015160f81c60f81b7effffffffffffffffffffffffffffffffffffffffffffffffffffffffffffff191614155b5b156102b0576040517f08c379a00000000000000000000000000000000000000000000000000000000081526004016102a7906106b8565b60405180910390fd5b6000600282516102c09190610707565b905060006002826102d1919061076a565b14610311576040517f08c379a0000000000000000000000000000000000000000000000000000000008152600401610308906107e7565b60405180910390fd5b60028161031e9190610807565b925050505b919050565b6000819050919050565b61033b81610328565b82525050565b60006020820190506103566000830184610332565b92915050565b6000604051905090565b600080fd5b600080fd5b600073ffffffffffffffffffffffffffffffffffffffff82169050919050565b600061039b82610370565b9050919050565b60006103ad82610390565b9050919050565b6103bd816103a2565b81146103c857600080fd5b50565b6000813590506103da816103b4565b92915050565b6000602082840312156103f6576103f5610366565b5b6000610404848285016103cb565b91505092915050565b600080fd5b600080fd5b6000601f19601f8301169050919050565b7f4e487b7100000000000000000000000000000000000000000000000000000000600052604160045260246000fd5b61046082610417565b810181811067ffffffffffffffff8211171561047f5761047e610428565b5b80604052505050565b600061049261035c565b905061049e8282610457565b919050565b600067ffffffffffffffff8211156104be576104bd610428565b5b6104c782610417565b9050602081019050919050565b82818337600083830152505050565b60006104f66104f1846104a3565b610488565b90508281526020810184848401111561051257610511610412565b5b61051d8482856104d4565b509392505050565b600082601f83011261053a5761053961040d565b5b813561054a8482602086016104e3565b91505092915050565b60006020828403121561056957610568610366565b5b600082013567ffffffffffffffff8111156105875761058661036b565b5b61059384828501610525565b91505092915050565b600081519050919050565b600082825260208201905092915050565b60005b838110156105d65780820151818401526020810190506105bb565b60008484015250505050565b60006105ed8261059c565b6105f781856105a7565b93506106078185602086016105b8565b61061081610417565b840191505092915050565b6000602082019050818103600083015261063581846105e2565b905092915050565b7f4e487b7100000000000000000000000000000000000000000000000000000000600052603260045260246000fd5b7f496e76616c69642068657820737472696e670000000000000000000000000000600082015250565b60006106a26012836105a7565b91506106ad8261066c565b602082019050919050565b600060208201905081810360008301526106d181610695565b9050919050565b7f4e487b7100000000000000000000000000000000000000000000000000000000600052601160045260246000fd5b600061071282610328565b915061071d83610328565b9250828203905081811115610735576107346106d8565b5b92915050565b7f4e487b7100000000000000000000000000000000000000000000000000000000600052601260045260246000fd5b600061077582610328565b915061078083610328565b9250826107905761078f61073b565b5b828206905092915050565b7f48657820737472696e6720686173206f6464206c656e67746800000000000000600082015250565b60006107d16019836105a7565b91506107dc8261079b565b602082019050919050565b60006020820190508181036000830152610800816107c4565b9050919050565b600061081282610328565b915061081d83610328565b92508261082d5761082c61073b565b5b82820490509291505056fe66756e6374696f6e207472616e73666572286164647265737320726563697069656e742c2075696e7432353620616d6f756e7429a2646970667358221220af1d58d93a48b7f4a71ff88c7293d515fdc7129fd3726a779c64b125502c1ad764736f6c63430008110033",
					"opcodes": "PUSH1 0x80 PUSH1 0x40 MSTORE CALLVALUE DUP1 ISZERO PUSH2 0x10 JUMPI PUSH1 0x0 DUP1 REVERT JUMPDEST POP PUSH2 0x8A2 DUP1 PUSH2 0x20 PUSH1 0x0 CODECOPY PUSH1 0x0 RETURN INVALID PUSH1 0x80 PUSH1 0x40 MSTORE CALLVALUE DUP1 ISZERO PUSH2 0x10 JUMPI PUSH1 0x0 DUP1 REVERT JUMPDEST POP PUSH1 0x4 CALLDATASIZE LT PUSH2 0x41 JUMPI PUSH1 0x0 CALLDATALOAD PUSH1 0xE0 SHR DUP1 PUSH4 0x96F1B6BE EQ PUSH2 0x46 JUMPI DUP1 PUSH4 0xA068029F EQ PUSH2 0x64 JUMPI DUP1 PUSH4 0xB44C6CAF EQ PUSH2 0x94 JUMPI JUMPDEST PUSH1 0x0 DUP1 REVERT JUMPDEST PUSH2 0x4E PUSH2 0xC4 JUMP JUMPDEST PUSH1 0x40 MLOAD PUSH2 0x5B SWAP2 SWAP1 PUSH2 0x341 JUMP JUMPDEST PUSH1 0x40 MLOAD DUP1 SWAP2 SUB SWAP1 RETURN JUMPDEST PUSH2 0x7E PUSH1 0x4 DUP1 CALLDATASIZE SUB DUP2 ADD SWAP1 PUSH2 0x79 SWAP2 SWAP1 PUSH2 0x3E0 JUMP JUMPDEST PUSH2 0x10F JUMP JUMPDEST PUSH1 0x40 MLOAD PUSH2 0x8B SWAP2 SWAP1 PUSH2 0x341 JUMP JUMPDEST PUSH1 0x40 MLOAD DUP1 SWAP2 SUB SWAP1 RETURN JUMPDEST PUSH2 0xAE PUSH1 0x4 DUP1 CALLDATASIZE SUB DUP2 ADD SWAP1 PUSH2 0xA9 SWAP2 SWAP1 PUSH2 0x553 JUMP JUMPDEST PUSH2 0x11B JUMP JUMPDEST PUSH1 0x40 MLOAD PUSH2 0xBB SWAP2 SWAP1 PUSH2 0x341 JUMP JUMPDEST PUSH1 0x40 MLOAD DUP1 SWAP2 SUB SWAP1 RETURN JUMPDEST PUSH1 0x0 DUP1 PUSH1 0x40 MLOAD DUP1 PUSH1 0x60 ADD PUSH1 0x40 MSTORE DUP1 PUSH1 0x34 DUP2 MSTORE PUSH1 0x20 ADD PUSH2 0x839 PUSH1 0x34 SWAP2 CODECOPY SWAP1 POP PUSH1 0x0 DUP2 PUSH1 0x40 MLOAD PUSH1 0x20 ADD PUSH2 0xF5 SWAP2 SWAP1 PUSH2 0x61B JUMP JUMPDEST PUSH1 0x40 MLOAD PUSH1 0x20 DUP2 DUP4 SUB SUB DUP2 MSTORE SWAP1 PUSH1 0x40 MSTORE SWAP1 POP DUP1 MLOAD SWAP3 POP POP POP SWAP1 JUMP JUMPDEST PUSH1 0x0 DUP1 DUP3 SWAP1 POP POP SWAP2 SWAP1 POP JUMP JUMPDEST PUSH1 0x0 PUSH1 0x2 DUP3 MLOAD LT ISZERO PUSH2 0x130 JUMPI PUSH1 0x0 SWAP1 POP PUSH2 0x323 JUMP JUMPDEST PUSH1 0x0 DUP3 SWAP1 POP PUSH32 0x3000000000000000000000000000000000000000000000000000000000000000 DUP2 PUSH1 0x0 DUP2 MLOAD DUP2 LT PUSH2 0x16A JUMPI PUSH2 0x169 PUSH2 0x63D JUMP JUMPDEST JUMPDEST PUSH1 0x20 ADD ADD MLOAD PUSH1 0xF8 SHR PUSH1 0xF8 SHL PUSH31 0xFFFFFFFFFFFFFFFFFFFFFFFFFFFFFFFFFFFFFFFFFFFFFFFFFFFFFFFFFFFFFF NOT AND EQ ISZERO DUP1 PUSH2 0x270 JUMPI POP PUSH32 0x7800000000000000000000000000000000000000000000000000000000000000 DUP2 PUSH1 0x1 DUP2 MLOAD DUP2 LT PUSH2 0x1D4 JUMPI PUSH2 0x1D3 PUSH2 0x63D JUMP JUMPDEST JUMPDEST PUSH1 0x20 ADD ADD MLOAD PUSH1 0xF8 SHR PUSH1 0xF8 SHL PUSH31 0xFFFFFFFFFFFFFFFFFFFFFFFFFFFFFFFFFFFFFFFFFFFFFFFFFFFFFFFFFFFFFF NOT AND EQ ISZERO DUP1 ISZERO PUSH2 0x26F JUMPI POP PUSH32 0x5800000000000000000000000000000000000000000000000000000000000000 DUP2 PUSH1 0x1 DUP2 MLOAD DUP2 LT PUSH2 0x23F JUMPI PUSH2 0x23E PUSH2 0x63D JUMP JUMPDEST JUMPDEST PUSH1 0x20 ADD ADD MLOAD PUSH1 0xF8 SHR PUSH1 0xF8 SHL PUSH31 0xFFFFFFFFFFFFFFFFFFFFFFFFFFFFFFFFFFFFFFFFFFFFFFFFFFFFFFFFFFFFFF NOT AND EQ ISZERO JUMPDEST JUMPDEST ISZERO PUSH2 0x2B0 JUMPI PUSH1 0x40 MLOAD PUSH32 0x8C379A000000000000000000000000000000000000000000000000000000000 DUP2 MSTORE PUSH1 0x4 ADD PUSH2 0x2A7 SWAP1 PUSH2 0x6B8 JUMP JUMPDEST PUSH1 0x40 MLOAD DUP1 SWAP2 SUB SWAP1 REVERT JUMPDEST PUSH1 0x0 PUSH1 0x2 DUP3 MLOAD PUSH2 0x2C0 SWAP2 SWAP1 PUSH2 0x707 JUMP JUMPDEST SWAP1 POP PUSH1 0x0 PUSH1 0x2 DUP3 PUSH2 0x2D1 SWAP2 SWAP1 PUSH2 0x76A JUMP JUMPDEST EQ PUSH2 0x311 JUMPI PUSH1 0x40 MLOAD PUSH32 0x8C379A000000000000000000000000000000000000000000000000000000000 DUP2 MSTORE PUSH1 0x4 ADD PUSH2 0x308 SWAP1 PUSH2 0x7E7 JUMP JUMPDEST PUSH1 0x40 MLOAD DUP1 SWAP2 SUB SWAP1 REVERT JUMPDEST PUSH1 0x2 DUP2 PUSH2 0x31E SWAP2 SWAP1 PUSH2 0x807 JUMP JUMPDEST SWAP3 POP POP POP JUMPDEST SWAP2 SWAP1 POP JUMP JUMPDEST PUSH1 0x0 DUP2 SWAP1 POP SWAP2 SWAP1 POP JUMP JUMPDEST PUSH2 0x33B DUP2 PUSH2 0x328 JUMP JUMPDEST DUP3 MSTORE POP POP JUMP JUMPDEST PUSH1 0x0 PUSH1 0x20 DUP3 ADD SWAP1 POP PUSH2 0x356 PUSH1 0x0 DUP4 ADD DUP5 PUSH2 0x332 JUMP JUMPDEST SWAP3 SWAP2 POP POP JUMP JUMPDEST PUSH1 0x0 PUSH1 0x40 MLOAD SWAP1 POP SWAP1 JUMP JUMPDEST PUSH1 0x0 DUP1 REVERT JUMPDEST PUSH1 0x0 DUP1 REVERT JUMPDEST PUSH1 0x0 PUSH20 0xFFFFFFFFFFFFFFFFFFFFFFFFFFFFFFFFFFFFFFFF DUP3 AND SWAP1 POP SWAP2 SWAP1 POP JUMP JUMPDEST PUSH1 0x0 PUSH2 0x39B DUP3 PUSH2 0x370 JUMP JUMPDEST SWAP1 POP SWAP2 SWAP1 POP JUMP JUMPDEST PUSH1 0x0 PUSH2 0x3AD DUP3 PUSH2 0x390 JUMP JUMPDEST SWAP1 POP SWAP2 SWAP1 POP JUMP JUMPDEST PUSH2 0x3BD DUP2 PUSH2 0x3A2 JUMP JUMPDEST DUP2 EQ PUSH2 0x3C8 JUMPI PUSH1 0x0 DUP1 REVERT JUMPDEST POP JUMP JUMPDEST PUSH1 0x0 DUP2 CALLDATALOAD SWAP1 POP PUSH2 0x3DA DUP2 PUSH2 0x3B4 JUMP JUMPDEST SWAP3 SWAP2 POP POP JUMP JUMPDEST PUSH1 0x0 PUSH1 0x20 DUP3 DUP5 SUB SLT ISZERO PUSH2 0x3F6 JUMPI PUSH2 0x3F5 PUSH2 0x366 JUMP JUMPDEST JUMPDEST PUSH1 0x0 PUSH2 0x404 DUP5 DUP3 DUP6 ADD PUSH2 0x3CB JUMP JUMPDEST SWAP2 POP POP SWAP3 SWAP2 POP POP JUMP JUMPDEST PUSH1 0x0 DUP1 REVERT JUMPDEST PUSH1 0x0 DUP1 REVERT JUMPDEST PUSH1 0x0 PUSH1 0x1F NOT PUSH1 0x1F DUP4 ADD AND SWAP1 POP SWAP2 SWAP1 POP JUMP JUMPDEST PUSH32 0x4E487B7100000000000000000000000000000000000000000000000000000000 PUSH1 0x0 MSTORE PUSH1 0x41 PUSH1 0x4 MSTORE PUSH1 0x24 PUSH1 0x0 REVERT JUMPDEST PUSH2 0x460 DUP3 PUSH2 0x417 JUMP JUMPDEST DUP2 ADD DUP2 DUP2 LT PUSH8 0xFFFFFFFFFFFFFFFF DUP3 GT OR ISZERO PUSH2 0x47F JUMPI PUSH2 0x47E PUSH2 0x428 JUMP JUMPDEST JUMPDEST DUP1 PUSH1 0x40 MSTORE POP POP POP JUMP JUMPDEST PUSH1 0x0 PUSH2 0x492 PUSH2 0x35C JUMP JUMPDEST SWAP1 POP PUSH2 0x49E DUP3 DUP3 PUSH2 0x457 JUMP JUMPDEST SWAP2 SWAP1 POP JUMP JUMPDEST PUSH1 0x0 PUSH8 0xFFFFFFFFFFFFFFFF DUP3 GT ISZERO PUSH2 0x4BE JUMPI PUSH2 0x4BD PUSH2 0x428 JUMP JUMPDEST JUMPDEST PUSH2 0x4C7 DUP3 PUSH2 0x417 JUMP JUMPDEST SWAP1 POP PUSH1 0x20 DUP2 ADD SWAP1 POP SWAP2 SWAP1 POP JUMP JUMPDEST DUP3 DUP2 DUP4 CALLDATACOPY PUSH1 0x0 DUP4 DUP4 ADD MSTORE POP POP POP JUMP JUMPDEST PUSH1 0x0 PUSH2 0x4F6 PUSH2 0x4F1 DUP5 PUSH2 0x4A3 JUMP JUMPDEST PUSH2 0x488 JUMP JUMPDEST SWAP1 POP DUP3 DUP2 MSTORE PUSH1 0x20 DUP2 ADD DUP5 DUP5 DUP5 ADD GT ISZERO PUSH2 0x512 JUMPI PUSH2 0x511 PUSH2 0x412 JUMP JUMPDEST JUMPDEST PUSH2 0x51D DUP5 DUP3 DUP6 PUSH2 0x4D4 JUMP JUMPDEST POP SWAP4 SWAP3 POP POP POP JUMP JUMPDEST PUSH1 0x0 DUP3 PUSH1 0x1F DUP4 ADD SLT PUSH2 0x53A JUMPI PUSH2 0x539 PUSH2 0x40D JUMP JUMPDEST JUMPDEST DUP2 CALLDATALOAD PUSH2 0x54A DUP5 DUP3 PUSH1 0x20 DUP7 ADD PUSH2 0x4E3 JUMP JUMPDEST SWAP2 POP POP SWAP3 SWAP2 POP POP JUMP JUMPDEST PUSH1 0x0 PUSH1 0x20 DUP3 DUP5 SUB SLT ISZERO PUSH2 0x569 JUMPI PUSH2 0x568 PUSH2 0x366 JUMP JUMPDEST JUMPDEST PUSH1 0x0 DUP3 ADD CALLDATALOAD PUSH8 0xFFFFFFFFFFFFFFFF DUP2 GT ISZERO PUSH2 0x587 JUMPI PUSH2 0x586 PUSH2 0x36B JUMP JUMPDEST JUMPDEST PUSH2 0x593 DUP5 DUP3 DUP6 ADD PUSH2 0x525 JUMP JUMPDEST SWAP2 POP POP SWAP3 SWAP2 POP POP JUMP JUMPDEST PUSH1 0x0 DUP2 MLOAD SWAP1 POP SWAP2 SWAP1 POP JUMP JUMPDEST PUSH1 0x0 DUP3 DUP3 MSTORE PUSH1 0x20 DUP3 ADD SWAP1 POP SWAP3 SWAP2 POP POP JUMP JUMPDEST PUSH1 0x0 JUMPDEST DUP4 DUP2 LT ISZERO PUSH2 0x5D6 JUMPI DUP1 DUP3 ADD MLOAD DUP2 DUP5 ADD MSTORE PUSH1 0x20 DUP2 ADD SWAP1 POP PUSH2 0x5BB JUMP JUMPDEST PUSH1 0x0 DUP5 DUP5 ADD MSTORE POP POP POP POP JUMP JUMPDEST PUSH1 0x0 PUSH2 0x5ED DUP3 PUSH2 0x59C JUMP JUMPDEST PUSH2 0x5F7 DUP2 DUP6 PUSH2 0x5A7 JUMP JUMPDEST SWAP4 POP PUSH2 0x607 DUP2 DUP6 PUSH1 0x20 DUP7 ADD PUSH2 0x5B8 JUMP JUMPDEST PUSH2 0x610 DUP2 PUSH2 0x417 JUMP JUMPDEST DUP5 ADD SWAP2 POP POP SWAP3 SWAP2 POP POP JUMP JUMPDEST PUSH1 0x0 PUSH1 0x20 DUP3 ADD SWAP1 POP DUP2 DUP2 SUB PUSH1 0x0 DUP4 ADD MSTORE PUSH2 0x635 DUP2 DUP5 PUSH2 0x5E2 JUMP JUMPDEST SWAP1 POP SWAP3 SWAP2 POP POP JUMP JUMPDEST PUSH32 0x4E487B7100000000000000000000000000000000000000000000000000000000 PUSH1 0x0 MSTORE PUSH1 0x32 PUSH1 0x4 MSTORE PUSH1 0x24 PUSH1 0x0 REVERT JUMPDEST PUSH32 0x496E76616C69642068657820737472696E670000000000000000000000000000 PUSH1 0x0 DUP3 ADD MSTORE POP JUMP JUMPDEST PUSH1 0x0 PUSH2 0x6A2 PUSH1 0x12 DUP4 PUSH2 0x5A7 JUMP JUMPDEST SWAP2 POP PUSH2 0x6AD DUP3 PUSH2 0x66C JUMP JUMPDEST PUSH1 0x20 DUP3 ADD SWAP1 POP SWAP2 SWAP1 POP JUMP JUMPDEST PUSH1 0x0 PUSH1 0x20 DUP3 ADD SWAP1 POP DUP2 DUP2 SUB PUSH1 0x0 DUP4 ADD MSTORE PUSH2 0x6D1 DUP2 PUSH2 0x695 JUMP JUMPDEST SWAP1 POP SWAP2 SWAP1 POP JUMP JUMPDEST PUSH32 0x4E487B7100000000000000000000000000000000000000000000000000000000 PUSH1 0x0 MSTORE PUSH1 0x11 PUSH1 0x4 MSTORE PUSH1 0x24 PUSH1 0x0 REVERT JUMPDEST PUSH1 0x0 PUSH2 0x712 DUP3 PUSH2 0x328 JUMP JUMPDEST SWAP2 POP PUSH2 0x71D DUP4 PUSH2 0x328 JUMP JUMPDEST SWAP3 POP DUP3 DUP3 SUB SWAP1 POP DUP2 DUP2 GT ISZERO PUSH2 0x735 JUMPI PUSH2 0x734 PUSH2 0x6D8 JUMP JUMPDEST JUMPDEST SWAP3 SWAP2 POP POP JUMP JUMPDEST PUSH32 0x4E487B7100000000000000000000000000000000000000000000000000000000 PUSH1 0x0 MSTORE PUSH1 0x12 PUSH1 0x4 MSTORE PUSH1 0x24 PUSH1 0x0 REVERT JUMPDEST PUSH1 0x0 PUSH2 0x775 DUP3 PUSH2 0x328 JUMP JUMPDEST SWAP2 POP PUSH2 0x780 DUP4 PUSH2 0x328 JUMP JUMPDEST SWAP3 POP DUP3 PUSH2 0x790 JUMPI PUSH2 0x78F PUSH2 0x73B JUMP JUMPDEST JUMPDEST DUP3 DUP3 MOD SWAP1 POP SWAP3 SWAP2 POP POP JUMP JUMPDEST PUSH32 0x48657820737472696E6720686173206F6464206C656E67746800000000000000 PUSH1 0x0 DUP3 ADD MSTORE POP JUMP JUMPDEST PUSH1 0x0 PUSH2 0x7D1 PUSH1 0x19 DUP4 PUSH2 0x5A7 JUMP JUMPDEST SWAP2 POP PUSH2 0x7DC DUP3 PUSH2 0x79B JUMP JUMPDEST PUSH1 0x20 DUP3 ADD SWAP1 POP SWAP2 SWAP1 POP JUMP JUMPDEST PUSH1 0x0 PUSH1 0x20 DUP3 ADD SWAP1 POP DUP2 DUP2 SUB PUSH1 0x0 DUP4 ADD MSTORE PUSH2 0x800 DUP2 PUSH2 0x7C4 JUMP JUMPDEST SWAP1 POP SWAP2 SWAP1 POP JUMP JUMPDEST PUSH1 0x0 PUSH2 0x812 DUP3 PUSH2 0x328 JUMP JUMPDEST SWAP2 POP PUSH2 0x81D DUP4 PUSH2 0x328 JUMP JUMPDEST SWAP3 POP DUP3 PUSH2 0x82D JUMPI PUSH2 0x82C PUSH2 0x73B JUMP JUMPDEST JUMPDEST DUP3 DUP3 DIV SWAP1 POP SWAP3 SWAP2 POP POP JUMP INVALID PUSH7 0x756E6374696F6E KECCAK256 PUSH21 0x72616E736665722861646472657373207265636970 PUSH10 0x656E742C2075696E7432 CALLDATALOAD CALLDATASIZE KECCAK256 PUSH2 0x6D6F PUSH22 0x6E7429A2646970667358221220AF1D58D93A48B7F4A7 0x1F 0xF8 DUP13 PUSH19 0x93D515FDC7129FD3726A779C64B125502C1AD7 PUSH5 0x736F6C6343 STOP ADDMOD GT STOP CALLER "
				},
				"gasEstimates": {
					"creation": {
						"codeDepositCost": "442000",
						"executionCost": "480",
						"totalCost": "442480"
					},
					"external": {
						"byteLength(string)": "infinite",
						"calc()": "infinite",
						"callAddr(address)": "699"
					}
				},
				"methodIdentifiers": {
					"byteLength(string)": "b44c6caf",
					"calc()": "96f1b6be",
					"callAddr(address)": "a068029f"
				}
			},
			"storageLayout": {
				"storage": [],
				"types": null
			},
			"userdoc": {
				"kind": "user",
				"methods": {},
				"version": 1
			}
		}
	}
}