{
	"homework/trycatch/UseTryCatch.sol": {
		"CallerA": {
			"abi": [
				{
					"inputs": [
						{
							"internalType": "address",
							"name": "callee",
							"type": "address"
						},
						{
							"internalType": "uint256",
							"name": "value",
							"type": "uint256"
						}
					],
					"name": "callSetValue",
					"outputs": [
						{
							"internalType": "bool",
							"name": "",
							"type": "bool"
						}
					],
					"stateMutability": "nonpayable",
					"type": "function"
				},
				{
					"inputs": [
						{
							"internalType": "address",
							"name": "callee",
							"type": "address"
						},
						{
							"internalType": "uint256",
							"name": "_newValue",
							"type": "uint256"
						}
					],
					"name": "delegateSetValue",
					"outputs": [],
					"stateMutability": "nonpayable",
					"type": "function"
				},
				{
					"inputs": [
						{
							"internalType": "address",
							"name": "to",
							"type": "address"
						},
						{
							"internalType": "uint256",
							"name": "value",
							"type": "uint256"
						}
					],
					"name": "sendEther",
					"outputs": [
						{
							"internalType": "bool",
							"name": "",
							"type": "bool"
						}
					],
					"stateMutability": "nonpayable",
					"type": "function"
				},
				{
					"stateMutability": "payable",
					"type": "receive"
				}
			],
			"devdoc": {
				"kind": "dev",
				"methods": {},
				"version": 1
			},
			"evm": {
				"assembly": "    /* \"homework/trycatch/UseTryCatch.sol\":3382:4522  contract CallerA {... */\n  mstore(0x40, 0x80)\n  callvalue\n  dup1\n  iszero\n  tag_1\n  jumpi\n  0x00\n  dup1\n  revert\ntag_1:\n  pop\n  dataSize(sub_0)\n  dup1\n  dataOffset(sub_0)\n  0x00\n  codecopy\n  0x00\n  return\nstop\n\nsub_0: assembly {\n        /* \"homework/trycatch/UseTryCatch.sol\":3382:4522  contract CallerA {... */\n      mstore(0x40, 0x80)\n      jumpi(tag_1, lt(calldatasize, 0x04))\n      shr(0xe0, calldataload(0x00))\n      dup1\n      0xc1756a2c\n      eq\n      tag_3\n      jumpi\n      dup1\n      0xc4307f6a\n      eq\n      tag_4\n      jumpi\n      dup1\n      0xfdfa868f\n      eq\n      tag_5\n      jumpi\n      jump(tag_2)\n    tag_1:\n      jumpi(tag_2, calldatasize)\n      stop\n    tag_2:\n      0x00\n      dup1\n      revert\n        /* \"homework/trycatch/UseTryCatch.sol\":3405:3678  function sendEther(address to, uint256 value) public returns (bool) {... */\n    tag_3:\n      callvalue\n      dup1\n      iszero\n      tag_8\n      jumpi\n      0x00\n      dup1\n      revert\n    tag_8:\n      pop\n      tag_9\n      0x04\n      dup1\n      calldatasize\n      sub\n      dup2\n      add\n      swap1\n      tag_10\n      swap2\n      swap1\n      tag_11\n      jump\t// in\n    tag_10:\n      tag_12\n      jump\t// in\n    tag_9:\n      mload(0x40)\n      tag_13\n      swap2\n      swap1\n      tag_14\n      jump\t// in\n    tag_13:\n      mload(0x40)\n      dup1\n      swap2\n      sub\n      swap1\n      return\n        /* \"homework/trycatch/UseTryCatch.sol\":4206:4513  function delegateSetValue(address callee, uint256 _newValue) public {... */\n    tag_4:\n      callvalue\n      dup1\n      iszero\n      tag_15\n      jumpi\n      0x00\n      dup1\n      revert\n    tag_15:\n      pop\n      tag_16\n      0x04\n      dup1\n      calldatasize\n      sub\n      dup2\n      add\n      swap1\n      tag_17\n      swap2\n      swap1\n      tag_11\n      jump\t// in\n    tag_17:\n      tag_18\n      jump\t// in\n    tag_16:\n      stop\n        /* \"homework/trycatch/UseTryCatch.sol\":3849:4200  function callSetValue(address callee, uint256 value) public returns (bool) {... */\n    tag_5:\n      callvalue\n      dup1\n      iszero\n      tag_19\n      jumpi\n      0x00\n      dup1\n      revert\n    tag_19:\n      pop\n      tag_20\n      0x04\n      dup1\n      calldatasize\n      sub\n      dup2\n      add\n      swap1\n      tag_21\n      swap2\n      swap1\n      tag_11\n      jump\t// in\n    tag_21:\n      tag_22\n      jump\t// in\n    tag_20:\n      mload(0x40)\n      tag_23\n      swap2\n      swap1\n      tag_14\n      jump\t// in\n    tag_23:\n      mload(0x40)\n      dup1\n      swap2\n      sub\n      swap1\n      return\n        /* \"homework/trycatch/UseTryCatch.sol\":3405:3678  function sendEther(address to, uint256 value) public returns (bool) {... */\n    tag_12:\n        /* \"homework/trycatch/UseTryCatch.sol\":3467:3471  bool */\n      0x00\n        /* \"homework/trycatch/UseTryCatch.sol\":3520:3532  bool success */\n      dup1\n        /* \"homework/trycatch/UseTryCatch.sol\":3538:3540  to */\n      dup4\n        /* \"homework/trycatch/UseTryCatch.sol\":3538:3545  to.call */\n      0xffffffffffffffffffffffffffffffffffffffff\n      and\n        /* \"homework/trycatch/UseTryCatch.sol\":3553:3558  value */\n      dup4\n        /* \"homework/trycatch/UseTryCatch.sol\":3570:3571  0 */\n      0x00\n        /* \"homework/trycatch/UseTryCatch.sol\":3560:3572  new bytes(0) */\n      0xffffffffffffffff\n      dup2\n      gt\n      iszero\n      tag_25\n      jumpi\n      tag_26\n      tag_27\n      jump\t// in\n    tag_26:\n    tag_25:\n      mload(0x40)\n      swap1\n      dup1\n      dup3\n      mstore\n      dup1\n      0x1f\n      add\n      not(0x1f)\n      and\n      0x20\n      add\n      dup3\n      add\n      0x40\n      mstore\n      dup1\n      iszero\n      tag_28\n      jumpi\n      dup2\n      0x20\n      add\n      0x01\n      dup3\n      mul\n      dup1\n      calldatasize\n      dup4\n      calldatacopy\n      dup1\n      dup3\n      add\n      swap2\n      pop\n      pop\n      swap1\n      pop\n    tag_28:\n      pop\n        /* \"homework/trycatch/UseTryCatch.sol\":3538:3573  to.call{value: value}(new bytes(0)) */\n      mload(0x40)\n      tag_29\n      swap2\n      swap1\n      tag_30\n      jump\t// in\n    tag_29:\n      0x00\n      mload(0x40)\n      dup1\n      dup4\n      sub\n      dup2\n      dup6\n      dup8\n      gas\n      call\n      swap3\n      pop\n      pop\n      pop\n      returndatasize\n      dup1\n      0x00\n      dup2\n      eq\n      tag_33\n      jumpi\n      mload(0x40)\n      swap2\n      pop\n      and(add(returndatasize, 0x3f), not(0x1f))\n      dup3\n      add\n      0x40\n      mstore\n      returndatasize\n      dup3\n      mstore\n      returndatasize\n      0x00\n      0x20\n      dup5\n      add\n      returndatacopy\n      jump(tag_32)\n    tag_33:\n      0x60\n      swap2\n      pop\n    tag_32:\n      pop\n        /* \"homework/trycatch/UseTryCatch.sol\":3519:3573  (bool success, ) = to.call{value: value}(new bytes(0)) */\n      pop\n      swap1\n      pop\n        /* \"homework/trycatch/UseTryCatch.sol\":3588:3595  success */\n      dup1\n        /* \"homework/trycatch/UseTryCatch.sol\":3583:3648  if (!success) {... */\n      tag_34\n      jumpi\n        /* \"homework/trycatch/UseTryCatch.sol\":3611:3637  revert(\"sendEther failed\") */\n      mload(0x40)\n      0x08c379a000000000000000000000000000000000000000000000000000000000\n      dup2\n      mstore\n      0x04\n      add\n      tag_35\n      swap1\n      tag_36\n      jump\t// in\n    tag_35:\n      mload(0x40)\n      dup1\n      swap2\n      sub\n      swap1\n      revert\n        /* \"homework/trycatch/UseTryCatch.sol\":3583:3648  if (!success) {... */\n    tag_34:\n        /* \"homework/trycatch/UseTryCatch.sol\":3664:3671  success */\n      dup1\n        /* \"homework/trycatch/UseTryCatch.sol\":3657:3671  return success */\n      swap2\n      pop\n      pop\n        /* \"homework/trycatch/UseTryCatch.sol\":3405:3678  function sendEther(address to, uint256 value) public returns (bool) {... */\n      swap3\n      swap2\n      pop\n      pop\n      jump\t// out\n        /* \"homework/trycatch/UseTryCatch.sol\":4206:4513  function delegateSetValue(address callee, uint256 _newValue) public {... */\n    tag_18:\n        /* \"homework/trycatch/UseTryCatch.sol\":4319:4336  bytes memory data */\n      0x00\n        /* \"homework/trycatch/UseTryCatch.sol\":4384:4393  _newValue */\n      dup2\n        /* \"homework/trycatch/UseTryCatch.sol\":4339:4394  abi.encodeWithSignature(\"setValue(uint256)\", _newValue) */\n      add(0x24, mload(0x40))\n      tag_38\n      swap2\n      swap1\n      tag_39\n      jump\t// in\n    tag_38:\n      mload(0x40)\n      0x20\n      dup2\n      dup4\n      sub\n      sub\n      dup2\n      mstore\n      swap1\n      0x40\n      mstore\n      and(not(0xffffffffffffffffffffffffffffffffffffffffffffffffffffffff), 0x5524107700000000000000000000000000000000000000000000000000000000)\n      0x20\n      dup3\n      add\n      dup1\n      mload\n      0xffffffffffffffffffffffffffffffffffffffffffffffffffffffff\n      dup4\n      dup2\n      dup4\n      and\n      or\n      dup4\n      mstore\n      pop\n      pop\n      pop\n      pop\n        /* \"homework/trycatch/UseTryCatch.sol\":4319:4394  bytes memory data = abi.encodeWithSignature(\"setValue(uint256)\", _newValue) */\n      swap1\n      pop\n        /* \"homework/trycatch/UseTryCatch.sol\":4405:4417  bool success */\n      0x00\n        /* \"homework/trycatch/UseTryCatch.sol\":4423:4429  callee */\n      dup4\n        /* \"homework/trycatch/UseTryCatch.sol\":4423:4442  callee.delegatecall */\n      0xffffffffffffffffffffffffffffffffffffffff\n      and\n        /* \"homework/trycatch/UseTryCatch.sol\":4443:4447  data */\n      dup3\n        /* \"homework/trycatch/UseTryCatch.sol\":4423:4448  callee.delegatecall(data) */\n      mload(0x40)\n      tag_40\n      swap2\n      swap1\n      tag_30\n      jump\t// in\n    tag_40:\n      0x00\n      mload(0x40)\n      dup1\n      dup4\n      sub\n      dup2\n      dup6\n      gas\n      delegatecall\n      swap2\n      pop\n      pop\n      returndatasize\n      dup1\n      0x00\n      dup2\n      eq\n      tag_43\n      jumpi\n      mload(0x40)\n      swap2\n      pop\n      and(add(returndatasize, 0x3f), not(0x1f))\n      dup3\n      add\n      0x40\n      mstore\n      returndatasize\n      dup3\n      mstore\n      returndatasize\n      0x00\n      0x20\n      dup5\n      add\n      returndatacopy\n      jump(tag_42)\n    tag_43:\n      0x60\n      swap2\n      pop\n    tag_42:\n      pop\n        /* \"homework/trycatch/UseTryCatch.sol\":4404:4448  (bool success, ) = callee.delegatecall(data) */\n      pop\n      swap1\n      pop\n        /* \"homework/trycatch/UseTryCatch.sol\":4463:4470  success */\n      dup1\n        /* \"homework/trycatch/UseTryCatch.sol\":4458:4507  if (!success) {... */\n      tag_44\n      jumpi\n        /* \"homework/trycatch/UseTryCatch.sol\":4486:4496  revert(\"\") */\n      mload(0x40)\n      0x08c379a000000000000000000000000000000000000000000000000000000000\n      dup2\n      mstore\n      0x04\n      add\n      tag_45\n      swap1\n      tag_46\n      jump\t// in\n    tag_45:\n      mload(0x40)\n      dup1\n      swap2\n      sub\n      swap1\n      revert\n        /* \"homework/trycatch/UseTryCatch.sol\":4458:4507  if (!success) {... */\n    tag_44:\n        /* \"homework/trycatch/UseTryCatch.sol\":4274:4513  {... */\n      pop\n      pop\n        /* \"homework/trycatch/UseTryCatch.sol\":4206:4513  function delegateSetValue(address callee, uint256 _newValue) public {... */\n      pop\n      pop\n      jump\t// out\n        /* \"homework/trycatch/UseTryCatch.sol\":3849:4200  function callSetValue(address callee, uint256 value) public returns (bool) {... */\n    tag_22:\n        /* \"homework/trycatch/UseTryCatch.sol\":3918:3922  bool */\n      0x00\n        /* \"homework/trycatch/UseTryCatch.sol\":3961:3978  bytes memory data */\n      dup1\n        /* \"homework/trycatch/UseTryCatch.sol\":4026:4031  value */\n      dup3\n        /* \"homework/trycatch/UseTryCatch.sol\":3981:4032  abi.encodeWithSignature(\"setValue(uint256)\", value) */\n      add(0x24, mload(0x40))\n      tag_48\n      swap2\n      swap1\n      tag_39\n      jump\t// in\n    tag_48:\n      mload(0x40)\n      0x20\n      dup2\n      dup4\n      sub\n      sub\n      dup2\n      mstore\n      swap1\n      0x40\n      mstore\n      and(not(0xffffffffffffffffffffffffffffffffffffffffffffffffffffffff), 0x5524107700000000000000000000000000000000000000000000000000000000)\n      0x20\n      dup3\n      add\n      dup1\n      mload\n      0xffffffffffffffffffffffffffffffffffffffffffffffffffffffff\n      dup4\n      dup2\n      dup4\n      and\n      or\n      dup4\n      mstore\n      pop\n      pop\n      pop\n      pop\n        /* \"homework/trycatch/UseTryCatch.sol\":3961:4032  bytes memory data = abi.encodeWithSignature(\"setValue(uint256)\", value) */\n      swap1\n      pop\n        /* \"homework/trycatch/UseTryCatch.sol\":4043:4055  bool success */\n      0x00\n        /* \"homework/trycatch/UseTryCatch.sol\":4061:4067  callee */\n      dup5\n        /* \"homework/trycatch/UseTryCatch.sol\":4061:4072  callee.call */\n      0xffffffffffffffffffffffffffffffffffffffff\n      and\n        /* \"homework/trycatch/UseTryCatch.sol\":4080:4084  1e18 */\n      0x0de0b6b3a7640000\n        /* \"homework/trycatch/UseTryCatch.sol\":4086:4090  data */\n      dup4\n        /* \"homework/trycatch/UseTryCatch.sol\":4061:4091  callee.call{value: 1e18}(data) */\n      mload(0x40)\n      tag_49\n      swap2\n      swap1\n      tag_30\n      jump\t// in\n    tag_49:\n      0x00\n      mload(0x40)\n      dup1\n      dup4\n      sub\n      dup2\n      dup6\n      dup8\n      gas\n      call\n      swap3\n      pop\n      pop\n      pop\n      returndatasize\n      dup1\n      0x00\n      dup2\n      eq\n      tag_52\n      jumpi\n      mload(0x40)\n      swap2\n      pop\n      and(add(returndatasize, 0x3f), not(0x1f))\n      dup3\n      add\n      0x40\n      mstore\n      returndatasize\n      dup3\n      mstore\n      returndatasize\n      0x00\n      0x20\n      dup5\n      add\n      returndatacopy\n      jump(tag_51)\n    tag_52:\n      0x60\n      swap2\n      pop\n    tag_51:\n      pop\n        /* \"homework/trycatch/UseTryCatch.sol\":4042:4091  (bool success, ) = callee.call{value: 1e18}(data) */\n      pop\n      swap1\n      pop\n        /* \"homework/trycatch/UseTryCatch.sol\":4106:4113  success */\n      dup1\n        /* \"homework/trycatch/UseTryCatch.sol\":4101:4170  if (!success) {... */\n      tag_53\n      jumpi\n        /* \"homework/trycatch/UseTryCatch.sol\":4129:4159  revert(\"call function failed\") */\n      mload(0x40)\n      0x08c379a000000000000000000000000000000000000000000000000000000000\n      dup2\n      mstore\n      0x04\n      add\n      tag_54\n      swap1\n      tag_55\n      jump\t// in\n    tag_54:\n      mload(0x40)\n      dup1\n      swap2\n      sub\n      swap1\n      revert\n        /* \"homework/trycatch/UseTryCatch.sol\":4101:4170  if (!success) {... */\n    tag_53:\n        /* \"homework/trycatch/UseTryCatch.sol\":4186:4193  success */\n      dup1\n        /* \"homework/trycatch/UseTryCatch.sol\":4179:4193  return success */\n      swap3\n      pop\n      pop\n      pop\n        /* \"homework/trycatch/UseTryCatch.sol\":3849:4200  function callSetValue(address callee, uint256 value) public returns (bool) {... */\n      swap3\n      swap2\n      pop\n      pop\n      jump\t// out\n        /* \"#utility.yul\":88:205   */\n    tag_57:\n        /* \"#utility.yul\":197:198   */\n      0x00\n        /* \"#utility.yul\":194:195   */\n      dup1\n        /* \"#utility.yul\":187:199   */\n      revert\n        /* \"#utility.yul\":334:460   */\n    tag_59:\n        /* \"#utility.yul\":371:378   */\n      0x00\n        /* \"#utility.yul\":411:453   */\n      0xffffffffffffffffffffffffffffffffffffffff\n        /* \"#utility.yul\":404:409   */\n      dup3\n        /* \"#utility.yul\":400:454   */\n      and\n        /* \"#utility.yul\":389:454   */\n      swap1\n      pop\n        /* \"#utility.yul\":334:460   */\n      swap2\n      swap1\n      pop\n      jump\t// out\n        /* \"#utility.yul\":466:562   */\n    tag_60:\n        /* \"#utility.yul\":503:510   */\n      0x00\n        /* \"#utility.yul\":532:556   */\n      tag_86\n        /* \"#utility.yul\":550:555   */\n      dup3\n        /* \"#utility.yul\":532:556   */\n      tag_59\n      jump\t// in\n    tag_86:\n        /* \"#utility.yul\":521:556   */\n      swap1\n      pop\n        /* \"#utility.yul\":466:562   */\n      swap2\n      swap1\n      pop\n      jump\t// out\n        /* \"#utility.yul\":568:690   */\n    tag_61:\n        /* \"#utility.yul\":641:665   */\n      tag_88\n        /* \"#utility.yul\":659:664   */\n      dup2\n        /* \"#utility.yul\":641:665   */\n      tag_60\n      jump\t// in\n    tag_88:\n        /* \"#utility.yul\":634:639   */\n      dup2\n        /* \"#utility.yul\":631:666   */\n      eq\n        /* \"#utility.yul\":621:684   */\n      tag_89\n      jumpi\n        /* \"#utility.yul\":680:681   */\n      0x00\n        /* \"#utility.yul\":677:678   */\n      dup1\n        /* \"#utility.yul\":670:682   */\n      revert\n        /* \"#utility.yul\":621:684   */\n    tag_89:\n        /* \"#utility.yul\":568:690   */\n      pop\n      jump\t// out\n        /* \"#utility.yul\":696:835   */\n    tag_62:\n        /* \"#utility.yul\":742:747   */\n      0x00\n        /* \"#utility.yul\":780:786   */\n      dup2\n        /* \"#utility.yul\":767:787   */\n      calldataload\n        /* \"#utility.yul\":758:787   */\n      swap1\n      pop\n        /* \"#utility.yul\":796:829   */\n      tag_91\n        /* \"#utility.yul\":823:828   */\n      dup2\n        /* \"#utility.yul\":796:829   */\n      tag_61\n      jump\t// in\n    tag_91:\n        /* \"#utility.yul\":696:835   */\n      swap3\n      swap2\n      pop\n      pop\n      jump\t// out\n        /* \"#utility.yul\":841:918   */\n    tag_63:\n        /* \"#utility.yul\":878:885   */\n      0x00\n        /* \"#utility.yul\":907:912   */\n      dup2\n        /* \"#utility.yul\":896:912   */\n      swap1\n      pop\n        /* \"#utility.yul\":841:918   */\n      swap2\n      swap1\n      pop\n      jump\t// out\n        /* \"#utility.yul\":924:1046   */\n    tag_64:\n        /* \"#utility.yul\":997:1021   */\n      tag_94\n        /* \"#utility.yul\":1015:1020   */\n      dup2\n        /* \"#utility.yul\":997:1021   */\n      tag_63\n      jump\t// in\n    tag_94:\n        /* \"#utility.yul\":990:995   */\n      dup2\n        /* \"#utility.yul\":987:1022   */\n      eq\n        /* \"#utility.yul\":977:1040   */\n      tag_95\n      jumpi\n        /* \"#utility.yul\":1036:1037   */\n      0x00\n        /* \"#utility.yul\":1033:1034   */\n      dup1\n        /* \"#utility.yul\":1026:1038   */\n      revert\n        /* \"#utility.yul\":977:1040   */\n    tag_95:\n        /* \"#utility.yul\":924:1046   */\n      pop\n      jump\t// out\n        /* \"#utility.yul\":1052:1191   */\n    tag_65:\n        /* \"#utility.yul\":1098:1103   */\n      0x00\n        /* \"#utility.yul\":1136:1142   */\n      dup2\n        /* \"#utility.yul\":1123:1143   */\n      calldataload\n        /* \"#utility.yul\":1114:1143   */\n      swap1\n      pop\n        /* \"#utility.yul\":1152:1185   */\n      tag_97\n        /* \"#utility.yul\":1179:1184   */\n      dup2\n        /* \"#utility.yul\":1152:1185   */\n      tag_64\n      jump\t// in\n    tag_97:\n        /* \"#utility.yul\":1052:1191   */\n      swap3\n      swap2\n      pop\n      pop\n      jump\t// out\n        /* \"#utility.yul\":1197:1671   */\n    tag_11:\n        /* \"#utility.yul\":1265:1271   */\n      0x00\n        /* \"#utility.yul\":1273:1279   */\n      dup1\n        /* \"#utility.yul\":1322:1324   */\n      0x40\n        /* \"#utility.yul\":1310:1319   */\n      dup4\n        /* \"#utility.yul\":1301:1308   */\n      dup6\n        /* \"#utility.yul\":1297:1320   */\n      sub\n        /* \"#utility.yul\":1293:1325   */\n      slt\n        /* \"#utility.yul\":1290:1409   */\n      iszero\n      tag_99\n      jumpi\n        /* \"#utility.yul\":1328:1407   */\n      tag_100\n      tag_57\n      jump\t// in\n    tag_100:\n        /* \"#utility.yul\":1290:1409   */\n    tag_99:\n        /* \"#utility.yul\":1448:1449   */\n      0x00\n        /* \"#utility.yul\":1473:1526   */\n      tag_101\n        /* \"#utility.yul\":1518:1525   */\n      dup6\n        /* \"#utility.yul\":1509:1515   */\n      dup3\n        /* \"#utility.yul\":1498:1507   */\n      dup7\n        /* \"#utility.yul\":1494:1516   */\n      add\n        /* \"#utility.yul\":1473:1526   */\n      tag_62\n      jump\t// in\n    tag_101:\n        /* \"#utility.yul\":1463:1526   */\n      swap3\n      pop\n        /* \"#utility.yul\":1419:1536   */\n      pop\n        /* \"#utility.yul\":1575:1577   */\n      0x20\n        /* \"#utility.yul\":1601:1654   */\n      tag_102\n        /* \"#utility.yul\":1646:1653   */\n      dup6\n        /* \"#utility.yul\":1637:1643   */\n      dup3\n        /* \"#utility.yul\":1626:1635   */\n      dup7\n        /* \"#utility.yul\":1622:1644   */\n      add\n        /* \"#utility.yul\":1601:1654   */\n      tag_65\n      jump\t// in\n    tag_102:\n        /* \"#utility.yul\":1591:1654   */\n      swap2\n      pop\n        /* \"#utility.yul\":1546:1664   */\n      pop\n        /* \"#utility.yul\":1197:1671   */\n      swap3\n      pop\n      swap3\n      swap1\n      pop\n      jump\t// out\n        /* \"#utility.yul\":1677:1767   */\n    tag_66:\n        /* \"#utility.yul\":1711:1718   */\n      0x00\n        /* \"#utility.yul\":1754:1759   */\n      dup2\n        /* \"#utility.yul\":1747:1760   */\n      iszero\n        /* \"#utility.yul\":1740:1761   */\n      iszero\n        /* \"#utility.yul\":1729:1761   */\n      swap1\n      pop\n        /* \"#utility.yul\":1677:1767   */\n      swap2\n      swap1\n      pop\n      jump\t// out\n        /* \"#utility.yul\":1773:1882   */\n    tag_67:\n        /* \"#utility.yul\":1854:1875   */\n      tag_105\n        /* \"#utility.yul\":1869:1874   */\n      dup2\n        /* \"#utility.yul\":1854:1875   */\n      tag_66\n      jump\t// in\n    tag_105:\n        /* \"#utility.yul\":1849:1852   */\n      dup3\n        /* \"#utility.yul\":1842:1876   */\n      mstore\n        /* \"#utility.yul\":1773:1882   */\n      pop\n      pop\n      jump\t// out\n        /* \"#utility.yul\":1888:2098   */\n    tag_14:\n        /* \"#utility.yul\":1975:1979   */\n      0x00\n        /* \"#utility.yul\":2013:2015   */\n      0x20\n        /* \"#utility.yul\":2002:2011   */\n      dup3\n        /* \"#utility.yul\":1998:2016   */\n      add\n        /* \"#utility.yul\":1990:2016   */\n      swap1\n      pop\n        /* \"#utility.yul\":2026:2091   */\n      tag_107\n        /* \"#utility.yul\":2088:2089   */\n      0x00\n        /* \"#utility.yul\":2077:2086   */\n      dup4\n        /* \"#utility.yul\":2073:2090   */\n      add\n        /* \"#utility.yul\":2064:2070   */\n      dup5\n        /* \"#utility.yul\":2026:2091   */\n      tag_67\n      jump\t// in\n    tag_107:\n        /* \"#utility.yul\":1888:2098   */\n      swap3\n      swap2\n      pop\n      pop\n      jump\t// out\n        /* \"#utility.yul\":2104:2284   */\n    tag_27:\n        /* \"#utility.yul\":2152:2229   */\n      0x4e487b7100000000000000000000000000000000000000000000000000000000\n        /* \"#utility.yul\":2149:2150   */\n      0x00\n        /* \"#utility.yul\":2142:2230   */\n      mstore\n        /* \"#utility.yul\":2249:2253   */\n      0x41\n        /* \"#utility.yul\":2246:2247   */\n      0x04\n        /* \"#utility.yul\":2239:2254   */\n      mstore\n        /* \"#utility.yul\":2273:2277   */\n      0x24\n        /* \"#utility.yul\":2270:2271   */\n      0x00\n        /* \"#utility.yul\":2263:2278   */\n      revert\n        /* \"#utility.yul\":2290:2388   */\n    tag_68:\n        /* \"#utility.yul\":2341:2347   */\n      0x00\n        /* \"#utility.yul\":2375:2380   */\n      dup2\n        /* \"#utility.yul\":2369:2381   */\n      mload\n        /* \"#utility.yul\":2359:2381   */\n      swap1\n      pop\n        /* \"#utility.yul\":2290:2388   */\n      swap2\n      swap1\n      pop\n      jump\t// out\n        /* \"#utility.yul\":2394:2541   */\n    tag_69:\n        /* \"#utility.yul\":2495:2506   */\n      0x00\n        /* \"#utility.yul\":2532:2535   */\n      dup2\n        /* \"#utility.yul\":2517:2535   */\n      swap1\n      pop\n        /* \"#utility.yul\":2394:2541   */\n      swap3\n      swap2\n      pop\n      pop\n      jump\t// out\n        /* \"#utility.yul\":2547:2793   */\n    tag_70:\n        /* \"#utility.yul\":2628:2629   */\n      0x00\n        /* \"#utility.yul\":2638:2751   */\n    tag_112:\n        /* \"#utility.yul\":2652:2658   */\n      dup4\n        /* \"#utility.yul\":2649:2650   */\n      dup2\n        /* \"#utility.yul\":2646:2659   */\n      lt\n        /* \"#utility.yul\":2638:2751   */\n      iszero\n      tag_114\n      jumpi\n        /* \"#utility.yul\":2737:2738   */\n      dup1\n        /* \"#utility.yul\":2732:2735   */\n      dup3\n        /* \"#utility.yul\":2728:2739   */\n      add\n        /* \"#utility.yul\":2722:2740   */\n      mload\n        /* \"#utility.yul\":2718:2719   */\n      dup2\n        /* \"#utility.yul\":2713:2716   */\n      dup5\n        /* \"#utility.yul\":2709:2720   */\n      add\n        /* \"#utility.yul\":2702:2741   */\n      mstore\n        /* \"#utility.yul\":2674:2676   */\n      0x20\n        /* \"#utility.yul\":2671:2672   */\n      dup2\n        /* \"#utility.yul\":2667:2677   */\n      add\n        /* \"#utility.yul\":2662:2677   */\n      swap1\n      pop\n        /* \"#utility.yul\":2638:2751   */\n      jump(tag_112)\n    tag_114:\n        /* \"#utility.yul\":2785:2786   */\n      0x00\n        /* \"#utility.yul\":2776:2782   */\n      dup5\n        /* \"#utility.yul\":2771:2774   */\n      dup5\n        /* \"#utility.yul\":2767:2783   */\n      add\n        /* \"#utility.yul\":2760:2787   */\n      mstore\n        /* \"#utility.yul\":2609:2793   */\n      pop\n        /* \"#utility.yul\":2547:2793   */\n      pop\n      pop\n      pop\n      jump\t// out\n        /* \"#utility.yul\":2799:3185   */\n    tag_71:\n        /* \"#utility.yul\":2903:2906   */\n      0x00\n        /* \"#utility.yul\":2931:2969   */\n      tag_116\n        /* \"#utility.yul\":2963:2968   */\n      dup3\n        /* \"#utility.yul\":2931:2969   */\n      tag_68\n      jump\t// in\n    tag_116:\n        /* \"#utility.yul\":2985:3073   */\n      tag_117\n        /* \"#utility.yul\":3066:3072   */\n      dup2\n        /* \"#utility.yul\":3061:3064   */\n      dup6\n        /* \"#utility.yul\":2985:3073   */\n      tag_69\n      jump\t// in\n    tag_117:\n        /* \"#utility.yul\":2978:3073   */\n      swap4\n      pop\n        /* \"#utility.yul\":3082:3147   */\n      tag_118\n        /* \"#utility.yul\":3140:3146   */\n      dup2\n        /* \"#utility.yul\":3135:3138   */\n      dup6\n        /* \"#utility.yul\":3128:3132   */\n      0x20\n        /* \"#utility.yul\":3121:3126   */\n      dup7\n        /* \"#utility.yul\":3117:3133   */\n      add\n        /* \"#utility.yul\":3082:3147   */\n      tag_70\n      jump\t// in\n    tag_118:\n        /* \"#utility.yul\":3172:3178   */\n      dup1\n        /* \"#utility.yul\":3167:3170   */\n      dup5\n        /* \"#utility.yul\":3163:3179   */\n      add\n        /* \"#utility.yul\":3156:3179   */\n      swap2\n      pop\n        /* \"#utility.yul\":2907:3185   */\n      pop\n        /* \"#utility.yul\":2799:3185   */\n      swap3\n      swap2\n      pop\n      pop\n      jump\t// out\n        /* \"#utility.yul\":3191:3462   */\n    tag_30:\n        /* \"#utility.yul\":3321:3324   */\n      0x00\n        /* \"#utility.yul\":3343:3436   */\n      tag_120\n        /* \"#utility.yul\":3432:3435   */\n      dup3\n        /* \"#utility.yul\":3423:3429   */\n      dup5\n        /* \"#utility.yul\":3343:3436   */\n      tag_71\n      jump\t// in\n    tag_120:\n        /* \"#utility.yul\":3336:3436   */\n      swap2\n      pop\n        /* \"#utility.yul\":3453:3456   */\n      dup2\n        /* \"#utility.yul\":3446:3456   */\n      swap1\n      pop\n        /* \"#utility.yul\":3191:3462   */\n      swap3\n      swap2\n      pop\n      pop\n      jump\t// out\n        /* \"#utility.yul\":3468:3637   */\n    tag_72:\n        /* \"#utility.yul\":3552:3563   */\n      0x00\n        /* \"#utility.yul\":3586:3592   */\n      dup3\n        /* \"#utility.yul\":3581:3584   */\n      dup3\n        /* \"#utility.yul\":3574:3593   */\n      mstore\n        /* \"#utility.yul\":3626:3630   */\n      0x20\n        /* \"#utility.yul\":3621:3624   */\n      dup3\n        /* \"#utility.yul\":3617:3631   */\n      add\n        /* \"#utility.yul\":3602:3631   */\n      swap1\n      pop\n        /* \"#utility.yul\":3468:3637   */\n      swap3\n      swap2\n      pop\n      pop\n      jump\t// out\n        /* \"#utility.yul\":3643:3809   */\n    tag_73:\n        /* \"#utility.yul\":3783:3801   */\n      0x73656e644574686572206661696c656400000000000000000000000000000000\n        /* \"#utility.yul\":3779:3780   */\n      0x00\n        /* \"#utility.yul\":3771:3777   */\n      dup3\n        /* \"#utility.yul\":3767:3781   */\n      add\n        /* \"#utility.yul\":3760:3802   */\n      mstore\n        /* \"#utility.yul\":3643:3809   */\n      pop\n      jump\t// out\n        /* \"#utility.yul\":3815:4181   */\n    tag_74:\n        /* \"#utility.yul\":3957:3960   */\n      0x00\n        /* \"#utility.yul\":3978:4045   */\n      tag_124\n        /* \"#utility.yul\":4042:4044   */\n      0x10\n        /* \"#utility.yul\":4037:4040   */\n      dup4\n        /* \"#utility.yul\":3978:4045   */\n      tag_72\n      jump\t// in\n    tag_124:\n        /* \"#utility.yul\":3971:4045   */\n      swap2\n      pop\n        /* \"#utility.yul\":4054:4147   */\n      tag_125\n        /* \"#utility.yul\":4143:4146   */\n      dup3\n        /* \"#utility.yul\":4054:4147   */\n      tag_73\n      jump\t// in\n    tag_125:\n        /* \"#utility.yul\":4172:4174   */\n      0x20\n        /* \"#utility.yul\":4167:4170   */\n      dup3\n        /* \"#utility.yul\":4163:4175   */\n      add\n        /* \"#utility.yul\":4156:4175   */\n      swap1\n      pop\n        /* \"#utility.yul\":3815:4181   */\n      swap2\n      swap1\n      pop\n      jump\t// out\n        /* \"#utility.yul\":4187:4606   */\n    tag_36:\n        /* \"#utility.yul\":4353:4357   */\n      0x00\n        /* \"#utility.yul\":4391:4393   */\n      0x20\n        /* \"#utility.yul\":4380:4389   */\n      dup3\n        /* \"#utility.yul\":4376:4394   */\n      add\n        /* \"#utility.yul\":4368:4394   */\n      swap1\n      pop\n        /* \"#utility.yul\":4440:4449   */\n      dup2\n        /* \"#utility.yul\":4434:4438   */\n      dup2\n        /* \"#utility.yul\":4430:4450   */\n      sub\n        /* \"#utility.yul\":4426:4427   */\n      0x00\n        /* \"#utility.yul\":4415:4424   */\n      dup4\n        /* \"#utility.yul\":4411:4428   */\n      add\n        /* \"#utility.yul\":4404:4451   */\n      mstore\n        /* \"#utility.yul\":4468:4599   */\n      tag_127\n        /* \"#utility.yul\":4594:4598   */\n      dup2\n        /* \"#utility.yul\":4468:4599   */\n      tag_74\n      jump\t// in\n    tag_127:\n        /* \"#utility.yul\":4460:4599   */\n      swap1\n      pop\n        /* \"#utility.yul\":4187:4606   */\n      swap2\n      swap1\n      pop\n      jump\t// out\n        /* \"#utility.yul\":4612:4730   */\n    tag_75:\n        /* \"#utility.yul\":4699:4723   */\n      tag_129\n        /* \"#utility.yul\":4717:4722   */\n      dup2\n        /* \"#utility.yul\":4699:4723   */\n      tag_63\n      jump\t// in\n    tag_129:\n        /* \"#utility.yul\":4694:4697   */\n      dup3\n        /* \"#utility.yul\":4687:4724   */\n      mstore\n        /* \"#utility.yul\":4612:4730   */\n      pop\n      pop\n      jump\t// out\n        /* \"#utility.yul\":4736:4958   */\n    tag_39:\n        /* \"#utility.yul\":4829:4833   */\n      0x00\n        /* \"#utility.yul\":4867:4869   */\n      0x20\n        /* \"#utility.yul\":4856:4865   */\n      dup3\n        /* \"#utility.yul\":4852:4870   */\n      add\n        /* \"#utility.yul\":4844:4870   */\n      swap1\n      pop\n        /* \"#utility.yul\":4880:4951   */\n      tag_131\n        /* \"#utility.yul\":4948:4949   */\n      0x00\n        /* \"#utility.yul\":4937:4946   */\n      dup4\n        /* \"#utility.yul\":4933:4950   */\n      add\n        /* \"#utility.yul\":4924:4930   */\n      dup5\n        /* \"#utility.yul\":4880:4951   */\n      tag_75\n      jump\t// in\n    tag_131:\n        /* \"#utility.yul\":4736:4958   */\n      swap3\n      swap2\n      pop\n      pop\n      jump\t// out\n        /* \"#utility.yul\":4964:5078   */\n    tag_76:\n      pop\n      jump\t// out\n        /* \"#utility.yul\":5084:5448   */\n    tag_77:\n        /* \"#utility.yul\":5226:5229   */\n      0x00\n        /* \"#utility.yul\":5247:5313   */\n      tag_134\n        /* \"#utility.yul\":5311:5312   */\n      0x00\n        /* \"#utility.yul\":5306:5309   */\n      dup4\n        /* \"#utility.yul\":5247:5313   */\n      tag_72\n      jump\t// in\n    tag_134:\n        /* \"#utility.yul\":5240:5313   */\n      swap2\n      pop\n        /* \"#utility.yul\":5322:5415   */\n      tag_135\n        /* \"#utility.yul\":5411:5414   */\n      dup3\n        /* \"#utility.yul\":5322:5415   */\n      tag_76\n      jump\t// in\n    tag_135:\n        /* \"#utility.yul\":5440:5441   */\n      0x00\n        /* \"#utility.yul\":5435:5438   */\n      dup3\n        /* \"#utility.yul\":5431:5442   */\n      add\n        /* \"#utility.yul\":5424:5442   */\n      swap1\n      pop\n        /* \"#utility.yul\":5084:5448   */\n      swap2\n      swap1\n      pop\n      jump\t// out\n        /* \"#utility.yul\":5454:5873   */\n    tag_46:\n        /* \"#utility.yul\":5620:5624   */\n      0x00\n        /* \"#utility.yul\":5658:5660   */\n      0x20\n        /* \"#utility.yul\":5647:5656   */\n      dup3\n        /* \"#utility.yul\":5643:5661   */\n      add\n        /* \"#utility.yul\":5635:5661   */\n      swap1\n      pop\n        /* \"#utility.yul\":5707:5716   */\n      dup2\n        /* \"#utility.yul\":5701:5705   */\n      dup2\n        /* \"#utility.yul\":5697:5717   */\n      sub\n        /* \"#utility.yul\":5693:5694   */\n      0x00\n        /* \"#utility.yul\":5682:5691   */\n      dup4\n        /* \"#utility.yul\":5678:5695   */\n      add\n        /* \"#utility.yul\":5671:5718   */\n      mstore\n        /* \"#utility.yul\":5735:5866   */\n      tag_137\n        /* \"#utility.yul\":5861:5865   */\n      dup2\n        /* \"#utility.yul\":5735:5866   */\n      tag_77\n      jump\t// in\n    tag_137:\n        /* \"#utility.yul\":5727:5866   */\n      swap1\n      pop\n        /* \"#utility.yul\":5454:5873   */\n      swap2\n      swap1\n      pop\n      jump\t// out\n        /* \"#utility.yul\":5879:6049   */\n    tag_78:\n        /* \"#utility.yul\":6019:6041   */\n      0x63616c6c2066756e6374696f6e206661696c6564000000000000000000000000\n        /* \"#utility.yul\":6015:6016   */\n      0x00\n        /* \"#utility.yul\":6007:6013   */\n      dup3\n        /* \"#utility.yul\":6003:6017   */\n      add\n        /* \"#utility.yul\":5996:6042   */\n      mstore\n        /* \"#utility.yul\":5879:6049   */\n      pop\n      jump\t// out\n        /* \"#utility.yul\":6055:6421   */\n    tag_79:\n        /* \"#utility.yul\":6197:6200   */\n      0x00\n        /* \"#utility.yul\":6218:6285   */\n      tag_140\n        /* \"#utility.yul\":6282:6284   */\n      0x14\n        /* \"#utility.yul\":6277:6280   */\n      dup4\n        /* \"#utility.yul\":6218:6285   */\n      tag_72\n      jump\t// in\n    tag_140:\n        /* \"#utility.yul\":6211:6285   */\n      swap2\n      pop\n        /* \"#utility.yul\":6294:6387   */\n      tag_141\n        /* \"#utility.yul\":6383:6386   */\n      dup3\n        /* \"#utility.yul\":6294:6387   */\n      tag_78\n      jump\t// in\n    tag_141:\n        /* \"#utility.yul\":6412:6414   */\n      0x20\n        /* \"#utility.yul\":6407:6410   */\n      dup3\n        /* \"#utility.yul\":6403:6415   */\n      add\n        /* \"#utility.yul\":6396:6415   */\n      swap1\n      pop\n        /* \"#utility.yul\":6055:6421   */\n      swap2\n      swap1\n      pop\n      jump\t// out\n        /* \"#utility.yul\":6427:6846   */\n    tag_55:\n        /* \"#utility.yul\":6593:6597   */\n      0x00\n        /* \"#utility.yul\":6631:6633   */\n      0x20\n        /* \"#utility.yul\":6620:6629   */\n      dup3\n        /* \"#utility.yul\":6616:6634   */\n      add\n        /* \"#utility.yul\":6608:6634   */\n      swap1\n      pop\n        /* \"#utility.yul\":6680:6689   */\n      dup2\n        /* \"#utility.yul\":6674:6678   */\n      dup2\n        /* \"#utility.yul\":6670:6690   */\n      sub\n        /* \"#utility.yul\":6666:6667   */\n      0x00\n        /* \"#utility.yul\":6655:6664   */\n      dup4\n        /* \"#utility.yul\":6651:6668   */\n      add\n        /* \"#utility.yul\":6644:6691   */\n      mstore\n        /* \"#utility.yul\":6708:6839   */\n      tag_143\n        /* \"#utility.yul\":6834:6838   */\n      dup2\n        /* \"#utility.yul\":6708:6839   */\n      tag_79\n      jump\t// in\n    tag_143:\n        /* \"#utility.yul\":6700:6839   */\n      swap1\n      pop\n        /* \"#utility.yul\":6427:6846   */\n      swap2\n      swap1\n      pop\n      jump\t// out\n\n    auxdata: 0xa2646970667358221220c21907de720f5e502320c4b2bb6ca7b1ae903d7e779f81ce1a74e61aa4bb529764736f6c63430008110033\n}\n",
				"bytecode": {
					"linkReferences": {},
					"object": "608060405234801561001057600080fd5b506107d9806100206000396000f3fe6080604052600436106100385760003560e01c8063c1756a2c14610044578063c4307f6a14610081578063fdfa868f146100aa5761003f565b3661003f57005b600080fd5b34801561005057600080fd5b5061006b6004803603810190610066919061051d565b6100e7565b6040516100789190610578565b60405180910390f35b34801561008d57600080fd5b506100a860048036038101906100a3919061051d565b6101ed565b005b3480156100b657600080fd5b506100d160048036038101906100cc919061051d565b610330565b6040516100de9190610578565b60405180910390f35b6000808373ffffffffffffffffffffffffffffffffffffffff1683600067ffffffffffffffff81111561011d5761011c610593565b5b6040519080825280601f01601f19166020018201604052801561014f5781602001600182028036833780820191505090505b5060405161015d9190610633565b60006040518083038185875af1925050503d806000811461019a576040519150601f19603f3d011682016040523d82523d6000602084013e61019f565b606091505b50509050806101e3576040517f08c379a00000000000000000000000000000000000000000000000000000000081526004016101da906106a7565b60405180910390fd5b8091505092915050565b60008160405160240161020091906106d6565b6040516020818303038152906040527f55241077000000000000000000000000000000000000000000000000000000007bffffffffffffffffffffffffffffffffffffffffffffffffffffffff19166020820180517bffffffffffffffffffffffffffffffffffffffffffffffffffffffff8381831617835250505050905060008373ffffffffffffffffffffffffffffffffffffffff16826040516102a69190610633565b600060405180830381855af49150503d80600081146102e1576040519150601f19603f3d011682016040523d82523d6000602084013e6102e6565b606091505b505090508061032a576040517f08c379a000000000000000000000000000000000000000000000000000000000815260040161032190610717565b60405180910390fd5b50505050565b6000808260405160240161034491906106d6565b6040516020818303038152906040527f55241077000000000000000000000000000000000000000000000000000000007bffffffffffffffffffffffffffffffffffffffffffffffffffffffff19166020820180517bffffffffffffffffffffffffffffffffffffffffffffffffffffffff8381831617835250505050905060008473ffffffffffffffffffffffffffffffffffffffff16670de0b6b3a7640000836040516103f39190610633565b60006040518083038185875af1925050503d8060008114610430576040519150601f19603f3d011682016040523d82523d6000602084013e610435565b606091505b5050905080610479576040517f08c379a000000000000000000000000000000000000000000000000000000000815260040161047090610783565b60405180910390fd5b809250505092915050565b600080fd5b600073ffffffffffffffffffffffffffffffffffffffff82169050919050565b60006104b482610489565b9050919050565b6104c4816104a9565b81146104cf57600080fd5b50565b6000813590506104e1816104bb565b92915050565b6000819050919050565b6104fa816104e7565b811461050557600080fd5b50565b600081359050610517816104f1565b92915050565b6000806040838503121561053457610533610484565b5b6000610542858286016104d2565b925050602061055385828601610508565b9150509250929050565b60008115159050919050565b6105728161055d565b82525050565b600060208201905061058d6000830184610569565b92915050565b7f4e487b7100000000000000000000000000000000000000000000000000000000600052604160045260246000fd5b600081519050919050565b600081905092915050565b60005b838110156105f65780820151818401526020810190506105db565b60008484015250505050565b600061060d826105c2565b61061781856105cd565b93506106278185602086016105d8565b80840191505092915050565b600061063f8284610602565b915081905092915050565b600082825260208201905092915050565b7f73656e644574686572206661696c656400000000000000000000000000000000600082015250565b600061069160108361064a565b915061069c8261065b565b602082019050919050565b600060208201905081810360008301526106c081610684565b9050919050565b6106d0816104e7565b82525050565b60006020820190506106eb60008301846106c7565b92915050565b50565b600061070160008361064a565b915061070c826106f1565b600082019050919050565b60006020820190508181036000830152610730816106f4565b9050919050565b7f63616c6c2066756e6374696f6e206661696c6564000000000000000000000000600082015250565b600061076d60148361064a565b915061077882610737565b602082019050919050565b6000602082019050818103600083015261079c81610760565b905091905056fea2646970667358221220c21907de720f5e502320c4b2bb6ca7b1ae903d7e779f81ce1a74e61aa4bb529764736f6c63430008110033",
					"opcodes": "PUSH1 0x80 PUSH1 0x40 MSTORE CALLVALUE DUP1 ISZERO PUSH2 0x10 JUMPI PUSH1 0x0 DUP1 REVERT JUMPDEST POP PUSH2 0x7D9 DUP1 PUSH2 0x20 PUSH1 0x0 CODECOPY PUSH1 0x0 RETURN INVALID PUSH1 0x80 PUSH1 0x40 MSTORE PUSH1 0x4 CALLDATASIZE LT PUSH2 0x38 JUMPI PUSH1 0x0 CALLDATALOAD PUSH1 0xE0 SHR DUP1 PUSH4 0xC1756A2C EQ PUSH2 0x44 JUMPI DUP1 PUSH4 0xC4307F6A EQ PUSH2 0x81 JUMPI DUP1 PUSH4 0xFDFA868F EQ PUSH2 0xAA JUMPI PUSH2 0x3F JUMP JUMPDEST CALLDATASIZE PUSH2 0x3F JUMPI STOP JUMPDEST PUSH1 0x0 DUP1 REVERT JUMPDEST CALLVALUE DUP1 ISZERO PUSH2 0x50 JUMPI PUSH1 0x0 DUP1 REVERT JUMPDEST POP PUSH2 0x6B PUSH1 0x4 DUP1 CALLDATASIZE SUB DUP2 ADD SWAP1 PUSH2 0x66 SWAP2 SWAP1 PUSH2 0x51D JUMP JUMPDEST PUSH2 0xE7 JUMP JUMPDEST PUSH1 0x40 MLOAD PUSH2 0x78 SWAP2 SWAP1 PUSH2 0x578 JUMP JUMPDEST PUSH1 0x40 MLOAD DUP1 SWAP2 SUB SWAP1 RETURN JUMPDEST CALLVALUE DUP1 ISZERO PUSH2 0x8D JUMPI PUSH1 0x0 DUP1 REVERT JUMPDEST POP PUSH2 0xA8 PUSH1 0x4 DUP1 CALLDATASIZE SUB DUP2 ADD SWAP1 PUSH2 0xA3 SWAP2 SWAP1 PUSH2 0x51D JUMP JUMPDEST PUSH2 0x1ED JUMP JUMPDEST STOP JUMPDEST CALLVALUE DUP1 ISZERO PUSH2 0xB6 JUMPI PUSH1 0x0 DUP1 REVERT JUMPDEST POP PUSH2 0xD1 PUSH1 0x4 DUP1 CALLDATASIZE SUB DUP2 ADD SWAP1 PUSH2 0xCC SWAP2 SWAP1 PUSH2 0x51D JUMP JUMPDEST PUSH2 0x330 JUMP JUMPDEST PUSH1 0x40 MLOAD PUSH2 0xDE SWAP2 SWAP1 PUSH2 0x578 JUMP JUMPDEST PUSH1 0x40 MLOAD DUP1 SWAP2 SUB SWAP1 RETURN JUMPDEST PUSH1 0x0 DUP1 DUP4 PUSH20 0xFFFFFFFFFFFFFFFFFFFFFFFFFFFFFFFFFFFFFFFF AND DUP4 PUSH1 0x0 PUSH8 0xFFFFFFFFFFFFFFFF DUP2 GT ISZERO PUSH2 0x11D JUMPI PUSH2 0x11C PUSH2 0x593 JUMP JUMPDEST JUMPDEST PUSH1 0x40 MLOAD SWAP1 DUP1 DUP3 MSTORE DUP1 PUSH1 0x1F ADD PUSH1 0x1F NOT AND PUSH1 0x20 ADD DUP3 ADD PUSH1 0x40 MSTORE DUP1 ISZERO PUSH2 0x14F JUMPI DUP2 PUSH1 0x20 ADD PUSH1 0x1 DUP3 MUL DUP1 CALLDATASIZE DUP4 CALLDATACOPY DUP1 DUP3 ADD SWAP2 POP POP SWAP1 POP JUMPDEST POP PUSH1 0x40 MLOAD PUSH2 0x15D SWAP2 SWAP1 PUSH2 0x633 JUMP JUMPDEST PUSH1 0x0 PUSH1 0x40 MLOAD DUP1 DUP4 SUB DUP2 DUP6 DUP8 GAS CALL SWAP3 POP POP POP RETURNDATASIZE DUP1 PUSH1 0x0 DUP2 EQ PUSH2 0x19A JUMPI PUSH1 0x40 MLOAD SWAP2 POP PUSH1 0x1F NOT PUSH1 0x3F RETURNDATASIZE ADD AND DUP3 ADD PUSH1 0x40 MSTORE RETURNDATASIZE DUP3 MSTORE RETURNDATASIZE PUSH1 0x0 PUSH1 0x20 DUP5 ADD RETURNDATACOPY PUSH2 0x19F JUMP JUMPDEST PUSH1 0x60 SWAP2 POP JUMPDEST POP POP SWAP1 POP DUP1 PUSH2 0x1E3 JUMPI PUSH1 0x40 MLOAD PUSH32 0x8C379A000000000000000000000000000000000000000000000000000000000 DUP2 MSTORE PUSH1 0x4 ADD PUSH2 0x1DA SWAP1 PUSH2 0x6A7 JUMP JUMPDEST PUSH1 0x40 MLOAD DUP1 SWAP2 SUB SWAP1 REVERT JUMPDEST DUP1 SWAP2 POP POP SWAP3 SWAP2 POP POP JUMP JUMPDEST PUSH1 0x0 DUP2 PUSH1 0x40 MLOAD PUSH1 0x24 ADD PUSH2 0x200 SWAP2 SWAP1 PUSH2 0x6D6 JUMP JUMPDEST PUSH1 0x40 MLOAD PUSH1 0x20 DUP2 DUP4 SUB SUB DUP2 MSTORE SWAP1 PUSH1 0x40 MSTORE PUSH32 0x5524107700000000000000000000000000000000000000000000000000000000 PUSH28 0xFFFFFFFFFFFFFFFFFFFFFFFFFFFFFFFFFFFFFFFFFFFFFFFFFFFFFFFF NOT AND PUSH1 0x20 DUP3 ADD DUP1 MLOAD PUSH28 0xFFFFFFFFFFFFFFFFFFFFFFFFFFFFFFFFFFFFFFFFFFFFFFFFFFFFFFFF DUP4 DUP2 DUP4 AND OR DUP4 MSTORE POP POP POP POP SWAP1 POP PUSH1 0x0 DUP4 PUSH20 0xFFFFFFFFFFFFFFFFFFFFFFFFFFFFFFFFFFFFFFFF AND DUP3 PUSH1 0x40 MLOAD PUSH2 0x2A6 SWAP2 SWAP1 PUSH2 0x633 JUMP JUMPDEST PUSH1 0x0 PUSH1 0x40 MLOAD DUP1 DUP4 SUB DUP2 DUP6 GAS DELEGATECALL SWAP2 POP POP RETURNDATASIZE DUP1 PUSH1 0x0 DUP2 EQ PUSH2 0x2E1 JUMPI PUSH1 0x40 MLOAD SWAP2 POP PUSH1 0x1F NOT PUSH1 0x3F RETURNDATASIZE ADD AND DUP3 ADD PUSH1 0x40 MSTORE RETURNDATASIZE DUP3 MSTORE RETURNDATASIZE PUSH1 0x0 PUSH1 0x20 DUP5 ADD RETURNDATACOPY PUSH2 0x2E6 JUMP JUMPDEST PUSH1 0x60 SWAP2 POP JUMPDEST POP POP SWAP1 POP DUP1 PUSH2 0x32A JUMPI PUSH1 0x40 MLOAD PUSH32 0x8C379A000000000000000000000000000000000000000000000000000000000 DUP2 MSTORE PUSH1 0x4 ADD PUSH2 0x321 SWAP1 PUSH2 0x717 JUMP JUMPDEST PUSH1 0x40 MLOAD DUP1 SWAP2 SUB SWAP1 REVERT JUMPDEST POP POP POP POP JUMP JUMPDEST PUSH1 0x0 DUP1 DUP3 PUSH1 0x40 MLOAD PUSH1 0x24 ADD PUSH2 0x344 SWAP2 SWAP1 PUSH2 0x6D6 JUMP JUMPDEST PUSH1 0x40 MLOAD PUSH1 0x20 DUP2 DUP4 SUB SUB DUP2 MSTORE SWAP1 PUSH1 0x40 MSTORE PUSH32 0x5524107700000000000000000000000000000000000000000000000000000000 PUSH28 0xFFFFFFFFFFFFFFFFFFFFFFFFFFFFFFFFFFFFFFFFFFFFFFFFFFFFFFFF NOT AND PUSH1 0x20 DUP3 ADD DUP1 MLOAD PUSH28 0xFFFFFFFFFFFFFFFFFFFFFFFFFFFFFFFFFFFFFFFFFFFFFFFFFFFFFFFF DUP4 DUP2 DUP4 AND OR DUP4 MSTORE POP POP POP POP SWAP1 POP PUSH1 0x0 DUP5 PUSH20 0xFFFFFFFFFFFFFFFFFFFFFFFFFFFFFFFFFFFFFFFF AND PUSH8 0xDE0B6B3A7640000 DUP4 PUSH1 0x40 MLOAD PUSH2 0x3F3 SWAP2 SWAP1 PUSH2 0x633 JUMP JUMPDEST PUSH1 0x0 PUSH1 0x40 MLOAD DUP1 DUP4 SUB DUP2 DUP6 DUP8 GAS CALL SWAP3 POP POP POP RETURNDATASIZE DUP1 PUSH1 0x0 DUP2 EQ PUSH2 0x430 JUMPI PUSH1 0x40 MLOAD SWAP2 POP PUSH1 0x1F NOT PUSH1 0x3F RETURNDATASIZE ADD AND DUP3 ADD PUSH1 0x40 MSTORE RETURNDATASIZE DUP3 MSTORE RETURNDATASIZE PUSH1 0x0 PUSH1 0x20 DUP5 ADD RETURNDATACOPY PUSH2 0x435 JUMP JUMPDEST PUSH1 0x60 SWAP2 POP JUMPDEST POP POP SWAP1 POP DUP1 PUSH2 0x479 JUMPI PUSH1 0x40 MLOAD PUSH32 0x8C379A000000000000000000000000000000000000000000000000000000000 DUP2 MSTORE PUSH1 0x4 ADD PUSH2 0x470 SWAP1 PUSH2 0x783 JUMP JUMPDEST PUSH1 0x40 MLOAD DUP1 SWAP2 SUB SWAP1 REVERT JUMPDEST DUP1 SWAP3 POP POP POP SWAP3 SWAP2 POP POP JUMP JUMPDEST PUSH1 0x0 DUP1 REVERT JUMPDEST PUSH1 0x0 PUSH20 0xFFFFFFFFFFFFFFFFFFFFFFFFFFFFFFFFFFFFFFFF DUP3 AND SWAP1 POP SWAP2 SWAP1 POP JUMP JUMPDEST PUSH1 0x0 PUSH2 0x4B4 DUP3 PUSH2 0x489 JUMP JUMPDEST SWAP1 POP SWAP2 SWAP1 POP JUMP JUMPDEST PUSH2 0x4C4 DUP2 PUSH2 0x4A9 JUMP JUMPDEST DUP2 EQ PUSH2 0x4CF JUMPI PUSH1 0x0 DUP1 REVERT JUMPDEST POP JUMP JUMPDEST PUSH1 0x0 DUP2 CALLDATALOAD SWAP1 POP PUSH2 0x4E1 DUP2 PUSH2 0x4BB JUMP JUMPDEST SWAP3 SWAP2 POP POP JUMP JUMPDEST PUSH1 0x0 DUP2 SWAP1 POP SWAP2 SWAP1 POP JUMP JUMPDEST PUSH2 0x4FA DUP2 PUSH2 0x4E7 JUMP JUMPDEST DUP2 EQ PUSH2 0x505 JUMPI PUSH1 0x0 DUP1 REVERT JUMPDEST POP JUMP JUMPDEST PUSH1 0x0 DUP2 CALLDATALOAD SWAP1 POP PUSH2 0x517 DUP2 PUSH2 0x4F1 JUMP JUMPDEST SWAP3 SWAP2 POP POP JUMP JUMPDEST PUSH1 0x0 DUP1 PUSH1 0x40 DUP4 DUP6 SUB SLT ISZERO PUSH2 0x534 JUMPI PUSH2 0x533 PUSH2 0x484 JUMP JUMPDEST JUMPDEST PUSH1 0x0 PUSH2 0x542 DUP6 DUP3 DUP7 ADD PUSH2 0x4D2 JUMP JUMPDEST SWAP3 POP POP PUSH1 0x20 PUSH2 0x553 DUP6 DUP3 DUP7 ADD PUSH2 0x508 JUMP JUMPDEST SWAP2 POP POP SWAP3 POP SWAP3 SWAP1 POP JUMP JUMPDEST PUSH1 0x0 DUP2 ISZERO ISZERO SWAP1 POP SWAP2 SWAP1 POP JUMP JUMPDEST PUSH2 0x572 DUP2 PUSH2 0x55D JUMP JUMPDEST DUP3 MSTORE POP POP JUMP JUMPDEST PUSH1 0x0 PUSH1 0x20 DUP3 ADD SWAP1 POP PUSH2 0x58D PUSH1 0x0 DUP4 ADD DUP5 PUSH2 0x569 JUMP JUMPDEST SWAP3 SWAP2 POP POP JUMP JUMPDEST PUSH32 0x4E487B7100000000000000000000000000000000000000000000000000000000 PUSH1 0x0 MSTORE PUSH1 0x41 PUSH1 0x4 MSTORE PUSH1 0x24 PUSH1 0x0 REVERT JUMPDEST PUSH1 0x0 DUP2 MLOAD SWAP1 POP SWAP2 SWAP1 POP JUMP JUMPDEST PUSH1 0x0 DUP2 SWAP1 POP SWAP3 SWAP2 POP POP JUMP JUMPDEST PUSH1 0x0 JUMPDEST DUP4 DUP2 LT ISZERO PUSH2 0x5F6 JUMPI DUP1 DUP3 ADD MLOAD DUP2 DUP5 ADD MSTORE PUSH1 0x20 DUP2 ADD SWAP1 POP PUSH2 0x5DB JUMP JUMPDEST PUSH1 0x0 DUP5 DUP5 ADD MSTORE POP POP POP POP JUMP JUMPDEST PUSH1 0x0 PUSH2 0x60D DUP3 PUSH2 0x5C2 JUMP JUMPDEST PUSH2 0x617 DUP2 DUP6 PUSH2 0x5CD JUMP JUMPDEST SWAP4 POP PUSH2 0x627 DUP2 DUP6 PUSH1 0x20 DUP7 ADD PUSH2 0x5D8 JUMP JUMPDEST DUP1 DUP5 ADD SWAP2 POP POP SWAP3 SWAP2 POP POP JUMP JUMPDEST PUSH1 0x0 PUSH2 0x63F DUP3 DUP5 PUSH2 0x602 JUMP JUMPDEST SWAP2 POP DUP2 SWAP1 POP SWAP3 SWAP2 POP POP JUMP JUMPDEST PUSH1 0x0 DUP3 DUP3 MSTORE PUSH1 0x20 DUP3 ADD SWAP1 POP SWAP3 SWAP2 POP POP JUMP JUMPDEST PUSH32 0x73656E644574686572206661696C656400000000000000000000000000000000 PUSH1 0x0 DUP3 ADD MSTORE POP JUMP JUMPDEST PUSH1 0x0 PUSH2 0x691 PUSH1 0x10 DUP4 PUSH2 0x64A JUMP JUMPDEST SWAP2 POP PUSH2 0x69C DUP3 PUSH2 0x65B JUMP JUMPDEST PUSH1 0x20 DUP3 ADD SWAP1 POP SWAP2 SWAP1 POP JUMP JUMPDEST PUSH1 0x0 PUSH1 0x20 DUP3 ADD SWAP1 POP DUP2 DUP2 SUB PUSH1 0x0 DUP4 ADD MSTORE PUSH2 0x6C0 DUP2 PUSH2 0x684 JUMP JUMPDEST SWAP1 POP SWAP2 SWAP1 POP JUMP JUMPDEST PUSH2 0x6D0 DUP2 PUSH2 0x4E7 JUMP JUMPDEST DUP3 MSTORE POP POP JUMP JUMPDEST PUSH1 0x0 PUSH1 0x20 DUP3 ADD SWAP1 POP PUSH2 0x6EB PUSH1 0x0 DUP4 ADD DUP5 PUSH2 0x6C7 JUMP JUMPDEST SWAP3 SWAP2 POP POP JUMP JUMPDEST POP JUMP JUMPDEST PUSH1 0x0 PUSH2 0x701 PUSH1 0x0 DUP4 PUSH2 0x64A JUMP JUMPDEST SWAP2 POP PUSH2 0x70C DUP3 PUSH2 0x6F1 JUMP JUMPDEST PUSH1 0x0 DUP3 ADD SWAP1 POP SWAP2 SWAP1 POP JUMP JUMPDEST PUSH1 0x0 PUSH1 0x20 DUP3 ADD SWAP1 POP DUP2 DUP2 SUB PUSH1 0x0 DUP4 ADD MSTORE PUSH2 0x730 DUP2 PUSH2 0x6F4 JUMP JUMPDEST SWAP1 POP SWAP2 SWAP1 POP JUMP JUMPDEST PUSH32 0x63616C6C2066756E6374696F6E206661696C6564000000000000000000000000 PUSH1 0x0 DUP3 ADD MSTORE POP JUMP JUMPDEST PUSH1 0x0 PUSH2 0x76D PUSH1 0x14 DUP4 PUSH2 0x64A JUMP JUMPDEST SWAP2 POP PUSH2 0x778 DUP3 PUSH2 0x737 JUMP JUMPDEST PUSH1 0x20 DUP3 ADD SWAP1 POP SWAP2 SWAP1 POP JUMP JUMPDEST PUSH1 0x0 PUSH1 0x20 DUP3 ADD SWAP1 POP DUP2 DUP2 SUB PUSH1 0x0 DUP4 ADD MSTORE PUSH2 0x79C DUP2 PUSH2 0x760 JUMP JUMPDEST SWAP1 POP SWAP2 SWAP1 POP JUMP INVALID LOG2 PUSH5 0x6970667358 0x22 SLT KECCAK256 0xC2 NOT SMOD 0xDE PUSH19 0xF5E502320C4B2BB6CA7B1AE903D7E779F81CE BYTE PUSH21 0xE61AA4BB529764736F6C6343000811003300000000 "
				},
				"gasEstimates": {
					"creation": {
						"codeDepositCost": "401800",
						"executionCost": "436",
						"totalCost": "402236"
					},
					"external": {
						"callSetValue(address,uint256)": "infinite",
						"delegateSetValue(address,uint256)": "infinite",
						"sendEther(address,uint256)": "infinite"
					}
				},
				"methodIdentifiers": {
					"callSetValue(address,uint256)": "fdfa868f",
					"delegateSetValue(address,uint256)": "c4307f6a",
					"sendEther(address,uint256)": "c1756a2c"
				}
			},
			"storageLayout": {
				"storage": [],
				"types": null
			},
			"userdoc": {
				"kind": "user",
				"methods": {},
				"version": 1
			}
		}
	}
}