{
	"homework/trycatch/UseTryCatch.sol": {
		"ABIDecoder": {
			"abi": [
				{
					"inputs": [
						{
							"internalType": "bytes",
							"name": "data",
							"type": "bytes"
						}
					],
					"name": "decodeMultiple",
					"outputs": [
						{
							"internalType": "uint256",
							"name": "",
							"type": "uint256"
						},
						{
							"internalType": "string",
							"name": "",
							"type": "string"
						}
					],
					"stateMutability": "pure",
					"type": "function"
				},
				{
					"inputs": [
						{
							"internalType": "bytes",
							"name": "data",
							"type": "bytes"
						}
					],
					"name": "decodeUint",
					"outputs": [
						{
							"internalType": "uint256",
							"name": "",
							"type": "uint256"
						}
					],
					"stateMutability": "pure",
					"type": "function"
				}
			],
			"devdoc": {
				"kind": "dev",
				"methods": {},
				"version": 1
			},
			"evm": {
				"assembly": "    /* \"homework/trycatch/UseTryCatch.sol\":4826:5203  contract ABIDecoder {... */\n  mstore(0x40, 0x80)\n  callvalue\n  dup1\n  iszero\n  tag_1\n  jumpi\n  0x00\n  dup1\n  revert\ntag_1:\n  pop\n  dataSize(sub_0)\n  dup1\n  dataOffset(sub_0)\n  0x00\n  codecopy\n  0x00\n  return\nstop\n\nsub_0: assembly {\n        /* \"homework/trycatch/UseTryCatch.sol\":4826:5203  contract ABIDecoder {... */\n      mstore(0x40, 0x80)\n      callvalue\n      dup1\n      iszero\n      tag_1\n      jumpi\n      0x00\n      dup1\n      revert\n    tag_1:\n      pop\n      jumpi(tag_2, lt(calldatasize, 0x04))\n      shr(0xe0, calldataload(0x00))\n      dup1\n      0x2f6222fc\n      eq\n      tag_3\n      jumpi\n      dup1\n      0x6ff24701\n      eq\n      tag_4\n      jumpi\n    tag_2:\n      0x00\n      dup1\n      revert\n        /* \"homework/trycatch/UseTryCatch.sol\":4998:5201  function decodeMultiple(... */\n    tag_3:\n      tag_5\n      0x04\n      dup1\n      calldatasize\n      sub\n      dup2\n      add\n      swap1\n      tag_6\n      swap2\n      swap1\n      tag_7\n      jump\t// in\n    tag_6:\n      tag_8\n      jump\t// in\n    tag_5:\n      mload(0x40)\n      tag_9\n      swap3\n      swap2\n      swap1\n      tag_10\n      jump\t// in\n    tag_9:\n      mload(0x40)\n      dup1\n      swap2\n      sub\n      swap1\n      return\n        /* \"homework/trycatch/UseTryCatch.sol\":4852:4992  function decodeUint(bytes memory data) public pure returns (uint) {... */\n    tag_4:\n      tag_11\n      0x04\n      dup1\n      calldatasize\n      sub\n      dup2\n      add\n      swap1\n      tag_12\n      swap2\n      swap1\n      tag_7\n      jump\t// in\n    tag_12:\n      tag_13\n      jump\t// in\n    tag_11:\n      mload(0x40)\n      tag_14\n      swap2\n      swap1\n      tag_15\n      jump\t// in\n    tag_14:\n      mload(0x40)\n      dup1\n      swap2\n      sub\n      swap1\n      return\n        /* \"homework/trycatch/UseTryCatch.sol\":4998:5201  function decodeMultiple(... */\n    tag_8:\n        /* \"homework/trycatch/UseTryCatch.sol\":5076:5080  uint */\n      0x00\n        /* \"homework/trycatch/UseTryCatch.sol\":5082:5095  string memory */\n      0x60\n        /* \"homework/trycatch/UseTryCatch.sol\":5108:5115  uint p0 */\n      0x00\n        /* \"homework/trycatch/UseTryCatch.sol\":5117:5133  string memory p1 */\n      dup1\n        /* \"homework/trycatch/UseTryCatch.sol\":5148:5152  data */\n      dup5\n        /* \"homework/trycatch/UseTryCatch.sol\":5137:5169  abi.decode(data, (uint, string)) */\n      dup1\n      0x20\n      add\n      swap1\n      mload\n      dup2\n      add\n      swap1\n      tag_17\n      swap2\n      swap1\n      tag_18\n      jump\t// in\n    tag_17:\n        /* \"homework/trycatch/UseTryCatch.sol\":5107:5169  (uint p0, string memory p1) = abi.decode(data, (uint, string)) */\n      swap2\n      pop\n      swap2\n      pop\n        /* \"homework/trycatch/UseTryCatch.sol\":5187:5189  p0 */\n      dup2\n        /* \"homework/trycatch/UseTryCatch.sol\":5191:5193  p1 */\n      dup2\n        /* \"homework/trycatch/UseTryCatch.sol\":5179:5194  return (p0, p1) */\n      swap4\n      pop\n      swap4\n      pop\n      pop\n      pop\n        /* \"homework/trycatch/UseTryCatch.sol\":4998:5201  function decodeMultiple(... */\n      swap2\n      pop\n      swap2\n      jump\t// out\n        /* \"homework/trycatch/UseTryCatch.sol\":4852:4992  function decodeUint(bytes memory data) public pure returns (uint) {... */\n    tag_13:\n        /* \"homework/trycatch/UseTryCatch.sol\":4912:4916  uint */\n      0x00\n        /* \"homework/trycatch/UseTryCatch.sol\":4929:4937  uint res */\n      dup1\n        /* \"homework/trycatch/UseTryCatch.sol\":4952:4956  data */\n      dup3\n        /* \"homework/trycatch/UseTryCatch.sol\":4941:4965  abi.decode(data, (uint)) */\n      dup1\n      0x20\n      add\n      swap1\n      mload\n      dup2\n      add\n      swap1\n      tag_20\n      swap2\n      swap1\n      tag_21\n      jump\t// in\n    tag_20:\n        /* \"homework/trycatch/UseTryCatch.sol\":4928:4965  (uint res) = abi.decode(data, (uint)) */\n      swap1\n      pop\n        /* \"homework/trycatch/UseTryCatch.sol\":4982:4985  res */\n      dup1\n        /* \"homework/trycatch/UseTryCatch.sol\":4975:4985  return res */\n      swap2\n      pop\n      pop\n        /* \"homework/trycatch/UseTryCatch.sol\":4852:4992  function decodeUint(bytes memory data) public pure returns (uint) {... */\n      swap2\n      swap1\n      pop\n      jump\t// out\n        /* \"#utility.yul\":7:82   */\n    tag_22:\n        /* \"#utility.yul\":40:46   */\n      0x00\n        /* \"#utility.yul\":73:75   */\n      0x40\n        /* \"#utility.yul\":67:76   */\n      mload\n        /* \"#utility.yul\":57:76   */\n      swap1\n      pop\n        /* \"#utility.yul\":7:82   */\n      swap1\n      jump\t// out\n        /* \"#utility.yul\":88:205   */\n    tag_23:\n        /* \"#utility.yul\":197:198   */\n      0x00\n        /* \"#utility.yul\":194:195   */\n      dup1\n        /* \"#utility.yul\":187:199   */\n      revert\n        /* \"#utility.yul\":211:328   */\n    tag_24:\n        /* \"#utility.yul\":320:321   */\n      0x00\n        /* \"#utility.yul\":317:318   */\n      dup1\n        /* \"#utility.yul\":310:322   */\n      revert\n        /* \"#utility.yul\":334:451   */\n    tag_25:\n        /* \"#utility.yul\":443:444   */\n      0x00\n        /* \"#utility.yul\":440:441   */\n      dup1\n        /* \"#utility.yul\":433:445   */\n      revert\n        /* \"#utility.yul\":457:574   */\n    tag_26:\n        /* \"#utility.yul\":566:567   */\n      0x00\n        /* \"#utility.yul\":563:564   */\n      dup1\n        /* \"#utility.yul\":556:568   */\n      revert\n        /* \"#utility.yul\":580:682   */\n    tag_27:\n        /* \"#utility.yul\":621:627   */\n      0x00\n        /* \"#utility.yul\":672:674   */\n      0x1f\n        /* \"#utility.yul\":668:675   */\n      not\n        /* \"#utility.yul\":663:665   */\n      0x1f\n        /* \"#utility.yul\":656:661   */\n      dup4\n        /* \"#utility.yul\":652:666   */\n      add\n        /* \"#utility.yul\":648:676   */\n      and\n        /* \"#utility.yul\":638:676   */\n      swap1\n      pop\n        /* \"#utility.yul\":580:682   */\n      swap2\n      swap1\n      pop\n      jump\t// out\n        /* \"#utility.yul\":688:868   */\n    tag_28:\n        /* \"#utility.yul\":736:813   */\n      0x4e487b7100000000000000000000000000000000000000000000000000000000\n        /* \"#utility.yul\":733:734   */\n      0x00\n        /* \"#utility.yul\":726:814   */\n      mstore\n        /* \"#utility.yul\":833:837   */\n      0x41\n        /* \"#utility.yul\":830:831   */\n      0x04\n        /* \"#utility.yul\":823:838   */\n      mstore\n        /* \"#utility.yul\":857:861   */\n      0x24\n        /* \"#utility.yul\":854:855   */\n      0x00\n        /* \"#utility.yul\":847:862   */\n      revert\n        /* \"#utility.yul\":874:1155   */\n    tag_29:\n        /* \"#utility.yul\":957:984   */\n      tag_55\n        /* \"#utility.yul\":979:983   */\n      dup3\n        /* \"#utility.yul\":957:984   */\n      tag_27\n      jump\t// in\n    tag_55:\n        /* \"#utility.yul\":949:955   */\n      dup2\n        /* \"#utility.yul\":945:985   */\n      add\n        /* \"#utility.yul\":1087:1093   */\n      dup2\n        /* \"#utility.yul\":1075:1085   */\n      dup2\n        /* \"#utility.yul\":1072:1094   */\n      lt\n        /* \"#utility.yul\":1051:1069   */\n      0xffffffffffffffff\n        /* \"#utility.yul\":1039:1049   */\n      dup3\n        /* \"#utility.yul\":1036:1070   */\n      gt\n        /* \"#utility.yul\":1033:1095   */\n      or\n        /* \"#utility.yul\":1030:1118   */\n      iszero\n      tag_56\n      jumpi\n        /* \"#utility.yul\":1098:1116   */\n      tag_57\n      tag_28\n      jump\t// in\n    tag_57:\n        /* \"#utility.yul\":1030:1118   */\n    tag_56:\n        /* \"#utility.yul\":1138:1148   */\n      dup1\n        /* \"#utility.yul\":1134:1136   */\n      0x40\n        /* \"#utility.yul\":1127:1149   */\n      mstore\n        /* \"#utility.yul\":917:1155   */\n      pop\n        /* \"#utility.yul\":874:1155   */\n      pop\n      pop\n      jump\t// out\n        /* \"#utility.yul\":1161:1290   */\n    tag_30:\n        /* \"#utility.yul\":1195:1201   */\n      0x00\n        /* \"#utility.yul\":1222:1242   */\n      tag_59\n      tag_22\n      jump\t// in\n    tag_59:\n        /* \"#utility.yul\":1212:1242   */\n      swap1\n      pop\n        /* \"#utility.yul\":1251:1284   */\n      tag_60\n        /* \"#utility.yul\":1279:1283   */\n      dup3\n        /* \"#utility.yul\":1271:1277   */\n      dup3\n        /* \"#utility.yul\":1251:1284   */\n      tag_29\n      jump\t// in\n    tag_60:\n        /* \"#utility.yul\":1161:1290   */\n      swap2\n      swap1\n      pop\n      jump\t// out\n        /* \"#utility.yul\":1296:1603   */\n    tag_31:\n        /* \"#utility.yul\":1357:1361   */\n      0x00\n        /* \"#utility.yul\":1447:1465   */\n      0xffffffffffffffff\n        /* \"#utility.yul\":1439:1445   */\n      dup3\n        /* \"#utility.yul\":1436:1466   */\n      gt\n        /* \"#utility.yul\":1433:1489   */\n      iszero\n      tag_62\n      jumpi\n        /* \"#utility.yul\":1469:1487   */\n      tag_63\n      tag_28\n      jump\t// in\n    tag_63:\n        /* \"#utility.yul\":1433:1489   */\n    tag_62:\n        /* \"#utility.yul\":1507:1536   */\n      tag_64\n        /* \"#utility.yul\":1529:1535   */\n      dup3\n        /* \"#utility.yul\":1507:1536   */\n      tag_27\n      jump\t// in\n    tag_64:\n        /* \"#utility.yul\":1499:1536   */\n      swap1\n      pop\n        /* \"#utility.yul\":1591:1595   */\n      0x20\n        /* \"#utility.yul\":1585:1589   */\n      dup2\n        /* \"#utility.yul\":1581:1596   */\n      add\n        /* \"#utility.yul\":1573:1596   */\n      swap1\n      pop\n        /* \"#utility.yul\":1296:1603   */\n      swap2\n      swap1\n      pop\n      jump\t// out\n        /* \"#utility.yul\":1609:1755   */\n    tag_32:\n        /* \"#utility.yul\":1706:1712   */\n      dup3\n        /* \"#utility.yul\":1701:1704   */\n      dup2\n        /* \"#utility.yul\":1696:1699   */\n      dup4\n        /* \"#utility.yul\":1683:1713   */\n      calldatacopy\n        /* \"#utility.yul\":1747:1748   */\n      0x00\n        /* \"#utility.yul\":1738:1744   */\n      dup4\n        /* \"#utility.yul\":1733:1736   */\n      dup4\n        /* \"#utility.yul\":1729:1745   */\n      add\n        /* \"#utility.yul\":1722:1749   */\n      mstore\n        /* \"#utility.yul\":1609:1755   */\n      pop\n      pop\n      pop\n      jump\t// out\n        /* \"#utility.yul\":1761:2184   */\n    tag_33:\n        /* \"#utility.yul\":1838:1843   */\n      0x00\n        /* \"#utility.yul\":1863:1928   */\n      tag_67\n        /* \"#utility.yul\":1879:1927   */\n      tag_68\n        /* \"#utility.yul\":1920:1926   */\n      dup5\n        /* \"#utility.yul\":1879:1927   */\n      tag_31\n      jump\t// in\n    tag_68:\n        /* \"#utility.yul\":1863:1928   */\n      tag_30\n      jump\t// in\n    tag_67:\n        /* \"#utility.yul\":1854:1928   */\n      swap1\n      pop\n        /* \"#utility.yul\":1951:1957   */\n      dup3\n        /* \"#utility.yul\":1944:1949   */\n      dup2\n        /* \"#utility.yul\":1937:1958   */\n      mstore\n        /* \"#utility.yul\":1989:1993   */\n      0x20\n        /* \"#utility.yul\":1982:1987   */\n      dup2\n        /* \"#utility.yul\":1978:1994   */\n      add\n        /* \"#utility.yul\":2027:2030   */\n      dup5\n        /* \"#utility.yul\":2018:2024   */\n      dup5\n        /* \"#utility.yul\":2013:2016   */\n      dup5\n        /* \"#utility.yul\":2009:2025   */\n      add\n        /* \"#utility.yul\":2006:2031   */\n      gt\n        /* \"#utility.yul\":2003:2115   */\n      iszero\n      tag_69\n      jumpi\n        /* \"#utility.yul\":2034:2113   */\n      tag_70\n      tag_26\n      jump\t// in\n    tag_70:\n        /* \"#utility.yul\":2003:2115   */\n    tag_69:\n        /* \"#utility.yul\":2124:2178   */\n      tag_71\n        /* \"#utility.yul\":2171:2177   */\n      dup5\n        /* \"#utility.yul\":2166:2169   */\n      dup3\n        /* \"#utility.yul\":2161:2164   */\n      dup6\n        /* \"#utility.yul\":2124:2178   */\n      tag_32\n      jump\t// in\n    tag_71:\n        /* \"#utility.yul\":1844:2184   */\n      pop\n        /* \"#utility.yul\":1761:2184   */\n      swap4\n      swap3\n      pop\n      pop\n      pop\n      jump\t// out\n        /* \"#utility.yul\":2203:2541   */\n    tag_34:\n        /* \"#utility.yul\":2258:2263   */\n      0x00\n        /* \"#utility.yul\":2307:2310   */\n      dup3\n        /* \"#utility.yul\":2300:2304   */\n      0x1f\n        /* \"#utility.yul\":2292:2298   */\n      dup4\n        /* \"#utility.yul\":2288:2305   */\n      add\n        /* \"#utility.yul\":2284:2311   */\n      slt\n        /* \"#utility.yul\":2274:2396   */\n      tag_73\n      jumpi\n        /* \"#utility.yul\":2315:2394   */\n      tag_74\n      tag_25\n      jump\t// in\n    tag_74:\n        /* \"#utility.yul\":2274:2396   */\n    tag_73:\n        /* \"#utility.yul\":2432:2438   */\n      dup2\n        /* \"#utility.yul\":2419:2439   */\n      calldataload\n        /* \"#utility.yul\":2457:2535   */\n      tag_75\n        /* \"#utility.yul\":2531:2534   */\n      dup5\n        /* \"#utility.yul\":2523:2529   */\n      dup3\n        /* \"#utility.yul\":2516:2520   */\n      0x20\n        /* \"#utility.yul\":2508:2514   */\n      dup7\n        /* \"#utility.yul\":2504:2521   */\n      add\n        /* \"#utility.yul\":2457:2535   */\n      tag_33\n      jump\t// in\n    tag_75:\n        /* \"#utility.yul\":2448:2535   */\n      swap2\n      pop\n        /* \"#utility.yul\":2264:2541   */\n      pop\n        /* \"#utility.yul\":2203:2541   */\n      swap3\n      swap2\n      pop\n      pop\n      jump\t// out\n        /* \"#utility.yul\":2547:3054   */\n    tag_7:\n        /* \"#utility.yul\":2615:2621   */\n      0x00\n        /* \"#utility.yul\":2664:2666   */\n      0x20\n        /* \"#utility.yul\":2652:2661   */\n      dup3\n        /* \"#utility.yul\":2643:2650   */\n      dup5\n        /* \"#utility.yul\":2639:2662   */\n      sub\n        /* \"#utility.yul\":2635:2667   */\n      slt\n        /* \"#utility.yul\":2632:2751   */\n      iszero\n      tag_77\n      jumpi\n        /* \"#utility.yul\":2670:2749   */\n      tag_78\n      tag_23\n      jump\t// in\n    tag_78:\n        /* \"#utility.yul\":2632:2751   */\n    tag_77:\n        /* \"#utility.yul\":2818:2819   */\n      0x00\n        /* \"#utility.yul\":2807:2816   */\n      dup3\n        /* \"#utility.yul\":2803:2820   */\n      add\n        /* \"#utility.yul\":2790:2821   */\n      calldataload\n        /* \"#utility.yul\":2848:2866   */\n      0xffffffffffffffff\n        /* \"#utility.yul\":2840:2846   */\n      dup2\n        /* \"#utility.yul\":2837:2867   */\n      gt\n        /* \"#utility.yul\":2834:2951   */\n      iszero\n      tag_79\n      jumpi\n        /* \"#utility.yul\":2870:2949   */\n      tag_80\n      tag_24\n      jump\t// in\n    tag_80:\n        /* \"#utility.yul\":2834:2951   */\n    tag_79:\n        /* \"#utility.yul\":2975:3037   */\n      tag_81\n        /* \"#utility.yul\":3029:3036   */\n      dup5\n        /* \"#utility.yul\":3020:3026   */\n      dup3\n        /* \"#utility.yul\":3009:3018   */\n      dup6\n        /* \"#utility.yul\":3005:3027   */\n      add\n        /* \"#utility.yul\":2975:3037   */\n      tag_34\n      jump\t// in\n    tag_81:\n        /* \"#utility.yul\":2965:3037   */\n      swap2\n      pop\n        /* \"#utility.yul\":2761:3047   */\n      pop\n        /* \"#utility.yul\":2547:3054   */\n      swap3\n      swap2\n      pop\n      pop\n      jump\t// out\n        /* \"#utility.yul\":3060:3137   */\n    tag_35:\n        /* \"#utility.yul\":3097:3104   */\n      0x00\n        /* \"#utility.yul\":3126:3131   */\n      dup2\n        /* \"#utility.yul\":3115:3131   */\n      swap1\n      pop\n        /* \"#utility.yul\":3060:3137   */\n      swap2\n      swap1\n      pop\n      jump\t// out\n        /* \"#utility.yul\":3143:3261   */\n    tag_36:\n        /* \"#utility.yul\":3230:3254   */\n      tag_84\n        /* \"#utility.yul\":3248:3253   */\n      dup2\n        /* \"#utility.yul\":3230:3254   */\n      tag_35\n      jump\t// in\n    tag_84:\n        /* \"#utility.yul\":3225:3228   */\n      dup3\n        /* \"#utility.yul\":3218:3255   */\n      mstore\n        /* \"#utility.yul\":3143:3261   */\n      pop\n      pop\n      jump\t// out\n        /* \"#utility.yul\":3267:3366   */\n    tag_37:\n        /* \"#utility.yul\":3319:3325   */\n      0x00\n        /* \"#utility.yul\":3353:3358   */\n      dup2\n        /* \"#utility.yul\":3347:3359   */\n      mload\n        /* \"#utility.yul\":3337:3359   */\n      swap1\n      pop\n        /* \"#utility.yul\":3267:3366   */\n      swap2\n      swap1\n      pop\n      jump\t// out\n        /* \"#utility.yul\":3372:3541   */\n    tag_38:\n        /* \"#utility.yul\":3456:3467   */\n      0x00\n        /* \"#utility.yul\":3490:3496   */\n      dup3\n        /* \"#utility.yul\":3485:3488   */\n      dup3\n        /* \"#utility.yul\":3478:3497   */\n      mstore\n        /* \"#utility.yul\":3530:3534   */\n      0x20\n        /* \"#utility.yul\":3525:3528   */\n      dup3\n        /* \"#utility.yul\":3521:3535   */\n      add\n        /* \"#utility.yul\":3506:3535   */\n      swap1\n      pop\n        /* \"#utility.yul\":3372:3541   */\n      swap3\n      swap2\n      pop\n      pop\n      jump\t// out\n        /* \"#utility.yul\":3547:3793   */\n    tag_39:\n        /* \"#utility.yul\":3628:3629   */\n      0x00\n        /* \"#utility.yul\":3638:3751   */\n    tag_88:\n        /* \"#utility.yul\":3652:3658   */\n      dup4\n        /* \"#utility.yul\":3649:3650   */\n      dup2\n        /* \"#utility.yul\":3646:3659   */\n      lt\n        /* \"#utility.yul\":3638:3751   */\n      iszero\n      tag_90\n      jumpi\n        /* \"#utility.yul\":3737:3738   */\n      dup1\n        /* \"#utility.yul\":3732:3735   */\n      dup3\n        /* \"#utility.yul\":3728:3739   */\n      add\n        /* \"#utility.yul\":3722:3740   */\n      mload\n        /* \"#utility.yul\":3718:3719   */\n      dup2\n        /* \"#utility.yul\":3713:3716   */\n      dup5\n        /* \"#utility.yul\":3709:3720   */\n      add\n        /* \"#utility.yul\":3702:3741   */\n      mstore\n        /* \"#utility.yul\":3674:3676   */\n      0x20\n        /* \"#utility.yul\":3671:3672   */\n      dup2\n        /* \"#utility.yul\":3667:3677   */\n      add\n        /* \"#utility.yul\":3662:3677   */\n      swap1\n      pop\n        /* \"#utility.yul\":3638:3751   */\n      jump(tag_88)\n    tag_90:\n        /* \"#utility.yul\":3785:3786   */\n      0x00\n        /* \"#utility.yul\":3776:3782   */\n      dup5\n        /* \"#utility.yul\":3771:3774   */\n      dup5\n        /* \"#utility.yul\":3767:3783   */\n      add\n        /* \"#utility.yul\":3760:3787   */\n      mstore\n        /* \"#utility.yul\":3609:3793   */\n      pop\n        /* \"#utility.yul\":3547:3793   */\n      pop\n      pop\n      pop\n      jump\t// out\n        /* \"#utility.yul\":3799:4176   */\n    tag_40:\n        /* \"#utility.yul\":3887:3890   */\n      0x00\n        /* \"#utility.yul\":3915:3954   */\n      tag_92\n        /* \"#utility.yul\":3948:3953   */\n      dup3\n        /* \"#utility.yul\":3915:3954   */\n      tag_37\n      jump\t// in\n    tag_92:\n        /* \"#utility.yul\":3970:4041   */\n      tag_93\n        /* \"#utility.yul\":4034:4040   */\n      dup2\n        /* \"#utility.yul\":4029:4032   */\n      dup6\n        /* \"#utility.yul\":3970:4041   */\n      tag_38\n      jump\t// in\n    tag_93:\n        /* \"#utility.yul\":3963:4041   */\n      swap4\n      pop\n        /* \"#utility.yul\":4050:4115   */\n      tag_94\n        /* \"#utility.yul\":4108:4114   */\n      dup2\n        /* \"#utility.yul\":4103:4106   */\n      dup6\n        /* \"#utility.yul\":4096:4100   */\n      0x20\n        /* \"#utility.yul\":4089:4094   */\n      dup7\n        /* \"#utility.yul\":4085:4101   */\n      add\n        /* \"#utility.yul\":4050:4115   */\n      tag_39\n      jump\t// in\n    tag_94:\n        /* \"#utility.yul\":4140:4169   */\n      tag_95\n        /* \"#utility.yul\":4162:4168   */\n      dup2\n        /* \"#utility.yul\":4140:4169   */\n      tag_27\n      jump\t// in\n    tag_95:\n        /* \"#utility.yul\":4135:4138   */\n      dup5\n        /* \"#utility.yul\":4131:4170   */\n      add\n        /* \"#utility.yul\":4124:4170   */\n      swap2\n      pop\n        /* \"#utility.yul\":3891:4176   */\n      pop\n        /* \"#utility.yul\":3799:4176   */\n      swap3\n      swap2\n      pop\n      pop\n      jump\t// out\n        /* \"#utility.yul\":4182:4605   */\n    tag_10:\n        /* \"#utility.yul\":4323:4327   */\n      0x00\n        /* \"#utility.yul\":4361:4363   */\n      0x40\n        /* \"#utility.yul\":4350:4359   */\n      dup3\n        /* \"#utility.yul\":4346:4364   */\n      add\n        /* \"#utility.yul\":4338:4364   */\n      swap1\n      pop\n        /* \"#utility.yul\":4374:4445   */\n      tag_97\n        /* \"#utility.yul\":4442:4443   */\n      0x00\n        /* \"#utility.yul\":4431:4440   */\n      dup4\n        /* \"#utility.yul\":4427:4444   */\n      add\n        /* \"#utility.yul\":4418:4424   */\n      dup6\n        /* \"#utility.yul\":4374:4445   */\n      tag_36\n      jump\t// in\n    tag_97:\n        /* \"#utility.yul\":4492:4501   */\n      dup2\n        /* \"#utility.yul\":4486:4490   */\n      dup2\n        /* \"#utility.yul\":4482:4502   */\n      sub\n        /* \"#utility.yul\":4477:4479   */\n      0x20\n        /* \"#utility.yul\":4466:4475   */\n      dup4\n        /* \"#utility.yul\":4462:4480   */\n      add\n        /* \"#utility.yul\":4455:4503   */\n      mstore\n        /* \"#utility.yul\":4520:4598   */\n      tag_98\n        /* \"#utility.yul\":4593:4597   */\n      dup2\n        /* \"#utility.yul\":4584:4590   */\n      dup5\n        /* \"#utility.yul\":4520:4598   */\n      tag_40\n      jump\t// in\n    tag_98:\n        /* \"#utility.yul\":4512:4598   */\n      swap1\n      pop\n        /* \"#utility.yul\":4182:4605   */\n      swap4\n      swap3\n      pop\n      pop\n      pop\n      jump\t// out\n        /* \"#utility.yul\":4611:4833   */\n    tag_15:\n        /* \"#utility.yul\":4704:4708   */\n      0x00\n        /* \"#utility.yul\":4742:4744   */\n      0x20\n        /* \"#utility.yul\":4731:4740   */\n      dup3\n        /* \"#utility.yul\":4727:4745   */\n      add\n        /* \"#utility.yul\":4719:4745   */\n      swap1\n      pop\n        /* \"#utility.yul\":4755:4826   */\n      tag_100\n        /* \"#utility.yul\":4823:4824   */\n      0x00\n        /* \"#utility.yul\":4812:4821   */\n      dup4\n        /* \"#utility.yul\":4808:4825   */\n      add\n        /* \"#utility.yul\":4799:4805   */\n      dup5\n        /* \"#utility.yul\":4755:4826   */\n      tag_36\n      jump\t// in\n    tag_100:\n        /* \"#utility.yul\":4611:4833   */\n      swap3\n      swap2\n      pop\n      pop\n      jump\t// out\n        /* \"#utility.yul\":4839:4961   */\n    tag_41:\n        /* \"#utility.yul\":4912:4936   */\n      tag_102\n        /* \"#utility.yul\":4930:4935   */\n      dup2\n        /* \"#utility.yul\":4912:4936   */\n      tag_35\n      jump\t// in\n    tag_102:\n        /* \"#utility.yul\":4905:4910   */\n      dup2\n        /* \"#utility.yul\":4902:4937   */\n      eq\n        /* \"#utility.yul\":4892:4955   */\n      tag_103\n      jumpi\n        /* \"#utility.yul\":4951:4952   */\n      0x00\n        /* \"#utility.yul\":4948:4949   */\n      dup1\n        /* \"#utility.yul\":4941:4953   */\n      revert\n        /* \"#utility.yul\":4892:4955   */\n    tag_103:\n        /* \"#utility.yul\":4839:4961   */\n      pop\n      jump\t// out\n        /* \"#utility.yul\":4967:5110   */\n    tag_42:\n        /* \"#utility.yul\":5024:5029   */\n      0x00\n        /* \"#utility.yul\":5055:5061   */\n      dup2\n        /* \"#utility.yul\":5049:5062   */\n      mload\n        /* \"#utility.yul\":5040:5062   */\n      swap1\n      pop\n        /* \"#utility.yul\":5071:5104   */\n      tag_105\n        /* \"#utility.yul\":5098:5103   */\n      dup2\n        /* \"#utility.yul\":5071:5104   */\n      tag_41\n      jump\t// in\n    tag_105:\n        /* \"#utility.yul\":4967:5110   */\n      swap3\n      swap2\n      pop\n      pop\n      jump\t// out\n        /* \"#utility.yul\":5116:5424   */\n    tag_43:\n        /* \"#utility.yul\":5178:5182   */\n      0x00\n        /* \"#utility.yul\":5268:5286   */\n      0xffffffffffffffff\n        /* \"#utility.yul\":5260:5266   */\n      dup3\n        /* \"#utility.yul\":5257:5287   */\n      gt\n        /* \"#utility.yul\":5254:5310   */\n      iszero\n      tag_107\n      jumpi\n        /* \"#utility.yul\":5290:5308   */\n      tag_108\n      tag_28\n      jump\t// in\n    tag_108:\n        /* \"#utility.yul\":5254:5310   */\n    tag_107:\n        /* \"#utility.yul\":5328:5357   */\n      tag_109\n        /* \"#utility.yul\":5350:5356   */\n      dup3\n        /* \"#utility.yul\":5328:5357   */\n      tag_27\n      jump\t// in\n    tag_109:\n        /* \"#utility.yul\":5320:5357   */\n      swap1\n      pop\n        /* \"#utility.yul\":5412:5416   */\n      0x20\n        /* \"#utility.yul\":5406:5410   */\n      dup2\n        /* \"#utility.yul\":5402:5417   */\n      add\n        /* \"#utility.yul\":5394:5417   */\n      swap1\n      pop\n        /* \"#utility.yul\":5116:5424   */\n      swap2\n      swap1\n      pop\n      jump\t// out\n        /* \"#utility.yul\":5430:5864   */\n    tag_44:\n        /* \"#utility.yul\":5519:5524   */\n      0x00\n        /* \"#utility.yul\":5544:5610   */\n      tag_111\n        /* \"#utility.yul\":5560:5609   */\n      tag_112\n        /* \"#utility.yul\":5602:5608   */\n      dup5\n        /* \"#utility.yul\":5560:5609   */\n      tag_43\n      jump\t// in\n    tag_112:\n        /* \"#utility.yul\":5544:5610   */\n      tag_30\n      jump\t// in\n    tag_111:\n        /* \"#utility.yul\":5535:5610   */\n      swap1\n      pop\n        /* \"#utility.yul\":5633:5639   */\n      dup3\n        /* \"#utility.yul\":5626:5631   */\n      dup2\n        /* \"#utility.yul\":5619:5640   */\n      mstore\n        /* \"#utility.yul\":5671:5675   */\n      0x20\n        /* \"#utility.yul\":5664:5669   */\n      dup2\n        /* \"#utility.yul\":5660:5676   */\n      add\n        /* \"#utility.yul\":5709:5712   */\n      dup5\n        /* \"#utility.yul\":5700:5706   */\n      dup5\n        /* \"#utility.yul\":5695:5698   */\n      dup5\n        /* \"#utility.yul\":5691:5707   */\n      add\n        /* \"#utility.yul\":5688:5713   */\n      gt\n        /* \"#utility.yul\":5685:5797   */\n      iszero\n      tag_113\n      jumpi\n        /* \"#utility.yul\":5716:5795   */\n      tag_114\n      tag_26\n      jump\t// in\n    tag_114:\n        /* \"#utility.yul\":5685:5797   */\n    tag_113:\n        /* \"#utility.yul\":5806:5858   */\n      tag_115\n        /* \"#utility.yul\":5851:5857   */\n      dup5\n        /* \"#utility.yul\":5846:5849   */\n      dup3\n        /* \"#utility.yul\":5841:5844   */\n      dup6\n        /* \"#utility.yul\":5806:5858   */\n      tag_39\n      jump\t// in\n    tag_115:\n        /* \"#utility.yul\":5525:5864   */\n      pop\n        /* \"#utility.yul\":5430:5864   */\n      swap4\n      swap3\n      pop\n      pop\n      pop\n      jump\t// out\n        /* \"#utility.yul\":5884:6239   */\n    tag_45:\n        /* \"#utility.yul\":5951:5956   */\n      0x00\n        /* \"#utility.yul\":6000:6003   */\n      dup3\n        /* \"#utility.yul\":5993:5997   */\n      0x1f\n        /* \"#utility.yul\":5985:5991   */\n      dup4\n        /* \"#utility.yul\":5981:5998   */\n      add\n        /* \"#utility.yul\":5977:6004   */\n      slt\n        /* \"#utility.yul\":5967:6089   */\n      tag_117\n      jumpi\n        /* \"#utility.yul\":6008:6087   */\n      tag_118\n      tag_25\n      jump\t// in\n    tag_118:\n        /* \"#utility.yul\":5967:6089   */\n    tag_117:\n        /* \"#utility.yul\":6118:6124   */\n      dup2\n        /* \"#utility.yul\":6112:6125   */\n      mload\n        /* \"#utility.yul\":6143:6233   */\n      tag_119\n        /* \"#utility.yul\":6229:6232   */\n      dup5\n        /* \"#utility.yul\":6221:6227   */\n      dup3\n        /* \"#utility.yul\":6214:6218   */\n      0x20\n        /* \"#utility.yul\":6206:6212   */\n      dup7\n        /* \"#utility.yul\":6202:6219   */\n      add\n        /* \"#utility.yul\":6143:6233   */\n      tag_44\n      jump\t// in\n    tag_119:\n        /* \"#utility.yul\":6134:6233   */\n      swap2\n      pop\n        /* \"#utility.yul\":5957:6239   */\n      pop\n        /* \"#utility.yul\":5884:6239   */\n      swap3\n      swap2\n      pop\n      pop\n      jump\t// out\n        /* \"#utility.yul\":6245:6925   */\n    tag_18:\n        /* \"#utility.yul\":6334:6340   */\n      0x00\n        /* \"#utility.yul\":6342:6348   */\n      dup1\n        /* \"#utility.yul\":6391:6393   */\n      0x40\n        /* \"#utility.yul\":6379:6388   */\n      dup4\n        /* \"#utility.yul\":6370:6377   */\n      dup6\n        /* \"#utility.yul\":6366:6389   */\n      sub\n        /* \"#utility.yul\":6362:6394   */\n      slt\n        /* \"#utility.yul\":6359:6478   */\n      iszero\n      tag_121\n      jumpi\n        /* \"#utility.yul\":6397:6476   */\n      tag_122\n      tag_23\n      jump\t// in\n    tag_122:\n        /* \"#utility.yul\":6359:6478   */\n    tag_121:\n        /* \"#utility.yul\":6517:6518   */\n      0x00\n        /* \"#utility.yul\":6542:6606   */\n      tag_123\n        /* \"#utility.yul\":6598:6605   */\n      dup6\n        /* \"#utility.yul\":6589:6595   */\n      dup3\n        /* \"#utility.yul\":6578:6587   */\n      dup7\n        /* \"#utility.yul\":6574:6596   */\n      add\n        /* \"#utility.yul\":6542:6606   */\n      tag_42\n      jump\t// in\n    tag_123:\n        /* \"#utility.yul\":6532:6606   */\n      swap3\n      pop\n        /* \"#utility.yul\":6488:6616   */\n      pop\n        /* \"#utility.yul\":6676:6678   */\n      0x20\n        /* \"#utility.yul\":6665:6674   */\n      dup4\n        /* \"#utility.yul\":6661:6679   */\n      add\n        /* \"#utility.yul\":6655:6680   */\n      mload\n        /* \"#utility.yul\":6707:6725   */\n      0xffffffffffffffff\n        /* \"#utility.yul\":6699:6705   */\n      dup2\n        /* \"#utility.yul\":6696:6726   */\n      gt\n        /* \"#utility.yul\":6693:6810   */\n      iszero\n      tag_124\n      jumpi\n        /* \"#utility.yul\":6729:6808   */\n      tag_125\n      tag_24\n      jump\t// in\n    tag_125:\n        /* \"#utility.yul\":6693:6810   */\n    tag_124:\n        /* \"#utility.yul\":6834:6908   */\n      tag_126\n        /* \"#utility.yul\":6900:6907   */\n      dup6\n        /* \"#utility.yul\":6891:6897   */\n      dup3\n        /* \"#utility.yul\":6880:6889   */\n      dup7\n        /* \"#utility.yul\":6876:6898   */\n      add\n        /* \"#utility.yul\":6834:6908   */\n      tag_45\n      jump\t// in\n    tag_126:\n        /* \"#utility.yul\":6824:6908   */\n      swap2\n      pop\n        /* \"#utility.yul\":6626:6918   */\n      pop\n        /* \"#utility.yul\":6245:6925   */\n      swap3\n      pop\n      swap3\n      swap1\n      pop\n      jump\t// out\n        /* \"#utility.yul\":6931:7282   */\n    tag_21:\n        /* \"#utility.yul\":7001:7007   */\n      0x00\n        /* \"#utility.yul\":7050:7052   */\n      0x20\n        /* \"#utility.yul\":7038:7047   */\n      dup3\n        /* \"#utility.yul\":7029:7036   */\n      dup5\n        /* \"#utility.yul\":7025:7048   */\n      sub\n        /* \"#utility.yul\":7021:7053   */\n      slt\n        /* \"#utility.yul\":7018:7137   */\n      iszero\n      tag_128\n      jumpi\n        /* \"#utility.yul\":7056:7135   */\n      tag_129\n      tag_23\n      jump\t// in\n    tag_129:\n        /* \"#utility.yul\":7018:7137   */\n    tag_128:\n        /* \"#utility.yul\":7176:7177   */\n      0x00\n        /* \"#utility.yul\":7201:7265   */\n      tag_130\n        /* \"#utility.yul\":7257:7264   */\n      dup5\n        /* \"#utility.yul\":7248:7254   */\n      dup3\n        /* \"#utility.yul\":7237:7246   */\n      dup6\n        /* \"#utility.yul\":7233:7255   */\n      add\n        /* \"#utility.yul\":7201:7265   */\n      tag_42\n      jump\t// in\n    tag_130:\n        /* \"#utility.yul\":7191:7265   */\n      swap2\n      pop\n        /* \"#utility.yul\":7147:7275   */\n      pop\n        /* \"#utility.yul\":6931:7282   */\n      swap3\n      swap2\n      pop\n      pop\n      jump\t// out\n\n    auxdata: 0xa2646970667358221220be1ee98749f5dd71bf01fe3292ddc42a9d1c742a9095d81981617142f92f237e64736f6c63430008110033\n}\n",
				"bytecode": {
					"linkReferences": {},
					"object": "608060405234801561001057600080fd5b506104fc806100206000396000f3fe608060405234801561001057600080fd5b50600436106100365760003560e01c80632f6222fc1461003b5780636ff247011461006c575b600080fd5b61005560048036038101906100509190610244565b61009c565b604051610063929190610325565b60405180910390f35b61008660048036038101906100819190610244565b6100c8565b6040516100939190610355565b60405180910390f35b60006060600080848060200190518101906100b7919061043d565b915091508181935093505050915091565b600080828060200190518101906100df9190610499565b905080915050919050565b6000604051905090565b600080fd5b600080fd5b600080fd5b600080fd5b6000601f19601f8301169050919050565b7f4e487b7100000000000000000000000000000000000000000000000000000000600052604160045260246000fd5b61015182610108565b810181811067ffffffffffffffff821117156101705761016f610119565b5b80604052505050565b60006101836100ea565b905061018f8282610148565b919050565b600067ffffffffffffffff8211156101af576101ae610119565b5b6101b882610108565b9050602081019050919050565b82818337600083830152505050565b60006101e76101e284610194565b610179565b90508281526020810184848401111561020357610202610103565b5b61020e8482856101c5565b509392505050565b600082601f83011261022b5761022a6100fe565b5b813561023b8482602086016101d4565b91505092915050565b60006020828403121561025a576102596100f4565b5b600082013567ffffffffffffffff811115610278576102776100f9565b5b61028484828501610216565b91505092915050565b6000819050919050565b6102a08161028d565b82525050565b600081519050919050565b600082825260208201905092915050565b60005b838110156102e05780820151818401526020810190506102c5565b60008484015250505050565b60006102f7826102a6565b61030181856102b1565b93506103118185602086016102c2565b61031a81610108565b840191505092915050565b600060408201905061033a6000830185610297565b818103602083015261034c81846102ec565b90509392505050565b600060208201905061036a6000830184610297565b92915050565b6103798161028d565b811461038457600080fd5b50565b60008151905061039681610370565b92915050565b600067ffffffffffffffff8211156103b7576103b6610119565b5b6103c082610108565b9050602081019050919050565b60006103e06103db8461039c565b610179565b9050828152602081018484840111156103fc576103fb610103565b5b6104078482856102c2565b509392505050565b600082601f830112610424576104236100fe565b5b81516104348482602086016103cd565b91505092915050565b60008060408385031215610454576104536100f4565b5b600061046285828601610387565b925050602083015167ffffffffffffffff811115610483576104826100f9565b5b61048f8582860161040f565b9150509250929050565b6000602082840312156104af576104ae6100f4565b5b60006104bd84828501610387565b9150509291505056fea2646970667358221220be1ee98749f5dd71bf01fe3292ddc42a9d1c742a9095d81981617142f92f237e64736f6c63430008110033",
					"opcodes": "PUSH1 0x80 PUSH1 0x40 MSTORE CALLVALUE DUP1 ISZERO PUSH2 0x10 JUMPI PUSH1 0x0 DUP1 REVERT JUMPDEST POP PUSH2 0x4FC DUP1 PUSH2 0x20 PUSH1 0x0 CODECOPY PUSH1 0x0 RETURN INVALID PUSH1 0x80 PUSH1 0x40 MSTORE CALLVALUE DUP1 ISZERO PUSH2 0x10 JUMPI PUSH1 0x0 DUP1 REVERT JUMPDEST POP PUSH1 0x4 CALLDATASIZE LT PUSH2 0x36 JUMPI PUSH1 0x0 CALLDATALOAD PUSH1 0xE0 SHR DUP1 PUSH4 0x2F6222FC EQ PUSH2 0x3B JUMPI DUP1 PUSH4 0x6FF24701 EQ PUSH2 0x6C JUMPI JUMPDEST PUSH1 0x0 DUP1 REVERT JUMPDEST PUSH2 0x55 PUSH1 0x4 DUP1 CALLDATASIZE SUB DUP2 ADD SWAP1 PUSH2 0x50 SWAP2 SWAP1 PUSH2 0x244 JUMP JUMPDEST PUSH2 0x9C JUMP JUMPDEST PUSH1 0x40 MLOAD PUSH2 0x63 SWAP3 SWAP2 SWAP1 PUSH2 0x325 JUMP JUMPDEST PUSH1 0x40 MLOAD DUP1 SWAP2 SUB SWAP1 RETURN JUMPDEST PUSH2 0x86 PUSH1 0x4 DUP1 CALLDATASIZE SUB DUP2 ADD SWAP1 PUSH2 0x81 SWAP2 SWAP1 PUSH2 0x244 JUMP JUMPDEST PUSH2 0xC8 JUMP JUMPDEST PUSH1 0x40 MLOAD PUSH2 0x93 SWAP2 SWAP1 PUSH2 0x355 JUMP JUMPDEST PUSH1 0x40 MLOAD DUP1 SWAP2 SUB SWAP1 RETURN JUMPDEST PUSH1 0x0 PUSH1 0x60 PUSH1 0x0 DUP1 DUP5 DUP1 PUSH1 0x20 ADD SWAP1 MLOAD DUP2 ADD SWAP1 PUSH2 0xB7 SWAP2 SWAP1 PUSH2 0x43D JUMP JUMPDEST SWAP2 POP SWAP2 POP DUP2 DUP2 SWAP4 POP SWAP4 POP POP POP SWAP2 POP SWAP2 JUMP JUMPDEST PUSH1 0x0 DUP1 DUP3 DUP1 PUSH1 0x20 ADD SWAP1 MLOAD DUP2 ADD SWAP1 PUSH2 0xDF SWAP2 SWAP1 PUSH2 0x499 JUMP JUMPDEST SWAP1 POP DUP1 SWAP2 POP POP SWAP2 SWAP1 POP JUMP JUMPDEST PUSH1 0x0 PUSH1 0x40 MLOAD SWAP1 POP SWAP1 JUMP JUMPDEST PUSH1 0x0 DUP1 REVERT JUMPDEST PUSH1 0x0 DUP1 REVERT JUMPDEST PUSH1 0x0 DUP1 REVERT JUMPDEST PUSH1 0x0 DUP1 REVERT JUMPDEST PUSH1 0x0 PUSH1 0x1F NOT PUSH1 0x1F DUP4 ADD AND SWAP1 POP SWAP2 SWAP1 POP JUMP JUMPDEST PUSH32 0x4E487B7100000000000000000000000000000000000000000000000000000000 PUSH1 0x0 MSTORE PUSH1 0x41 PUSH1 0x4 MSTORE PUSH1 0x24 PUSH1 0x0 REVERT JUMPDEST PUSH2 0x151 DUP3 PUSH2 0x108 JUMP JUMPDEST DUP2 ADD DUP2 DUP2 LT PUSH8 0xFFFFFFFFFFFFFFFF DUP3 GT OR ISZERO PUSH2 0x170 JUMPI PUSH2 0x16F PUSH2 0x119 JUMP JUMPDEST JUMPDEST DUP1 PUSH1 0x40 MSTORE POP POP POP JUMP JUMPDEST PUSH1 0x0 PUSH2 0x183 PUSH2 0xEA JUMP JUMPDEST SWAP1 POP PUSH2 0x18F DUP3 DUP3 PUSH2 0x148 JUMP JUMPDEST SWAP2 SWAP1 POP JUMP JUMPDEST PUSH1 0x0 PUSH8 0xFFFFFFFFFFFFFFFF DUP3 GT ISZERO PUSH2 0x1AF JUMPI PUSH2 0x1AE PUSH2 0x119 JUMP JUMPDEST JUMPDEST PUSH2 0x1B8 DUP3 PUSH2 0x108 JUMP JUMPDEST SWAP1 POP PUSH1 0x20 DUP2 ADD SWAP1 POP SWAP2 SWAP1 POP JUMP JUMPDEST DUP3 DUP2 DUP4 CALLDATACOPY PUSH1 0x0 DUP4 DUP4 ADD MSTORE POP POP POP JUMP JUMPDEST PUSH1 0x0 PUSH2 0x1E7 PUSH2 0x1E2 DUP5 PUSH2 0x194 JUMP JUMPDEST PUSH2 0x179 JUMP JUMPDEST SWAP1 POP DUP3 DUP2 MSTORE PUSH1 0x20 DUP2 ADD DUP5 DUP5 DUP5 ADD GT ISZERO PUSH2 0x203 JUMPI PUSH2 0x202 PUSH2 0x103 JUMP JUMPDEST JUMPDEST PUSH2 0x20E DUP5 DUP3 DUP6 PUSH2 0x1C5 JUMP JUMPDEST POP SWAP4 SWAP3 POP POP POP JUMP JUMPDEST PUSH1 0x0 DUP3 PUSH1 0x1F DUP4 ADD SLT PUSH2 0x22B JUMPI PUSH2 0x22A PUSH2 0xFE JUMP JUMPDEST JUMPDEST DUP2 CALLDATALOAD PUSH2 0x23B DUP5 DUP3 PUSH1 0x20 DUP7 ADD PUSH2 0x1D4 JUMP JUMPDEST SWAP2 POP POP SWAP3 SWAP2 POP POP JUMP JUMPDEST PUSH1 0x0 PUSH1 0x20 DUP3 DUP5 SUB SLT ISZERO PUSH2 0x25A JUMPI PUSH2 0x259 PUSH2 0xF4 JUMP JUMPDEST JUMPDEST PUSH1 0x0 DUP3 ADD CALLDATALOAD PUSH8 0xFFFFFFFFFFFFFFFF DUP2 GT ISZERO PUSH2 0x278 JUMPI PUSH2 0x277 PUSH2 0xF9 JUMP JUMPDEST JUMPDEST PUSH2 0x284 DUP5 DUP3 DUP6 ADD PUSH2 0x216 JUMP JUMPDEST SWAP2 POP POP SWAP3 SWAP2 POP POP JUMP JUMPDEST PUSH1 0x0 DUP2 SWAP1 POP SWAP2 SWAP1 POP JUMP JUMPDEST PUSH2 0x2A0 DUP2 PUSH2 0x28D JUMP JUMPDEST DUP3 MSTORE POP POP JUMP JUMPDEST PUSH1 0x0 DUP2 MLOAD SWAP1 POP SWAP2 SWAP1 POP JUMP JUMPDEST PUSH1 0x0 DUP3 DUP3 MSTORE PUSH1 0x20 DUP3 ADD SWAP1 POP SWAP3 SWAP2 POP POP JUMP JUMPDEST PUSH1 0x0 JUMPDEST DUP4 DUP2 LT ISZERO PUSH2 0x2E0 JUMPI DUP1 DUP3 ADD MLOAD DUP2 DUP5 ADD MSTORE PUSH1 0x20 DUP2 ADD SWAP1 POP PUSH2 0x2C5 JUMP JUMPDEST PUSH1 0x0 DUP5 DUP5 ADD MSTORE POP POP POP POP JUMP JUMPDEST PUSH1 0x0 PUSH2 0x2F7 DUP3 PUSH2 0x2A6 JUMP JUMPDEST PUSH2 0x301 DUP2 DUP6 PUSH2 0x2B1 JUMP JUMPDEST SWAP4 POP PUSH2 0x311 DUP2 DUP6 PUSH1 0x20 DUP7 ADD PUSH2 0x2C2 JUMP JUMPDEST PUSH2 0x31A DUP2 PUSH2 0x108 JUMP JUMPDEST DUP5 ADD SWAP2 POP POP SWAP3 SWAP2 POP POP JUMP JUMPDEST PUSH1 0x0 PUSH1 0x40 DUP3 ADD SWAP1 POP PUSH2 0x33A PUSH1 0x0 DUP4 ADD DUP6 PUSH2 0x297 JUMP JUMPDEST DUP2 DUP2 SUB PUSH1 0x20 DUP4 ADD MSTORE PUSH2 0x34C DUP2 DUP5 PUSH2 0x2EC JUMP JUMPDEST SWAP1 POP SWAP4 SWAP3 POP POP POP JUMP JUMPDEST PUSH1 0x0 PUSH1 0x20 DUP3 ADD SWAP1 POP PUSH2 0x36A PUSH1 0x0 DUP4 ADD DUP5 PUSH2 0x297 JUMP JUMPDEST SWAP3 SWAP2 POP POP JUMP JUMPDEST PUSH2 0x379 DUP2 PUSH2 0x28D JUMP JUMPDEST DUP2 EQ PUSH2 0x384 JUMPI PUSH1 0x0 DUP1 REVERT JUMPDEST POP JUMP JUMPDEST PUSH1 0x0 DUP2 MLOAD SWAP1 POP PUSH2 0x396 DUP2 PUSH2 0x370 JUMP JUMPDEST SWAP3 SWAP2 POP POP JUMP JUMPDEST PUSH1 0x0 PUSH8 0xFFFFFFFFFFFFFFFF DUP3 GT ISZERO PUSH2 0x3B7 JUMPI PUSH2 0x3B6 PUSH2 0x119 JUMP JUMPDEST JUMPDEST PUSH2 0x3C0 DUP3 PUSH2 0x108 JUMP JUMPDEST SWAP1 POP PUSH1 0x20 DUP2 ADD SWAP1 POP SWAP2 SWAP1 POP JUMP JUMPDEST PUSH1 0x0 PUSH2 0x3E0 PUSH2 0x3DB DUP5 PUSH2 0x39C JUMP JUMPDEST PUSH2 0x179 JUMP JUMPDEST SWAP1 POP DUP3 DUP2 MSTORE PUSH1 0x20 DUP2 ADD DUP5 DUP5 DUP5 ADD GT ISZERO PUSH2 0x3FC JUMPI PUSH2 0x3FB PUSH2 0x103 JUMP JUMPDEST JUMPDEST PUSH2 0x407 DUP5 DUP3 DUP6 PUSH2 0x2C2 JUMP JUMPDEST POP SWAP4 SWAP3 POP POP POP JUMP JUMPDEST PUSH1 0x0 DUP3 PUSH1 0x1F DUP4 ADD SLT PUSH2 0x424 JUMPI PUSH2 0x423 PUSH2 0xFE JUMP JUMPDEST JUMPDEST DUP2 MLOAD PUSH2 0x434 DUP5 DUP3 PUSH1 0x20 DUP7 ADD PUSH2 0x3CD JUMP JUMPDEST SWAP2 POP POP SWAP3 SWAP2 POP POP JUMP JUMPDEST PUSH1 0x0 DUP1 PUSH1 0x40 DUP4 DUP6 SUB SLT ISZERO PUSH2 0x454 JUMPI PUSH2 0x453 PUSH2 0xF4 JUMP JUMPDEST JUMPDEST PUSH1 0x0 PUSH2 0x462 DUP6 DUP3 DUP7 ADD PUSH2 0x387 JUMP JUMPDEST SWAP3 POP POP PUSH1 0x20 DUP4 ADD MLOAD PUSH8 0xFFFFFFFFFFFFFFFF DUP2 GT ISZERO PUSH2 0x483 JUMPI PUSH2 0x482 PUSH2 0xF9 JUMP JUMPDEST JUMPDEST PUSH2 0x48F DUP6 DUP3 DUP7 ADD PUSH2 0x40F JUMP JUMPDEST SWAP2 POP POP SWAP3 POP SWAP3 SWAP1 POP JUMP JUMPDEST PUSH1 0x0 PUSH1 0x20 DUP3 DUP5 SUB SLT ISZERO PUSH2 0x4AF JUMPI PUSH2 0x4AE PUSH2 0xF4 JUMP JUMPDEST JUMPDEST PUSH1 0x0 PUSH2 0x4BD DUP5 DUP3 DUP6 ADD PUSH2 0x387 JUMP JUMPDEST SWAP2 POP POP SWAP3 SWAP2 POP POP JUMP INVALID LOG2 PUSH5 0x6970667358 0x22 SLT KECCAK256 0xBE 0x1E 0xE9 DUP8 0x49 CREATE2 0xDD PUSH18 0xBF01FE3292DDC42A9D1C742A9095D8198161 PUSH18 0x42F92F237E64736F6C634300081100330000 "
				},
				"gasEstimates": {
					"creation": {
						"codeDepositCost": "255200",
						"executionCost": "294",
						"totalCost": "255494"
					},
					"external": {
						"decodeMultiple(bytes)": "infinite",
						"decodeUint(bytes)": "infinite"
					}
				},
				"methodIdentifiers": {
					"decodeMultiple(bytes)": "2f6222fc",
					"decodeUint(bytes)": "6ff24701"
				}
			},
			"storageLayout": {
				"storage": [],
				"types": null
			},
			"userdoc": {
				"kind": "user",
				"methods": {},
				"version": 1
			}
		}
	}
}